:020000040800F2
:10000000000400209101000893010008010F00087E
:100010009301000893010008930100089301000870
:10002000930100089301000893010008F1310008D2
:100030009301000893010008930100089301000850
:100040009301000893010008930100089301000840
:100050009301000893010008110F0008610F0008C8
:10006000B10F00080110000851100008D134000839
:10007000F134000811350008313500085135000809
:1000800071350008913500089301000893010008BC
:10009000930100089301000893010008A1100008D3
:1000A00093010008930100089301000893010008E0
:1000B000E12700089301000893010008930100085C
:1000C000930100089301000893010008111400082F
:1000D00051140008930100089301000893010008DF
:1000E000F110000893010008930100089301000833
:1000F0009301000893010008930100089301000890
:10010000930100089301000893010008930100087F
:10011000930100089301000893010008930100086F
:10012000930100089301000893010008930100085F
:10013000930100089301000893010008930100084F
:080140007501000821240008EC
:040148005101000859
:1001500010B5054C237833B9044B13B10448AFF301
:1001600000800123237010BD000800200000000063
:10017000003B000808B5034B1BB103490348AFF32C
:10018000008008BD0000000004080020003B0008BB
:1001900026E000F000F8FEE700000000000000008C
:1001A0002DE9F04FC1F80CD0C3689D46BDE8F08F33
:1001B00002F09EFB002383F311882846A04700200D
:1001C00002F01EFF02F084FB02F06AFD02F090FBD9
:1001D00000DFFEE70000000000000000000000005B
:1001E00072B6274880F30888264880F30988264895
:1001F0004EF60851CEF200010860022080F3148808
:10020000BFF36F8F03F02CF803F032F84FF0553046
:100210001E491B4A91423CBF41F8040BFAE71C49B6
:10022000184A91423CBF41F8040BFAE719491A4AAF
:100230001A4B9A423EBF51F8040B42F8040BF8E700
:1002400000201749174A91423CBF41F8040BFAE7D6
:1002500003F026F803F014F8134C144DAC4203DA03
:1002600054F8041B8847F9E701F0BAFF104C114D10
:10027000AC4203DA54F8041B8847F9E703F008B8E6
:1002800000040020000800200000000800000020FA
:1002900000040020003B00080008002000080020A7
:1002A00000080020800F00204001000848010008DD
:1002B000480100084C010008000000000000000098
:1002C00053B94AB9002908BF00281CBF4FF0FF31BD
:1002D0004FF0FF3000F07CB9ADF1080C6DE904CEB1
:1002E00000F006F8DDF804E0DDE9022304B0704711
:1002F0002DE9F047089E0D4604468846002B4DD157
:100300008A42944668D9B2FA82F252B101FA02F3F3
:10031000C2F1200120FA01F10CFA02FC41EA0308C3
:1003200094404FEA1C41B8FBF1F71FFA8CFE01FB29
:10033000178807FB0EF0230C43EA084398420AD9BA
:100340001CEB030307F1FF3580F01E81984240F259
:100350001B81023F63441B1AB3FBF1F001FB103316
:1003600000FB0EFEA4B244EA0344A6450AD91CEBE6
:10037000040400F1FF3380F00981A64540F20681B4
:10038000644402380021A4EB0E0440EA07401EB189
:100390000023D440C6E90043BDE8F0878B4208D96A
:1003A000002E00F0EE800021C6E900050846BDE8F9
:1003B000F087B3FA83F100294AD1AB4202D38242DB
:1003C00000F2FC80841A65EB030301209846002E9E
:1003D000E2D0C6E90048DFE702B9FFDEB2FA82F2F6
:1003E000002A40F09180A1EB0C0001214FEA1C474C
:1003F0001FFA8CFEB0FBF7F307FB1300250C45EA50
:1004000000450EFB03F0A84208D91CEB050503F1DB
:10041000FF3802D2A84200F2CE8043462D1AB5FB27
:10042000F7F007FB10550EFB00FEA4B244EA0544AA
:10043000A64508D91CEB040400F1FF3502D2A645FD
:1004400000F2B6802846A4EB0E0440EA03409EE783
:10045000C1F120078B4022FA07FC4CEA030C25FA75
:1004600007FA4FEA1C49BAFBF9F820FA07F309FB2F
:1004700018AA8D401FFA8CFE1D4300FA01F308FBF9
:100480000EF02C0C44EA0A44A04202FA01F20BD905
:100490001CEB040408F1FF3A80F08880A04240F28F
:1004A0008580A8F102086444241AB4FBF9F009FB22
:1004B000104400FB0EFEADB245EA0444A64508D93F
:1004C0001CEB040400F1FF356CD2A6456AD9023852
:1004D000644440EA0840A0FB0295A4EB0E04AC4241
:1004E000C846AE4656D353D0002E69D0B3EB0802AF
:1004F00064EB0E0422FA01F304FA07F71F43CC4021
:10050000C6E90074002147E70CFA02FCC2F12001A1
:1005100025FA01F34FEA1C4720FA01F195400D43FB
:10052000B3FBF7F107FB11331FFA8CFE280C40EAEE
:10053000034001FB0EF3834204FA02F408D91CEBDA
:10054000000001F1FF382FD283422DD902396044D7
:10055000C01AB0FBF7F307FB1300ADB245EA004544
:1005600003FB0EF0A84208D91CEB050503F1FF3888
:1005700016D2A84214D9023B6544281A43EA014125
:1005800038E73146304607E72F46E4E61846F9E6F5
:100590004B45A9D2B9EB020865EB0C0E0138A3E775
:1005A0004346EAE7284694E74146D1E7D0467BE751
:1005B0006444023847E7023B65442FE7084606E7F4
:1005C0003146E9E6000000000000000000000000E5
:1005D000704700BF000000000000000000000000A5
:1005E000816A09B1836A1847243002F039BD0000DE
:1005F000104B984205D1104AD36943F00103D361EF
:1006000070470E4B984204D10B4AD36943F0020362
:10061000F5E70B4B984204D1074AD36943F0040332
:10062000EDE7084B9842EBD1034AD36943F0080346
:10063000E5E700BF0000024000380240000402402D
:1006400000080240000C0240000000000000000012
:1006500070B515460226FFF7CBFF032204464B0078
:100660009A4006FA03F3012600688E4020EA020051
:1006700020602068072940EA03002060606820EAC3
:1006800006006060E06820EA0200E060E068E06088
:10069000A06820EA0202A260A26843EA02038ABFBD
:1006A000A1F108028A00920007298CBF04200020D3
:1006B0000F21A3600444236A914023EA01032362CB
:1006C000236A95401D43256270BD000000000000B4
:1006D0000368197303689A68D207FCD5187B7047C2
:1006E0000123428A81689340034A0869184002D076
:1006F000013AFAD101207047B882010000000000E1
:100700000123C18AC2688B409361704700000000DA
:10071000C38AC16803F11002012393408B617047C3
:100720000148FFF75DBF00BF78090020000000000E
:100730002DE9F04104460F461646FFF7E9FF204633
:10074000FFF7CEFF054630B12046FFF7D9FF012560
:100750002846BDE8F08104F1040847F080014046D6
:10076000FFF7B6FF00F0700084F8200029464046ED
:10077000FFF7AEFF30702046FFF7C2FFE8E700004A
:100780002DE9F04104460F461646FFF7C1FF20460B
:10079000FFF7A6FF054630B12046FFF7B1FF012560
:1007A0002846BDE8F08104F1040839464046FFF7C9
:1007B0008FFF31464046FFF78BFF2046FFF7A0FF33
:1007C000EEE7000000000000000000000000000054
:1007D00070B504460E46FFF79BFF2046FFF780FFEB
:1007E000054628B12046FFF78BFF0125284670BD3E
:1007F0003146201DFFF76CFF84F820002046FFF7EC
:100800007FFF94F8203003F0700384F82030EDE788
:100810003621FFF7DDBF00000000000000000000EF
:10082000F8B505460E4695F820401CB12846FFF75E
:10083000EFFFF8E7771C17F8142016F81410284675
:100840000134FFF79DFF142CF5D1F8BD0000000026
:1008500038B504460D4694F820301BB12046FFF70A
:10086000D7FFF8E72A462046BDE838400A21FFF7BF
:1008700087BF000000000000000000000000000032
:100880003521FFF7A5BF00000000000000000000B8
:100890002DE9FF414268AB4B04469A4200F0838049
:1008A000A3F578439A420CBF4FF005084FF00608B5
:1008B00003250126E18AE068FFF79AFE4B000268F3
:1008C000DBB205FA03F722EA07020260D0F800C0A3
:1008D00006FA03F242EA0C020260D0F804C006FAFB
:1008E00001F22CEA020242604268218A4260C26838
:1008F00022EA0702C260C268C260826822EA070276
:1009000002278260826807FA03F31343836042463A
:10091000A068FFF79DFE4246618AA068FFF798FE37
:100920004246A18AA068FFF793FEA18BA06901FA55
:1009300006F3D9B294F81E80FFF75AFE026805FA52
:1009400001FC22EA0C020260C36808FA01F123EA02
:100950000C034FF00F0CC360C36819437A4BC1609E
:100960001A6A32431A62DA6A22F00102DA62A28B50
:10097000DB6A02F47F7303F1804303F5803302EAFC
:1009800005019868B9400CFA01FC20EA0C00986057
:10099000DFF8B8C1A069604508D1986806FA01F18E
:1009A0000143996009E04FF0050881E7684EB042C5
:1009B00039D198688F4007439F600127654B07FA3C
:1009C00002F21968204611431960596821EA0201B0
:1009D0005960996821EA02019960D9681143D96088
:1009E0005A61FFF78DFE00235B4A1946CDE90023CB
:1009F000201D1A4600F09CFC6268302113682046D6
:100A000043F040031360FFF7E3FE10B362685348FE
:100A1000136823F04003136000F07AFE3D46284639
:100A200004B0BDE8F0814E4EB04203D1986805FA9B
:100A300001F1B5E74B4DA84205D104209D6800FAAD
:100A400001F12943ADE7484DA842B6D107209D6882
:100A5000F5E7072206212046FFF792FE08B143483A
:100A6000DAE78DF80F00062120460DF10F02FFF79F
:100A70005FFE054640B99DF80F60072E06D031464F
:100A80003B4800F045FEC9E73A48C5E73A21204611
:100A9000FFF79EFE20220D212046FFF771FE252242
:100AA0000E212046FFF76CFEED220F212046FFF7B6
:100AB00067FEA32213212046FFF762FEFF221421C6
:100AC0002046FFF75DFE082218212046FFF758FE5A
:100AD000324603212046FFF753FE3F222946204697
:100AE000FFF74EFE062202212046FFF749FE0C22A8
:100AF00031462046FFF744FE442208212046FFF7F6
:100B00003FFE50223E212046FFF73AFE3246162194
:100B10002046FFF735FE302217212046FFF730FE32
:100B2000A08B09280AD804280AD8063080B20721E9
:100B300001F0A6FE104800F0EBFD70E72820F6E774
:100B40001720F4E700300140003802400004024062
:100B50000008024000040140A02E6300F0350008A8
:100B6000000C02400010024000140240FD35000855
:100B7000083600081D36000828360008000000006E
:100B80002DE9F04104460D461746FFF7C1FD20460A
:100B9000FFF7A6FD064630B12046FFF7B1FD01265E
:100BA0003046BDE8F08104F104087F214046FFF79C
:100BB0008FFD2F44AF4205D0404615F8011BFFF7CB
:100BC00087FDF7E72046FFF79BFDE9E700000000FF
:100BD000F8B504460D461646FFF752FE202383F370
:100BE0001188002701F074FE324629462046A7628C
:100BF000FFF7C6FF324629462046FFF7C1FF04F142
:100C0000240002F01DFA01F073FE87F31188F8BD8D
:100C1000202383F3118801F083BE00000000000050
:100C200008B501F095FE002383F3118808BD00008C
:100C300010B50446FFF7ECFF236820461B68984771
:100C4000BDE81040FFF7ECBF00000000000000000E
:100C50000368B3F1804F0BD103F50E335A6A42F0AB
:100C600001025A621A6B22F001021A631B6B704771
:100C70002A4A934208D12A4B5A6A42F002025A6227
:100C80001A6B22F00202F0E7264A934208D1244B65
:100C90005A6A42F004025A621A6B22F00402E4E734
:100CA000214A934208D11E4B5A6A42F010025A62FE
:100CB0001A6B22F01002D8E71C4A934208D1184B55
:100CC0005A6A42F020025A621A6B22F02002CCE7E4
:100CD000174A93420AD1124B1A6A42F004021A626E
:100CE000DA6A22F00402DA62DB6A7047114A934240
:100CF00008D10B4B1A6A42F008021A62DA6A22F033
:100D00000802F0E70C4A9342EFD1054B1A6A42F011
:100D100010021A62DA6A22F01002E4E700040040CE
:100D2000003802400008004000100040001400405D
:100D300000080140000C01400010014000000000CC
:100D4000F8B5FFF785FF036801461A6842F0800294
:100D50001A608269DA62027D0069012A00F1FF30BF
:100D60000CBF0722062203280BD8DFE800F0026B35
:100D7000737B986940EA02129A611A6A42F0010292
:100D80001A621A6842F001021A60494A934271D00D
:100D900002F5806293426DD002F5803293426BD0AF
:100DA00002F58062934267D002F58062934214BFDD
:100DB000012203224B6808894F7D3E498B425DD159
:100DC0003D4CE16941F00101E161032419684600ED
:100DD000B440E54321EA04041C6002241968B440CD
:100DE0000C4301211C605C688140002F5ED124EA25
:100DF00001015960D968072801EA0501D960D9685D
:100E0000D960996805EA01054FF002019D609C6870
:100E100001FA06F141EA040199608ABFA0F10801D4
:100E20008100890007288CBF042000200F24034480
:100E3000186A8C4020EA04001862186A8A4002434B
:100E40001A62F8BD986940EA02329A611A6A42F061
:100E5000100295E7D86940EA0212DA611A6A42F490
:100E600080728DE7D86940EA0232DA611A6A42F488
:100E7000805285E702229DE703229BE70F498B42C0
:100E800004D10D4CE16941F002019DE70C498B4210
:100E900004D1094CE16941F0040195E709498B420D
:100EA00093D1054CE16941F008018DE72143A0E7AA
:100EB00000040040000002400038024000040240EC
:100EC00000080240000C024000000000000000008A
:100ED000074B01385A6922F080025A6110F8012F3D
:100EE00022B119680906FCD55A60F7E7704700BFC0
:100EF0000038014000000000000000000000000079
:100F000008B50248FFF7E4FF01BEFEE750360008CF
:100F100008B501F035FDFFF77BFE0A4B1B685BB19E
:100F200098470122084B5A61FFF77AFE01F040FD15
:100F3000BDE8084002F06CB90449054800F008FC1F
:100F4000EFE700BF280800200004014060360008D9
:100F500069360008000000000000000000000000EA
:100F600008B501F00DFDFFF753FE0A4B5B685BB15E
:100F700098470222084B5A61FFF752FE01F018FD14
:100F8000BDE8084002F044B90449054800F0E0FB20
:100F9000EFE700BF28080020000401408036000869
:100FA000693600080000000000000000000000009A
:100FB00008B501F0E5FCFFF72BFE0A4B9B685BB11F
:100FC00098470422084B5A61FFF72AFE01F0F0FC13
:100FD000BDE8084002F01CB90449054800F0B8FB20
:100FE000EFE700BF28080020000401409036000809
:100FF000693600080000000000000000000000004A
:1010000008B501F0BDFCFFF703FE0A4BDB685BB1DE
:1010100098470822084B5A61FFF702FE01F0C8FC0E
:10102000BDE8084002F0F4B80449054800F090FB20
:10103000EFE700BF2808002000040140A0360008A8
:1010400069360008000000000000000000000000F9
:1010500008B501F095FCFFF7DBFD0A4B1B695BB19E
:1010600098471022084B5A61FFF7DAFD01F0A0FC07
:10107000BDE8084002F0CCB80449054800F068FB20
:10108000EFE700BF2808002000040140B036000848
:1010900069360008000000000000000000000000A9
:1010A00008B501F06DFCFFF7B3FD0A4B1B6863B197
:1010B00098474FF47872084B5A61FFF7B1FD01F081
:1010C00077FCBDE8084002F0A3B80449044800F0EA
:1010D0003FFBEEE74008002000040140C036000856
:1010E0006936000800000000000000000000000059
:1010F00008B501F045FCFFF78BFD0A4B1B6863B197
:1011000098474FF47C42084B5A61FFF789FD01F084
:101110004FFCBDE8084002F07BB80449044800F0E9
:1011200017FBEEE73C08002000040140D036000821
:101130006936000800000000000000000000000008
:101140000023F0B593B0024611934FF480304FF472
:1011500000334FF48024CDE90A03364B364DCDE9F8
:101160000C43364B364CCDE90E53364B6168206844
:10117000109303AB03C3217A06AD1970324B1F469F
:1011800003F110062C4618685968083303C4B342AB
:101190002546F7D13869716801AB03C32B488368D2
:1011A000C3F38103022B40D0032B28D0012B3ED068
:1011B000436812A9C3F3423301EB830353F8203C85
:1011C000224CA168C1F303114831694411F8301C65
:1011D000CB401360A068A168C0F30220C1F3C22114
:1011E000483048316844694410F8440C11F8441CF4
:1011F00023FA00F0CB405060936013B0F0BD8368D9
:101200008168C3F3834348336B4413F83C4C8368D1
:101210000F4813F4803F0F4B18BF03466343C1F3DD
:1012200081510131B3FBF1F3CAE7094BC8E7094B20
:10123000C6E700BF9CFF0700C0FD0F0068FF1F004E
:10124000E0360008D0FE3F00D035000800380240EC
:10125000001BB7000024F4000000000000000000A4
:101260000B4B0C4A99420C4B06D00C48814203D0E0
:1012700000F58060814206D19268986812F4005FA0
:1012800018BF400070479268586812F4806FF7E703
:1012900000080140003802401C080020000C0140FA
:1012A00038B505460C4601680848FFF7D9FF2B689A
:1012B000DA6A0132B0FBF2F0B0FBF4F2A04228BFD0
:1012C00002F1FF329A6200225A6238BD1C080020E7
:1012D00006480749836805C8B3FBF1F3B2FBF1F296
:1012E000B0FBF1F1034800F013BA00BF1C08002066
:1012F00040420F00F036000800000000000000002F
:101300004FF08052074B5A62074A5368D906FCD403
:10131000136823F4C05343EAC02010605368DB060F
:10132000FCD470470038024000700040000000000C
:1013300070B50068324D049CA84246D105F584354D
:101340002E6A46F480562E62EE6A26F48056EE62CD
:10135000ED6A4FF441750129056002BF016841F053
:1013600080010160012A02BF026842F002020260AD
:10137000012B02BF036843F001030360204B984236
:10138000204B0CBF9B685B68B3FBF4F3802B2BDC1A
:10139000402B2BDC202B2BDC102B2BDC082B2BDC0D
:1013A000042B2BDC022BD4BF00230123026842EA6A
:1013B000C30303609DF81430012B02BF036843F49C
:1013C000006303600023436070BD0F4DA842C0D18D
:1013D00005F500356E6A46F480466E622E6B26F483
:1013E00080462E632D6BB4E70723DFE70623DDE796
:1013F0000523DBE70423D9E70323D7E70223D5E757
:10140000003001401C0800200038004000000000AF
:1014100008B501F0B5FAFFF7FBFB084B9B68DB074B
:1014200003D5074B1B6803B19847FFF7F9FB01F0A1
:10143000BFFABDE8084001F0EBBE00BF003001403C
:101440004408002000000000000000000000000030
:1014500008B501F095FAFFF7DBFB084B9B68DB074B
:1014600003D5074B1B6803B19847FFF7D9FB01F081
:101470009FFABDE8084001F0CBBE00BF0038004035
:1014800048080020000000000000000000000000EC
:1014900038B504460D4601F0A3FAD4F8AC30002B61
:1014A0001CDD01F09DFAD4F8AC302968013BC4F88A
:1014B000AC30D4F8943004F1980003F10802C4F879
:1014C000942019606968596004F190039A4228BF1A
:1014D000C4F8944001F0FCFB002038BD0220FCE77A
:1014E00070B508B9106868B103460E46184613F87F
:1014F000014B16F8015B15B1AC42FAD1F5E72CB9F6
:101500002046146070BD23460CE015B90E4613F852
:10151000014B16F8015BAC42F7D1002CF3D000214F
:1015200003F8011C1360EDE700000000000000005C
:101530002DE9F04385B0984601AB064600250846E4
:101540001F469DF83090B0FBF2F4844602FB140174
:1015500020460929CCB294BF30343734E4B29445E4
:1015600005F1010503F8014BEDD22C4633684445E3
:101570001B680BD249463046984718B10C2005B07D
:10158000BDE8F0830134F1E7002DF8D03368013D68
:1015900030461B68795D98470028F5D0EEE70000DB
:1015A0002DE9F04F0B46054614464FF00A0B85B067
:1015B0001E4616F8011B31B928462B685B6805B03A
:1015C000BDE8F04F1847252902D02B681B6864E05E
:1015D0005F784FF00008302F14BF20279E1C16F8AC
:1015E000011BA1F13000C0B2092804D92A2905D174
:1015F00054F8040BC0B20BFB0808F0E72E2909D100
:1016000016F8011BA1F13003092BF9D92A2901D1C0
:101610000434F5E763293BD015D841294ED003D8CF
:101620002529D2D03346C3E7532939D05829F9D1D7
:10163000434610220097284654F8041BFFF778FF12
:101640000028EFD0B8E773292AD01BD8642901D02D
:101650006929E7D1A14659F8044B002C07DA2B6819
:101660002D2128461B6898470028A5D1644243468F
:101670000A22214628460097FFF75AFF00289BD1EF
:101680004C46CFE77529CDD143460A220097D2E7D1
:101690002B6854F8041B1B68C9B228469847CFE74B
:1016A0002768013F17F8011F09B90434BAE72B680E
:1016B00028461B6898470028F4D07DE70027D4E926
:1016C000019823685FFA88FA03934F4501DB0C34D5
:1016D000A8E76FB9039B1022D95D302328460093F9
:1016E0000223FFF725FF00287FF466AF0137ECE700
:1016F000B8F1000FEED02B68514628461B6898477A
:101700000028E7D058E700000000000000000000BB
:101710000FB413B504AB53F8044B0193202383F3A8
:10172000118801F0D5F82146019A0648FFF738FFE5
:1017300001F0DEF8002383F3118802B0BDE8104009
:1017400004B07047A00C0020000000000000000062
:101750000FB407B504AA52F8041B04480192FFF71E
:101760001FFF03B05DF804EB04B07047A00C00202D
:1017700070470000000000000000000000000000B2
:1017800008B5064C40F2DE3001F04AFC2068002823
:10179000F8D003685B689847F4E700BF7009002041
:1017A0000EB403B503AA52F8041B00F5D8700192D9
:1017B000FFF7F6FE02B05DF804EB03B07047A0F54A
:1017C000DA70EDE7000000000000000000000000FB
:1017D000F0B51746314A904246D1314CE26942F0A9
:1017E0000102E261032402684D00AC40E64322EAB4
:1017F0000404046002240268AC4014430460012421
:1018000042688C40002F47D122EA04044460C26839
:10181000072902EA0602C260C46803FA05F242EA36
:101820000402C260836806EA03064FF00203866082
:10183000826803FA05F343EA0203836086BFA1F1DD
:1018400008039A008A0007298CBF042300230F2174
:101850001844036A914023EA010303620723016AE3
:1018600093400B430362F0BD0E4A904204D10C4CEE
:10187000E26942F00202B4E70B4A904204D1084CFC
:10188000E26942F00402ACE7084A9042AAD1044C53
:10189000E26942F00802A4E71443B7E700000240FF
:1018A000003802400004024000080240000C0240E0
:1018B000D0F81021D0F81C1100F588739B1A8B42C8
:1018C00028BF0B46C0F820317BB1002380F81831C7
:1018D00043685B68DA60D0F820215A60C268126AF7
:1018E0001A601A6842F001021A6070470000000096
:1018F000436859680A6822F00F020A60597B1A6827
:101900000E238B405360D0F81021D0E947310A44B0
:101910005B1A00F588718A4228BF00F11002C0F8F6
:101920001C31C0F810212BB9012380F8183103684D
:101930001B681847FFF7BCBF000000000000000054
:10194000FFF7D6BF0000000000000000000000000C
:10195000D0F81C31FF2B16D8D0F814315A1CC0F81F
:1019600014211970D0F8142100F588739A4224BF0D
:1019700000F11003C0F81431D0F81C310133C0F865
:101980001C31002070470C20704700000000000050
:10199000FFF7DEBFA0F5D870FAE7000000000000F6
:1019A00090F818310BB1FFF783BF704700000000BB
:1019B000FFF7F6BFA0F5D870FAE7000000000000BE
:1019C0008368D0F828215B685B68C3F180039B1AA9
:1019D00048BF803383B1531CC0F82831024492F8C9
:1019E0002C310B70D0F828317F2B4FF0000301DD34
:1019F000C0F82831184670470B20704700000000DF
:101A0000F0B590F8AC31044685B0002B7AD00026B2
:101A10003D4F4FF0804520460DF10701FFF7D0FF05
:101A200000286FD194F840329DF8072043B9B4F8EC
:101A300042126B6A5B1A40F2DE319BB28B4203D9D1
:101A400084F84062C4F83C626B6A082AA4F8423207
:101A5000D4F83C3205D1002BDDD0013BC4F83C3238
:101A6000D9E70D2A01D00A2A27D1002BD3D023444D
:101A700083F8B861394604F50E7204F5DC70FFF79F
:101A80002FFD0123C4F8440284F840328DF80D3054
:101A900084F8AC61202383F311881C4D00F018FFFB
:101AA00000F09EFFD5F8AC30002B0FDC01F0E0F821
:101AB00000F01EFF86F31188ABE77E2BABD8591CD4
:101AC0002344C4F83C1283F8B821A4E700F088FF4F
:101AD000D5F8AC3004F5DA71013BC5F8AC30D5F877
:101AE00094300B4803F10802C5F89420196003995B
:101AF000596005F190039A4228BFC5F8945001F04F
:101B0000E7F8D3E705B0F0BD20370008A8090020AA
:101B1000400A00200000000000000000000000005B
:101B2000C268D2E90013054A9342054A0CBF926885
:101B30005268B2FBF1F29A60704700BF0038014072
:101B40001C08002000000000000000000000000051
:101B5000002373B50446C0681A4681898068FFF780
:101B600037FEE3683B4A5B68934258D13A4B1A6AA6
:101B700042F480421A62DA6A22F48042DA62DB6A54
:101B800000262046FFF7CCFFE06809214368334A6E
:101B90001E618069234601F063FCE56843686A685A
:101BA0006060111D9960296A2869196001230C2160
:101BB00084F81831D160C02151611A46A98AFFF713
:101BC00007FEE068334632460921C06901F048FC4F
:101BD000E16843684A68A060101D986004F596703B
:101BE000D8608020496A58601960196841F0010185
:101BF0001960D36843F40053D360194B1A6802B9D3
:101C00001C60184C236843B9009380224FF49071F4
:101C1000154B164801F0ACF9206002B070BD144AB3
:101C200093420AD10C4B5A6A42F400325A621A6B40
:101C300022F400321A631B6BA2E70E4A93429FD133
:101C4000054B5A6A42F480225A621A6B22F48022AF
:101C5000F0E700BF00380140003802404119000899
:101C60007009002074090020811700085008002026
:101C70000044004000480040000000000000000058
:101C800010B52023044683F3118800F021FE0123C0
:101C900084F8AC3100F02CFE002383F3118810BDD2
:101CA000FFF7EEBFA0F5DA70FAE7000000000000D1
:101CB00037B5002403688DF804408DF805408DF891
:101CC00006408DF80740DB6801990546984785F87E
:101CD000844085F8854085F8864085F8874003B0C4
:101CE00030BD000000000000000000000000000007
:101CF00010B5044600F074FEE36823B12046BDE849
:101D0000104001F025BA10BD0000000000000000E6
:101D10000269036803EB8203196370470000000047
:101D200010B50446C3692C309988FFF7F1FFE369C9
:101D300000200833E36110BD000000000000000037
:101D400008B500212C30FFF7E3FF08BD00000000BC
:101D500013B504460123D0F88800B4F88C20019113
:101D600001B91032934083619DF8041004F12C00F6
:101D7000FFF7CEFF9DF8051004F14800FFF7C8FFFC
:101D80009DF8061004F16400FFF7C2FF02B010BD19
:101D9000F7B5D0F888303E4A04469342B0F88C60DC
:101DA00090F88E005BD13B49CA6942F00102CA61DA
:101DB0007200D1B203221D688A4025EA02051D6027
:101DC0000125D3F800C005FA01F747EA0C071F60A8
:101DD0005F68B54027EA05055D605D68B04028434F
:101DE0005860D86804F12C0520EA0200D860D86851
:101DF000D860986820EA02029A60022298688A40B5
:101E000002439A602846FEF79BFFD4F880102846CC
:101E100004F14805FFF744FA2846FEF791FFD4F88D
:101E20008010284604F16405FFF73AFA2846FEF7C9
:101E300087FF2846D4F88010FFF732FA236820463F
:101E4000DA6800238DF804308DF805308DF80630FF
:101E50008DF80730019903B0BDE8F04010470E4AF5
:101E6000934204D10B49CA6942F002029FE70B4A30
:101E7000934204D10749CA6942F0040297E7084A2D
:101E8000934295D10349CA6942F008028FE700BF27
:101E900000000240003802400004024000080240F6
:101EA000000C0240000000000000000000000000E4
:101EB0002DE9F041061D044630460D4642F21077EA
:101EC000FFF716FF40F2E73000214FF47A7200234B
:101ED000E5FB0701FEF7F4F923460146024A3046C6
:101EE000BDE8F04101F0DCB8310C00080000000052
:101EF000C369D0F88420D3F8051070B59142044628
:101F00000AD00268D3F80150D66845B9B047E369F2
:101F1000D3F80520C4F884200933E3612CE090F85D
:101F2000842059798A4229D2013284F8842094F895
:101F3000852099798A4224D2013284F8852094F848
:101F40008620D9798A421FD2013284F8862094F8FB
:101F500087201B7A9A421AD2013284F887202046C1
:101F6000D4F88410B047E069D4F88420D0F8053064
:101F70009A420FD10930E061002044E0D7D9013AFC
:101F8000D3E7DCD9013AD8E7E1D9013ADDE7E6D970
:101F9000013AE2E794F884104379D0F801208B42AB
:101FA0001CBF0431B2FBF1F194F8853018BF4D1C11
:101FB000817908BF002599421BBF0433B2FBF3F3BC
:101FC0000021591CA94294F8863038BF2946C579AA
:101FD000007A9D421BBF0433B2FBF3F300230133AD
:101FE000994238BF194694F8873098421BBF043392
:101FF000B2FBF3F2002201329142204638BF114673
:10200000FFF756FF012070BD000000000000000037
:1020100038B504460D46202383F3118800F058FCA0
:102020004FF0FF332362236820461B68C4E906553E
:10203000984700F05DFC002383F3118838BD000051
:1020400038B5044600F0CCFC236913B1201DFFF71E
:102050004FFE4FF0FF35E3691A78042AFDD8DFE818
:1020600002F0030A14253100236820469B68984734
:102070000128F0D138BDD3F801100933E3610029FC
:10208000E9D02046FFF714FFF4E7D3F80130A26946
:1020900003EBC3031344E36194F8293023B11248DE
:1020A00004F12401FFF7F4F90121EAE794F829305B
:1020B00023B10D4804F12401FFF7EAF90023C4E934
:1020C0000633D7E7226A013204BFD3F80120226227
:1020D000226A1AB909332562E361BCE7A369013AB0
:1020E000E3612262B7E700BFA809002000000000FA
:1020F0002DE9F041061D044630460D4642F21077A8
:10210000FFF7F6FD40F2E73000214FF47A7200232A
:10211000E5FB0701FEF7D4F823460146024A3046A4
:10212000BDE8F04100F0BCBF310C00080000000029
:1021300038B5044600F054FC236913B1201DFFF7A5
:10214000D7FD4FF0FF35E3691A78042AFDD8DFE8A0
:1021500002F0030A13222E00236820469B6898474A
:102160000128F0D138BD59680833E3610029EAD06D
:102170002046FFF7BDFFF5E75A68A36903EBC203EA
:10218000E36194F8293023B1114804F12401FFF7E9
:102190007FF90121ECE794F8293023B10C4804F1D0
:1021A0002401FFF775F90023C4E90633DAE7226A50
:1021B000013204BF5A682262226A1AB908332562C2
:1021C000E361C0E7A369013AE3612262BBE700BFB4
:1021D000A80900200000000000000000000000002E
:1021E00080B50320FFF78CF8774A784C536878481D
:1021F00023F4604343F440435360FEF7A1FF00F033
:10220000C7FA00F08DFD122104F1A400C4E92444B2
:1022100000F04EFD002104F1980000F049FD6D48EA
:10222000FFF796FC6C4A6D496D48FFF771FA6848F4
:10223000FFF74EF86B48FFF7ABFD6B48FEF728FB46
:10224000684E002840F08C80684B5B689A0707D482
:1022500030466749FFF7DCFE42F2067000F0E0FE10
:102260006448FEF76DFD082206215F48FEF788FAF4
:1022700000215D48FEF7ECFA86223E215A48FEF71F
:102280007FFA5D495848FEF7CBFA6FF05E025B4B70
:102290006FF035011A705E225A7011229A701A710D
:1022A0007C225A716FF01E029A710B22DA71464A33
:1022B000D970D369524C43F00103D3612368B42031
:1022C00023F003032360E368DFF8388123F003037E
:1022D000E360E368DFF80C9143F00203E36000F091
:1022E0009FFE2369DB0746D5B369434503D04146CA
:1022F0004846FFF78DFE444D444FAB69BB4211D0B9
:10230000202383F3118800F0E3FA4FF0FF332846CF
:102310002B62C5E90677FFF70BFF00F0E9FA00230F
:1023200083F31188304D36212F48FEF751FA88B9D2
:1023300095F82030002BF6D133212B48FEF748FAD0
:1023400040B9294F3D213846FEF742FA95F8203032
:10235000002BF7D1082229492348FEF739FCC0E7B2
:102360003046FFF715FD30462949FFF751FE42F28E
:10237000067000F055FE39211B48FEF729FA254862
:10238000FFF7C6F94FF4E17000F04AFE202383F313
:10239000118800F09DFA154B1F495A6842F480726B
:1023A0005A600A6942F004020A6102221A601A683D
:1023B00042F004021A6000BF00BF30BF00F098FA7C
:1023C000002383F31188FEE700380240A8090020AB
:1023D0001C080020F00A0020703700087E37000833
:1023E00086370008580A0020780900200070004055
:1023F000FB0D0020640D0020E0370008E80A0020F3
:1024000000000240E00D0020380D002010380008C8
:10241000800D00208E37000800ED00E00000000075
:102420002DE9F84F6FF04B03C24A002153709372AD
:102430000223FF26012503276FF030004FF0040A26
:102440004FF0630B4FF000084FF0000993744FF406
:10245000E13311709170D170117151719171D67118
:1024600011725172D172117351739173D1731174CE
:102470005174D174117551759175D175117651766C
:102480009176AD4A9224117051709170D170117192
:1024900056719171D171117255729072D17211731E
:1024A00051739173D173117451749174D174117506
:1024B00051759175D175167651769176D5761077DE
:1024C00051779177D17782F8201082F8211082F825
:1024D000221082F8231082F8241082F8251082F846
:1024E000261082F8271082F8281082F8291082F826
:1024F0002A1082F82B6082F82C1082F82D5082F876
:102500002E0082F82F1082F8301082F8311082F8F5
:10251000321082F8331082F8341082F8351082F8C5
:10252000361082F8371082F8381082F8391082F8A5
:102530003A1082F83B1082F83C5082F83D1082F845
:102540003E1082F8401082F8411082F8421082F862
:10255000431082F8441082F8451082F83F7082F8E8
:10256000461082F84710754A754811705170917085
:10257000D170117156719171D17111725572D17200
:10258000117351739173D173117451749174D17427
:10259000117551759175D175117651769176D57603
:1025A0005177917782F80AB082F81CB0D17782F81F
:1025B000201082F8211082F8221082F8231082F86D
:1025C000261082F8271082F8281082F8291082F845
:1025D0002A1082F82B1082F82C1082F82E1082F824
:1025E0002F1082F8301082F8311082F8321082F801
:1025F000331082F8341082F8351082F824A082F863
:1026000025A082F82D704F4AC2E90089C2E9242230
:102610004D4ADFF83881C0E900320922C0E9028260
:102620000A22C0E905274FF48552C0F81080C0F88F
:102630001CA0C0E90842464ADFF81891D06002F1B8
:102640001000C2E94400444882F8185100F1200407
:10265000C2F8B041414C1060303082F8AC51C2F841
:10266000B401C2E94711C2E94911C2E98E11C2E9B8
:10267000901104EB0A001C2200F0A2FF4FF0050CA1
:10268000002137484FF0FF32C4E90DC0022340F269
:10269000011CC4E91160C4E91B10C4E90B09C4E9B9
:1026A000150AC4E919092F48C4E90821C4E9202101
:1026B000C4E90F3CC4E91395C4E917C6A162E667F3
:1026C0002060A4F88C3084F88E10C4E91D7CC4F816
:1026D0008890254C254B2046164640F8043B1C228A
:1026E00000F06EFF0C220021214BC4E90F51C4E918
:1026F0000D23C4E90B391F4A1F4B204D1A60204A95
:102700002048C3E90128204A83F82010C3E9045275
:102710001E4AC4E909112662C4F844B0C3F80C800B
:10272000C3F818809F839977D06059629962BDE899
:10273000F88F00BFE00D0020FB0D0020800D002071
:10274000B80D0020A8090020003801400000024018
:10275000F00A00200004024038370008580A002020
:1027600000040040A8370008380D0020C8370008D2
:10277000000C0140483600087809002005000600DA
:10278000003001402107000807000400280800204D
:1027900008B500F0B5FDBDE8084000F001B8000044
:1027A00000F03EB800000000000000000000000043
:1027B0004FF08043002258631A610222DA607047AA
:1027C0004FF080430022DA607047000000000000F4
:1027D0004FF0804358637047000000000000000085
:1027E00010B500F0CDF84FF080431A6992070CD570
:1027F00000241C61202383F3118800F091F800F07D
:10280000DFFA00F0A5F884F3118800F0D1F8BDE8F4
:10281000104000F0FDBC00000000000000000000BF
:10282000134B08215A6A1C2042F001025A621A6BAB
:1028300042F001021A630F4A1B6B936843F00103D5
:1028400093600D4B5A6842F21073B2FBF3F24FF0F3
:102850008043013A9A624FF6FF72DA6200229A616F
:102860005A63DA605A6001225A611A6000F008B8AF
:1028700000380240002004E01C0800200000000096
:102880000122090100F1604303F56143C9B283F8F5
:10289000001300F01F039A4043099B0003F16043BB
:1028A00003F56143C3F880211A60704700000000FF
:1028B000044BD3E90A23134302D0034800F078BA4B
:1028C000704700BF440E00204038000800000000A0
:1028D00010B5054CD4E90A23134302D0034800F095
:1028E00067FA0123E36210BD440E0020503800084F
:1028F00010B5064CA36A13B9E36A002B02DC044846
:1029000000F056FA0023E36210BD00BF440E002021
:102910006038000800000000000000000000000017
:1029200010B5064CA36A002B01DDE36A13B104481D
:1029300000F03EFA0123E36210BD00BF440E002008
:1029400070380008000000000000000000000000D7
:1029500010B5064CA36A002B02DDE36A002B02DCF3
:10296000034800F025FA0023E36210BD440E002066
:102970008038000800000000000000000000000097
:10298000202310B583F31188074CA36A002B01DBC9
:10299000E36A13B1054800F00BFAA36A0133A3629E
:1029A000002383F3118810BD440E002090380008E6
:1029B000202310B583F31188074CA36A002B01DD97
:1029C000E36A13B1054800F0F3F9A36A013BA3627F
:1029D000002383F3118810BD440E0020A0380008A6
:1029E000054B9A6A002A02DBDB6A002B02DC0348F3
:1029F00000F0DEB9704700BF440E0020B038000878
:102A0000044B9A6A12B9DB6A002B02DC024800F020
:102A1000CFB97047440E0020C03800080000000005
:102A20000022024BC3E900339A607047440E002035
:102A300010B50446FFF7D4FF14B9094800F0B8F9FF
:102A40000023A2682375074B1B6899689142FBD24B
:102A50005A6823606260204614605C6010BD00BF4D
:102A600000390008440E00200000000000000000B3
:102A700038B50446202383F31188FFF751FF237DE7
:102A80000025052B0BD8DFE803F0030A0A081C1603
:102A9000FFF75EFF85F3118838BDA3691D604FF015
:102AA000FF332046A361FFF7C3FFFFF751FF002369
:102AB00083F31188F0E7A569FFF792FFAB68013354
:102AC000AB60D4E9003213605A60E8E70000000010
:102AD00010B50446FFF784FF14B9094800F068F9FF
:102AE0000023A2682375074B1B6899689142FBD8A5
:102AF0005A6823606260204614605C6010BD00BFAD
:102B0000E0380008440E0020000000000000000033
:102B100070B506460D4C2569FFF772FF23682E75C8
:102B20001A6854602260012223611A75EFF3098349
:102B30002A69243B9A4202D9054800F039F929460E
:102B40002069BDE87040FDF72BBB00BF440E00209C
:102B5000D038000800000000000000000000000065
:102B600070B50D4686B00446FFF74AFF6B1C0D4E4C
:102B700013D0336929460C4A01A800F091FA204687
:102B8000FFF7C6FFFFF72CFF049B13B101A800F06D
:102B9000DFFA3369986906B070BD2046FFF7B8FFC9
:102BA000F7E700BF440E0020712A00080000000073
:102BB000F8B504460D46124E3769FFF721FFA268AB
:102BC000BB68A5619A4204D82046BDE8F840FFF7EB
:102BD0002FBF3846FFF77CFF01230546346123757C
:102BE000EFF309830269243B9A4202D9054800F0B9
:102BF000DFF829462046BDE8F840FDF7D1BA00BF0E
:102C0000440E0020D0380008000000000000000042
:102C1000044B1A681B6990689B68984294BF002017
:102C200001207047440E002000000000000000005A
:102C300038B50D4C236820691A685460226001225F
:102C40001A752361FFF744FF0546EFF30983026914
:102C5000243B9A4202D9054800F0AAF82946206987
:102C6000BDE83840FDF79CBA440E0020D03800087B
:102C700008B5FFF7C5FEFFF7B3FE064B1A681B69E0
:102C800092689B689A4203D9BDE80840FFF7D0BF1D
:102C900008BD00BF440E002000000000000000003E
:102CA000FFF7C6BF000000000000000000000000A9
:102CB00038B50D46044608B1002902DA034800F091
:102CC00077F8C4E90044A56038BD00BF203900088A
:102CD00010B50446FFF784FE14B9094800F068F8FF
:102CE000A3680133002BA36009DC2068036823601C
:102CF0005C600023BDE810408361FFF799BE10BD02
:102D00001039000800000000000000000000000072
:102D1000FEE70000000000000000000000000000CE
:102D200038B500251A4CFFF77BFE00F0A9F9802288
:102D3000184904F13000C4E90A5500F0B9F8164BFF
:102D40002061036101230375144B154AD96821F4EE
:102D5000E0610904090C0A43DA60D3F8FC20114948
:102D600042F08072C3F8FC200A6842F001020A6057
:102D70001022DA77202283F82220FFF799FD85F3CD
:102D8000118862B6BDE83840074800F0D9B800BFE6
:102D9000440E0020303900080004002000ED00E05F
:102DA0000003FA05001000E05039000800000000A0
:102DB00072B6014B5862FEE7440E0020000000008E
:102DC0002DE9F047264E4FF000083746FFF708FE82
:102DD000FFF706FE57F8144F4FF08043586A358CC2
:102DE00080B2A368451BADB29D4220D34FF02009AD
:102DF000A268338CD4F80CA0134433842368AD1A32
:102E0000BB425F607361C4F80C8001D1FFF7D8FC4E
:102E1000FFF79EFD88F311882069D04789F3118858
:102E2000FFF77EFD7469A3689D42E1D2D4E7736920
:102E3000BB4212D09A683084521B9A604FF6FF72E0
:102E4000A368BDE8F047934228BF1346022B2CBF6E
:102E5000C018023080B2FFF7BBBCBDE8F08700BFEE
:102E6000440E0020000000000000000000000000F0
:102E7000202383F31188FFF72BBD00000000000022
:102E800008B5FFF735FD002383F3118808BD000066
:102E900010B5044610B90448FFF78AFF2146BDE883
:102EA00010400820FFF75CBE7039000800000000E9
:102EB0008260022282827047000000000000000051
:102EC00010B50446FFF78CFD14B91948FFF770FFE1
:102ED0006268500707D1A368590704D19A4202D209
:102EE0009B1A9F2B02D81248FFF762FFE368FF2B63
:102EF00001D8236913B90E48FFF75AFFD4E901300E
:102F000040F8103CA0F1440340F8143C23692038F9
:102F100040F8243C636940F8203C064B40F8043CF0
:102F2000E3688360022303750023437510BD00BF6F
:102F3000A0390008B10100080000000000000000F6
:102F400010B50446D4E901031A1A984288BF00223A
:102F5000552100F035FBFFF78BFF2046FFF7B0FF50
:102F600004460021FFF724FEFFF78AFF204610BD2C
:102F7000F8B50C4616461F46054640B19F2906D9AE
:102F800040EA01035B0702D1FF2A00D817B91448B1
:102F9000FFF70EFFE54238BF2246A4F120042C447F
:102FA00028BF00225521284600F00AFBFFF760FFEA
:102FB000A4F12403E360069B204644F8203C094B1F
:102FC000002144F8043C02232561A38244F8247CB8
:102FD000A660FFF7EDFDFFF753FF2046F8BD00BFE9
:102FE00080390008B1010008000000000000000066
:102FF000024B1B6998610F20FFF78ABD440E002029
:1030000010B50446FFF734FF2046BDE81040FFF737
:10301000EFBF000000000000000000000000000002
:1030200010B50446FFF724FF2046FFF731FFBDE847
:103030001040FFF725BF0000000000000000000066
:1030400010B5054C2369036098610320FFF760FD0C
:103050002369986910BD00BF440E002000000000E5
:103060000346006820B100221A608161FFF7E0BCCE
:103070007047000000000000000000000000000099
:10308000054B03F11402C3E905224FF0FF32DA6168
:1030900000221A84704700BF440E00200000000088
:1030A000F8B505460C4616461F46FFF799FC0DB1CC
:1030B00006B114B92448FFF77BFE4FF08043C5E901
:1030C0000367224F586A3B4653F8146F022C21467F
:1030D00038BF02219E4280B210D14FF6FF73388470
:1030E000994294BF4018C018C7E9055580B2C5E998
:1030F0000066A960BDE8F840FFF75ABB3B8CB26898
:10310000C41AA4B20C1902D3A41A36680AE0A24267
:1031100008D94FF6FF72944294BF1B199B1898B2BE
:10312000FFF756FBB368A3420CD373682E606B6045
:103130001D607560AC60B3681B1BB3604FF0FF335C
:10314000FB61F8BDE41AE0E7E0390008440E002016
:1031500038B50446FFF744FC14B92148FFF728FEB0
:10316000204922680B4653F8140FA0424FF000008C
:103170000AD061689A420A605160E06003D09368A7
:10318000A1680B44936038BD9A424A615360E06085
:1031900003D1BDE83840FFF713BB9368A0680D8CDE
:1031A00018444FF0804390605C6A641BA4B2A04254
:1031B000E9D9031B012B09D80234B4F5803F0BD2A7
:1031C000281980B2BDE83840FFF702BB4FF6FF7404
:1031D000844228BF0446F3E70348FFF7E9FDEFE721
:1031E000C0390008440E0020D0390008000000005B
:1031F000EFF30983203383F30988002383F31188D5
:103200007047000000000000000000000000000007
:10321000202310B583F311880D4B5B6813F4006312
:1032200012D0EFF309844FF0807344F8043CA4F10A
:10323000200383F30988FFF7EBFC18B1054B44F832
:10324000083C10BD044BFAE783F31188F9E700BF8F
:1032500000ED00E0C5010008D001000800000000FA
:1032600070470000000000000000000000000000A7
:103270007047000000000000000000000000000097
:103280007047000000000000000000000000000087
:10329000FEE7000000000000000000000000000049
:1032A00070B50825134CD4E9010201462368043B9C
:1032B0008A4219D8D31C1B1AC11E23F003038A4269
:1032C00038BF00231844E368C11EDA1C121A22F02A
:1032D0000302994288BF0022002100F071F9013DEC
:1032E00004F11004DFD170BD53F8046F41F8046B92
:1032F000DEE700BFF0390008000000000000000019
:1033000008B51A4B1A6942F07F4242F47F0242F438
:10331000FF4242F040021A611A6922F4FF4222F091
:1033200040021204120C1A611A699A6962F0805202
:103330009A619A6902F080529A619A695A694FF0CB
:10334000FF325A615A6900225A615A695A6A42F038
:1033500080525A621A6B42F080521A631B6B00F063
:1033600007F8BDE8084000F023B900BF003802406C
:1033700000231946094A10B5C2E90033084C04EB92
:1033800083004068016002EB430004331C2B816022
:10339000F5D14FF0FF32034B5A6010BD400F0020B3
:1033A000803A0008006002400000000000000000B9
:1033B0002DE9F74F0446894693460193FFF710FB2A
:1033C000062C0BD80127224DA7402A68019B3A42C0
:1033D00008D00026304603B0BDE8F08F1D48FFF747
:1033E000E7FCF6E7DFF870804FEA041A08EB0416F2
:1033F000013445F834B005EBC40463603A43174B1D
:103400002A60DA6942F08072DA619A6A42F0807268
:103410009A629B6ABBF1000F0AD06A68B3681A42CD
:1034200003D14946F07BFFF72BFA6B683B436B6097
:1034300008EB0A014B68497B1A6858F80A0022F029
:103440000F021A600E228A40426000221A60C1E711
:10345000400F0020703A0008803A0008003802400F
:10346000F8B51F4604460D461646202383F31188FF
:10347000FFF72EFA3B46324629462046FFF798FFD3
:103480000446FFF735FA002383F311882046F8BD80
:1034900010B40468437B21684268D940126801F087
:1034A0000E010A420ED0827B01FA03F36360064BE1
:1034B000013253F832402CB103EBC2035868234663
:1034C00010BC184710BC7047400F002000000000DF
:1034D00008B5FFF755FA0448FFF7DAFFFFF768FA77
:1034E000BDE80840FFF794BE803A000800000000E5
:1034F00008B5FFF745FA0448FFF7CAFFFFF758FA87
:10350000BDE80840FFF784BE903A000800000000C4
:1035100008B5FFF735FA0448FFF7BAFFFFF748FA96
:10352000BDE80840FFF774BEA03A000800000000A4
:1035300008B5FFF725FA0448FFF7AAFFFFF738FAA6
:10354000BDE80840FFF764BEB03A00080000000084
:1035500008B5FFF715FA0448FFF79AFFFFF728FAB6
:10356000BDE80840FFF754BEC03A00080000000064
:1035700008B5FFF705FA0448FFF78AFFFFF718FAC6
:10358000BDE80840FFF744BED03A00080000000044
:1035900008B5FFF7F5F90448FFF77AFFFFF708FAD7
:1035A000BDE80840FFF734BEE03A00080000000024
:1035B0007047000000000000000000000000000054
:1035C00003460244934200D1704703F8011BF9E718
:1035D00000000000000000000102030406070809C3
:1035E00000000000010203040000000000000000D1
:1035F000434320527374204661696C0D004343209D
:1036000057204661696C0D00434320522F572046D6
:1036100061696C3B2072706C3D25750D0043432041
:1036200052204661696C0D00434320696E69742025
:103630006F6B0D00000000000000000000000000A3
:103640000000000000000000E1050008000000008C
:103650000D486172644661756C740D0000000000D5
:10366000566563746F72353800556E68616E646CB0
:1036700065642025530D00000000000000000000DC
:10368000566563746F72354300000000000000004F
:10369000566563746F723630000000000000000051
:1036A000566563746F72363400000000000000003D
:1036B000566563746F723638000000000000000029
:1036C000566563746F72394300000000000000000B
:1036D000566563746F724530000000000000000002
:1036E000030406080C101820300000000000000041
:1036F000414842467265713D25754D487A3B2041EF
:10370000504231467265713D25754D487A3B2041E6
:10371000504232467265713D25754D487A0D000064
:10372000202C00000000000000000000000000004D
:10373000000000000000000071170008011A0008D6
:1037400091190008B1190008A1170008A11C000870
:1037500050FEFFFF0000000095190008B519000891
:103760004CFEFFFF00000000A51C0008BF1700086A
:1037700032303233303432315F32323332005478C7
:10378000427942746E000D25532025530D00456E7D
:1037900074657220736C6565700D00000000000098
:1037A000000000000000000041200008B11C0008DB
:1037B000F11E0008511D000800000000000000007C
:1037C000000000000000000031210008411D000839
:1037D000211D0008000000000000000000000000A3
:1037E0000B080C00105B11E51213154621B62210D0
:1037F000191D1A1C1BC71C001DB223EA242A250010
:10380000261F2C812D312E09000000000000000031
:1038100000000000510000000100000063000000F3
:10382000000000000000000001000000F0030000A4
:103830000300000000000000000000000000000085
:103840005356233300000000000000000000000079
:103850005356233400000000000000000000000068
:103860005356233500000000000000000000000057
:103870005356233600000000000000000000000046
:103880005356233700000000000000000000000035
:103890005356233800000000000000000000000024
:1038A0005356233900000000000000000000000013
:1038B00053562331300000000000000000000000DB
:1038C00053562331310000000000000000000000CA
:1038D000737461636B206F766572666C6F7700003E
:1038E00063685363685265616479416865616449DE
:1038F00000000000000000000000000000000000C8
:103900006368536368526561647949000000000090
:10391000636853656D5369676E616C490000000010
:10392000636853656D4F626A656374496E697400BC
:103930006D61696E000000000000000000000000E2
:1039400069646C65000000000000000000000000D9
:1039500040390008900E0020400F002001000000B8
:10396000112D000800000000000000000000000011
:103970006368546864536C65657053000000000010
:1039800063685468644372656174655374617469F3
:1039900063000000000000000000000000000000C4
:1039A00063685468644372656174655375737065C8
:1039B0006E64656449000000000000000000000023
:1039C00063685654446F5265736574490000000083
:1039D000636854696D65416464580000000000002C
:1039E00063685654446F536574490000000000003A
:1039F000003B0008800F0020800F0020800F002077
:103A0000003B000800000000000000000000000073
:103A1000003B000800000000000000000000000063
:103A2000003B000800000000000000000000000053
:103A3000003B000800000000000000000000000043
:103A4000003B000800000000000000000000000033
:103A5000003B000800000000000000000000000023
:103A6000003B000800000000000000000000000013
:103A7000646D6153747265616D416C6C6F63490074
:103A80000060024008600240010000000000000BDE
:103A9000006002401C600240020000000004010CB3
:103AA0000060024030600240040000000008020D87
:103AB000006002404460024008000000000C030E59
:103AC0000060024058600240100000000010040F27
:103AD000006002406C6002402000000000140510ED
:103AE00000600240806002404000000000180611A3
:043AF000F8B500BF66
:043AF400F8B500BF62
:083AF800F8C7FF7F0100000088
:04000005080001915D
:00000001FF
