:020000040800F2
:1000000000040020A1010008A301000871190008E4
:10001000A3010008A3010008A3010008A301000830
:10002000A3010008A3010008A3010008714500080E
:10003000A3010008A3010008A3010008A301000810
:10004000A3010008A3010008A3010008A301000800
:10005000A3010008A3010008211A0008711A000872
:10006000C11A0008111B0008611B00084148000864
:100070006148000881480008A1480008C1480008FC
:10008000E148000801490008A3010008A301000895
:10009000A3010008A3010008A3010008B11B000888
:1000A000A3010008510F0008A3010008A3010008E4
:1000B000113B0008A3010008A3010008A3010008E8
:1000C000A3010008A3010008A3010008211F0008E4
:1000D000611F0008A3010008A3010008A301000894
:1000E000011C0008A3010008A3010008A3010008E7
:1000F000A3010008A3010008A3010008A301000850
:10010000A3010008A3010008A3010008A30100083F
:10011000A3010008A3010008A3010008A30100082F
:10012000A3010008A3010008A3010008A30100081F
:10013000A3010008A3010008A3010008A30100080F
:100140008501000801130008111500089135000809
:040150006101000841
:1001600010B5054C237833B9044B13B10448AFF3F1
:1001700000800123237010BD6808002000000000EB
:100180002053000808B5034B1BB103490348AFF3E4
:10019000008008BD000000006C080020205300080B
:1001A00026E000F000F8FEE700000000000000007C
:1001B0002DE9F04FC1F80CD0C3689D46BDE8F08F23
:1001C00003F036FD002383F311882846A047002062
:1001D00004F0DEF803F014FD03F002FF03F028FD45
:1001E00000DFFEE70000000000000000000000004B
:1001F00072B6274880F30888264880F30988264885
:100200004EF60851CEF200010860022080F31488F7
:10021000BFF36F8F04F0E4F904F0EAF94FF05530C2
:100220001E491B4A91423CBF41F8040BFAE71C49A6
:10023000184A91423CBF41F8040BFAE719491A4A9F
:100240001A4B9A423EBF51F8040B42F8040BF8E7F0
:1002500000201749174A91423CBF41F8040BFAE7C6
:1002600004F0DEF904F0CCF9134C144DAC4203DA7F
:1002700054F8041B8847F9E702F0BAFF104C114DFF
:10028000AC4203DA54F8041B8847F9E704F0C0B91C
:1002900000040020000800200000000800000020EA
:1002A00000040020205300080008002068080020F7
:1002B00068080020A0130020400100085001000839
:1002C0005001000854010008000000000000000078
:1002D00053B94AB9002908BF00281CBF4FF0FF31AD
:1002E0004FF0FF3000F074B9ADF1080C6DE904CEA9
:1002F00000F006F8DDF804E0DDE9022304B0704701
:100300002DE9F047089E0D4604468E46002B40F02E
:1003100083808A42174647D9B2FA82F34BB1C3F1C0
:10032000200105FA03FE20FA01F19F4041EA0E0E7A
:100330009C404FEA1748BEFBF8FC1FFA87F908FB00
:100340001CE20CFB09F0210C41EA024290420AD95E
:10035000BA180CF1FF3180F01881904240F21581FB
:10036000ACF1020C3A44121AB2FBF8F008FB10226E
:1003700000FB09F1A4B244EA0244A14209D93C19A4
:1003800000F1FF3280F00381A14240F20081023887
:100390003C44641A002140EA0C401EB10022DC40BB
:1003A000C6E90042BDE8F08702B9FFDEB2FA82F387
:1003B000002B4FD18D1A01214FEA124E1FFA82F8FD
:1003C000B5FBFEFC0EFB1C5508FB0CF0220C42EAB0
:1003D0000545A84207D97D190CF1FF3202D2A84287
:1003E00000F2E98094462D1AB5FBFEF00EFB105585
:1003F00008FB00F8A4B244EA0544A04507D93C191B
:1004000000F1FF3202D2A04500F2D9801046A4EBE1
:10041000080440EA0C40C0E78B4208D9002E00F0E7
:10042000B1800021C6E900050846BDE8F087B3FAAF
:1004300083F100294BD1AB4202D3824200F2B98052
:10044000841A65EB030301209E46002EAAD0C6E95C
:10045000004EA7E79F40C3F12002D1404FEA174E5C
:10046000B1FBFEF01FFA87F80EFB101124FA02F21E
:100470009D4000FB08FC2A43150C45EA0145AC45AC
:1004800004FA03F409D97D1900F1FF3180F08F805F
:10049000AC4540F28C8002383D44A5EB0C05B5FB21
:1004A000FEF10EFB115C01FB08F995B245EA0C4523
:1004B000A94507D97D1901F1FF3274D2A94572D936
:1004C00002393D44A5EB090541EA004178E7C1F155
:1004D00020078B4022FA07FC4CEA030C25FA07F4AC
:1004E0004FEA1C4EB4FBFEF91FFA8CF80EFB1944C0
:1004F00020FA07F309FB08FA8D401D432B0C43EA51
:100500000444A24502FA01F200FA01F309D91CEBF6
:10051000040409F1FF3048D2A24546D9A9F10209E5
:100520006444A4EB0A04B4FBFEF00EFB104400FB91
:1005300008FAADB245EA0444A24508D91CEB04040C
:1005400000F1FF352DD2A2452BD90238644440EA90
:100550000940A0FB0289A4EB0A044C45C6464D465F
:1005600019D316D05EB1B3EB0E0264EB050404FAA6
:1005700007F722FA01F31F43CC40C6E900740021BB
:10058000BDE8F087314630460CE78C46EBE6104676
:10059000FFE64345E6D2B8EB020E69EB0C050138E5
:1005A000E0E72846D3E711468CE78146B9E70846DD
:1005B00073E7084649E7ACF1020C3D4413E7023803
:1005C0003C4424E7000000000000000000000000A0
:1005D000704700BF000000000000000000000000A5
:1005E000816A09B1836A1847243003F0F1BE000024
:1005F000104B984205D1104AD36943F00103D361EF
:1006000070470E4B984204D10B4AD36943F0020362
:10061000F5E70B4B984204D1074AD36943F0040332
:10062000EDE7084B9842EBD1034AD36943F0080346
:10063000E5E700BF0000024000380240000402402D
:1006400000080240000C0240000000000000000012
:100650000368197303689A68D207FCD5187B704742
:1006600070B504461546FFF7C3FF022603224B0070
:100670009A4006FA03F3012600688E4020EA020041
:1006800020602068072940EA03002060606820EAB3
:1006900006006060E06820EA0200E060E068E06078
:1006A000A06820EA0202A260A26843EA02038ABFAD
:1006B000A1F108028A00920007298CBF04200020C3
:1006C0000F21A3600444236A914023EA01032362BB
:1006D000236A95401D43256270BD000000000000A4
:1006E00001238288012903FA02F30BD0022911D0D9
:1006F00039B90A4A916819439160D16821EA030324
:10070000D3607047054A916821EA03019160D1687E
:100710000B43F5E7014A91681943F7E700040140EC
:10072000F8B50446267900687300DEB2A779FFF7B2
:100730005FFF0325026805FA06FC22EA0C0202604C
:10074000C36807FA06F623EA0C03C360C368A788E8
:100750001E43C6600F26254B1A6A42F001021A6238
:10076000DA6A22F00102DA62DB6A07F47F7303F1CE
:10077000804303F5803307EA0502986892009640AB
:1007800020EA060098601A4E2068B04205D1012088
:100790009D6800FA02F22A430CE0164EB04202D1E4
:1007A00002209D68F5E7144EB04213D1986805FA0F
:1007B00002F202439A600126104DBE402B6820468B
:1007C00033432B606B6823EA06036B60FFF788FFF7
:1007D0006E61F8BD0A4DA84202D104209D68D8E799
:1007E000084DA842E7D107209D68D2E700380240B3
:1007F0000004024000080240000C024000040140D6
:100800000010024000140240000000000000000040
:100810000123428A81689340034A0869184002D044
:10082000013AFAD101207047B882010000000000AF
:100830000123C18AC2688B409361704700000000A9
:10084000C38AC16803F11002012393408B61704792
:100850000148FFF7C5BE00BF84080020000000006B
:100860007F2908B2C4BFA1F5807108B200EBD07037
:1008700040104A3840B270470000000000000000FD
:100880002DE9F04104460F461646FFF7D9FF2046F2
:10089000FFF7BEFF054630B12046FFF7C9FF01252F
:1008A0002846BDE8F08104F1040847F08001404685
:1008B000FFF7CEFE00F0700084F820002946404685
:1008C000FFF7C6FE30702046FFF7B2FFE8E70000F2
:1008D0002DE9F04104460F461646FFF7B1FF2046CA
:1008E000FFF796FF054630B12046FFF7A1FF01252F
:1008F0002846BDE8F08104F1040839464046FFF778
:10090000A7FE31464046FFF7A3FE2046FFF790FFC3
:10091000EEE7000000000000000000000000000002
:1009200070B504460E46FFF78BFF2046FFF770FFB9
:10093000054628B12046FFF77BFF0125284670BDFC
:100940003146201DFFF784FE84F820002046FFF783
:100950006FFF94F8203003F0700384F82030EDE747
:100960002DE9F043754B456804469D4285B069D03A
:10097000734A95420CBF05250625E068E18AFFF71A
:1009800037FE4FF0030801264B000268DBB208FA7D
:1009900003F722EA07020260D0F800C006FA03F269
:1009A00042EA0C020260426806FA01F122EA010101
:1009B00041604268218A4260C26822EA0702C2603E
:1009C000C268C260826822EA0702022782608268E7
:1009D00007FA03F3134383602A46A068FFF740FE3B
:1009E0002A46618AA068FFF73BFE2A46A18AA068D2
:1009F000FFF736FE314604F11800FFF791FE20465E
:100A0000FFF716FF00234F4A1946CDE90023201DAA
:100A10001A4601F015FA626830211368204643F047
:100A200040031360FFF77CFF70B1626846481368AB
:100A300023F04003136001F05BFC3546284605B007
:100A4000BDE8F083052598E7072206212046FFF739
:100A50003FFF08B13D48EEE78DF80F000621204624
:100A60000DF10F02FFF70CFF054648B99DF80F90F6
:100A7000B9F1070F06D04946354801F039FCDCE7EB
:100A80003448D8E73A212046FFF74AFF20220D21BB
:100A90002046FFF71DFF25220E212046FFF718FFF5
:100AA000ED220F212046FFF713FFA322132120463A
:100AB000FFF70EFFFF2214212046FFF709FF08224F
:100AC00018212046FFF704FF4A4641462046FFF71B
:100AD000FFFE3F2229462046FFF7FAFE062239464E
:100AE0002046FFF7F5FE0C2249462046FFF7F0FEB0
:100AF000442208212046FFF7EBFE50223E212046EB
:100B0000FFF7E6FE4A4616212046FFF7E1FE2A4699
:100B100017212046FFF7DCFEA08B092809D80428FE
:100B200009D80630072103F043F80B4801F0E0FB39
:100B300084E72820F6E71720F4E700BF00300140E3
:100B400000380040A02E6300C04A0008CD4A0008CB
:100B5000D84A0008ED4A0008F84A000800000000E2
:100B60003621FFF7DDBE000000000000000000009D
:100B700038B504460D4694F820301BB12046FFF7E7
:100B8000EFFFF8E72A462046BDE838400A21FFF784
:100B90009FBE0000000000000000000000000000F8
:100BA000F8B505460E4695F820401CB12846FFF7DB
:100BB000D7FFF8E7771C17F8142016F8141028460A
:100BC0000134FFF785FE142CF5D1F8BD00000000BC
:100BD0003D21FFF7A5BE000000000000000000005E
:100BE0003521FFF79DBE000000000000000000005E
:100BF00038B504460D46FFF7EBFF94F82030102B74
:100C00000AD02046FFF7ACFF3A212046FFF788FEC6
:100C100034212046FFF784FEA56238BD00000000A5
:100C20002DE9F04104460D461746FFF709FE204620
:100C3000FFF7EEFD064630B12046FFF7F9FD01262D
:100C40003046BDE8F08104F104087F214046FFF7FB
:100C5000FFFC2F44AF4205D0404615F8011BFFF7BB
:100C6000F7FCF7E72046FFF7E3FDE9E700000000A7
:100C7000F8B504460D4616461F46FFF7B1FF32464B
:100C800029462046A762BDE8F840FFF7C9BF00002B
:100C90002DE9F7430E46904678210DF107020446F0
:100CA0001F46FFF7EDFD70B99DF90730002B0ADAFA
:100CB0002046FFF7C5FD2046FFF7AAFD054620B1F7
:100CC0002046FFF7B5FD012527E004F10409FF21C7
:100CD0004846FFF7BDFC3744BE424FF0000148468E
:100CE00006D0FFF7B5FC8DF8070006F8010BF3E717
:100CF000FFF7AEFC00218DF807004846FFF7A8FC7F
:100D00002046FFF795FDB8F1000F06D020469DF86C
:100D10000710FFF7A5FD88F80000284603B0BDE8DE
:100D2000F083000000000000000000000000000050
:100D300010B51149114B08791A680128D36816D9E2
:100D400043F00203D36048230968546A4B43D83305
:100D5000A34202D803F57363FAE745F61F34A342B2
:100D600098BF5363064BC9B21970587110BD23F078
:100D70000203D360FAE700BF600C0020B009002036
:100D8000A409002000000000000000000000000096
:100D900038B52E4C082321462D48A21DFFF778FFB9
:100DA0002C4D00283AD1E379CA2B37D12A4B6278EF
:100DB0001B689A4224DAA378032B21D8274B617849
:100DC0001A78914208D361781A78914218D1244A4E
:100DD000A1781278914213D26278D2B21A70A378B5
:100DE0001F4A0133DBB2137000231E4A13601E4AF0
:100DF0001361B4F803302A683C335362FFF798FF5D
:100E00002378352BDAB209D8184B6079D3F8D8306B
:100E100003EB42014870012103F812102B685A6A53
:100E2000B2F5736F04D35A6A44F6EF339A4208D985
:100E30000F490748FFF7DCFE4FF080620D4B9A61C7
:100E400038BD0348FFF78CFEF6E700BF9C09002081
:100E500084080020B0090020600C0020B5090020A3
:100E6000AC0900209809002000080140B0080020CB
:100E7000910D000800040240000000000000000086
:100E800010B504462046FFF76BFE88B994F8203071
:100E9000002BF7D133212046FFF742FD40B93D2119
:100EA0002046FFF73DFD94F820000028F7D110BD43
:100EB0000120FCE70000000000000000000000002E
:100EC00038B54FF080631A4DAB611A4B1978A9B150
:100ED000194CD4F8DC30002B0FDD013B1748C4F867
:100EE000DC30FFF7CDFF164B0822144804F1E00177
:100EF000FFF7BEFE4FF48063AB6138BD44F6EF32BE
:100F0000104B1B68586A90420CD90C48FFF730FE12
:100F10000D490A48FFF744FEBDE838400B49074831
:100F2000FFF766BE5B6AB3F5736FE6D2F4E700BF06
:100F300000040240B4090020B0080020840800200A
:100F4000C10E0008B0090020204B0008910D0008D8
:100F5000F7B502F0B5FE202383F3118802F080FE7E
:100F60006A4B1C69DA6814400022A0071A613DD55B
:100F7000674B1B78002B39D14FF48062654D03F12C
:100F8000804303F501339A612A68516A44F6EF32CF
:100F9000914217D9782160480DF10702FFF770FCE4
:100FA0009DF80730590621D402215B48FFF7E0FD88
:100FB0005A4B3E215A795848FFF78AFC58495648FF
:100FC000FFF7EEFD574B58491B780822DBB24B70F8
:100FD000564B51481B78DBB28B702B685B6AA1F8CB
:100FE0000330534BFFF744FEFFF7A2FE62070ED516
:100FF000474B1D785DB94848FFF7B2FD454B44F6B5
:10100000F0321B68996BB1F5736F45D19A63E307B2
:1010100037D54FF40063474C474DA3613E48FFF777
:101020009FFDD5F8DC303A4F002B3C4E49DD013BAB
:101030000122C5F8DC304FF480633A700021A361CF
:101040003548FFF795FDC5223E213348FFF740FCA8
:101050003A493148FFF7A4FD33682F4885F8E0305E
:101060002C4B1B685B6AA5F8E330FFF709FF0822E9
:101070002F4B294805F1E001FFF7FAFD4FF000631F
:10108000A36102F005FE002383F3118802F030FE15
:1010900003F07EFA03B0F0BD9142B8D14FF4736211
:1010A00029469A631C48FFF763FD24491A48FFF755
:1010B00077FD1948FFF7E4FE21491748FFF798FD2F
:1010C000A5E702211448FFF753FD72793E2112482B
:1010D000FFF7FEFB12491048FFF762FD0022194995
:1010E0003A700B680133052B0B6004D90D4B317836
:1010F00019700E4B1A700848FFF7C2FE10490648D7
:10110000FFF776FDFFF714FEB8E700BF00080140C7
:10111000B4090020B009002084080020600C0020E1
:10112000504B0008B5090020A4090020AC0900209C
:10113000C10E000800040240B0080020204B000847
:10114000910D000898090020000000000000000038
:1011500070B55E4D5E48EB6943F00203EB615D4B99
:101160001A6822F440121A601A6842F480121A6057
:101170005A6822F480625A605A685A60DA6822F427
:101180004012DA60DA68DA609A6822F440129A60F3
:101190009A6842F400129A60EA6942F00202EA6137
:1011A0001A6822F440021A601A6842F480021A6037
:1011B0005A6822F400625A605A685A60DA6822F467
:1011C0004002DA60DA68DA609A6822F440029A60D3
:1011D0009A6842F400029A60FFF7C2FB04460028B6
:1011E00072D108223C4E06213948FFF771FB0221DB
:1011F0003748FFF7BDFC72793E213548FFF768FBA1
:1012000036493348FFF7CCFCCA23354AD371354AF7
:1012100082F8E7303278344B344E1A70344B304613
:101220001C7000F04DFAEB69192043F00103EB61EB
:10123000304B1A6822F030021A601A6842F020021D
:101240001A605A6822F004025A60DA6822F030020A
:10125000DA60DA68DA609A6822F030029A609A6896
:1012600042F020029A601A6A22F470621A621A6AC4
:1012700042F440721A624FF6F872336899680A4075
:1012800042F007029A604FF68F7299680A4042F066
:1012900050029A6001229A6245F62032DA624FF4D7
:1012A00073629A63DA68042142F00102DA60DA6854
:1012B00042F00402DA6002F07BFC3268136843F00B
:1012C00001031360204670BD0124FBE70038024093
:1012D0008408002000040240600C0020504B0008ED
:1012E000A4090020B0080020B5090020B0090020A2
:1012F000AC090020000002400000000000000000D7
:10130000174A184B18481360184B1949536003F5D6
:101310005043C2E902339361032393830023C2E95C
:101320000401144914489377C860144982F82030A6
:101330005362936218460A4601F813000133362BB4
:10134000FAD100200D49013B81F86C0001F1020146
:10135000F9D1C2E936230A4B0A4A1A60704700BF26
:1013600084080020184B00080500060000300140EA
:1013700007000400100B002051080008B0080020EE
:10138000B00900200008014000000000000000003B
:101390004FF004092DE98848DFF8848000261F4CAF
:1013A0003146204601274FF0030AD8F808301C4D7B
:1013B0002A68B5F804C0D2F810E007FA0CFC1CEA61
:1013C0000E0FA346227804F101041DD0012A01D09A
:1013D000042A15D104F801ACAA689A421CD003B1C2
:1013E000984758460021AB680136032E05F10C05DD
:1013F000DED103B198474FF4347002F0D9FFCDE746
:10140000022204F8012CE7E7023A012A94BF04F80B
:10141000019C04F8017CDFE70131E5E7FC0A0020CC
:10142000D80A0020000000000000000000000000BA
:10143000104B984205D1104AD36943F00103D361A0
:1014400070470E4B984204D10B4AD36943F0020314
:10145000F5E70B4B984204D1074AD36943F00403E4
:10146000EDE7084B9842EBD1034AD36943F00803F8
:10147000E5E700BF000002400038024000040240DF
:1014800000080240000C02400000000000000000C4
:101490002DE9F74300264FF003093746154CDFF8D6
:1014A0006080217920684900A579C9B2FFF7C0FFA3
:1014B000026809FA01FC22EA0C020260C36805FA1C
:1014C00001F123EA0C03C360C36801361943032EFC
:1014D000C16004F10C0408F8017BE2D180224FF4D2
:1014E0009071054B0097054802F00AFF03B0BDE874
:1014F000F08300BFD80A002091130008B80900202B
:10150000FC0A0020000000000000000000000000B5
:1015100000220A4B0A489A800A4A1860C3E902204E
:101520000120188208480221986108209971997455
:101530005A61988399771A62704700BFD80A0020D1
:1015400000000240D1150008000402400000000025
:10155000002313B5009306238DF800008DF80530A5
:101560008DF80110202383F31188164C02F048FBFC
:1015700002F0D6FBD4F8AC30002B19DD02F0D0FB22
:10158000D4F8AC300099013BC4F8AC30D4F89430B6
:101590000D4803F10802C4F89420196001995960BC
:1015A00004F190039A4228BFC4F8944002F058FD19
:1015B00002F0FEFC02F03CFB002383F3118802B032
:1015C00010BD00BF680C0020000D002000000000CE
:1015D0002DE9F84304460D464FF000094FF08046D0
:1015E000DFF86080164F5FFA89F18D4225D9635C80
:1015F000032B07D1002308F80130736A3B8009F1FF
:101600000109F0E7042B06D118F801000028F6D1F3
:10161000FFF79EFFF3E7022BF1D118F80130002B02
:10162000EDD13A88736A9B1A44F2CB229BB2934263
:10163000E5D9012008F80100EAE7BDE8F88300BF1A
:10164000020B0020FF0A0020000000000000000044
:10165000202383F3118802F003BB00000000000088
:1016600008B502F015FB002383F3118808BD0000C4
:1016700010B50446FFF7ECFF236820461B68984727
:10168000BDE81040FFF7ECBF0000000000000000C4
:10169000074B5A68D2070AD5064ADA60064ADA606A
:1016A0004FF480729A615A6822F480725A607047CF
:1016B000003C0240EFCDAB890504030200000000AE
:1016C0000368B3F1804F0BD103F50E335A6A42F031
:1016D00001025A621A6B22F001021A631B6B7047F7
:1016E0002A4A934208D12A4B5A6A42F002025A62AD
:1016F0001A6B22F00202F0E7264A934208D1244BEB
:101700005A6A42F004025A621A6B22F00402E4E7B9
:10171000214A934208D11E4B5A6A42F010025A6283
:101720001A6B22F01002D8E71C4A934208D1184BDA
:101730005A6A42F020025A621A6B22F02002CCE769
:10174000174A93420AD1124B1A6A42F004021A62F3
:10175000DA6A22F00402DA62DB6A7047114A9342C5
:1017600008D10B4B1A6A42F008021A62DA6A22F0B8
:101770000802F0E70C4A9342EFD1054B1A6A42F097
:1017800010021A62DA6A22F01002E4E70004004054
:1017900000380240000800400010004000140040E3
:1017A00000080140000C0140001001400000000052
:1017B000F8B50146FFF784FF03681A6842F080021B
:1017C0001A608269DA62027D0069012A00F1FF3045
:1017D0000CBF0722062203280BD8DFE800F0026BBB
:1017E000737B986940EA02129A611A6A42F0010218
:1017F0001A621A6842F001021A60494A934271D093
:1018000002F5806293426DD002F5803293426BD034
:1018100002F58062934267D002F58062934214BF62
:10182000012203224B6808894F7D3E498B425DD1DE
:101830003D4CE16941F00101E16103241968460072
:10184000B440E54321EA04041C6002241968B44052
:101850000C4301211C605C688140002F5ED124EAAA
:1018600001015960D968072801EA0501D960D968E2
:10187000D960996805EA01054FF002019D609C68F6
:1018800001FA06F141EA040199608ABFA0F108015A
:101890008100890007288CBF042000200F24034406
:1018A000186A8C4020EA04001862186A8A400243D1
:1018B0001A62F8BD986940EA02329A611A6A42F0E7
:1018C000100295E7D86940EA0212DA611A6A42F416
:1018D00080728DE7D86940EA0232DA611A6A42F40E
:1018E000805285E702229DE703229BE70F498B4246
:1018F00004D10D4CE16941F002019DE70C498B4296
:1019000004D1094CE16941F0040195E709498B4292
:1019100093D1054CE16941F008018DE72143A0E72F
:101920000004004000000240003802400004024071
:1019300000080240000C024000000000000000000F
:10194000074B01385A6922F080025A6110F8012FC2
:1019500022B119680906FCD55A60F7E7704700BF45
:1019600000380140000000000000000000000000FE
:1019700008B50248FFF7E4FF01BEFEE7804B000810
:101980004FF0804330B51A460446596A0D4D89B26E
:10199000AB69DB0710D4AB69DB050FD4AB6913F47B
:1019A000F05F14BF01200020536A5B1A9BB29C4277
:1019B00006D90328ECD030BD0320F5E70E20F3E76D
:1019C0000220F8E7003C0240000000000000000098
:1019D00000F1006000F50020006870470000000082
:1019E00038B504460D46FFF753FE4FF4E170FFF79C
:1019F000C7FF40B904F1006000F5002005604FF416
:101A0000E170FFF7BDFF034A536843F001035360E1
:101A100038BD00BF003C0240000000000000000094
:101A200008B502F04DF9FFF713FE0A4B1B685BB1D6
:101A300098470122084B5A61FFF712FE02F058F94D
:101A4000BDE8084002F0A4BD0449054800F070FC60
:101A5000EFE700BF100B002000040140904B00088E
:101A6000994B00080000000000000000000000008A
:101A700008B502F025F9FFF7EBFD0A4B5B685BB197
:101A800098470222084B5A61FFF7EAFD02F030F94D
:101A9000BDE8084002F07CBD0449054800F048FC60
:101AA000EFE700BF100B002000040140B04B00081E
:101AB000994B00080000000000000000000000003A
:101AC00008B502F0FDF8FFF7C3FD0A4B9B685BB158
:101AD00098470422084B5A61FFF7C2FD02F008F94B
:101AE000BDE8084002F054BD0449054800F020FC60
:101AF000EFE700BF100B002000040140C04B0008BE
:101B0000994B0008000000000000000000000000E9
:101B100008B502F0D5F8FFF79BFD0A4BDB685BB117
:101B200098470822084B5A61FFF79AFD02F0E0F847
:101B3000BDE8084002F02CBD0449054800F0F8FB60
:101B4000EFE700BF100B002000040140D04B00085D
:101B5000994B000800000000000000000000000099
:101B600008B502F0ADF8FFF773FD0A4B1B695BB1D6
:101B700098471022084B5A61FFF772FD02F0B8F83F
:101B8000BDE8084002F004BD0449054800F0D0FB60
:101B9000EFE700BF100B002000040140E04B0008FD
:101BA000994B000800000000000000000000000049
:101BB00008B502F085F8FFF74BFD0A4B1B6863B1CF
:101BC00098474FF47872084B5A61FFF749FD02F0CD
:101BD0008FF8BDE8084002F0DBBC0449044800F07F
:101BE000A7FBEEE7280B002000040140F04B0008A3
:101BF000994B0008000000000000000000000000F9
:101C000008B502F05DF8FFF723FD0A4B1B6863B1CE
:101C100098474FF47C42084B5A61FFF721FD02F0D0
:101C200067F8BDE8084002F0B3BC0449044800F07E
:101C30007FFBEEE7240B002000040140004C00086D
:101C4000994B0008000000000000000000000000A8
:101C50000023F0B593B0024611934FF480304FF457
:101C600000334FF48024CDE90A03354B354DCDE9DF
:101C70000C43354B354CCDE90E53354B616820682C
:101C8000109303AB03C3217A06AD1970314B03F1F6
:101C900010073E462C4618685968083303C4BB42F7
:101CA0002546F7D13068716801AB03C32A488368C1
:101CB000C3F38103022B3FD0032B27D0012B3DD050
:101CC000436812A9C3F3423301EB830353F8203C6A
:101CD000214C12A8A168C1F30311014411F8301C72
:101CE000CB401360A068A168C0F3022012ACC1F31E
:101CF000C2212044214410F8440C11F8441C23FA5A
:101D000000F0CB405060936013B0F0BD836812A91F
:101D1000C3F383430B4481688068104C10F4803F08
:101D20000F4818BF204613F83C3CC1F38151434390
:101D30000131B3FBF1F3CBE7084BC9E7084BC7E729
:101D40009CFF0700C0FD0F0068FF1F00104C00083B
:101D5000D0FE3F00804A000800380240001BB70058
:101D60000024F4000000000000000000000000005B
:101D70000B4B0C4A99420C4B06D00C48814203D0C5
:101D800000F58060814206D19268986812F4005F85
:101D900018BF400070479268586812F4806FF7E7E8
:101DA0000008014000380240040B0020000C0140F4
:101DB00038B505460C4601680848FFF7D9FF2B687F
:101DC000DA6A0132B0FBF2F0B0FBF4F2A04228BFB5
:101DD00002F1FF329A6200225A6238BD040B0020E1
:101DE00006480749836805C8B3FBF1F3B2FBF1F27B
:101DF000B0FBF1F1034800F07BBA00BF040B0020F8
:101E000040420F00204C00080000000000000000CD
:101E10004FF08052084B5A62084A11465368DB065D
:101E2000FCD4136823F4C05343EAC02010604B680D
:101E3000DB06FCD4704700BF003802400070004051
:101E400070B50068324D049CA84246D105F5843532
:101E50002E6A46F480562E62EE6A26F48056EE62B2
:101E6000ED6A4FF441750129056002BF016841F038
:101E700080010160012A02BF026842F00202026092
:101E8000012B02BF036843F001030360204B98421B
:101E9000204B0CBF9B685B68B3FBF4F3802B2BDCFF
:101EA000402B2BDC202B2BDC102B2BDC082B2BDCF2
:101EB000042B2BDC022BD4BF00230123026842EA4F
:101EC000C30303609DF81430012B02BF036843F481
:101ED000006303600023436070BD0F4DA842C0D172
:101EE00005F500356E6A46F480466E622E6B26F468
:101EF00080462E632D6BB4E70723DFE70623DDE77B
:101F00000523DBE70423D9E70323D7E70223D5E73B
:101F100000300140040B00200038004000000000A9
:101F200008B501F0CDFEFFF793FB084B9B68DB077C
:101F300003D5074B1B6803B19847FFF791FB01F0EE
:101F4000D7FEBDE8084002F023BB00BF00300140CF
:101F50002C0B00200000000000000000000000002A
:101F600008B501F0ADFEFFF773FB084B9B68DB077C
:101F700003D5074B1B6803B19847FFF771FB01F0CE
:101F8000B7FEBDE8084002F003BB00BF00380040C8
:101F9000300B0020000000000000000000000000E6
:101FA00038B504460D4601F0BBFED4F8AC30002B2A
:101FB0001EDD01F0B5FED4F8AC3004F19800013B11
:101FC000C4F8AC30D4F8943003F10802C4F894207B
:101FD0002A681A606A685A60D4F8942004F1900361
:101FE0009A4228BFC4F8944002F03AF8002038BD65
:101FF0000220FCE7000000000000000000000000DC
:1020000073B5856904464DB9037F69460B48009551
:102010008DF80530FFF7C4FF02B070BD061D01F05A
:102020007FFE236913B1304602F052FA2346294657
:102030003046034A02F0ECF9EEE700BF680C0020DE
:102040007116000800000000000000000000000001
:1020500013B500220446037F694607488DF8053012
:102060000092FFF79DFF637F012B02D12046FFF70F
:10207000C7FF02B010BD00BF680C002000000000C8
:10208000884230B515D0431E13F8014F2046A4F105
:102090004102192A11F8012B98BF04F12000A2F186
:1020A0004105192D98BF2032801A01D1002CEBD1A7
:1020B00030BD0020FCE70000000000000000000030
:1020C00070B508B9106868B103460E46184613F893
:1020D000014B16F8015B15B1AC42FAD1F5E72CB90A
:1020E0002046146070BD23460CE015B90E4613F867
:1020F000014B16F8015BAC42F7D1002CF3D0002164
:1021000003F8011C1360EDE7000000000000000070
:102110002DE9F04385B0984601AB064600250846F8
:102120001F469DF83090B0FBF2F4844602FB140188
:1021300020460929CCB294BF30343734E4B29445F8
:1021400005F1010503F8014BEDD22C4633684445F7
:102150001B680BD249463046984718B10C2005B091
:10216000BDE8F0830134F1E7002DF8D03368013D7C
:1021700030461B68795D98470028F5D0EEE70000EF
:102180002DE9F04F0B46054614464FF00A0B85B07B
:102190001E4616F8011B31B928462B685B6805B04E
:1021A000BDE8F04F1847252902D02B681B6864E072
:1021B0005F784FF00008302F14BF20279E1C16F8C0
:1021C000011BA1F13000C0B2092804D92A2905D188
:1021D00054F8040BC0B20BFB0808F0E72E2909D114
:1021E00016F8011BA1F13003092BF9D92A2901D1D5
:1021F0000434F5E763293BD015D841294ED003D8E4
:102200002529D2D03346C3E7532939D05829F9D1EB
:10221000434610220097284654F8041BFFF778FF26
:102220000028EFD0B8E773292AD01BD8642901D041
:102230006929E7D1A14659F8044B002C07DA2B682D
:102240002D2128461B6898470028A5D164424346A3
:102250000A22214628460097FFF75AFF00289BD103
:102260004C46CFE77529CDD143460A220097D2E7E5
:102270002B6854F8041B1B68C9B228469847CFE75F
:102280002768013F17F8011F09B90434BAE72B6822
:1022900028461B6898470028F4D07DE70027D4E93A
:1022A000019823685FFA88FA03934F4501DB0C34E9
:1022B000A8E76FB9039B1022D95D3023284600930D
:1022C0000223FFF725FF00287FF466AF0137ECE714
:1022D000B8F1000FEED02B68514628461B6898478E
:1022E0000028E7D058E700000000000000000000D0
:1022F0000FB413B504AB53F8044B0193202383F3BD
:10230000118801F07DFC2146019A0648FFF738FF4D
:1023100001F08EFC002383F3118802B0BDE8104069
:1023200004B07047DC0F0020000000000000000037
:102330000FB407B504AA52F8041B04480192FFF732
:102340001FFF03B05DF804EB04B07047DC0F002002
:1023500070470000000000000000000000000000C6
:1023600008B5064C40F2DE3002F022F82068002862
:10237000F8D003685B689847F4E700BF580C00206A
:102380000EB403B503AA52F8041B00F5D8700192ED
:10239000FFF7F6FE02B05DF804EB03B07047A0F55E
:1023A000DA70EDE70000000000000000000000000F
:1023B000F0B51746314A904246D1314CE26942F0BD
:1023C0000102E261032402684D00AC40E64322EAC8
:1023D0000404046002240268AC4014430460012435
:1023E00042688C40002F47D122EA04044460C2684E
:1023F000072902EA0602C260C46803FA05F242EA4B
:102400000402C260836806EA03064FF00203866096
:10241000826803FA05F343EA0203836086BFA1F1F1
:1024200008039A008A0007298CBF042300230F2188
:102430001844036A914023EA010303620723016AF7
:1024400093400B430362F0BD0E4A904204D10C4C02
:10245000E26942F00202B4E70B4A904204D1084C10
:10246000E26942F00402ACE7084A9042AAD1044C67
:10247000E26942F00802A4E71443B7E70000024013
:10248000003802400004024000080240000C0240F4
:10249000D0F81021D0F81C1100F588739B1A8B42DC
:1024A00028BF0B46C0F820317BB1002380F81831DB
:1024B00043685B68DA60D0F820215A60C268126A0B
:1024C0001A601A6842F001021A60704700000000AA
:1024D000436859680A6822F00F020A60597B1A683B
:1024E0000E238B405360D0F81021D0E947310A44C5
:1024F0005B1A00F588718A4228BF00F11002C0F80B
:102500001C31C0F810212BB9012380F81831036861
:102510001B681847FFF7BCBF000000000000000068
:10252000FFF7D6BF00000000000000000000000020
:10253000D0F81C31FF2B16D8D0F814315A1CC0F833
:1025400014211970D0F8142100F588739A4224BF21
:1025500000F11003C0F81431D0F81C310133C0F879
:102560001C31002070470C20704700000000000064
:10257000FFF7DEBFA0F5D870FAE70000000000000A
:1025800090F818310BB1FFF783BF704700000000CF
:10259000FFF7F6BFA0F5D870FAE7000000000000D2
:1025A0008368D0F828215B685B68C3F180039B1ABD
:1025B00048BF803383B1531CC0F82831024492F8DD
:1025C0002C310B70D0F828317F2B4FF0000301DD48
:1025D000C0F82831184670470B20704700000000F3
:1025E000F0B590F8AC31044685B0002B7AD00026C7
:1025F0003D4F4FF0804520460DF10701FFF7D0FF1A
:1026000000286FD194F840329DF8072043B9B4F800
:1026100042126B6A5B1A40F2DE319BB28B4203D9E5
:1026200084F84062C4F83C626B6A082AA4F842321B
:10263000D4F83C3205D1002BDDD0013BC4F83C324C
:10264000D9E70D2A01D00A2A27D1002BD3D0234461
:1026500083F8B861394604F50E7204F5DC70FFF7B3
:102660002FFD0123C4F8440284F840328DF80D3068
:1026700084F8AC61202383F311881C4D01F0C0FA6B
:1026800001F04EFBD5F8AC30002B0FDC01F090FCD4
:1026900001F0CEFA86F31188ABE77E2BABD8591C3C
:1026A0002344C4F83C1283F8B821A4E701F038FBB6
:1026B000D5F8AC3004F5DA71013BC5F8AC30D5F88B
:1026C00094300B4803F10802C5F89420196003996F
:1026D000596005F190039A4228BFC5F8945001F063
:1026E000BFFCD3E705B0F0BD604C0008680C0020CB
:1026F000000D0020000000000000000000000000AD
:10270000C268D2E90013054A9342054A0CBF926899
:102710005268B2FBF1F29A60704700BF0038014086
:10272000040B00200000000000000000000000007A
:10273000002373B50446C0681A4681898068FFF794
:1027400037FEE3683B4A5B68934258D13A4B1A6ABA
:1027500042F480421A62DA6A22F48042DA62DB6A68
:1027600000262046FFF7CCFFE06809214368334A82
:102770001E618069234602F02BF8E56843686A68A9
:102780006060111D9960296A2869196001230C2174
:1027900084F81831D160C02151611A46A98AFFF727
:1027A00007FEE068334632460921C06902F010F89E
:1027B000E16843684A68A060101D986004F596704F
:1027C000D8608020496A58601960196841F0010199
:1027D0001960D36843F40053D360194B1A6802B9E7
:1027E0001C60184C236843B9009380224FF4907109
:1027F000154B164801F084FD206002B070BD144AEC
:1028000093420AD10C4B5A6A42F400325A621A6B54
:1028100022F400321A631B6BA2E70E4A93429FD147
:10282000054B5A6A42F480225A621A6B22F48022C3
:10283000F0E700BF003801400038024021250008C1
:10284000580C00205C0C002061230008380B00208D
:10285000004400400048004000000000000000006C
:1028600010B52023044683F3118801F0C9F9012330
:1028700084F8AC3101F0DCF9002383F3118810BD3A
:10288000FFF7EEBFA0F5DA70FAE7000000000000E5
:1028900037B5002503682946DB6804469847C4F825
:1028A000845003B030BD00000000000000000000B4
:1028B000202383F3118801F0A3B900000000000079
:1028C00008B501F0B5F9002383F3118808BD0000B5
:1028D00010B5044601F024FAE36823B12046BDE8B0
:1028E000104001F0F5BD10BD000000000000000028
:1028F000104B984205D1104AD36943F00103D361CC
:1029000070470E4B984204D10B4AD36943F002033F
:10291000F5E70B4B984204D1074AD36943F004030F
:10292000EDE7084B9842EBD1034AD36943F0080323
:10293000E5E700BF0000024000380240000402400A
:1029400000080240000C02400000000000000000EF
:1029500018B9081E18BF01207047B1FA81F040096C
:1029600070470000000000000000000000000000B0
:102970000269036803EB82031963704700000000DB
:1029800010B50446C3692C309988FFF7F1FFE3695D
:1029900000200833E36110BD0000000000000000CB
:1029A00008B500212C30FFF7E3FF08BD0000000050
:1029B0001FB504460123D0F88800B4F88C2001919B
:1029C00001B91032934083619DF8041004F12C008A
:1029D000FFF7CEFF9DF8051004F14800FFF7C8FF90
:1029E0009DF8061004F16400FFF7C2FF04B010BDAB
:1029F000036801495B681847B04C000800000000FC
:102A0000F7B50446B4F88C60D0F8880094F88E10BE
:102A1000FFF76EFF7300DAB203230568934025EADF
:102A2000030505600125D0F800C005FA02F747EA62
:102A30000C0707604768B54027EA0505456045680B
:102A4000B14029434160C16804F12C0521EA03012A
:102A5000C160C168C160816821EA03038360022309
:102A6000816893400B4383602846FEF7A1FED4F8AB
:102A70008010284604F14805FFF79AF92846FEF72A
:102A800097FED4F88010284604F16405FFF790F90A
:102A90002846FEF78DFE2846D4F88010FFF788F907
:102AA000002120462368DB6803B0BDE8F0401847EA
:102AB00010B50020FEF78CFF044C6328206004D979
:102AC0000348FFF715FC0023236010BD600C0020B5
:102AD000C04C0008000000000000000000000000E2
:102AE0002DE9F041061D044630460D4642F21077AE
:102AF000FFF7EEFE40F2E73000214FF47A72002338
:102B0000E7FB0501FDF7E4FB23460146024A304698
:102B1000BDE8F04101F07CBC711600080000000027
:102B2000C369D0F88420D3F8051070B591420446EB
:102B30000AD00268D3F80150D66845B9B047E369B6
:102B4000D3F80520C4F884200933E3612CE090F821
:102B5000842059798A4229D2013284F8842094F859
:102B6000852099798A4224D2013284F8852094F80C
:102B70008620D9798A421FD2013284F8862094F8BF
:102B800087201B7A9A421AD2013284F88720204685
:102B9000D4F88410B047E069D4F88420D0F8053028
:102BA0009A420FD10930E061002044E0D7D9013AC0
:102BB000D3E7DCD9013AD8E7E1D9013ADDE7E6D934
:102BC000013AE2E794F884104379D0F801208B426F
:102BD0001CBF0431B2FBF1F194F8853018BF4D1CD5
:102BE000817908BF002599421BBF0433B2FBF3F380
:102BF0000021591CA94294F8863038BF2946C5796E
:102C0000007A9D421BBF0433B2FBF3F30023013370
:102C1000994238BF194694F8873098421BBF043355
:102C2000B2FBF3F2002201329142204638BF114636
:102C3000FFF756FF012070BD0000000000000000FB
:102C40000368112B0CD8026D013342F8041B00F10C
:102C500048018A4288BF021D026503600020704758
:102C60000C20704700000000000000000000000081
:102C7000012938B5154603D0022906D071B938BDEF
:102C800011460830FFF7DCFFF9E700F10804294698
:102C90002046FFF7D5FF29462046F3E700F1080458
:102CA00011462046FFF7CCFFF1E7000000000000CE
:102CB000836910B504466BB1FFF7FAFD01F030F8F7
:102CC000236913B1201DFFF703FE0023C4E9063377
:102CD000FFF7F6FD23682046BDE810405B68184703
:102CE00038B504460D46FFF7E3FD4FF0FF3323628E
:102CF00023682046C4E906551B689847BDE838405C
:102D0000FFF7DEBD00000000000000000000000032
:102D100038B5044601F004F8236913B1201DFFF70C
:102D2000D7FD4FF0FF35E3691A78042AFDD8DFE8B4
:102D300002F0030A14253100236820469B68984757
:102D40000128F0D138BDD3F801100933E36100291F
:102D5000E9D02046FFF7C4FEF4E7D3F80130A269BA
:102D600003EBC3031344E36194F8293023B1124801
:102D700004F12401FFF714F90121EAE794F829305E
:102D800023B10D4804F12401FFF70AF90023C4E937
:102D90000633D7E7226A013204BFD3F8012022624A
:102DA000226A1AB909332562E361BCE7A369013AD3
:102DB000E3612262B7E700BF680C0020000000005A
:102DC00038B583680446F3B1FFF772FD636D04F113
:102DD000500253F8045B934288BF04F10C0363650F
:102DE000A368013BA360FFF76BFDFFF761FD4FF0A8
:102DF000FF330548C0E906550362FFF789FFBDE8C8
:102E00003840FFF75DBD38BD9C0D0020000000007C
:102E100038B5044609480D46FFF74AFF0023A36072
:102E2000A36D04EB8505E96D636504F10800FFF708
:102E300007FF2046FFF7C4FF38BD00BF9C0D0020F0
:102E4000012938B5044612D109490A48FFF748FF5D
:102E50005CB9094D2146094885F8E540FFF7D8FFE0
:102E60004FF46173C5F8DC3001E0012CF1D038BDBE
:102E7000804E000874100020B0080020180D0020BB
:102E80002DE9F0415F4D00272C464FF003082379D0
:102E900020685B00D9B2A679FFF72AFD026808FA1C
:102EA00001FC22EA0C020260C368013723EA0C032A
:102EB000C360C26806FA01F31343082FC36004F12C
:102EC0000804E4D10024012726464FF003082868AF
:102ED000A988036907FA01F21A4202BF07FA06F34A
:102EE0001C43E4B2FFF704FD0368490008FA01F14E
:102EF00001361943082E016005F10805E7D1424D5E
:102F00002B689C4247D021464048FFF7F1F94048E2
:102F10002C60FFF7CDFE00233E4D3F4EAB60AB6D06
:102F20006B65B3696BB1FFF7C3FC00F0F9FE336961
:102F300013B1301DFFF7CCFC0023C6E90633FFF7C1
:102F4000BFFC3548FFF72CFD3148FFF7B1FEC4F355
:102F50000211042928BF0421304EE20904F00F04B5
:102F60000B2C3171B27118D9C02373712C4B2D48C1
:102F7000FFF7BEF92648FFF79BFE0023AB60AB6D61
:102F800029486B65337905EB8305E96DFFF758FE3A
:102F90002048FFF715FFBDE8F081244B185D03289A
:102FA000707119D0082819D00D2819D0172819D0F8
:102FB0001D2819D0262819D0372819D0502819D003
:102FC000862819D0CD2819D0C52819D0144B184CF3
:102FD000C02818BF2346CAE7164BC8E7164BC6E7FA
:102FE000164BC4E7164BC2E7164BC0E7164BBEE7BD
:102FF000164BBCE7164BBAE7164BB8E7164BB6E7CD
:10300000164BB4E77011002000080020304D000876
:103010009C0D0020180D002074100020600C002072
:10302000E04C00083E4D0008200D0020704E0008C6
:103030002A4D0008F44C0008FB4C0008024D000823
:10304000094D0008104D0008174D00081E4D0008DE
:10305000EF4C0008244D0008E74C0008ED4C000838
:103060000B6870B504460D460BB1122303606B6804
:103070000BB1122363602368002B0EDD304904F18D
:103080000800FFF7DDFD2F482F4983698B4201D0EF
:10309000FFF726FE2368043B23606368002B0EDDE8
:1030A0002A4904F10800FFF7CBFD26482649836929
:1030B0008B4201D0FFF714FE6368043B6360236812
:1030C000002B38DC6368002B35DCD5E90231E06F7A
:1030D000A26FFFF73DFC064620B919461046FFF7E0
:1030E00037FC06462969D4F88000FFF731FC002838
:1030F00018BF0646A367EB682046E3672B69144AAE
:10310000C4F88030A968FFF7B3FD2046114AE9688A
:10311000FFF7AEFD2046104A2969FFF7A9FD56B119
:103120000E4B9B793BB10748836923B9C36913B937
:103130000B49FFF7D5FD2046FFF742FE70BD00BFEB
:103140004011002074100020404E0008B0110020F3
:10315000DD1100200A12002037120020600C002030
:10316000804E000800000000000000000000000089
:1031700010B586B01422002101A801F0E1FBFFF791
:1031800097FB164BD3F8D8409C4216BF1A4604F161
:103190006C0203F16C04C3F8D820FFF791FB002008
:1031A000A31C6E349C4212D013F8022C6AB113F89F
:1031B000012C042A09D801A951F822100DF1040CA0
:1031C00001314CF8221003F8020C0233EAE70448FC
:1031D00001A9FFF745FF06B010BD00BFB0080020F1
:1031E000180D00200000000000000000000000009A
:1031F000BFB50320FEF70CFE884A894D5368894805
:1032000023F4604343F440435360FEF721FD00F094
:1032100057FC00F04DFF122105F1A400C5E924552B
:10322000814F00F0E5FE002105F1980000F0E0FE7E
:103230007E48FFF77DFA7E4CFFF73AFC7D4A7E49D7
:103240003B687E48FFF754F87648FEF7C9FD2046F4
:10325000FFF7D6FB04238DF80D3000236362039B38
:103260007748A362FEF7A4FAFEF712F97548FDF756
:103270006FFF80B1FFF71CFB4FF0FF332362724BEF
:103280002046C4E90633FFF743FDFFF719FB42F27E
:10329000607001F08DF8FFF7F3FDFFF709FB6B4855
:1032A000FEF7AEFEFFF70CFB69496A48FFF718FD11
:1032B000DFF8E481A8F1080908F10C0A00238DF871
:1032C00015300493FFF7F4FA4FF0FF31404600F059
:1032D0009FFE98B9D5F89020504602F10803C5F832
:1032E00090304B4528BF2B46116804915268C5F8B1
:1032F0009030059200F0B4FE00F05AFEFFF7E0FABD
:103300009DF815104B1E052B75D8DFE803F024033C
:103310007420740F504C236801332360FFF7B0FD15
:1033200023689B07CAD1FFF723FFC7E79DF8114029
:103330009DF81060214632464848FEF7D9FF3B7998
:10334000012BBBD831462046FFF77AFDB6E744484B
:10335000FFF736FDB2E7049C4249D4F89000FEF72F
:103360008FFE18B92046FFF743FB0CE03E49D4F826
:103370009000FEF785FE58B9236820465E682E4A05
:103380002C4B3A49B047236820461B68984795E77D
:103390003749D4F89000FEF773FE30B92368204611
:1033A0005B683A6833499847EDE73349D4F89000B1
:1033B000FEF766FE0646D0B9304904F18402FEF7F6
:1033C0007FFE38B1324601A901F04AFB019B064657
:1033D0001878A0B123682A495B6820469847D2E74D
:1033E0002848FEF785FF236827495B68F5E72368CF
:1033F00026495B68F1E72648FEF77AFF5EE7632E11
:10340000F1D83146FEF7ECFA01460028E8D1314602
:1034100020483E60FEF76CFFA4E700BF0038024082
:10342000680C0020040B0020600C00202C0E0020F3
:103430009C0D0020604D00086E4D0008764D000880
:10344000A0100020B0080020BC1000201C1100209B
:10345000804E0008741000203C110020854D0008AB
:10346000180D0020904D0008954D00089D4D000856
:10347000A44D0008BF4D0008AA4D0008604C00088C
:10348000B04D0008C74D0008D54D0008DF4D0008BD
:10349000EC4D0008BB4D0008000D002000000000AE
:1034A0002DE9F041061D044630460D4642F21077E4
:1034B000FFF70EFA40F2E73000214FF47A72002352
:1034C000E7FB0501FCF704FF23460146024A3046AC
:1034D000BDE8F04100F09CBF71160008000000003C
:1034E00038B5044600F01CFC236913B1201DFFF71A
:1034F000EFF94FF0FF35E3691A78042AFDD8DFE8C9
:1035000002F0030A13222E00236820469B68984786
:103510000128F0D138BD59680833E3610029EAD0A9
:103520002046FFF7BDFFF5E75A68A36903EBC20326
:10353000E36194F8293023B1114804F12401FEF726
:103540002FFD0121ECE794F8293023B10C4804F158
:103550002401FEF725FD0023C4E90633DAE7226AD9
:10356000013204BF5A682262226A1AB908332562FE
:10357000E361C0E7A369013AE3612262BBE700BFF0
:10358000680C0020000000000000000000000000A7
:103590002DE9F84F0E2100240125FF274FF00308E5
:1035A00068228020ED4B4FF0040A1C705C709C7008
:1035B000DC701C715C719C71DF711C725D729972A0
:1035C000DD721C735C739C73DC731C745C749C7480
:1035D000DC741C755C759C75DC751C765C769C7661
:1035E000DD761A775D779C77DC7783F8204083F867
:1035F000214083F8224083F8234083F8248083F815
:10360000254083F8264083F8274083F8284083F834
:10361000294083F82A4083F82B4083F82C40D04B74
:103620004FF0000B1C705C709C70DC701C715F7143
:103630009C71DC711C725D729972DD721C735C731B
:103640009C73DC731C745C749C74DC741C755C75FA
:103650009C75DC751C765C769C76DD761A775D77DA
:103660009C77DC7783F8204083F8214083F8224060
:1036700083F8234083F8248083F8254083F826408C
:1036800083F8274083F8284083F8294083F82A40AC
:1036900083F82B4083F82C40B24B4FF0000C1C7089
:1036A0005C709C70DC701C715F719871DC711C72B5
:1036B0005D729972DD721C735C739C73DC731C7495
:1036C0005C749C74DC741C755C759C75DC751C7674
:1036D0005C769C76DD761A775D779C77DC7783F86D
:1036E000204083F8214083F8224083F8234083F868
:1036F000248083F8254083F8264083F8274083F808
:10370000284083F8294083F82A4083F82B4083F827
:103710002C40954B954E1C705C709C70DC701C713D
:1037200058719C71DF711C725D729972DD721C732D
:103730005C739C73DC731C745C749C74DC741C750B
:103740005C759C75DC751C765C769C76DD761A77EC
:103750005D779C77DC7783F8204083F8214083F8FD
:10376000224083F8234083F8248083F8254083F89F
:10377000264083F8274083F8284083F8294083F8BF
:103780002A4083F82B4083F82C40794B79481C70F1
:103790005C709C70DC701C715C719F71DC711C72C0
:1037A0005D729972DD721C735C739C73DC731C74A4
:1037B0005C749C74DC741C755C759C75DC751C7683
:1037C0005C769C76DD761A775D779C77DC7783F87C
:1037D000204083F8214083F8224083F8234083F877
:1037E000248083F8254083F8264083F8274083F817
:1037F000284083F8294083F82A4083F82B4083F837
:103800002C4063235C4ADFF89091147054709470DC
:10381000D4701471937213774FF4E133577194712C
:10382000D47114725572D472147354739473D47324
:10383000147454749474D474147554759475D47544
:10384000147654769476D57654779477D47782F834
:10385000204082F8214082F8224082F8234082F8FA
:1038600024A082F825A082F8264082F8274082F81A
:10387000284082F8294082F82A4082F82B4082F8BA
:103880002C4082F82D8082F82E4082F82F4082F85A
:10389000304082F8314082F8324082F8334082F87A
:1038A000344082F83540354AC0E9068AC2E900BC96
:1038B000C2E92422324A4FF0920CC0E900320922B8
:1038C00082810A2282824FF48552C0E908C22D4AC1
:1038D00086600661D06002F11000C2E944002A4807
:1038E00082F8185100F1200CC2F8B0C14FF00F0C53
:1038F00010603030C2E94744C2E9494482F8AC5113
:10390000C2F83842A2F84242C2F83C4282F8404231
:10391000C2F84442C2F8B4011C4A1D4816619661BF
:103920001662966208264FF00C0310609060A2F8B1
:103930001CC00D204FF00B0C9685164EA2F824C02B
:10394000938291809571908195739575957782F8A2
:10395000265082F82E50C2F830901FE0401100200F
:10396000B0110020DD1100200A12002000000240EA
:1039700037120020F4100020BC100020680C00203A
:10398000003801402C0E0020784C000870110020F7
:103990000008024074100020000402409186214675
:1039A00082F83650C2F83890908782F83E5006EB85
:1039B0000A001C2200F0C4FF4FF00C034FF0FF3B45
:1039C000B38663233249C6E908B43160314986F8C9
:1039D0002940C6E90B19C6E90E15A6F840407364E4
:1039E0002D4E214606EB0A001C2200F0A9FF0522FD
:1039F000B28640F20112294BA6F84020C6E90B39E5
:103A0000C6E91173C6E9153AC6E91873C6E91C3848
:103A1000B363234BA6F85C20A6F878203360214AD4
:103A2000214B02211A6042F210729A614FF48172A6
:103A3000A6F850501D4DC6E91F7B1D4FC6E908B4BE
:103A400086F82940F163C6F84C90C6F86890A6F84D
:103A50006C40C6F88440C6F88890A6F88C1086F8AA
:103A60008E409A8305F15C0605F10C03C5E9153318
:103A70000FCF0FC63B6814222146C5E90044AC6055
:103A8000336005F1700000F05BFFBDE8F88F00BF08
:103A9000284E0008000C01409C0D0020000400404E
:103AA000084E0008584C00081C110020180D00207A
:103AB000A04A000800000000000000000000000014
:103AC00008B500F0D5FDBDE8084000F001B80000E1
:103AD00000F03EB800000000000000000000000000
:103AE0004FF08043002258631A610222DA60704767
:103AF0004FF080430022DA607047000000000000B1
:103B00004FF0804358637047000000000000000041
:103B100010B500F0D5F84FF080431A6992070CD524
:103B200000241C61202383F3118800F099F800F031
:103B30000FFB00F0ADF884F3118800F0D9F8BDE870
:103B4000104000F025BD0000000000000000000053
:103B5000134B08215A6A1C2042F001025A621A6B68
:103B600042F001021A630F4A1B6B936843F0010392
:103B700093600D4B5A6842F21073B2FBF3F24FF0B0
:103B80008043013A9A624FF6FF72DA6200229A612C
:103B90005A63DA605A6001225A611A6000F008B86C
:103BA00000380240002004E0040B00200000000068
:103BB0000122090100F1604303F56143C9B283F8B2
:103BC000001300F01F039A4043099B0003F1604378
:103BD00003F56143C3F880211A60704700000000BC
:103BE000044BD3E90A23134302D0034800F0A8BAD8
:103BF000704700BFA4120020D04E00080000000053
:103C000010B5064CD4E90A1251EA020302D0044866
:103C100000F096FA0123E36210BD00BFA412002059
:103C2000E04E00080000000000000000000000005E
:103C300010B5064CA36A13B9E36A002B02DC0448F2
:103C400000F07EFA0023E36210BD00BFA412002042
:103C5000F04E00080000000000000000000000001E
:103C600010B5064CA36A002B01DDE36A13B10448CA
:103C700000F066FA0123E36210BD00BFA412002029
:103C8000004F0008000000000000000000000000DD
:103C900010B5064CA36A002B02DDE36A002B02DCA0
:103CA000034800F04DFA0023E36210BDA412002087
:103CB000104F00080000000000000000000000009D
:103CC000202310B583F31188074CA36A002B01DB76
:103CD000E36A13B1054800F033FAA36A0133A36223
:103CE000002383F3118810BDA4120020204F000888
:103CF000202310B583F31188074CA36A002B01DD44
:103D0000E36A13B1054800F01BFAA36A013BA36202
:103D1000002383F3118810BDA4120020304F000847
:103D2000054B9A6A002A02DBDB6A002B02DC03489F
:103D300000F006BA704700BFA4120020404F0008F0
:103D4000044B9A6A12B9DB6A002B02DC024800F0CD
:103D5000F7B97047A4120020504F0008000000007F
:103D60000022024BC3E900339A607047A41200207E
:103D700010B50446FFF7D4FF14B9094800F0E0F984
:103D80000023A2682375074B1B6899689142FBD2F8
:103D90005A6823606260204614605C6010BD00BFFA
:103DA000704F0008A4120020000000000000000076
:103DB00038B50446202383F31188FFF751FF237D94
:103DC0000025052B0BD8DFE803F0030A0A081C16B0
:103DD000FFF75EFF85F3118838BDA3691D604FF0C2
:103DE000FF332046A361FFF7C3FFFFF751FF002316
:103DF00083F31188F0E7A569FFF792FFAB68013301
:103E0000AB60D4E9003213605A60E8E700000000BC
:103E100010B50446FFF784FF14B9094800F090F983
:103E20000023A2682375074B1B6899689142FBD851
:103E30005A6823606260204614605C6010BD00BF59
:103E4000804F0008A41200200000000000000000C5
:103E500070B506460D4C2569FFF772FF23682E7575
:103E60001A6854602260012223611A75EFF30983F6
:103E70002A69243B9A4202D9054800F061F9294693
:103E80002069BDE87040FCF793B900BFA412002080
:103E9000604F00080000000000000000000000006B
:103EA00070B50D4686B00446FFF74AFF6B1C0D4EF9
:103EB00013D0336929460C4A01A800F0A9FA20461C
:103EC000FFF7C6FFFFF72CFF049B13B101A800F01A
:103ED000FFFA3369986906B070BD2046FFF7B8FF56
:103EE000F7E700BFA4120020B13D00080000000069
:103EF000F8B504460D46124E3769FFF721FFA26858
:103F0000BB68A5619A4204D82046BDE8F840FFF797
:103F10002FBF3846FFF77CFF012305463461237528
:103F2000EFF309830269243B9A4202D9054800F065
:103F300007F929462046BDE8F840FCF739B900BF2B
:103F4000A4120020604F00080000000000000000E4
:103F5000044B1A681B6990689B68984294BF0020C4
:103F600001207047A41200200000000000000000A3
:103F700038B50D4C236820691A685460226001220C
:103F80001A752361FFF744FF0546EFF309830269C1
:103F9000243B9A4202D9054800F0D2F8294620690C
:103FA000BDE83840FCF704B9A4120020604F0008B7
:103FB00008B5FFF7C5FEFFF7B3FE064B1A681B698D
:103FC00092689B689A4203D9BDE80840FFF7D0BFCA
:103FD00008BD00BFA4120020000000000000000087
:103FE000FFF7C6BF00000000000000000000000056
:103FF00038B50D46044608B1002902DA034800F03E
:104000009FF8C4E90044A56038BD00BFA04F000878
:1040100038B504460D46FFF793FE14B90E4800F07C
:104020008FF8A3685A1E002AA26012DA1DB94FF059
:10403000FF30A36038BD094B62681B6929469C614B
:104040001C605A60052013606360BDE83840FFF7CC
:1040500027BF0020EEE700BFB04F0008A4120020E9
:1040600010B50446FFF75CFE14B9094800F068F883
:10407000A3680133002BA36009DC20680368236078
:104080005C600023BDE810408361FFF771BE10BD86
:10409000D04F0008000000000000000000000000F9
:1040A000FEE700000000000000000000000000002B
:1040B00038B50025194CFFF753FE00F099F980221E
:1040C000174904F13000C4E90A5500F0B9F8154B5E
:1040D0002061036101230375134B144AD96821F44D
:1040E000E0610904090C0A431149DA60CA6842F028
:1040F0008072CA600F490A6842F001020A60102209
:10410000DA77202283F82220FFF76AFD85F31188F1
:1041100062B6BDE83840084800F0DAB8A4120020C2
:10412000E04F00080004002000ED00E00003FA0565
:10413000F0ED00E0001000E000500008000000007A
:1041400072B6014B5862FEE7A41200200000000086
:104150002DE9F84F4FF00008C146254CFFF7E0FD70
:10416000FFF7DEFD656904F114074FF080435B6AD9
:10417000268C9BB2AA689E1BB6B2964220D34FF003
:10418000200AAA68238CD5F80CB0134423842B682A
:10419000B61ABB425F606361C5F80C8001D1FFF7BE
:1041A000A7FCFFF775FD89F311882869D8478AF3C2
:1041B0001188FFF755FD6569AB689E42E1D2D4E7EF
:1041C0006269BA4212D0916823848E1B96604FF6C2
:1041D000FF72A868904228BF104602282CBF18180A
:1041E000981CBDE8F84F80B2FFF78ABCBDE8F88F95
:1041F000A4120020000000000000000000000000E9
:10420000202383F31188FFF7FBBC000000000000AF
:1042100008B5FFF70DFD002383F3118808BD0000EA
:1042200010B5044610B90448FFF78AFF2146BDE8DF
:1042300010400820FFF734BE2050000800000000A6
:1042400082600222828270470000000000000000AD
:1042500010B50446FFF764FD14B91948FFF770FF65
:104260006268500707D1A368590704D19A4202D265
:104270009B1A9F2B02D81248FFF762FFE368FF2BBF
:1042800001D8236913B90E48FFF75AFFD4E901306A
:1042900040F8103CA0F1440340F8143C2369203856
:1042A00040F8243C636940F8203C064B40F8043C4D
:1042B000E3688360022303750023437510BD00BFCC
:1042C00030500008C101000800000000000000009C
:1042D00010B5D0E90132044655219A420CD8FFF7B7
:1042E0008FFF2046FFF7B4FF04460021FFF700FED2
:1042F000FFF78EFF204610BD03F8011BEDE700001D
:10430000F8B50C4616461F46054640B19F2906D90A
:1043100040EA01035B0702D1FF2A00D817B913480E
:10432000FFF70EFF2B4655212A199A421AD8203C36
:104330002C44FFF765FFA4F12403E360069B2046AD
:1043400044F8203C0A4B002144F8043C0223256138
:10435000A38244F8247CA660FFF7CAFDFFF758FF4C
:104360002046F8BD03F8011BDFE700BF50500008EE
:10437000C101000800000000000000000000000073
:10438000024B1B6998610F20FFF762BDA412002049
:1043900010B50446FFF734FF2046BDE81040FFF794
:1043A000EFBF00000000000000000000000000005F
:1043B00010B50446FFF724FF2046FFF731FFBDE8A4
:1043C0001040FFF725BF00000000000000000000C3
:1043D0000346006820B100221A608161FFF7C8BC63
:1043E0007047000000000000000000000000000016
:1043F000054B03F11402C3E905224FF0FF32DA61E5
:1044000000221A84704700BFA412002000000000A0
:10441000F8B505460C4616461F46FFF781FC0DB160
:1044200006B114B92548FFF78BFE4FF08043586A58
:10443000234BC5E903671A4652F8146F022C214634
:1044400038BF022196421F4680B210D14FF6FF744A
:104450001884A14294BF40180019C3E9055580B2E1
:10446000C5E90066A960BDE8F840FFF739BB1B8CC1
:10447000B268C41AA4B20C1902D3A41A36680AE0AE
:10448000A24208D94FF6FF70844294BF1819181839
:1044900080B2FFF735FBB368A3420CD373682E607C
:1044A0006B601D607560AC60B3681C1B4FF0FF3320
:1044B000B460FB61F8BDE41AE0E700BF805000087B
:1044C000A412002000000000000000000000000016
:1044D00038B50446FFF724FC14B92248FFF730FE34
:1044E000214923680A4652F8140FA0420CD0616893
:1044F0000B602368596000219342E16003D09A6801
:10450000A1680A449A6038BD002093424B615A600A
:10451000E06003D1BDE83840FFF7EABA9868A268C6
:104520000D8C104498604FF080435C6A641BA4B209
:10453000A042E8D9031B012B09D80234B4F5803F0F
:104540000BD2281980B2BDE83840FFF7D9BA4FF630
:10455000FF74844228BF0446F3E70448FFF7F0FDE8
:10456000EFE700BF90500008A41200207050000830
:10457000EFF30983203383F30988002383F3118841
:104580007047000000000000000000000000000074
:10459000202310B583F311880D4B5B6813F400637F
:1045A00012D0EFF309844FF0807344F8043CA4F177
:1045B000200383F30988FFF7CBFC18B1054B44F8BF
:1045C000083C10BD044BFAE783F31188F9E700BFFC
:1045D00000ED00E0D5010008E00100080000000047
:1045E0007047000000000000000000000000000014
:1045F0007047000000000000000000000000000004
:1046000070470000000000000000000000000000F3
:10461000FEE70000000000000000000000000000B5
:10462000F0B5082000261049D1E901341D460A687A
:10463000043AAC4210D8E21CD21ADD1E22F003026A
:10464000AC4238BF00221344CA689A4209D80138E4
:1046500001F11001E8D1F0BD52F8047F45F8047B68
:10466000E7E743F8046BF0E7A05000080000000003
:1046700008B51A4B1A6942F07F4242F47F0242F4B5
:10468000FF4242F040021A611A6922F4FF4222F00E
:1046900040021204120C1A611A699A6962F080527F
:1046A0009A619A6902F080529A619A695A694FF048
:1046B000FF325A615A6900225A615A695A6A42F0B5
:1046C00080525A621A6B42F080521A631B6B00F0E0
:1046D00007F8BDE8084000F023B900BF00380240E9
:1046E00000230121084A10B5C2E900330748446895
:1046F0001030236042F8313001310829F7D14FF0F2
:10470000FF32034B5A6010BD641200203051000884
:1047100000600240000000000000000000000000F7
:104720002DE9F84F0446884692469B46FFF7F8FA73
:10473000062C09D80127224DA7402A68174207D026
:1047400000263046BDE8F88F1E48FFF7F9FCF7E772
:104750001D4B3A432A601D49DA694FEA041901EBFF
:104760000416013445F834A042F0807205EBC4040D
:10477000C4F804B0DA619A6A0C4642F080729A6218
:104780009B6ABAF1000F0AD06A68B3681A4203D173
:104790004146F07BFFF70CFA6B681F436F6004EB38
:1047A00009014B68497B1A6854F8090022F00F028E
:1047B0001A600E228A40426000221A60C1E700BFE0
:1047C00064120020205100080038024030510008D7
:1047D000F8B51F4604460D461646202383F311887C
:1047E000FFF70EFA3B46324629462046FFF798FF70
:1047F0000446FFF71DFA002383F311882046F8BD15
:1048000010B40468437B21684268D940126801F003
:104810000E010A420ED0827B01FA03F36360064B5D
:10482000013253F832402CB103EBC20358682346DF
:1048300010BC184710BC7047641200200000000034
:1048400008B5FFF73DFA0448FFF7DAFFFFF750FA23
:10485000BDE80840FFF79CBE305100080000000092
:1048600008B5FFF72DFA0448FFF7CAFFFFF740FA33
:10487000BDE80840FFF78CBE405100080000000072
:1048800008B5FFF71DFA0448FFF7BAFFFFF730FA43
:10489000BDE80840FFF77CBE505100080000000052
:1048A00008B5FFF70DFA0448FFF7AAFFFFF720FA53
:1048B000BDE80840FFF76CBE605100080000000032
:1048C00008B5FFF7FDF90448FFF79AFFFFF710FA64
:1048D000BDE80840FFF75CBE705100080000000012
:1048E00008B5FFF7EDF90448FFF78AFFFFF700FA74
:1048F000BDE80840FFF74CBE8051000800000000F2
:1049000008B5FFF7DDF90448FFF77AFFFFF7F0F984
:10491000BDE80840FFF73CBE9051000800000000D1
:1049200070470000000000000000000000000000D0
:10493000014B1868704700BF040800200000000009
:1049400003460244934200D1704703F8011BF9E784
:10495000012B2DE9F047864601D0242B06D9FFF71D
:10496000E7FF162303600020BDE8F0878C463A4E2F
:1049700060461CF8014BA55D15F00805F8D12D2CFB
:1049800033D14FF001089CF8004000F1020C002BDD
:104990005DD0102B0CD1302C0AD19CF8000000F017
:1049A000DF0058284ED110239CF801400CF1020C76
:1049B000002508F10047013FB7FBF3F9284603FB48
:1049C000197AA4F13006092E18D83446A34224DD02
:1049D000002D1FDB81451DD301D1A2451ADB012526
:1049E00000FB03401CF8014BEBE72B2C08BF9CF8A5
:1049F0000040A84608BF00F1020CC8E7A4F1410638
:104A0000192E01D8373CE1E7A4F16106192E04D82C
:104A1000573CDBE74FF0FF35E4E7002D08DA2223AF
:104A20003846CEF80030002A9ED00CF1FF3107E066
:104A3000B8F1000F00D04042002A95D0002DF4D1EB
:104A4000116091E73024002BB2D10823B0E7302C5D
:104A5000A3D00A23ACE700BFA1510008000000006A
:104A600013460A46014602480068FFF771BF00BFBF
:104A7000040800200000000000000000000000000A
:104A800000000000000000000102030406070809FE
:104A9000000000000102030400000000000000000C
:104AA00040110020B0110020DD1100200A1200206A
:104AB000371200200000000000000000000000008D
:104AC000434320527374204661696C0D00434320B8
:104AD00057204661696C0D00434320522F572046F2
:104AE00061696C3B2072706C3D25750D004343205D
:104AF00052204661696C0D00434320696E69742041
:104B00006F6B0D00000000000000000000000000BE
:104B10000000000000000000E105000800000000A7
:104B20000B060C0010C811841213153321562210E5
:104B300019161A6C1B431C401D9123E9242A2500D9
:104B4000261F2C812D352E090000000000000000DA
:104B50000B0E0C00100E112F1273150021B622102F
:104B6000191D1A1C1BC71C091DB023EA242A250085
:104B7000261F2C882D312E090000000000000000A7
:104B80000D486172644661756C740D000000000090
:104B9000566563746F72353800556E68616E646C6B
:104BA00065642025530D0000000000000000000097
:104BB000566563746F72354300000000000000000A
:104BC000566563746F72363000000000000000000C
:104BD000566563746F7236340000000000000000F8
:104BE000566563746F7236380000000000000000E4
:104BF000566563746F7239430000000000000000C6
:104C0000566563746F7245300000000000000000BC
:104C1000030406080C1018203000000000000000FB
:104C2000414842467265713D25754D487A3B2041A9
:104C3000504231467265713D25754D487A3B2041A1
:104C4000504232467265713D25754D487A0D00001F
:104C500000000000000000005120000800000000DB
:104C6000202C0000000000000000000000000000F8
:104C7000000000000000000051230008E1250008AA
:104C8000712500089125000881230008812800086B
:104C900050FEFFFF00000000752500089525000864
:104CA0004CFEFFFF00000000852800089F2300083D
:104CB0004F6B0D0A00000000000000000000000023
:104CC0000D5573696E672064656661756C74204963
:104CD000440D000000000000000000000000000083
:104CE0002B313264426D002B3764426D002B313022
:104CF00064426D002D333064426D002D32376442C2
:104D00006D002D323564426D002D323064426D00ED
:104D10002D313564426D002D313064426D002D36E9
:104D200064426D002B3564426D003F3F64426D006C
:104D30004469703A203078253032583B200054794D
:104D400070653A2025753B20566962726F456E3A50
:104D50002025753B205077723A2025530D00000026
:104D600032303232303732315F31363334004461E1
:104D70006C616E3232000D25532025533B2049448F
:104D80003D25750D0042746E2025752025750D009A
:104D900050696E670056657273696F6E0025532007
:104DA00025530D0047657449440053657449440018
:104DB000436D644572726F720D0A004E657720492B
:104DC000443A2025750D004545206572726F723A90
:104DD0002025750D004661696C7572650D0A0043EA
:104DE0006D64556E6B6E6F776E0D0A00556E68615F
:104DF0006E646C6564204D73672025750D0000009E
:104E00000000000000000000112D0008912800089B
:104E1000212B0008B129000800000000000000005C
:104E20000000000000000000E1340008A129000893
:104E300081290008000000000000000000000000C0
:104E4000000000006400000001000000630000009A
:104E5000000000000000000001000000F00300005E
:104E6000030000000000000000000000000000003F
:104E700003080D171D26375086CDC5C00000000061
:104E8000000000006400000001000000630000005A
:104E900000000000000000000100000063000000AE
:104EA000000000006400000001000000630000003A
:104EB000000000000000000001000000F0030000FE
:104EC00003000000000000000000000000000000DF
:104ED00053562333000000000000000000000000D3
:104EE00053562334000000000000000000000000C2
:104EF00053562335000000000000000000000000B1
:104F0000535623360000000000000000000000009F
:104F1000535623370000000000000000000000008E
:104F2000535623380000000000000000000000007D
:104F3000535623390000000000000000000000006C
:104F40005356233130000000000000000000000034
:104F50005356233131000000000000000000000023
:104F6000737461636B206F766572666C6F77000097
:104F7000636853636852656164794900000000000A
:104F80006368536368526561647941686561644927
:104F90000000000000000000000000000000000011
:104FA000636853656D4F626A656374496E69740026
:104FB000636853656D5761697454696D656F757485
:104FC000530000000000000000000000000000008E
:104FD000636853656D5369676E616C49000000003A
:104FE0006D61696E0000000000000000000000001C
:104FF00069646C6500000000000000000000000013
:10500000F04F0008F0120020A01300200100000063
:10501000A1400008000000000000000000000000A7
:105020006368546864536C65657053000000000049
:105030006368546864437265617465537573706521
:105040006E6465644900000000000000000000007C
:10505000636854686443726561746553746174690C
:1050600063000000000000000000000000000000DD
:10507000636854696D654164645800000000000075
:1050800063685654446F5365744900000000000083
:1050900063685654446F526573657449000000009C
:1050A00088530008A0130020A0130020A0130020A4
:1050B000885300080000000000000000000000000D
:1050C00088530008000000000000000000000000FD
:1050D00088530008000000000000000000000000ED
:1050E00088530008000000000000000000000000DD
:1050F00088530008000000000000000000000000CD
:1051000088530008000000000000000000000000BC
:1051100088530008000000000000000000000000AC
:10512000646D6153747265616D416C6C6F634900AD
:105130000060024008600240010000000000000B17
:10514000006002401C600240020000000004010CEC
:105150000060024030600240040000000008020DC0
:10516000006002404460024008000000000C030E92
:105170000060024058600240100000000010040F60
:10518000006002406C600240200000000014051026
:1051900000600240806002404000000000180611DC
:1051A00000202020202020202020282828282820F7
:1051B00020202020202020202020202020202020EF
:1051C0002088101010101010101010101010101057
:1051D0001004040404040404040404101010101047
:1051E0001010414141414141010101010101010111
:1051F0000101010101010101010101011010101063
:1052000010104242424242420202020202020202E2
:105210000202020202020202020202021010101036
:10522000200000000000000000000000000000005E
:10523000000000000000000000000000000000006E
:10524000000000000000000000000000000000005E
:10525000000000000000000000000000000000004E
:10526000000000000000000000000000000000003E
:10527000000000000000000000000000000000002E
:10528000000000000000000000000000000000001E
:10529000000000000000000000000000000000000E
:1052A00000000000000000000000000000000000FE
:1052B00000000000000000000000000000000000EE
:1052C00000000000000000000000000000000000DE
:1052D00000000000000000000000000000000000CE
:1052E00000000000000000000000000000000000BE
:1052F00000000000000000000000000000000000AE
:10530000000000000000000000000000000000009D
:04531000F8B500BF2D
:04531400F8B500BF29
:08531800E8AFFF7F0100000077
:10532000FFFF00000808002000000000D052000825
:10533000F0520008B0520008000000000000000019
:10534000000000000000000000000000000000005D
:10535000000000000000000000000000000000004D
:10536000000000000000000000000000000000003D
:10537000000000000000000000000000000000002D
:08538000000000000000000025
:04000005080001A14D
:00000001FF
