:020000040800F2
:10000000000400209101000893010008E118000895
:100010009301000893010008930100089301000870
:1000200093010008930100089301000811420008A1
:100030009301000893010008930100089301000850
:100040009301000893010008930100089301000840
:10005000930100089301000891190008E1190008B4
:10006000311A0008811A0008D11A0008F14400086A
:100070001145000831450008514500087145000848
:1000800091450008B145000893010008930100085C
:10009000930100089301000893010008211B000848
:1000A00093010008210F0008930100089301000844
:1000B000D13700089301000893010008930100085C
:1000C000930100089301000893010008C11E000875
:1000D000011F000893010008930100089301000824
:1000E000711B0008930100089301000893010008A8
:1000F0009301000893010008930100089301000890
:10010000930100089301000893010008930100087F
:10011000930100089301000893010008930100086F
:10012000930100089301000893010008930100085F
:10013000930100089301000893010008930100084F
:0C0140007501000861120008013400087D
:04014C005101000855
:1001500010B5054C237833B9044B13B10448AFF301
:1001600000800123237010BD7008002000000000F3
:10017000804F000808B5034B1BB103490348AFF398
:10018000008008BD0000000074080020804F0008B7
:1001900026E000F000F8FEE700000000000000008C
:1001A0002DE9F04FC1F80CD0C3689D46BDE8F08F33
:1001B00003F096FB002383F311882846A047002014
:1001C00003F03EFF03F07CFB03F062FD03F088FBCD
:1001D00000DFFEE70000000000000000000000005B
:1001E00072B6274880F30888264880F30988264895
:1001F0004EF60851CEF200010860022080F3148808
:10020000BFF36F8F04F03CF804F042F84FF0553024
:100210001E491B4A91423CBF41F8040BFAE71C49B6
:10022000184A91423CBF41F8040BFAE719491A4AAF
:100230001A4B9A423EBF51F8040B42F8040BF8E700
:1002400000201749174A91423CBF41F8040BFAE7D6
:1002500004F036F804F024F8134C144DAC4203DAE1
:1002600054F8041B8847F9E702F0B2FE104C114D18
:10027000AC4203DA54F8041B8847F9E704F018B8D5
:1002800000040020000800200000000800000020FA
:1002900000040020804F0008000800206C080020A7
:1002A0007008002050140020400100084C01000894
:1002B0004C01000850010008000000000000000090
:1002C00053B94AB9002908BF00281CBF4FF0FF31BD
:1002D0004FF0FF3000F07CB9ADF1080C6DE904CEB1
:1002E00000F006F8DDF804E0DDE9022304B0704711
:1002F0002DE9F047089E0D4604468846002B4DD157
:100300008A42944668D9B2FA82F252B101FA02F3F3
:10031000C2F1200120FA01F10CFA02FC41EA0308C3
:1003200094404FEA1C41B8FBF1F71FFA8CFE01FB29
:10033000178807FB0EF0230C43EA084398420AD9BA
:100340001CEB030307F1FF3580F01E81984240F259
:100350001B81023F63441B1AB3FBF1F001FB103316
:1003600000FB0EFEA4B244EA0344A6450AD91CEBE6
:10037000040400F1FF3380F00981A64540F20681B4
:10038000644402380021A4EB0E0440EA07401EB189
:100390000023D440C6E90043BDE8F0878B4208D96A
:1003A000002E00F0EE800021C6E900050846BDE8F9
:1003B000F087B3FA83F100294AD1AB4202D38242DB
:1003C00000F2FC80841A65EB030301209846002E9E
:1003D000E2D0C6E90048DFE702B9FFDEB2FA82F2F6
:1003E000002A40F09180A1EB0C0001214FEA1C474C
:1003F0001FFA8CFEB0FBF7F307FB1300250C45EA50
:1004000000450EFB03F0A84208D91CEB050503F1DB
:10041000FF3802D2A84200F2CE8043462D1AB5FB27
:10042000F7F007FB10550EFB00FEA4B244EA0544AA
:10043000A64508D91CEB040400F1FF3502D2A645FD
:1004400000F2B6802846A4EB0E0440EA03409EE783
:10045000C1F120078B4022FA07FC4CEA030C25FA75
:1004600007FA4FEA1C49BAFBF9F820FA07F309FB2F
:1004700018AA8D401FFA8CFE1D4300FA01F308FBF9
:100480000EF02C0C44EA0A44A04202FA01F20BD905
:100490001CEB040408F1FF3A80F08880A04240F28F
:1004A0008580A8F102086444241AB4FBF9F009FB22
:1004B000104400FB0EFEADB245EA0444A64508D93F
:1004C0001CEB040400F1FF356CD2A6456AD9023852
:1004D000644440EA0840A0FB0295A4EB0E04AC4241
:1004E000C846AE4656D353D0002E69D0B3EB0802AF
:1004F00064EB0E0422FA01F304FA07F71F43CC4021
:10050000C6E90074002147E70CFA02FCC2F12001A1
:1005100025FA01F34FEA1C4720FA01F195400D43FB
:10052000B3FBF7F107FB11331FFA8CFE280C40EAEE
:10053000034001FB0EF3834204FA02F408D91CEBDA
:10054000000001F1FF382FD283422DD902396044D7
:10055000C01AB0FBF7F307FB1300ADB245EA004544
:1005600003FB0EF0A84208D91CEB050503F1FF3888
:1005700016D2A84214D9023B6544281A43EA014125
:1005800038E73146304607E72F46E4E61846F9E6F5
:100590004B45A9D2B9EB020865EB0C0E0138A3E775
:1005A0004346EAE7284694E74146D1E7D0467BE751
:1005B0006444023847E7023B65442FE7084606E7F4
:1005C0003146E9E6000000000000000000000000E5
:1005D000704700BF000000000000000000000000A5
:1005E000816A09B1836A1847243003F049BD0000CD
:1005F000104B984205D1104AD36943F00103D361EF
:1006000070470E4B984204D10B4AD36943F0020362
:10061000F5E70B4B984204D1074AD36943F0040332
:10062000EDE7084B9842EBD1034AD36943F0080346
:10063000E5E700BF0000024000380240000402402D
:1006400000080240000C0240000000000000000012
:1006500070B515460226FFF7CBFF032204464B0078
:100660009A4006FA03F3012600688E4020EA020051
:1006700020602068072940EA03002060606820EAC3
:1006800006006060E06820EA0200E060E068E06088
:10069000A06820EA0202A260A26843EA02038ABFBD
:1006A000A1F108028A00920007298CBF04200020D3
:1006B0000F21A3600444236A914023EA01032362CB
:1006C000236A95401D43256270BD000000000000B4
:1006D0000368197303689A68D207FCD5187B7047C2
:1006E0000123428A81689340034A0869184002D076
:1006F000013AFAD101207047B882010000000000E1
:100700000123C18AC2688B409361704700000000DA
:10071000C38AC16803F11002012393408B617047C3
:100720000148FFF75DBF00BF8C08002000000000FB
:100730007F2908B2C4BFA1F5807108B200EBD07068
:1007400040104A3840B2704700000000000000002E
:100750002DE9F04104460F461646FFF7D9FF204623
:10076000FFF7BEFF054630B12046FFF7C9FF012560
:100770002846BDE8F08104F1040847F080014046B6
:10078000FFF7A6FF00F0700084F8200029464046DD
:10079000FFF79EFF30702046FFF7B2FFE8E700004A
:1007A0002DE9F04104460F461646FFF7B1FF2046FB
:1007B000FFF796FF054630B12046FFF7A1FF012560
:1007C0002846BDE8F08104F1040839464046FFF7A9
:1007D0007FFF31464046FFF77BFF2046FFF790FF43
:1007E000EEE7000000000000000000000000000034
:1007F00070B504460E46FFF78BFF2046FFF770FFEB
:10080000054628B12046FFF77BFF0125284670BD2D
:100810003146201DFFF75CFF84F820002046FFF7DB
:100820006FFF94F8203003F0700384F82030EDE778
:100830003621FFF7DDBF00000000000000000000CF
:10084000F8B505460E4695F820401CB12846FFF73E
:10085000EFFFF8E7771C17F8142016F81410284655
:100860000134FFF79DFF142CF5D1F8BD0000000006
:1008700038B504460D4694F820301BB12046FFF7EA
:10088000D7FFF8E72A462046BDE838400A21FFF79F
:1008900087BF000000000000000000000000000012
:1008A0003D21FFF7A5BF0000000000000000000090
:1008B0003521FFF79DBF0000000000000000000090
:1008C0002DE9FF414268AB4B04469A4200F0838019
:1008D000A3F578439A420CBF4FF005084FF0060885
:1008E00003250126E18AE068FFF782FE4B000268DB
:1008F000DBB205FA03F722EA07020260D0F800C073
:1009000006FA03F242EA0C020260D0F804C006FACA
:1009100001F22CEA020242604268218A4260C26807
:1009200022EA0702C260C268C260826822EA070245
:1009300002278260826807FA03F31343836042460A
:10094000A068FFF785FE4246618AA068FFF780FE37
:100950004246A18AA068FFF77BFEA18BA06901FA3D
:1009600006F3D9B294F81E80FFF742FE026805FA3A
:1009700001FC22EA0C020260C36808FA01F123EAD2
:100980000C034FF00F0CC360C36819437A4BC1606E
:100990001A6A32431A62DA6A22F00102DA62A28B20
:1009A000DB6A02F47F7303F1804303F5803302EACC
:1009B00005019868B9400CFA01FC20EA0C00986027
:1009C000DFF8B8C1A069604508D1986806FA01F15E
:1009D0000143996009E04FF0050881E7684EB04295
:1009E00039D198688F4007439F600127654B07FA0C
:1009F00002F21968204611431960596821EA020180
:100A00005960996821EA02019960D9681143D96057
:100A10005A61FFF775FE00235B4A1946CDE90023B2
:100A2000201D1A4601F0DCF9626830211368204667
:100A300043F040031360FFF7DBFE10B362685348D6
:100A4000136823F04003136001F01AFC3D4628466A
:100A500004B0BDE8F0814E4EB04203D1986805FA6B
:100A600001F1B5E74B4DA84205D104209D6800FA7D
:100A700001F12943ADE7484DA842B6D107209D6852
:100A8000F5E7072206212046FFF78AFE08B1434812
:100A9000DAE78DF80F00062120460DF10F02FFF76F
:100AA00057FE054640B99DF80F60072E06D0314627
:100AB0003B4801F0E5FBC9E73A48C5E73A21204643
:100AC000FFF796FE20220D212046FFF769FE252222
:100AD0000E212046FFF764FEED220F212046FFF78E
:100AE0005FFEA32213212046FFF75AFEFF221421A6
:100AF0002046FFF755FE082218212046FFF750FE3A
:100B0000324603212046FFF74BFE3F22294620466E
:100B1000FFF746FE062202212046FFF741FE0C2287
:100B200031462046FFF73CFE442208212046FFF7CD
:100B300037FE50223E212046FFF732FE3246162174
:100B40002046FFF72DFE302217212046FFF728FE12
:100B5000A08B09280AD804280AD8063080B20721B9
:100B600002F086FE104801F08BFB70E72820F6E7C4
:100B70001720F4E700300140003802400004024032
:100B80000008024000040140A02E63004047000816
:100B9000000C024000100240001402404D470008C3
:100BA000584700086D47000878470008000000001B
:100BB00038B504460D46FFF773FE94F82030102B2D
:100BC0000AD02046FFF734FE3A212046FFF710FEF8
:100BD00034212046FFF70CFEA56238BD000000005E
:100BE0002DE9F04104460D461746FFF791FD2046DA
:100BF000FFF776FD064630B12046FFF781FD01265E
:100C00003046BDE8F08104F104087F214046FFF73B
:100C10005FFD2F44AF4205D0404615F8011BFFF79A
:100C200057FDF7E72046FFF76BFDE9E700000000FE
:100C3000F7B504461F460D461646FFF731FE94F8F9
:100C40002030102B0BD034212046FFF7D1FD00239C
:100C50000093009B352B02D8009B0133F8E7204618
:100C6000FFF726FE00230193019B0B2B02D8019B6B
:100C70000133F8E72046FFF713FE94F82030202BCD
:100C800008D1324629462046A76203B0BDE8F040AD
:100C9000FFF7A6BF024803B0BDE8F040FFF7C8BDAC
:100CA0008C08002000000000000000000000000090
:100CB0002DE9F7430E46904678210DF107020446D0
:100CC0001F46FFF745FD70B99DF90730002B0ADA82
:100CD0002046FFF71DFD2046FFF702FD054620B127
:100CE0002046FFF70DFD012527E004F10409FF214F
:100CF0004846FFF7EDFC3744BE424FF0000148463E
:100D000006D0FFF7E5FC8DF8070006F8010BF3E7C6
:100D1000FFF7DEFC00218DF807004846FFF7D8FCFE
:100D20002046FFF7EDFCB8F1000F06D020469DF8F5
:100D30000710FFF7FDFC88F80000284603B0BDE867
:100D4000F083000000000000000000000000000030
:100D500010B5114B11491A680B79C3B1D36841F230
:100D6000C86043F00203D3606C230968546A4B43A4
:100D700003F5A2739C4201D30344FBE747F2E7105B
:100D8000834298BF5363064BC9B2197010BDD36834
:100D900023F00203D360F9E73C0C0020B00D0020E3
:100DA000300C0020000000000000000000000000E7
:100DB00070B5304C082321462F48621DFFF778FF9D
:100DC0002E4D002841D14CF61123E2889A423CD1A5
:100DD0002B4B62781B689A4224DAA378032B21D824
:100DE000284B61781A78914208D361781A78914239
:100DF00018D1254AA1781278914213D26278D2B2E2
:100E00001A70A378204A0133DBB2137000231F4A03
:100E100013601F4A1361B4F803302A6835335362F4
:100E2000FFF796FF2378352BDAB20ED8194B60798D
:100E3000D3F8603340B203EBC206716801447160BD
:100E400053F83210013143F832102B685A6A41F2DC
:100E5000C7639A4208D810490748FFF7A9FE4FF028
:100E600080620E4B9A6170BD36210348FFF7C0FCCB
:100E7000F5E700BF280C00208C0800203C0C002067
:100E8000B00D0020400C0020380C0020240C002065
:100E900000080140B8080020B10D0008000402401D
:100EA00008B5084B1B685A6A41F2C7639A4203D8D7
:100EB00005490648FFF77CFE4FF08062044B9A61BB
:100EC00008BD00BF3C0C0020B10D00088C080020BC
:100ED00000040240000000000000000000000000CC
:100EE00010B5044636212046FFF782FC80B994F8FD
:100EF0002030002BF6D133212046FFF779FC38B99A
:100F00003D212046FFF774FC94F82030002BF7D1E8
:100F100010BD000000000000000000000000000004
:100F200073B502F025FD202383F3118802F0F0FC55
:100F3000494B1D69DA6815400022A9071A611DD5C1
:100F40004FF4806203F57C439A614448FFF7C8FF81
:100F5000434B44491B780822DBB24B70424B3F485D
:100F60001B78DBB28B70414B1B685B6A9BB2A1F8AC
:100F700003303F4BFFF75CFEFFF7EAFE6A0733D50D
:100F800036213648FFF734FC3A4A3B491368096872
:100F900001338B42136027D308230026374C8DF88A
:100FA0000530166002F014FDD4F8AC30B3421BDDFE
:100FB00002F00EFDD4F8AC300199013BC4F8AC301E
:100FC000D4F894302E4803F10802C4F894201E701F
:100FD0005E709E70DE70596004F190039A4228BFE3
:100FE000C4F8944002F094FEEB0728D54FF4006358
:100FF000244C254DA361254B6A7993F864139142E3
:1010000005D03E21154883F86423FFF7C9FB204A29
:1010100013680133042B136005D92A78104B1A701A
:101020000022114B1A700D48FFF75AFF19490B485F
:10103000FFF7BEFDFFF78CFE4FF00063A36102F0E7
:101040007FFC002383F3118802F0AAFC02B0BDE804
:10105000704003F0EDB800BF000801408C0800208C
:10106000400C0020300C0020380C00203C0C0020EC
:10107000A10E0008200C002000080020B80D002060
:10108000500E002000040240B00D0020B8080020DF
:10109000240C0020B10D000800000000000000003A
:1010A00070B5614D6148EB6943F00203EB61604B41
:1010B0001A6822F440121A601A6842F480121A6008
:1010C0005A6822F480625A605A685A60DA6822F4D8
:1010D0004012DA60DA68DA609A6822F440129A60A4
:1010E0009A6842F400129A60EA6942F00202EA61E8
:1010F0001A6822F440021A601A6842F480021A60E8
:101100005A6822F400625A605A685A60DA6822F417
:101110004002DA60DA68DA609A6822F440029A6083
:101120009A6842F400029A60FFF7CAFB044600285E
:1011300078D1404E082206213C48FFF731FB0221BE
:101140003A48FFF795FB72793E213848FFF728FBB4
:101150007279394B3949354883F86423FFF770FBBE
:10116000374B9A7911229A71DA796FF03502DA7178
:101170003278344B344E1A70344B30461C7000F0C9
:1011800057FAEB69192043F00103EB61304B1A6801
:1011900022F030021A601A6842F020021A605A687F
:1011A00022F004025A60DA6822F03002DA60DA686B
:1011B000DA609A6822F030029A609A6842F020025F
:1011C0009A601A6A22F470621A621A6A42F44072D1
:1011D0001A624FF6F872336899680A4042F00702C3
:1011E0009A604FF68F7299680A4042F050029A60F6
:1011F00002229A6247F2E812DA6241F2C8629A6306
:10120000DA68042142F00102DA60DA6842F004028E
:10121000DA6002F02DFB3268136843F001031360BB
:10122000204670BD0124FBE7003802408C080020F6
:1012300000040240B00D0020B8080020A0470008BC
:10124000300C0020400C00203C0C0020380C00200A
:10125000000002400000000000000000000000004C
:10126000164A174B17481360174B1849536003F57C
:101270005043C2E902339361032393830023C2E9FD
:101280000401134913489377C860194682F8203047
:1012900053629362104A42F833100133362BFAD16D
:1012A00000200D49013BC1F8B00101F10801F9D15D
:1012B0000A4BC2F860230A4A1A6070478C08002063
:1012C00098470008050006000030014007000400B0
:1012D000640C002021070008B80800203C0C002006
:1012E00000080140000000000000000000000000B5
:1012F000234B37B51B68002559680A6822F00F0296
:101300000A60597B1A680E238B4053601D4B1E4A9E
:101310009D60136823F001031360202383F3118879
:1013200002F0F6FA0323194C8DF8053002F050FB59
:10133000D4F8AC30AB421BDD02F04AFBD4F8AC3041
:101340000199013BC4F8AC30D4F89430104803F153
:101350000802C4F894201D705D709D70DD705960A6
:1013600004F190039A4228BFC4F8944002F0D0FCE4
:1013700002F0E6FA002383F3118803B030BD00BF0A
:10138000540C00200024014000380240B80D002019
:10139000500E0020000000000000000000000000CF
:1013A000054B01391A6B22F0F8721A631A6B42EA84
:1013B00001521A63704700BF002401400000000082
:1013C000062910B50FD81F242B4B0139186C01EBDF
:1013D00081018C4020EA04001864186C02FA01F1C3
:1013E0000143196410BD0C290FD81F24224B073963
:1013F000D86B01EB81018C4020EA0400D863D86BE4
:1014000002FA01F10143D963ECE712290FD81F2436
:10141000194B0D39986B01EB81018C4020EA0400D7
:101420009863986B02FA01F101439963DAE718298E
:101430000FD81F24104B1339586B01EB81018C40DE
:1014400020EA04005863586B02FA01F10143596322
:10145000C8E71C29C6D81F24074B1939186B01EBA4
:1014600081018C4020EA04001863186B02FA01F134
:1014700001431963B6E700BF0024014000000000EB
:1014800070B5064601241C4B1C4D1A6A092142F412
:1014900000721A62DA6A22F40072DA62DB6A6B683E
:1014A00023F4403343F480336B60FFF779FF144B30
:1014B0001A6922F460021A611A6942F420021A6160
:1014C0002146013411223046E4B2FFF779FF0A2C9D
:1014D000F6D16B680B4A43F400036B6000230F21C5
:1014E000184602F0CDFF084B084A186043689A601E
:1014F00040F282521A6070BD00380240002701405D
:1015000000240140F1120008540C0020582401402E
:1015100010B504460D4800F053FB09220C4B1B6824
:101520005B68DC605A6040F282521A601A6842F0CE
:1015300001021A604FF48072064B5A6040F20112A9
:101540009A609A6842F080429A6010BD580C002060
:10155000540C0020002401400000000000000000A6
:101560002DE9F041092101240A462346068930F875
:1015700013704FEA4308BE4208D800EB4205AE465E
:1015800035F802C9664503D2013AF8E70133EEE7C0
:101590009342DFBF013302F1FF3220F808C0AEF8FA
:1015A0000070032AD8BF1C46042BC8BF11469A42BC
:1015B000DDDA8C42D8DB0089BDE8F0810000000054
:1015C000202383F3118802F0A3B90000000000007B
:1015D00008B502F0B5F9002383F3118808BD0000B7
:1015E00010B50446FFF7ECFF236820461B689847B8
:1015F000BDE81040FFF7ECBF000000000000000055
:10160000074B5A68D2070AD5064ADA60064ADA60FA
:101610004FF480729A615A6822F480725A6070475F
:10162000003C0240EFCDAB8905040302000000003E
:101630000368B3F1804F0BD103F50E335A6A42F0C1
:1016400001025A621A6B22F001021A631B6B704787
:101650002A4A934208D12A4B5A6A42F002025A623D
:101660001A6B22F00202F0E7264A934208D1244B7B
:101670005A6A42F004025A621A6B22F00402E4E74A
:10168000214A934208D11E4B5A6A42F010025A6214
:101690001A6B22F01002D8E71C4A934208D1184B6B
:1016A0005A6A42F020025A621A6B22F02002CCE7FA
:1016B000174A93420AD1124B1A6A42F004021A6284
:1016C000DA6A22F00402DA62DB6A7047114A934256
:1016D00008D10B4B1A6A42F008021A62DA6A22F049
:1016E0000802F0E70C4A9342EFD1054B1A6A42F028
:1016F00010021A62DA6A22F01002E4E700040040E5
:101700000038024000080040001000400014004073
:1017100000080140000C01400010014000000000E2
:10172000F8B5FFF785FF036801461A6842F08002AA
:101730001A608269DA62027D0069012A00F1FF30D5
:101740000CBF0722062203280BD8DFE800F0026B4B
:10175000737B986940EA02129A611A6A42F00102A8
:101760001A621A6842F001021A60494A934271D023
:1017700002F5806293426DD002F5803293426BD0C5
:1017800002F58062934267D002F58062934214BFF3
:10179000012203224B6808894F7D3E498B425DD16F
:1017A0003D4CE16941F00101E16103241968460003
:1017B000B440E54321EA04041C6002241968B440E3
:1017C0000C4301211C605C688140002F5ED124EA3B
:1017D00001015960D968072801EA0501D960D96873
:1017E000D960996805EA01054FF002019D609C6887
:1017F00001FA06F141EA040199608ABFA0F10801EB
:101800008100890007288CBF042000200F24034496
:10181000186A8C4020EA04001862186A8A40024361
:101820001A62F8BD986940EA02329A611A6A42F077
:10183000100295E7D86940EA0212DA611A6A42F4A6
:1018400080728DE7D86940EA0232DA611A6A42F49E
:10185000805285E702229DE703229BE70F498B42D6
:1018600004D10D4CE16941F002019DE70C498B4226
:1018700004D1094CE16941F0040195E709498B4223
:1018800093D1054CE16941F008018DE72143A0E7C0
:101890000004004000000240003802400004024002
:1018A00000080240000C02400000000000000000A0
:1018B000074B01385A6922F080025A6110F8012F53
:1018C00022B119680906FCD55A60F7E7704700BFD6
:1018D000003801400000000000000000000000008F
:1018E00008B50248FFF7E4FF01BEFEE7D047000855
:1018F00030B54FF0804501466A6A0E4C92B2A3693A
:10190000DB0710D4A369DB050FD4A36913F4F05FE0
:1019100014BF012000206B6A9B1A9BB2994206D922
:101920000328ECD030BD0320F5E70E20F3E70220BA
:10193000F8E700BF003C024000000000000000008B
:1019400000F1006000F50020006870470000000012
:1019500038B504464FF4E1700D46FFF751FEFFF72E
:10196000C7FF40B904F1006000F5002005604FF4A6
:10197000E170FFF7BDFF034A536843F00103536072
:1019800038BD00BF003C0240000000000000000025
:1019900008B501F0EDFFFFF713FE0A4B1B685BB1C2
:1019A00098470122084B5A61FFF712FE01F0F8FF39
:1019B000BDE8084002F03CBC0449054800F080FC4A
:1019C000EFE700BF640C002000040140E04700087E
:1019D000E9470008000000000000000000000000CF
:1019E00008B501F0C5FFFFF7EBFD0A4B5B685BB183
:1019F00098470222084B5A61FFF7EAFD01F0D0FF39
:101A0000BDE8084002F014BC0449054800F058FC49
:101A1000EFE700BF640C002000040140004800080C
:101A2000E94700080000000000000000000000007E
:101A300008B501F09DFFFFF7C3FD0A4B9B685BB142
:101A400098470422084B5A61FFF7C2FD01F0A8FF36
:101A5000BDE8084002F0ECBB0449054800F030FC4A
:101A6000EFE700BF640C00200004014010480008AC
:101A7000E94700080000000000000000000000002E
:101A800008B501F075FFFFF79BFD0A4BDB685BB102
:101A900098470822084B5A61FFF79AFD01F080FF32
:101AA000BDE8084002F0C4BB0449054800F008FC4A
:101AB000EFE700BF640C002000040140204800084C
:101AC000E9470008000000000000000000000000DE
:101AD00008B501F04DFFFFF773FD0A4B1B695BB1C1
:101AE00098471022084B5A61FFF772FD01F058FF2A
:101AF000BDE8084002F09CBB0449054800F0E0FB4B
:101B0000EFE700BF640C00200004014030480008EB
:101B1000E94700080000000000000000000000008D
:101B200008B501F025FFFFF74BFD0A4B1B6863B1B9
:101B300098474FF47872084B5A61FFF749FD01F05E
:101B40002FFFBDE8084002F073BB0449044800F0D1
:101B5000B7FBEEE77C0C0020000401404048000881
:101B6000E94700080000000000000000000000003D
:101B700008B501F0FDFEFFF723FD0A4B1B6863B1BA
:101B800098474FF47C42084B5A61FFF721FD01F062
:101B900007FFBDE8084002F04BBB0449044800F0D1
:101BA0008FFBEEE7780C002000040140504800084D
:101BB000E9470008000000000000000000000000ED
:101BC000074A136843F00103136042F20F73116870
:101BD000890703D4013BFAD10120704700207047E8
:101BE000003802400000000000000000000000007B
:101BF0000023F0B593B0024611934FF480304FF4B8
:101C000000334FF48024CDE90A03364B364DCDE93D
:101C10000C43364B364CCDE90E53364B6168206889
:101C2000109303AB03C3217A06AD1970324B1F46E4
:101C300003F110062C4618685968083303C4B342F0
:101C40002546F7D13869716801AB03C32B48836817
:101C5000C3F38103022B40D0032B28D0012B3ED0AD
:101C6000436812A9C3F3423301EB830353F8203CCA
:101C7000224CA168C1F303114831694411F8301CAA
:101C8000CB401360A068A168C0F30220C1F3C22159
:101C9000483048316844694410F8440C11F8441C39
:101CA00023FA00F0CB405060936013B0F0BD83681E
:101CB0008168C3F3834348336B4413F83C4C836817
:101CC0000F4813F4803F0F4B18BF03466343C1F323
:101CD00081510131B3FBF1F3CAE7094BC8E7094B66
:101CE000C6E700BF9CFF0700C0FD0F0068FF1F0094
:101CF00060480008D0FE3F0020470008003802403E
:101D0000001BB7000024F4000000000000000000E9
:101D10000B4B0C4A99420C4B06D00C48814203D025
:101D200000F58060814206D19268986812F4005FE5
:101D300018BF400070479268586812F4806FF7E748
:101D40000008014000380240580C0020000C0140FF
:101D500038B505460C4601680848FFF7D9FF2B68DF
:101D6000DA6A0132B0FBF2F0B0FBF4F2A04228BF15
:101D700002F1FF329A6200225A6238BD580C0020EC
:101D800006480749836805C8B3FBF1F3B2FBF1F2DB
:101D9000B0FBF1F1034800F073BA00BF580C00200B
:101DA00040420F00704800080000000000000000E2
:101DB0004FF08052074B5A62074A5368D906FCD449
:101DC000136823F4C05343EAC02010605368DB0655
:101DD000FCD4704700380240007000400000000052
:101DE00070B50068324D049CA84246D105F5843593
:101DF0002E6A46F480562E62EE6A26F48056EE6213
:101E0000ED6A4FF441750129056002BF016841F098
:101E100080010160012A02BF026842F002020260F2
:101E2000012B02BF036843F001030360204B98427B
:101E3000204B0CBF9B685B68B3FBF4F3802B2BDC5F
:101E4000402B2BDC202B2BDC102B2BDC082B2BDC52
:101E5000042B2BDC022BD4BF00230123026842EAAF
:101E6000C30303609DF81430012B02BF036843F4E1
:101E7000006303600023436070BD0F4DA842C0D1D2
:101E800005F500356E6A46F480466E622E6B26F4C8
:101E900080462E632D6BB4E70723DFE70623DDE7DB
:101EA0000523DBE70423D9E70323D7E70223D5E79C
:101EB00000300140580C00200038004000000000B5
:101EC00008B501F055FDFFF77BFB084B9B68DB076E
:101ED00003D5074B1B6803B19847FFF779FB01F067
:101EE0005FFDBDE8084002F0A3B900BF003001402B
:101EF000800C002000000000000000000000000036
:101F000008B501F035FDFFF75BFB084B9B68DB076D
:101F100003D5074B1B6803B19847FFF759FB01F046
:101F20003FFDBDE8084002F083B900BF0038004023
:101F3000840C0020000000000000000000000000F1
:101F400038B504460D4601F043FDD4F8AC30002B03
:101F50001CDD01F03DFDD4F8AC302968013BC4F82C
:101F6000AC30D4F8943004F1980003F10802C4F8BE
:101F7000942019606968596004F190039A4228BF5F
:101F8000C4F8944001F0C4FE002038BD0220FCE7F4
:101F900073B5856904464DB9037F69460C480095C1
:101FA0008DF80530FFF7CCFF02B070BD061D01F0C3
:101FB0000FFD236913B1304602F0DAF823462946B3
:101FC0003046044A02B0BDE8704002F079B800BF64
:101FD000B80D0020E115000800000000000000001E
:101FE00013B500220446037F694608488DF8053082
:101FF0000092FFF7A5FF637F012B05D1204602B0B9
:10200000BDE81040FFF7C4BF02B010BDB80D0020FE
:10201000884230B518D0421E12F8014F11F8010B5A
:10202000A4F14103192B88BF2346A0F141059CBFB1
:1020300004F12003DBB2192D9CBF2030C0B2181A66
:1020400001D1002CE8D130BD0020FCE700000000E9
:1020500070B508B9106868B103460E46184613F803
:10206000014B16F8015B15B1AC42FAD1F5E72CB97A
:102070002046146070BD23460CE015B90E4613F8D7
:10208000014B16F8015BAC42F7D1002CF3D00021D4
:1020900003F8011C1360EDE70000000000000000E1
:1020A0002DE9F04385B0984601AB06460025084669
:1020B0001F469DF83090B0FBF2F4844602FB1401F9
:1020C00020460929CCB294BF30343734E4B2944569
:1020D00005F1010503F8014BEDD22C463368444568
:1020E0001B680BD249463046984718B10C2005B002
:1020F000BDE8F0830134F1E7002DF8D03368013DED
:1021000030461B68795D98470028F5D0EEE700005F
:102110002DE9F04F0B46054614464FF00A0B85B0EB
:102120001E4616F8011B31B928462B685B6805B0BE
:10213000BDE8F04F1847252902D02B681B6864E0E2
:102140005F784FF00008302F14BF20279E1C16F830
:10215000011BA1F13000C0B2092804D92A2905D1F8
:1021600054F8040BC0B20BFB0808F0E72E2909D184
:1021700016F8011BA1F13003092BF9D92A2901D145
:102180000434F5E763293BD015D841294ED003D854
:102190002529D2D03346C3E7532939D05829F9D15C
:1021A000434610220097284654F8041BFFF778FF97
:1021B0000028EFD0B8E773292AD01BD8642901D0B2
:1021C0006929E7D1A14659F8044B002C07DA2B689E
:1021D0002D2128461B6898470028A5D16442434614
:1021E0000A22214628460097FFF75AFF00289BD174
:1021F0004C46CFE77529CDD143460A220097D2E756
:102200002B6854F8041B1B68C9B228469847CFE7CF
:102210002768013F17F8011F09B90434BAE72B6892
:1022200028461B6898470028F4D07DE70027D4E9AA
:10223000019823685FFA88FA03934F4501DB0C3459
:10224000A8E76FB9039B1022D95D3023284600937D
:102250000223FFF725FF00287FF466AF0137ECE784
:10226000B8F1000FEED02B68514628461B689847FE
:102270000028E7D058E70000000000000000000040
:102280000FB413B504AB53F8044B0193202383F32D
:10229000118801F015FB2146019A0648FFF738FF27
:1022A00001F01EFB002383F3118802B0BDE810404B
:1022B00004B070473C110020000000000000000046
:1022C0000FB407B504AA52F8041B04480192FFF7A3
:1022D0001FFF03B05DF804EB04B070473C11002011
:1022E0007047000000000000000000000000000037
:1022F00008B5064C40F2DE3001F0B2FE206800283E
:10230000F8D003685B689847F4E700BFA80D002089
:102310000EB403B503AA52F8041B00F5D87001925D
:10232000FFF7F6FE02B05DF804EB03B07047A0F5CE
:10233000DA70EDE70000000000000000000000007F
:10234000F0B51746314A904246D1314CE26942F02D
:102350000102E261032402684D00AC40E64322EA38
:102360000404046002240268AC40144304600124A5
:1023700042688C40002F47D122EA04044460C268BE
:10238000072902EA0602C260C46803FA05F242EABB
:102390000402C260836806EA03064FF00203866007
:1023A000826803FA05F343EA0203836086BFA1F162
:1023B00008039A008A0007298CBF042300230F21F9
:1023C0001844036A914023EA010303620723016A68
:1023D00093400B430362F0BD0E4A904204D10C4C73
:1023E000E26942F00202B4E70B4A904204D1084C81
:1023F000E26942F00402ACE7084A9042AAD1044CD8
:10240000E26942F00802A4E71443B7E70000024083
:10241000003802400004024000080240000C024064
:10242000D0F81021D0F81C1100F588739B1A8B424C
:1024300028BF0B46C0F820317BB1002380F818314B
:1024400043685B68DA60D0F820215A60C268126A7B
:102450001A601A6842F001021A607047000000001A
:10246000436859680A6822F00F020A60597B1A68AB
:102470000E238B405360D0F81021D0E947310A4435
:102480005B1A00F588718A4228BF00F11002C0F87B
:102490001C31C0F810212BB9012380F818310368D2
:1024A0001B681847FFF7BCBF0000000000000000D9
:1024B000FFF7D6BF00000000000000000000000091
:1024C000D0F81C31FF2B16D8D0F814315A1CC0F8A4
:1024D00014211970D0F8142100F588739A4224BF92
:1024E00000F11003C0F81431D0F81C310133C0F8EA
:1024F0001C31002070470C207047000000000000D5
:10250000FFF7DEBFA0F5D870FAE70000000000007A
:1025100090F818310BB1FFF783BF7047000000003F
:10252000FFF7F6BFA0F5D870FAE700000000000042
:102530008368D0F828215B685B68C3F180039B1A2D
:1025400048BF803383B1531CC0F82831024492F84D
:102550002C310B70D0F828317F2B4FF0000301DDB8
:10256000C0F82831184670470B2070470000000063
:10257000F0B590F8AC31044685B0002B7AD0002637
:102580003D4F4FF0804520460DF10701FFF7D0FF8A
:1025900000286FD194F840329DF8072043B9B4F871
:1025A00042126B6A5B1A40F2DE319BB28B4203D956
:1025B00084F84062C4F83C626B6A082AA4F842328C
:1025C000D4F83C3205D1002BDDD0013BC4F83C32BD
:1025D000D9E70D2A01D00A2A27D1002BD3D02344D2
:1025E00083F8B861394604F50E7204F5DC70FFF724
:1025F0002FFD0123C4F8440284F840328DF80D30D9
:1026000084F8AC61202383F311881C4D01F058F944
:1026100001F0DEF9D5F8AC30002B0FDC01F020FB27
:1026200001F05EF986F31188ABE77E2BABD8591C1D
:102630002344C4F83C1283F8B821A4E701F0C8F998
:10264000D5F8AC3004F5DA71013BC5F8AC30D5F8FB
:1026500094300B4803F10802C5F8942019600399DF
:10266000596005F190039A4228BFC5F8945001F0D3
:102670004FFBD3E705B0F0BDB0480008B80D00200F
:10268000500E0020000000000000000000000000CC
:10269000C268D2E90013054A9342054A0CBF92680A
:1026A0005268B2FBF1F29A60704700BF00380140F7
:1026B000580C002000000000000000000000000096
:1026C000002373B50446C0681A4681898068FFF705
:1026D00037FEE3683B4A5B68934258D13A4B1A6A2B
:1026E00042F480421A62DA6A22F48042DA62DB6AD9
:1026F00000262046FFF7CCFFE06809214368334AF3
:102700001E618069234601F0BBFEE56843686A6884
:102710006060111D9960296A2869196001230C21E4
:1027200084F81831D160C02151611A46A98AFFF797
:1027300007FEE068334632460921C06901F0A0FE79
:10274000E16843684A68A060101D986004F59670BF
:10275000D8608020496A58601960196841F0010109
:102760001960D36843F40053D360194B1A6802B957
:102770001C60184C236843B9009380224FF4907179
:10278000154B164801F014FC206002B070BD144ACD
:1027900093420AD10C4B5A6A42F400325A621A6BC5
:1027A00022F400321A631B6BA2E70E4A93429FD1B8
:1027B000054B5A6A42F480225A621A6B22F4802234
:1027C000F0E700BF0038014000380240B1240008A3
:1027D000A80D0020AC0D0020F1220008880C00207C
:1027E00000440040004800400000000000000000DD
:1027F00010B52023044683F3118801F061F801230A
:1028000084F8AC3101F06CF8002383F3118810BD1B
:10281000FFF7EEBFA0F5DA70FAE700000000000055
:1028200037B5002403688DF804408DF805408DF815
:1028300006408DF80740DB6801990546984785F802
:10284000844085F8854085F8864085F8874003B048
:1028500030BD00000000000000000000000000008B
:10286000202383F3118801F02BB800000000000042
:1028700008B501F035F8002383F3118808BD000086
:1028800010B5044601F0A4F8E36823B12046BDE882
:10289000104001F06DBC10BD000000000000000001
:1028A000104B984205D1104AD36943F00103D3611C
:1028B00070470E4B984204D10B4AD36943F0020390
:1028C000F5E70B4B984204D1074AD36943F0040360
:1028D000EDE7084B9842EBD1034AD36943F0080374
:1028E000E5E700BF0000024000380240000402405B
:1028F00000080240000C0240000000000000000040
:102900006FF04A029042B8BF10466FF03502904215
:10291000A8BF10466FF0EF0300F1360215205A43AE
:10292000B2FBF0F010B5782480B2B0FBF4F304FBF6
:1029300013033C249BB23C3B002BB8BF5B42C3F16A
:102940003C03C3EB0323B3FBF4F340F2EB44A2429A
:10295000DBB205DCFF224B7000230A708B7009E0AC
:1029600040F6D714A2424FF0000204DC0B70FF23A4
:102970008A704B7010BDB32803D80A70FF224A70CA
:10298000ECE7F0284FF0FF0019BF0A704B700B7096
:102990004A708870EEE700000000000000000000B0
:1029A00008B5FFF735FBB0FA80F0400908BD00001C
:1029B0000269036803EB820319637047000000009B
:1029C00010B50446C3692C309988FFF7F1FFE3691D
:1029D00000200833E36110BD00000000000000008B
:1029E00008B500212C30FFF7E3FF08BD0000000010
:1029F00013B504460123D0F88800B4F88C20019167
:102A000001B91032934083619DF8041004F12C0049
:102A1000FFF7CEFF9DF8051004F14800FFF7C8FF4F
:102A20009DF8061004F16400FFF7C2FF02B010BD6C
:102A3000036801495B68184700490008000000006E
:102A4000F7B5B0F88C60044690F88E10D0F8880086
:102A5000FFF726FF7300DAB203230568934025EAE7
:102A6000030505600125D0F800C005FA02F747EA22
:102A70000C0707604768B54027EA050545604568CB
:102A8000B14029434160C16804F12C0521EA0301EA
:102A9000C160C168C160816821EA030383600223C9
:102AA000816893400B4383602846FEF739FED4F8D3
:102AB0008010284604F14805FFF74AF92846FEF73A
:102AC0002FFED4F88010284604F16405FFF740F982
:102AD0002846FEF725FE2846D4F88010FFF738F97F
:102AE00023682046DA6800238DF804308DF805301D
:102AF0008DF806308DF80730019903B0BDE8F0403D
:102B0000104700000000000000000000000000006E
:102B100010B50020FEF714FF044C3128206004D9C2
:102B20000348FFF7ADFB0023236010BDB00D00206C
:102B30001049000800000000000000000000000034
:102B40002DE9F041061D044630460D4642F210774D
:102B5000FFF796FE40F2E73000214FF47A7200232F
:102B6000E5FB0701FDF7ACFB23460146024A304670
:102B7000BDE8F04101F0A4BAE11500080000000032
:102B8000C369D0F88420D3F8051070B5914204468B
:102B90000AD00268D3F80150D66845B9B047E36956
:102BA000D3F80520C4F884200933E3612CE090F8C1
:102BB000842059798A4229D2013284F8842094F8F9
:102BC000852099798A4224D2013284F8852094F8AC
:102BD0008620D9798A421FD2013284F8862094F85F
:102BE00087201B7A9A421AD2013284F88720204625
:102BF000D4F88410B047E069D4F88420D0F80530C8
:102C00009A420FD10930E061002044E0D7D9013A5F
:102C1000D3E7DCD9013AD8E7E1D9013ADDE7E6D9D3
:102C2000013AE2E794F884104379D0F801208B420E
:102C30001CBF0431B2FBF1F194F8853018BF4D1C74
:102C4000817908BF002599421BBF0433B2FBF3F31F
:102C50000021591CA94294F8863038BF2946C5790D
:102C6000007A9D421BBF0433B2FBF3F30023013310
:102C7000994238BF194694F8873098421BBF0433F5
:102C8000B2FBF3F2002201329142204638BF1146D6
:102C9000FFF756FF012070BD00000000000000009B
:102CA00038B504460D46FFF7DBFD4FF0FF332362D6
:102CB00023682046C4E906551B689847BDE838409C
:102CC000FFF7D6BD0000000000000000000000007B
:102CD0002DE9F0415C4D00262C460327A188206891
:102CE0004B00D9B294F80680FFF7DAFD026807FAC4
:102CF00001FC22EA0C020260C36808FA01F123EA2F
:102D00000C03C360C36801361943082EC16004F187
:102D10000804E3D10024012726464FF00308286861
:102D2000A988036907FA01F21A4202BF07FA06F3FB
:102D30001C43E4B24900FFF7B3FD036808FA01F150
:102D400001361943082E016005F10805E7D13F4D12
:102D50002B689C4240D021463D48FFF791FA2C60F9
:102D60003C4DAB696BB1FFF77BFD00F031FE2B6989
:102D700013B1281DFFF784FD0023C5E90633FFF7D3
:102D800077FD354D3348FFF72BFEAB696BB1FFF78D
:102D900067FD00F01DFE2B6913B1281DFFF770FDC4
:102DA0000023C5E90633FFF763FD2B48FFF738FD25
:102DB0002A4DE10904F00F040B2C29710ED9C02310
:102DC000274A6B712748FFF75BFA2A79264B22487E
:102DD00053F82210FFF764FFBDE8F081234B1B5D21
:102DE000032B6B7119D0082B19D00D2B19D0172B71
:102DF00019D01D2B19D0262B19D0372B19D0502BB9
:102E000019D0862B19D0CD2B19D0C52B19D0144A27
:102E10001748C02B18BF0246D4E7164AD2E7164A15
:102E2000D0E7164ACEE7164ACCE7164ACAE7164A52
:102E3000C8E7164AC6E7164AC4E7164AC2E7164A62
:102E4000C0E7164ABEE700BFD412002004080020E5
:102E500080490008D4110020FC0E0020B00D002095
:102E6000304900088E490008680E0020D04A00084A
:102E70007A490008444900084B49000852490008B3
:102E80005949000860490008674900086E49000870
:102E90003F49000874490008374900083D490008C7
:102EA00038B504460D46FFF7DBFC4FF0FF332362D5
:102EB00023682046C4E906551B689847BDE838409A
:102EC000FFF7D6BC0000000000000000000000007A
:102ED00038B50446012910461D46C4F8901003D0A9
:102EE00002290FD0D1B938BD04F10D01FFF708FD5B
:102EF00004F108010F48FFF7D3FE0F490F48FFF711
:102F0000CFFFF0E704F12801FFF7FAFC04F13A01E2
:102F10002846FFF7F5FC04F12301EBE704F1550126
:102F2000FFF7EEFC04F167012846FFF7E9FC04F126
:102F30005001DFE7FC0E0020A04A0008D411002059
:102F4000F8B5FFF78DFC1E4BD3F860439C4216BFCB
:102F50001A4604F5D87203F5D874C3F86023FFF756
:102F600087FC00206FF06E0306461A46271D54F8B2
:102F7000301071B157F8305095FBF1F515F14F0F46
:102F800007DBAB42B8BF2B469342C4BF13462A4669
:102F9000013601303628EAD1002104F5DC7008340E
:102FA000844202D044E90211F9E731460548FFF7AF
:102FB0008FFF032E34BF04220622034B1A60F8BD94
:102FC000B8080020680E0020000800200000000063
:102FD0008FB50320FEF7ECFE804A814D536881488F
:102FE00023F4604343F440435360FEF701FE00F0D6
:102FF000C7FB00F0B5FE122105F1A400C5E9245578
:10300000794F00F04DFE002105F1980000F048FED8
:103010007648FFF755FBFFF77BFD3B68744A75491F
:103020007548FFF72DF96F48FEF7AAFE7348FFF7C2
:1030300007FD7348FEF774FB7248FEF721FA7248E9
:10304000FEF72EF838B16D487049FFF729FE42F2BD
:10305000607001F005F8FFF73BFEFFF701FC6C48DC
:10306000FEF796FFFFF704FC6A496B48FFF718FF6D
:10307000DFF8A881A8F1080908F10C0A00248DF8EE
:103080000D40FFF7EDFB4FF0FF31404600F018FE1A
:1030900098B9D5F89020504602F10803C5F8903051
:1030A0001468526803924B4534BF1A462A46C5F845
:1030B000902000F02DFE00F0D3FDFFF7D9FB9DF826
:1030C0000D104B1E072B79D8DFE803F01E040D7896
:1030D00078787807FFF7FCFDD0E73B79002BCDD15E
:1030E000FFF72EFFCAE700214648FEF739FA40F6FF
:1030F000B8314B4BB3F878309BB25943B1FBF0F188
:103100004848FFF7BDF8B9E74749D4F89000FFF702
:1031100047FC18B12046FFF78BFC0CE04349D4F87C
:103120009000FFF73DFC58B1236820465E68314AA5
:103130002F4B3F49B047236820461B6898479DE7BF
:103140003C49D4F89000FFF72BFC30B123682046AF
:103150005B683A6838499847EDE73849D4F89000F9
:10316000FFF71EFC064618B12648FEF7D1F9E2E744
:103170003349D4F89000FFF713FCD8B130463149F9
:1031800004F18402FEF764FF38B1324601A901F070
:10319000B7FA019B0646187890B123682A495B6804
:1031A00020469847C7E72948FFF76AF82368284967
:1031B0005B68F5E7236827495B68F1E72648A0E7E5
:1031C000312EF3D83146FEF7C3FB01460028EAD181
:1031D000314622483E60FFF753F89BE70038024033
:1031E000B80D0020580C0020B00D00208C0F0020DE
:1031F000B0490008BE490008C6490008FC0E00207E
:1032000000120020420C0020B80800201C120020F0
:1032100098120020E04A0008D4110020500E00202F
:103220000000F81FD5490008E5490008EA490008F0
:10323000F2490008F94900081B4A0008FF49000844
:10324000064A0008B04800080C4A0008234A000853
:10325000314A00083B4A0008484A0008174A00085B
:1032600038B5044600F0B4FB236913B1201DFFF705
:1032700007FB4FF0FF35E3691A78042AFDD8DFE831
:1032800002F0030A14253100236820469B68984702
:103290000128F0D138BDD3F801100933E3610029CA
:1032A000E9D02046FFF74CFCF4E7D3F80130A269DF
:1032B00003EBC3031344E36194F8293023B11248AC
:1032C00004F12401FEF73CFE0121EAE794F82930DD
:1032D00023B10D4804F12401FEF732FE0023C4E9B6
:1032E0000633D7E7226A013204BFD3F801202262F5
:1032F000226A1AB909332562E361BCE7A369013A7E
:10330000E3612262B7E700BFB80D002000000000B3
:103310002DE9F041061D044630460D4642F2107775
:10332000FFF7AEFA40F2E73000214FF47A72002343
:10333000E5FB0701FCF7C4FF23460146024A30467D
:10334000BDE8F04100F0BCBEE1150008000000003F
:1033500038B5044600F03CFB236913B1201DFFF78C
:103360008FFA4FF0FF35E3691A78042AFDD8DFE8B9
:1033700002F0030A13222E00236820469B68984718
:103380000128F0D138BD59680833E3610029EAD03B
:103390002046FFF7BDFFF5E75A68A36903EBC203B8
:1033A000E36194F8293023B1114804F12401FEF7B8
:1033B000C7FD0121ECE794F8293023B10C4804F152
:1033C0002401FEF7BDFD0023C4E90633DAE7226AD3
:1033D000013204BF5A682262226A1AB90833256290
:1033E000E361C0E7A369013AE3612262BBE700BF82
:1033F000B80D0020000000000000000000000000E8
:1034000000212DE9F84F4FF0630201274FF0FF082C
:103410004FF0070A4FF0030BC24BC34EC34D317040
:10342000B170F17031717171F17131727172F1724B
:1034300031737173B173F17331747174F1743175E7
:103440007175B175F17531767176B1762970A970A3
:10345000E97086F801A086F8068086F80AA086F84A
:1034600012B085F801A02971A971E97129726972F8
:10347000E97229736973A973E97329746974E9742A
:1034800029756975A975E97529766976A97619701E
:1034900059709970D97019719971D97119725F72D7
:1034A00085F8058085F80AA085F812B083F80580B4
:1034B0009A721A774FF00402D9721973597399737B
:1034C000D973197459749974D97419755975997592
:1034D000D975197659769976DF7659779977D977AC
:1034E00083F8201083F8211083F8221083F823102A
:1034F00083F8242083F8252083F8261083F82710EA
:1035000083F8281083F8291083F82A10002283F802
:103510002B1083F82C1083F82E1083F82F1083F8CB
:10352000301083F8311083F8321083F8331083F8A9
:10353000341083F8351083F82DB000237C48042420
:10354000C0E900234FF4E132C0E92400794B7A4806
:103550004FF00C0CC0E900230923784ADFF8E09112
:10356000C0E902230A23C0E9053B9223C0E90743CF
:103570004FF485534362734B0261D86003F110002E
:10358000C3E944007048C3E94711C3E9491183F80E
:10359000187183F8AC7100F12004C3E98E11186032
:1035A0003030C3F8B041C3F8B401C3E99011674BA0
:1035B0000E246748A3F814C04FF00F0C18609860F1
:1035C0000D209C801A619A61A3F81CC01A624FF00A
:1035D0000B0C9A629C8608225E4C98819887204644
:1035E000A3F824C09F719F739F759F7783F82670FF
:1035F0009A8583F82E7083F8367083F83E70C3F88E
:103600003090C3F83890544B1C2240F8043B00F033
:10361000EFFF0C2251480021C4E90D204FF0FF3389
:103620006322C4E90831C4E90F71C4E90B09A1623E
:1036300062644B4C1C22201D00F0DAFF00214FF089
:10364000FF330520474AC4E90831C4E92031464B1D
:10365000C4E90D02C4E90B29C4E91182C4E9188246
:10366000C4E91C2B62652360404A414B40F20110C3
:103670001A6042F21072C4E913979A614FF0020C7B
:1036800004274FF48172C4E91670C4E90FC0C4E97D
:103690001E08C4E91A91A162C4F88890A4F88CC0ED
:1036A00084F88E109A83334B4FF4E060C3E90065D1
:1036B0004FF47F454FF47F06C3E90A504FF07F4730
:1036C0004FF0E0654FF4E0224FF44034C3E90206C6
:1036D000C3E90E75C3E9131058674FF040774FF0F8
:1036E000FF20C3E90421C3E90641C3E9081AC3E97D
:1036F0000C12C3E91171C3E91562C3E91715C3E9D7
:103700001918C3E91BA1C3E91E021964C3E92014F7
:10371000C3F88810A3F88C1083F88E10C3F89010AB
:10372000BDE8F88F1C12002052120020B8120020B1
:10373000B80D002000380140701200200000024047
:10374000000402408C0F0020C8480008D41200205A
:1037500000080240D4110020884A0008000C0140F3
:10376000FC0E002000040040684A0008A848000839
:1037700098120020680E00200000000000000000E9
:1037800008B500F0CDFDBDE8084000F001B800002C
:1037900000F03EB800000000000000000000000043
:1037A0004FF08043002258631A610222DA607047AA
:1037B0004FF080430022DA607047000000000000F4
:1037C0004FF0804358637047000000000000000085
:1037D00010B500F0CDF84FF080431A6992070CD570
:1037E00000241C61202383F3118800F091F800F07D
:1037F00007FB00F0A5F884F3118800F0D1F8BDE8CC
:10380000104000F015BD00000000000000000000A6
:10381000134B08215A6A1C2042F001025A621A6BAB
:1038200042F001021A630F4A1B6B936843F00103D5
:1038300093600D4B5A6842F21073B2FBF3F24FF0F3
:103840008043013A9A624FF6FF72DA6200229A616F
:103850005A63DA605A6001225A611A6000F008B8AF
:1038600000380240002004E0580C00200000000056
:103870000122090100F1604303F56143C9B283F8F5
:10388000001300F01F039A4043099B0003F16043BB
:1038900003F56143C3F880211A60704700000000FF
:1038A000044BD3E90A23134302D0034800F0A0BA23
:1038B000704700BF14130020304B000800000000C8
:1038C00010B5054CD4E90A23134302D0034800F095
:1038D0008FFA0123E36210BD14130020404B00084F
:1038E00010B5064CA36A13B9E36A002B02DC044846
:1038F00000F07EFA0023E36210BD00BF1413002025
:10390000504B000800000000000000000000000014
:1039100010B5064CA36A002B01DDE36A13B104481D
:1039200000F066FA0123E36210BD00BF141300200B
:10393000604B0008000000000000000000000000D4
:1039400010B5064CA36A002B02DDE36A002B02DCF3
:10395000034800F04DFA0023E36210BD1413002069
:10396000704B000800000000000000000000000094
:10397000202310B583F31188074CA36A002B01DBC9
:10398000E36A13B1054800F033FAA36A0133A36276
:10399000002383F3118810BD14130020804B00080E
:1039A000202310B583F31188074CA36A002B01DD97
:1039B000E36A13B1054800F01BFAA36A013BA36256
:1039C000002383F3118810BD14130020904B0008CE
:1039D000054B9A6A002A02DBDB6A002B02DC0348F3
:1039E00000F006BA704700BF14130020A04B000877
:1039F000044B9A6A12B9DB6A002B02DC024800F021
:103A0000F7B9704714130020B04B00080000000005
:103A10000022024BC3E900339A6070471413002060
:103A200010B50446FFF7D4FF14B9094800F0E0F9D7
:103A30000023A2682375074B1B6899689142FBD24B
:103A40005A6823606260204614605C6010BD00BF4D
:103A5000F04B0008141300200000000000000000DC
:103A600038B50446202383F31188FFF751FF237DE7
:103A70000025052B0BD8DFE803F0030A0A081C1603
:103A8000FFF75EFF85F3118838BDA3691D604FF015
:103A9000FF332046A361FFF7C3FFFFF751FF002369
:103AA00083F31188F0E7A569FFF792FFAB68013354
:103AB000AB60D4E9003213605A60E8E70000000010
:103AC00010B50446FFF784FF14B9094800F090F9D7
:103AD0000023A2682375074B1B6899689142FBD8A5
:103AE0005A6823606260204614605C6010BD00BFAD
:103AF000D04B00081413002000000000000000005C
:103B000070B506460D4C2569FFF772FF23682E75C8
:103B10001A6854602260012223611A75EFF3098349
:103B20002A69243B9A4202D9054800F061F92946E6
:103B30002069BDE87040FCF733BB00BF14130020C0
:103B4000C04B000800000000000000000000000062
:103B500070B50D4686B00446FFF74AFF6B1C0D4E4C
:103B600013D0336929460C4A01A800F0A9FA20466F
:103B7000FFF7C6FFFFF72CFF049B13B101A800F06D
:103B8000F7FA3369986906B070BD2046FFF7B8FFB1
:103B9000F7E700BF14130020613A0008000000009E
:103BA000F8B504460D46124E3769FFF721FFA268AB
:103BB000BB68A5619A4204D82046BDE8F840FFF7EB
:103BC0002FBF3846FFF77CFF01230546346123757C
:103BD000EFF309830269243B9A4202D9054800F0B9
:103BE00007F929462046BDE8F840FCF7D9BA00BFDE
:103BF00014130020C04B000800000000000000006B
:103C0000044B1A681B6990689B68984294BF002017
:103C10000120704714130020000000000000000085
:103C200038B50D4C236820691A685460226001225F
:103C30001A752361FFF744FF0546EFF30983026914
:103C4000243B9A4202D9054800F0D2F8294620695F
:103C5000BDE83840FCF7A4BA14130020C04B00089C
:103C600008B5FFF7C5FEFFF7B3FE064B1A681B69E0
:103C700092689B689A4203D9BDE80840FFF7D0BF1D
:103C800008BD00BF14130020000000000000000069
:103C9000FFF7C6BF000000000000000000000000A9
:103CA00038B50D46044608B1002902DA034800F091
:103CB0009FF8C4E90044A56038BD00BF304C00083F
:103CC00038B504460D46FFF793FE14B90E4800F0D0
:103CD0008FF8A3685A1E002AA26012DA1DB94FF0AD
:103CE000FF30A36038BD094B62681B6929469C619F
:103CF0001C605A60052013606360BDE83840FFF720
:103D000027BF0020EEE700BF104C0008141300206E
:103D100010B50446FFF75CFE14B9094800F068F8D6
:103D2000A3680133002BA36009DC206803682360CB
:103D30005C600023BDE810408361FFF771BE10BDD9
:103D4000004C00080000000000000000000000001F
:103D5000FEE700000000000000000000000000007E
:103D600038B500251A4CFFF753FE00F099F9802270
:103D7000184904F13000C4E90A5500F0B9F8164BAF
:103D80002061036101230375144B154AD96821F49E
:103D9000E0610904090C0A43DA60D3F8FC201149F8
:103DA00042F08072C3F8FC200A6842F001020A6007
:103DB0001022DA77202283F82220FFF771FD85F3A5
:103DC000118862B6BDE83840074800F0D9B800BF96
:103DD00014130020404C00080004002000ED00E017
:103DE0000003FA05001000E0604C0008000000002D
:103DF00072B6014B5862FEE7141300200000000069
:103E00002DE9F047264E4FF000083746FFF7E0FD5A
:103E1000FFF7DEFD57F8144F4FF08043586A358C9A
:103E200080B2A368451BADB29D4220D34FF020095C
:103E3000A268338CD4F80CA0134433842368AD1AE1
:103E4000BB425F607361C4F80C8001D1FFF7B0FC26
:103E5000FFF776FD88F311882069D04789F3118830
:103E6000FFF756FD7469A3689D42E1D2D4E77369F8
:103E7000BB4212D09A683084521B9A604FF6FF7290
:103E8000A368BDE8F047934228BF1346022B2CBF1E
:103E9000C018023080B2FFF793BCBDE8F08700BFC6
:103EA00014130020000000000000000000000000CB
:103EB000202383F31188FFF703BD000000000000FA
:103EC00008B5FFF70DFD002383F3118808BD00003E
:103ED00010B5044610B90448FFF78AFF2146BDE833
:103EE00010400820FFF734BE804C0008000000009E
:103EF0008260022282827047000000000000000001
:103F000010B50446FFF764FD14B91948FFF770FFB8
:103F10006268500707D1A368590704D19A4202D2B8
:103F20009B1A9F2B02D81248FFF762FFE368FF2B12
:103F300001D8236913B90E48FFF75AFFD4E90130BD
:103F400040F8103CA0F1440340F8143C23692038A9
:103F500040F8243C636940F8203C064B40F8043CA0
:103F6000E3688360022303750023437510BD00BF1F
:103F7000B04C0008B1010008000000000000000083
:103F800010B50446D4E901031A1A984288BF0022EA
:103F9000552100F02DFBFFF78BFF2046FFF7B0FF08
:103FA00004460021FFF7FCFDFFF78AFF204610BD05
:103FB000F8B50C4616461F46054640B19F2906D95E
:103FC00040EA01035B0702D1FF2A00D817B9144861
:103FD000FFF70EFFE54238BF2246A4F120042C442F
:103FE00028BF00225521284600F002FBFFF760FFA2
:103FF000A4F12403E360069B204644F8203C094BCF
:10400000002144F8043C02232561A38244F8247C67
:10401000A660FFF7C5FDFFF753FF2046F8BD00BFC0
:10402000904C0008B10100080000000000000000F2
:10403000024B1B6998610F20FFF762BD141300202B
:1040400010B50446FFF734FF2046BDE81040FFF7E7
:10405000EFBF0000000000000000000000000000B2
:1040600010B50446FFF724FF2046FFF731FFBDE8F7
:104070001040FFF725BF0000000000000000000016
:104080000346006820B100221A608161FFF7C8BCB6
:104090007047000000000000000000000000000069
:1040A000054B03F11402C3E905224FF0FF32DA6138
:1040B00000221A84704700BF141300200000000083
:1040C000F8B505460C4616461F46FFF781FC0DB1B4
:1040D00006B114B92448FFF78BFE4FF08043C5E9C1
:1040E0000367224F586A3B4653F8146F022C21464F
:1040F00038BF02219E4280B210D14FF6FF73388440
:10410000994294BF4018C018C7E9055580B2C5E967
:104110000066A960BDE8F840FFF742BB3B8CB2687F
:10412000C41AA4B20C1902D3A41A36680AE0A24237
:1041300008D94FF6FF72944294BF1B199B1898B28E
:10414000FFF73EFBB368A3420CD373682E606B602D
:104150001D607560AC60B3681B1BB3604FF0FF332C
:10416000FB61F8BDE41AE0E7F04C000814130020EE
:1041700038B50446FFF72CFC14B92148FFF738FE88
:10418000204922680B4653F8140FA0424FF000005C
:104190000AD061689A420A605160E06003D0936877
:1041A000A1680B44936038BD9A424A615360E06055
:1041B00003D1BDE83840FFF7FBBA9368A0680D8CC7
:1041C00018444FF0804390605C6A641BA4B2A04224
:1041D000E9D9031B012B09D80234B4F5803F0BD277
:1041E000281980B2BDE83840FFF7EABA4FF6FF74ED
:1041F000844228BF0446F3E70348FFF7F9FDEFE7E1
:10420000D04C000814130020E04C0008000000000F
:10421000EFF30983203383F30988002383F31188A4
:1042200070470000000000000000000000000000D7
:10423000202310B583F311880D4B5B6813F40063E2
:1042400012D0EFF309844FF0807344F8043CA4F1DA
:10425000200383F30988FFF7D3FC18B1054B44F81A
:10426000083C10BD044BFAE783F31188F9E700BF5F
:1042700000ED00E0C5010008D001000800000000CA
:104280007047000000000000000000000000000077
:104290007047000000000000000000000000000067
:1042A0007047000000000000000000000000000057
:1042B000FEE7000000000000000000000000000019
:1042C00070B50825134CD4E9010201462368043B6C
:1042D0008A4219D8D31C1B1AC11E23F003038A4239
:1042E00038BF00231844E368C11EDA1C121A22F0FA
:1042F0000302994288BF0022002100F079F9013DB4
:1043000004F11004DFD170BD53F8046F41F8046B61
:10431000DEE700BF004D00080000000000000000C4
:1043200008B51A4B1A6942F07F4242F47F0242F408
:10433000FF4242F040021A611A6922F4FF4222F061
:1043400040021204120C1A611A699A6962F08052D2
:104350009A619A6902F080529A619A695A694FF09B
:10436000FF325A615A6900225A615A695A6A42F008
:1043700080525A621A6B42F080521A631B6B00F033
:1043800007F8BDE8084000F023B900BF003802403C
:1043900000231946094A10B5C2E90033084C04EB62
:1043A00083004068016002EB430004331C2B8160F2
:1043B000F5D14FF0FF32034B5A6010BD10140020AE
:1043C000904D000800600240000000000000000066
:1043D0002DE9F74F0446894693460193FFF7F8FA13
:1043E000062C0BD80127224DA7402A68019B3A4290
:1043F00008D00026304603B0BDE8F08F1D48FFF717
:10440000F7FCF6E7DFF870804FEA041A08EB0416B1
:10441000013445F834B005EBC40463603A43174BEC
:104420002A60DA6942F08072DA619A6A42F0807238
:104430009A629B6ABBF1000F0AD06A68B3681A429D
:1044400003D14946F07BFFF713FA6B683B436B607F
:1044500008EB0A014B68497B1A6858F80A0022F0F9
:104460000F021A600E228A40426000221A60C1E7E1
:1044700010140020804D0008904D000800380240C4
:10448000F8B51F4604460D461646202383F31188CF
:10449000FFF716FA3B46324629462046FFF798FFBB
:1044A0000446FFF71DFA002383F311882046F8BD68
:1044B00010B40468437B21684268D940126801F057
:1044C0000E010A420ED0827B01FA03F36360064BB1
:1044D000013253F832402CB103EBC2035868234633
:1044E00010BC184710BC70471014002000000000DA
:1044F00008B5FFF73DFA0448FFF7DAFFFFF750FA77
:10450000BDE80840FFF794BE904D00080000000091
:1045100008B5FFF72DFA0448FFF7CAFFFFF740FA86
:10452000BDE80840FFF784BEA04D00080000000071
:1045300008B5FFF71DFA0448FFF7BAFFFFF730FA96
:10454000BDE80840FFF774BEB04D00080000000051
:1045500008B5FFF70DFA0448FFF7AAFFFFF720FAA6
:10456000BDE80840FFF764BEC04D00080000000031
:1045700008B5FFF7FDF90448FFF79AFFFFF710FAB7
:10458000BDE80840FFF754BED04D00080000000011
:1045900008B5FFF7EDF90448FFF78AFFFFF700FAC7
:1045A000BDE80840FFF744BEE04D000800000000F1
:1045B00008B5FFF7DDF90448FFF77AFFFFF7F0F9D8
:1045C000BDE80840FFF734BEF04D000800000000D1
:1045D0007047000000000000000000000000000024
:1045E000014B1868704700BF080800200000000059
:1045F00003460244934200D1704703F8011BF9E7D8
:10460000012B2DE9F047804601D0242B06D9FFF776
:10461000E7FF162303600020BDE8F0870D46354F05
:10462000284615F8014BE65D16F00806F8D12D2C4A
:104630002FD101262C78851C002B57D0102B09D1A7
:10464000302C07D1287800F0DF00582849D11023FA
:104650006C780235002706F1004E0EF1FF3EBEFBDE
:10466000F3F9384603FB19EAA4F1300CBCF1090F49
:1046700014D86446A34222DD002F1DDB81451BD3E5
:1046800001D1A24518DB012700FB034015F8014BBF
:10469000EAE72B2C04BF2C78851CCDE7A4F1410C54
:1046A000BCF1190F01D8373CE4E7A4F1610CBCF16F
:1046B000190F04D8573CDDE74FF0FF37E6E7002F2E
:1046C00007DA22237046C8F80030002AA4D0691EF9
:1046D00005E006B14042002A9ED0002FF7D11160BC
:1046E0009AE73024002BB5D10823B3E7302CA9D0AA
:1046F0000A23AFE7014E00080000000000000000A0
:1047000013460A46014602480068FFF779BF00BF1A
:104710000808002000000000000000000000000069
:104720000000000000000000010203040607080961
:10473000000000000102030400000000000000006F
:10474000434320527374204661696C0D004343203B
:1047500057204661696C0D00434320522F57204675
:1047600061696C3B2072706C3D25750D00434320E0
:1047700052204661696C0D00434320696E697420C4
:104780006F6B0D0000000000000000000000000042
:104790000000000000000000E1050008000000002B
:1047A0000B0E0C00100E112F1273150021B62210E3
:1047B000191D1A1C1BC71C091DB023EA242A250039
:1047C000261F2C882D312E0900000000000000005B
:1047D0000D486172644661756C740D000000000044
:1047E000566563746F72353800556E68616E646C1F
:1047F00065642025530D000000000000000000004B
:10480000566563746F7235430000000000000000BD
:10481000566563746F7236300000000000000000BF
:10482000566563746F7236340000000000000000AB
:10483000566563746F723638000000000000000097
:10484000566563746F723943000000000000000079
:10485000566563746F724530000000000000000070
:10486000030406080C1018203000000000000000AF
:10487000414842467265713D25754D487A3B20415D
:10488000504231467265713D25754D487A3B204155
:10489000504232467265713D25754D487A0D0000D3
:1048A0000000000000000000E11F00080000000000
:1048B000202C0000000000000000000000000000AC
:1048C0000000000000000000E1220008712500083F
:1048D00001250008212500081123000811280008DF
:1048E00050FEFFFF000000000525000825250008F8
:1048F0004CFEFFFF00000000152800082F230008D1
:104900004F6B0D0A000000000000000000000000D6
:104910000D5573696E672064656661756C74204916
:10492000440D000000000000000000000000000036
:104930002B313264426D002B3764426D002B3130D5
:1049400064426D002D333064426D002D3237644275
:104950006D002D323564426D002D323064426D00A1
:104960002D313564426D002D313064426D002D369D
:1049700064426D002B3564426D003F3F64426D0020
:104980004469703A203078253032583B2000547901
:1049900070653A2025753B205077723A2025530DDB
:1049A0000000000000000000000000000000000007
:1049B00032303233303432315F32313132005A6189
:1049C0006C65783232000D25532025533B20494435
:1049D0003D25750D00426174746572793A20257524
:1049E000206D560D0050696E670056657273696FD1
:1049F0006E0025532025530D004765744944004738
:104A0000657442617400536574494400436D6445A4
:104A100072726F720D0A004E65772049443A202564
:104A2000750D004545206572726F723A2025750D2F
:104A3000004661696C7572650D0A00436D64556EC0
:104A40006B6E6F776E0D0A00556E68616E646C65F3
:104A500064204D73672025750D00000000000000E4
:104A6000000000000000000061320008212800085A
:104A7000812B0008F1290008000000000000000060
:104A8000000000000000000051330008E129000888
:104A9000C129000800000000000000000000000024
:104AA000000000006400000001000000630000003E
:104AB000000000000000000001000000F003000002
:104AC00003000000000000000000000000000000E3
:104AD00003080D171D26375086CDC5C00000000005
:104AE00000000000640000000100000063000000FE
:104AF0000000000000000000010000006300000052
:104B000000000000640000000100000063000000DD
:104B1000000000000000000001000000F0030000A1
:104B20000300000000000000000000000000000082
:104B30005356233300000000000000000000000076
:104B40005356233400000000000000000000000065
:104B50005356233500000000000000000000000054
:104B60005356233600000000000000000000000043
:104B70005356233700000000000000000000000032
:104B80005356233800000000000000000000000021
:104B90005356233900000000000000000000000010
:104BA00053562331300000000000000000000000D8
:104BB00053562331310000000000000000000000C7
:104BC000737461636B206F766572666C6F7700003B
:104BD00063685363685265616479416865616449DB
:104BE00000000000000000000000000000000000C5
:104BF000636853636852656164794900000000008E
:104C0000636853656D5369676E616C49000000000D
:104C1000636853656D5761697454696D656F757428
:104C20005300000000000000000000000000000031
:104C3000636853656D4F626A656374496E69740099
:104C40006D61696E000000000000000000000000BF
:104C500069646C65000000000000000000000000B6
:104C6000504C0008601300201014002001000000C8
:104C7000513D00080000000000000000000000009E
:104C80006368546864536C656570530000000000ED
:104C900063685468644372656174655374617469D0
:104CA00063000000000000000000000000000000A1
:104CB00063685468644372656174655375737065A5
:104CC0006E64656449000000000000000000000000
:104CD00063685654446F5265736574490000000060
:104CE000636854696D654164645800000000000009
:104CF00063685654446F5365744900000000000017
:104D0000EC4F0008501400205014002050140020D4
:104D1000EC4F000800000000000000000000000050
:104D2000EC4F000800000000000000000000000040
:104D3000EC4F000800000000000000000000000030
:104D4000EC4F000800000000000000000000000020
:104D5000EC4F000800000000000000000000000010
:104D6000EC4F000800000000000000000000000000
:104D7000EC4F0008000000000000000000000000F0
:104D8000646D6153747265616D416C6C6F63490051
:104D90000060024008600240010000000000000BBB
:104DA000006002401C600240020000000004010C90
:104DB0000060024030600240040000000008020D64
:104DC000006002404460024008000000000C030E36
:104DD0000060024058600240100000000010040F04
:104DE000006002406C6002402000000000140510CA
:104DF0000060024080600240400000000018061180
:104E0000002020202020202020202828282828209A
:104E10002020202020202020202020202020202092
:104E200020881010101010101010101010101010FA
:104E300010040404040404040404041010101010EA
:104E400010104141414141410101010101010101B4
:104E50000101010101010101010101011010101006
:104E60001010424242424242020202020202020286
:104E700002020202020202020202020210101010DA
:104E80002000000000000000000000000000000002
:104E90000000000000000000000000000000000012
:104EA0000000000000000000000000000000000002
:104EB00000000000000000000000000000000000F2
:104EC00000000000000000000000000000000000E2
:104ED00000000000000000000000000000000000D2
:104EE00000000000000000000000000000000000C2
:104EF00000000000000000000000000000000000B2
:104F000000000000000000000000000000000000A1
:104F10000000000000000000000000000000000091
:104F20000000000000000000000000000000000081
:104F30000000000000000000000000000000000071
:104F40000000000000000000000000000000000061
:104F50000000000000000000000000000000000051
:104F60000000000000000000000000000000000041
:044F7000F8B500BFD1
:044F7400F8B500BFCD
:084F780078B3FF7F0100000087
:104F800004000000FFFF00000C08002000000000EB
:104F9000304F0008504F0008104F0008000000007C
:104FA0000000000000000000000000000000000001
:104FB00000000000000000000000000000000000F1
:104FC00000000000000000000000000000000000E1
:104FD00000000000000000000000000000000000D1
:0C4FE000000000000000000000000000C5
:04000005080001915D
:00000001FF
