:020000040800F2
:10000000000400209101000893010008311300084A
:100010009301000893010008930100089301000870
:10002000930100089301000893010008C1360008FD
:100030009301000893010008930100089301000850
:100040009301000893010008930100089301000840
:100050009301000893010008411300089113000860
:10006000E1130008311400088114000891390008D8
:10007000B1390008D1390008F1390008113A0008F7
:10008000313A0008513A0008930100089301000832
:10009000930100089301000893010008D11400089F
:1000A00093010008930100089301000893010008E0
:1000B000412C0008930100089301000893010008F7
:1000C00093010008930100089301000841180008FB
:1000D00081180008930100089301000893010008AB
:1000E00021150008930100089301000893010008FE
:1000F0009301000893010008930100089301000890
:10010000930100089301000893010008930100087F
:10011000930100089301000893010008930100086F
:10012000930100089301000893010008930100085F
:10013000930100089301000893010008930100084F
:0C01400075010008F10E000821280008DD
:04014C005101000855
:1001500010B5054C237833B9044B13B10448AFF301
:1001600000800123237010BD7008002000000000F3
:100170000454000808B5034B1BB103490348AFF30F
:10018000008008BD0000000074080020045400082E
:1001900026E000F000F8FEE700000000000000008C
:1001A0002DE9F04FC1F80CD0C3689D46BDE8F08F33
:1001B00002F0D6FD002383F311882846A0470020D3
:1001C00003F07EF902F0B4FD02F0A2FF02F0C8FDD8
:1001D00000DFFEE70000000000000000000000005B
:1001E00072B6274880F30888264880F30988264895
:1001F0004EF60851CEF200010860022080F3148808
:10020000BFF36F8F03F094FA03F09AFA4FF0553072
:100210001E491B4A91423CBF41F8040BFAE71C49B6
:10022000184A91423CBF41F8040BFAE719491A4AAF
:100230001A4B9A423EBF51F8040B42F8040BF8E700
:1002400000201749174A91423CBF41F8040BFAE7D6
:1002500003F08EFA03F07CFA134C144DAC4203DA2F
:1002600054F8041B8847F9E702F032F9104C114D9D
:10027000AC4203DA54F8041B8847F9E703F070BA7C
:1002800000040020000800200000000800000020FA
:100290000004002008540008000800207008002016
:1002A00070080020B8110020400100084C0100082F
:1002B0004C01000850010008000000000000000090
:1002C00053B94AB9002908BF00281CBF4FF0FF31BD
:1002D0004FF0FF3000F074B9ADF1080C6DE904CEB9
:1002E00000F006F8DDF804E0DDE9022304B0704711
:1002F0002DE9F047089E0D4604468E46002B40F03F
:1003000083808A42174647D9B2FA82F34BB1C3F1D0
:10031000200105FA03FE20FA01F19F4041EA0E0E8A
:100320009C404FEA1748BEFBF8FC1FFA87F908FB10
:100330001CE20CFB09F0210C41EA024290420AD96E
:10034000BA180CF1FF3180F01881904240F215810B
:10035000ACF1020C3A44121AB2FBF8F008FB10227E
:1003600000FB09F1A4B244EA0244A14209D93C19B4
:1003700000F1FF3280F00381A14240F20081023897
:100380003C44641A002140EA0C401EB10022DC40CB
:10039000C6E90042BDE8F08702B9FFDEB2FA82F397
:1003A000002B4FD18D1A01214FEA124E1FFA82F80D
:1003B000B5FBFEFC0EFB1C5508FB0CF0220C42EAC0
:1003C0000545A84207D97D190CF1FF3202D2A84297
:1003D00000F2E98094462D1AB5FBFEF00EFB105595
:1003E00008FB00F8A4B244EA0544A04507D93C192B
:1003F00000F1FF3202D2A04500F2D9801046A4EBF2
:10040000080440EA0C40C0E78B4208D9002E00F0F7
:10041000B1800021C6E900050846BDE8F087B3FABF
:1004200083F100294BD1AB4202D3824200F2B98062
:10043000841A65EB030301209E46002EAAD0C6E96C
:10044000004EA7E79F40C3F12002D1404FEA174E6C
:10045000B1FBFEF01FFA87F80EFB101124FA02F22E
:100460009D4000FB08FC2A43150C45EA0145AC45BC
:1004700004FA03F409D97D1900F1FF3180F08F806F
:10048000AC4540F28C8002383D44A5EB0C05B5FB31
:10049000FEF10EFB115C01FB08F995B245EA0C4533
:1004A000A94507D97D1901F1FF3274D2A94572D946
:1004B00002393D44A5EB090541EA004178E7C1F165
:1004C00020078B4022FA07FC4CEA030C25FA07F4BC
:1004D0004FEA1C4EB4FBFEF91FFA8CF80EFB1944D0
:1004E00020FA07F309FB08FA8D401D432B0C43EA61
:1004F0000444A24502FA01F200FA01F309D91CEB07
:10050000040409F1FF3048D2A24546D9A9F10209F5
:100510006444A4EB0A04B4FBFEF00EFB104400FBA1
:1005200008FAADB245EA0444A24508D91CEB04041C
:1005300000F1FF352DD2A2452BD90238644440EAA0
:100540000940A0FB0289A4EB0A044C45C6464D466F
:1005500019D316D05EB1B3EB0E0264EB050404FAB6
:1005600007F722FA01F31F43CC40C6E900740021CB
:10057000BDE8F087314630460CE78C46EBE6104686
:10058000FFE64345E6D2B8EB020E69EB0C050138F5
:10059000E0E72846D3E711468CE78146B9E70846ED
:1005A00073E7084649E7ACF1020C3D4413E7023813
:1005B0003C4424E7000000000000000000000000B0
:1005C000704700BF000000000000000000000000B5
:1005D00008B502F0C5FB002383F3118808BD0000B5
:1005E000816A10B5044619B188470023A36210BD83
:1005F0002430BDE8104002F093BF0000000000006E
:10060000104B984205D1104AD36943F00103D361DE
:1006100070470E4B984204D10B4AD36943F0020352
:10062000F5E70B4B984204D1074AD36943F0040322
:10063000EDE7084B9842EBD1034AD36943F0080336
:10064000E5E700BF0000024000380240000402401D
:1006500000080240000C0240000000000000000002
:100660000368197303689A68D207FCD5187B704732
:1006700070B504461546FFF7C3FF022603224B0060
:100680009A4006FA03F3012600688E4020EA020031
:1006900020602068072940EA03002060606820EAA3
:1006A00006006060E06820EA0200E060E068E06068
:1006B000A06820EA0202A260A26843EA02038ABF9D
:1006C000A1F108028A00920007298CBF04200020B3
:1006D0000F21A3600444236A914023EA01032362AB
:1006E000236A95401D43256270BD00000000000094
:1006F00001238288012903FA02F30BD0022911D0C9
:1007000039B90A4A916819439160D16821EA030313
:10071000D3607047054A916821EA03019160D1686E
:100720000B43F5E7014A91681943F7E700040140DC
:10073000F8B50446267900687300DEB2A779FFF7A2
:100740005FFF0325026805FA06FC22EA0C0202603C
:10075000C36807FA06F623EA0C03C360C368A788D8
:100760001E43C6600F26254B1A6A42F001021A6228
:10077000DA6A22F00102DA62DB6A07F47F7303F1BE
:10078000804303F5803307EA05029868920096409B
:1007900020EA060098601A4E2068B04205D1012078
:1007A0009D6800FA02F22A430CE0164EB04202D1D4
:1007B00002209D68F5E7144EB04213D1986805FAFF
:1007C00002F202439A600126104DBE402B6820467B
:1007D00033432B606B6823EA06036B60FFF788FFE7
:1007E0006E61F8BD0A4DA84202D104209D68D8E789
:1007F000084DA842E7D107209D68D2E700380240A3
:100800000004024000080240000C024000040140C5
:100810000010024000140240000000000000000030
:100820000123428A81689340034A0869184002D034
:10083000013AFAD101207047B8820100000000009F
:100840000123C18AC2688B40936170470000000099
:10085000C38AC16803F11002012393408B61704782
:100860000148FFF7BDBE00BF8C080020000000005B
:100870007F2908B2C4BFA1F5807108B200EBD07027
:1008800040104A3840B270470000000000000000ED
:100890002DE9F04104460F461646FFF7D9FF2046E2
:1008A000FFF7BEFF054630B12046FFF7C9FF01251F
:1008B0002846BDE8F08104F1040847F08001404675
:1008C000FFF7CEFE294684F820004046FFF7C8FE19
:1008D00030702046FFF7B4FFEAE700000000000098
:1008E0002DE9F04104460F461646FFF7B1FF2046BA
:1008F000FFF796FF054630B12046FFF7A1FF01251F
:100900002846BDE8F08104F1040839464046FFF767
:10091000A7FE31464046FFF7A3FE2046FFF790FFB3
:10092000EEE70000000000000000000000000000F2
:1009300070B504460E46FFF78BFF2046FFF770FFA9
:10094000054628B12046FFF77BFF0125284670BDEC
:100950003146201DFFF784FE84F820002046FFF773
:100960006FFF94F8203003F0700384F82030EDE737
:100970003A21FFF7DDBF000000000000000000008A
:100980002DE9F043744B456804469D4285B069D01B
:10099000724A95420CBF05250625E068E18AFFF7FB
:1009A0002FFE4FF0030801264B000268DBB208FA65
:1009B00003F722EA07020260D0F800C006FA03F249
:1009C00042EA0C020260426806FA01F122EA0101E1
:1009D00041604268218A4260C26822EA0702C2601E
:1009E000C268C260826822EA0702022782608268C7
:1009F00007FA03F3134383602A46A068FFF738FE23
:100A00002A46618AA068FFF733FE2A46A18AA068B9
:100A1000FFF72EFE314604F11800FFF789FE20464D
:100A2000FFF70EFF00234E4A1946CDE90023201D93
:100A30001A4600F095FE626830211368204643F0A4
:100A400040031360FFF774FF70B162684548136894
:100A500023F04003136001F023F83546284605B023
:100A6000BDE8F083052598E7072206212046FFF719
:100A700037FF08B13C48EEE78DF80F00062120460D
:100A80000DF10F02FFF704FF054648B99DF80F90DE
:100A9000B9F1070F06D04946344801F001F8DCE708
:100AA0003348D8E72046FFF763FF20220D21204678
:100AB000FFF716FF25220E212046FFF711FFED223A
:100AC0000F212046FFF70CFFA32213212046FFF73A
:100AD00007FFFF2214212046FFF702FF08221821FA
:100AE0002046FFF7FDFE4A4641462046FFF7F8FE46
:100AF0003F2229462046FFF7F3FE062239462046CC
:100B0000FFF7EEFE0C2249462046FFF7E9FE44229D
:100B100008212046FFF7E4FE50223E212046FFF741
:100B2000DFFE4A4616212046FFF7DAFE3022172163
:100B30002046FFF7D5FEA08B092809D8042809D83C
:100B40000630072102F0CCF80A4800F0A9FF85E73B
:100B50002820F6E71720F4E7003001400038004075
:100B6000A02E6300D04C0008DD4C0008E84C0008C3
:100B7000FD4C0008084D00080000000000000000C7
:100B80003621FFF7D5BE0000000000000000000085
:100B900038B504460D4694F820301BB12046FFF7C7
:100BA000EFFFF8E72A462046BDE838400A21FFF764
:100BB00097BE0000000000000000000000000000E0
:100BC000F8B505460E4695F820401CB12846FFF7BB
:100BD000D7FFF8E7771C17F8142016F814102846EA
:100BE0000134FFF77DFE142CF5D1F8BD00000000A4
:100BF0003421FFF79DBE000000000000000000004F
:100C00002DE9F7430E46904678210DF10702044680
:100C10001F46FFF73DFE70B99DF90730002B0ADA39
:100C20002046FFF715FE2046FFF7FAFD054620B1E6
:100C30002046FFF705FE012527E004F10409FF2106
:100C40004846FFF70DFD3744BE424FF000014846CD
:100C500006D0FFF705FD8DF8070006F8010BF3E756
:100C6000FFF7FEFC00218DF807004846FFF7F8FC6F
:100C70002046FFF7E5FDB8F1000F06D020469DF8AD
:100C80000710FFF7F5FD88F80000284603B0BDE81F
:100C9000F0830000000000000000000000000000E1
:100CA0002DE9F041DDF818801E4604460F46154632
:100CB000FFF75EFE202383F3118802F039F8204607
:100CC000FFF796FF394604F1240002F019FC0746AD
:100CD000FFF77EFC013707D03346424629462046BF
:100CE000BDE8F041FFF78CBF2046FFF749FF022027
:100CF000BDE8F081000000000000000000000000DE
:100D00002DE9F0418C46044642F2107740F2E7307C
:100D1000002115461E464FF47A720023E7FB0C01B2
:100D2000FFF7CEFA334601462A462046BDE8F04199
:100D3000FFF7B6BF00000000000000000000000048
:100D4000464E0446B0468FB5454F96F82030002BEE
:100D500065D036214046FFF7EBFD0028F5D005238E
:100D60001B2130460094621CFFF7CAFF3D4D8146AF
:100D7000002863D194F90030A27800936178E37879
:100D8000394800F08DFE24233B6007238DF80D3099
:100D90006379C5F800908DF80C30D4F801902023C9
:100DA00083F31188314D01F0C3FF02F051F8D5F8FB
:100DB000AC30002B19DD02F04BF8D5F8AC300399BC
:100DC000013BC5F8AC30D5F89430294803F108024E
:100DD000C5F89420C3F80090596005F190039A4239
:100DE00028BFC5F8945002F0D3F902F079F901F068
:100DF000B7FF002383F311883B68242B27D842F2E6
:100E0000107C40F2E73000213D684FF47A720023F5
:100E1000ECFB0501FFF754FA02F062FB95E7332182
:100E20003046FFF785FD002899D13D214046FFF768
:100E30007FFD98F82030002BF7D190E72B68013325
:100E4000062B09D900232B604FF4E1733B60392155
:100E50003046FFF76DFDD2E72B60CDE78C08002010
:100E600000080020600A0020304D0008C00B002060
:100E7000580C0020000000000000000000000000EE
:100E800008B50148FFF75CFFB8080020000000002B
:100E900013B51248FFF774FD0446E0B986223E21DF
:100EA0000E48FFF71DFD052206210C48FFF718FD2F
:100EB00021460A48FFF76CFE09490848FFF780FE03
:100EC000FF224FF4D071074B0748009402F0B0FAAC
:100ED000204602B010BD0124FAE700BF8C080020B4
:100EE000404D0008810E0008C008002000000000EE
:100EF0000F4B104A10481A60104A11495A6002F507
:100F00005042C3E902229A6103229A830022C3E974
:100F10000401C3E909220B490B489A7783F8202082
:100F20000A4BC8605A709A70DA701A71704700BF25
:100F30008C080020284D0008050006000030014004
:100F400007000400700A002061080008B8080020AB
:100F5000202383F3118801F01BBF00000000000074
:100F600008B501F02DFF002383F3118808BD0000B0
:100F700010B50446FFF7ECFF236820461B6898472E
:100F8000BDE81040FFF7ECBF0000000000000000CB
:100F900073B5037F1E4D8DF80530044601F058FFF0
:100FA000D5F8AC30002B1CDD01F052FF0022D5F843
:100FB000AC301848013BC5F8AC30D5F8943003F19B
:100FC0000801C5F894101A705A709A70DA70019A74
:100FD0005A6005F19003994228BFC5F8945002F079
:100FE000D7F8637F012B11D1A66901F031FF236986
:100FF000251D13B1284602F013FB2346314628462F
:10100000054A02B0BDE8704002F0AABA02B070BD55
:10101000C00B0020580C0020710F000800000000D9
:1010200008B50346084A03331068084923F0030350
:1010300003448B4206D902F023FD0C2303604FF0DA
:10104000FF3008BD1360FCE70408002000280020E2
:10105000884230B515D0431E13F8014F2046A4F145
:101060004102192A11F8012B98BF04F12000A2F1C6
:101070004105192D98BF2032801A01D1002CEBD1E7
:1010800030BD0020FCE70000000000000000000070
:101090000368B3F1804F0BD103F50E335A6A42F067
:1010A00001025A621A6B22F001021A631B6B70472D
:1010B0002A4A934208D12A4B5A6A42F002025A62E3
:1010C0001A6B22F00202F0E7264A934208D1244B21
:1010D0005A6A42F004025A621A6B22F00402E4E7F0
:1010E000214A934208D11E4B5A6A42F010025A62BA
:1010F0001A6B22F01002D8E71C4A934208D1184B11
:101100005A6A42F020025A621A6B22F02002CCE79F
:10111000174A93420AD1124B1A6A42F004021A6229
:10112000DA6A22F00402DA62DB6A7047114A9342FB
:1011300008D10B4B1A6A42F008021A62DA6A22F0EE
:101140000802F0E70C4A9342EFD1054B1A6A42F0CD
:1011500010021A62DA6A22F01002E4E7000400408A
:101160000038024000080040001000400014004019
:1011700000080140000C0140001001400000000088
:10118000F8B50146FFF784FF82690368DA62027DE1
:101190000069012A00F1FF300CBF07220622032854
:1011A0000BD8DFE800F0026B737B986940EA02120B
:1011B0009A611A6A42F001021A621A6842F0010248
:1011C0001A60494A934271D002F5806293426DD011
:1011D00002F5803293426BD002F58062934267D071
:1011E00002F58062934214BF012203224B680889F2
:1011F0004F7D3E498B425DD13D4CE16941F001019B
:10120000E161032419684600B440E54321EA04047F
:101210001C6002241968B4400C4301211C605C6806
:101220008140002F5ED124EA01015960D968072866
:1012300001EA0501D960D968D960996805EA010514
:101240004FF002019D609C6801FA06F141EA040139
:1012500099608ABFA0F108018100890007288CBF2E
:10126000042000200F240344186A8C4020EA040064
:101270001862186A8A4002431A62F8BD986940EA07
:1012800002329A611A6A42F0100295E7D86940EA80
:101290000212DA611A6A42F480728DE7D86940EA74
:1012A0000232DA611A6A42F4805285E702229DE72F
:1012B00003229BE70F498B4204D10D4CE16941F0B9
:1012C00002019DE70C498B4204D1094CE16941F0D0
:1012D000040195E709498B4293D1054CE16941F03E
:1012E00008018DE72143A0E7000400400000024010
:1012F000003802400004024000080240000C024096
:10130000074B01385A6922F080025A6110F8012F08
:1013100022B119680906FCD55A60F7E7704700BF8B
:101320000038014000000000000000000000000044
:1013300008B50248FFF7E4FF01BEFEE7704D000864
:1013400008B501F055FDFFF703FE0A4B1B685BB1C2
:1013500098470122084B5A61FFF702FE01F060FD39
:10136000BDE8084002F0BCB90449054800F0B8FBEC
:10137000EFE700BF700A002000040140804D000824
:10138000894D00080000000000000000000000007F
:1013900008B501F02DFDFFF7DBFD0A4B5B685BB183
:1013A00098470222084B5A61FFF7DAFD01F038FD39
:1013B000BDE8084002F094B90449054800F090FBEC
:1013C000EFE700BF700A002000040140A04D0008B4
:1013D000894D00080000000000000000000000002F
:1013E00008B501F005FDFFF7B3FD0A4B9B685BB143
:1013F00098470422084B5A61FFF7B2FD01F010FD37
:10140000BDE8084002F06CB90449054800F068FBEB
:10141000EFE700BF700A002000040140B04D000853
:10142000894D0008000000000000000000000000DE
:1014300008B501F0DDFCFFF78BFD0A4BDB685BB103
:1014400098470822084B5A61FFF78AFD01F0E8FC33
:10145000BDE8084002F044B90449054800F040FBEB
:10146000EFE700BF700A002000040140C04D0008F3
:10147000894D00080000000000000000000000008E
:1014800008B501F0B5FCFFF763FD0A4B1B695BB1C2
:1014900098471022084B5A61FFF762FD01F0C0FC2B
:1014A000BDE8084002F01CB90449054800F018FBEB
:1014B000EFE700BF700A002000040140D04D000893
:1014C000894D00080000000000000000000000003E
:1014D00008B501F08DFCFFF73BFD0A4B1B6863B1BB
:1014E00098474FF47872084B5A61FFF739FD01F0C5
:1014F00097FCBDE8084002F0F3B80449044800F046
:10150000EFFAEEE7880A002000040140E04D0008F1
:10151000894D0008000000000000000000000000ED
:1015200008B501F065FCFFF713FD0A4B1B6863B1BA
:1015300098474FF47C42084B5A61FFF711FD01F0C8
:101540006FFCBDE8084002F0CBB80449044800F045
:10155000C7FAEEE7840A002000040140F04D0008BD
:10156000894D00080000000000000000000000009D
:101570000023F0B593B0024611934FF480304FF43E
:1015800000334FF48024CDE90A03354B354DCDE9C6
:101590000C43354B354CCDE90E53354B6168206813
:1015A000109303AB03C3217A06AD1970314B03F1DD
:1015B00010073E462C4618685968083303C4BB42DE
:1015C0002546F7D13068716801AB03C32A488368A8
:1015D000C3F38103022B3FD0032B27D0012B3DD037
:1015E000436812A9C3F3423301EB830353F8203C51
:1015F000214C12A8A168C1F30311014411F8301C59
:10160000CB401360A068A168C0F3022012ACC1F304
:10161000C2212044214410F8440C11F8441C23FA40
:1016200000F0CB405060936013B0F0BD836812A906
:10163000C3F383430B4481688068104C10F4803FEF
:101640000F4818BF204613F83C3CC1F38151434377
:101650000131B3FBF1F3CBE7084BC9E7084BC7E710
:101660009CFF0700C0FD0F0068FF1F00004E000830
:10167000D0FE3F00B04C000800380240001BB7000D
:101680000024F40000000000000000000000000042
:101690000B4B0C4A99420C4B06D00C48814203D0AC
:1016A00000F58060814206D19268986812F4005F6C
:1016B00018BF400070479268586812F4806FF7E7CF
:1016C0000008014000380240640A0020000C01407C
:1016D00038B505460C4601680848FFF7D9FF2B6866
:1016E000DA6A0132B0FBF2F0B0FBF4F2A04228BF9C
:1016F00002F1FF329A6200225A6238BD640A002069
:1017000006480749836805C8B3FBF1F3B2FBF1F261
:10171000B0FBF1F1034800F0C3B900BF640A002038
:1017200040420F00104E00080000000000000000C2
:101730004FF08052084B5A62084A11465368DB0644
:10174000FCD4136823F4C05343EAC02010604B68F4
:10175000DB06FCD4704700BF003802400070004038
:1017600070B50068324D049CA84246D105F5843519
:101770002E6A46F480562E62EE6A26F48056EE6299
:10178000ED6A4FF441750129056002BF016841F01F
:1017900080010160012A02BF026842F00202026079
:1017A000012B02BF036843F001030360204B984202
:1017B000204B0CBF9B685B68B3FBF4F3802B2BDCE6
:1017C000402B2BDC202B2BDC102B2BDC082B2BDCD9
:1017D000042B2BDC022BD4BF00230123026842EA36
:1017E000C30303609DF81430012B02BF036843F468
:1017F000006303600023436070BD0F4DA842C0D159
:1018000005F500356E6A46F480466E622E6B26F44E
:1018100080462E632D6BB4E70723DFE70623DDE761
:101820000523DBE70423D9E70323D7E70223D5E722
:1018300000300140640A0020003800400000000031
:1018400008B501F0D5FAFFF783FB084B9B68DB076F
:1018500003D5074B1B6803B19847FFF781FB01F0E5
:10186000DFFABDE8084001F03BBF00BF0030014097
:101870008C0A0020000000000000000000000000B2
:1018800008B501F0B5FAFFF763FB084B9B68DB076F
:1018900003D5074B1B6803B19847FFF761FB01F0C5
:1018A000BFFABDE8084001F01BBF00BF0038004090
:1018B000900A00200000000000000000000000006E
:1018C0002DE9F04385B0984601AB06460025084651
:1018D0001F469DF83090B0FBF2F4844602FB1401E1
:1018E00020460929CCB294BF30343734E4B2944551
:1018F00005F1010503F8014BEDD22C463368444550
:101900001B680BD249463046984718B10C2005B0E9
:10191000BDE8F0830134F1E7002DF8D03368013DD4
:1019200030461B68795D98470028F5D0EEE7000047
:101930002DE9F04F0B46054614464FF00A0B85B0D3
:101940001E4616F8011B31B928462B685B6805B0A6
:10195000BDE8F04F1847252902D02B681B6864E0CA
:101960005F784FF00008302F14BF20279E1C16F818
:10197000011BA1F13000C0B2092804D92A2905D1E0
:1019800054F8040BC0B20BFB0808F0E72E2909D16C
:1019900016F8011BA1F13003092BF9D92A2901D12D
:1019A0000434F5E763293BD015D841294ED003D83C
:1019B0002529D2D03346C3E7532939D05829F9D144
:1019C000434610220097284654F8041BFFF778FF7F
:1019D0000028EFD0B8E773292AD01BD8642901D09A
:1019E0006929E7D1A14659F8044B002C07DA2B6886
:1019F0002D2128461B6898470028A5D164424346FC
:101A00000A22214628460097FFF75AFF00289BD15B
:101A10004C46CFE77529CDD143460A220097D2E73D
:101A20002B6854F8041B1B68C9B228469847CFE7B7
:101A30002768013F17F8011F09B90434BAE72B687A
:101A400028461B6898470028F4D07DE70027D4E992
:101A5000019823685FFA88FA03934F4501DB0C3441
:101A6000A8E76FB9039B1022D95D30232846009365
:101A70000223FFF725FF00287FF466AF0137ECE76C
:101A8000B8F1000FEED02B68514628461B689847E6
:101A90000028E7D058E70000000000000000000028
:101AA0000FB413B504AB53F8044B0193202383F315
:101AB000118801F03DF92146019A0648FFF738FFE9
:101AC00001F04EF9002383F3118802B0BDE8104005
:101AD00004B07047900E00200000000000000000DD
:101AE0000FB407B504AA52F8041B04480192FFF78B
:101AF0001FFF03B05DF804EB04B07047900E0020A8
:101B0000704700000000000000000000000000001E
:101B100008B5064C40F2DE3001F0E2FC20680028F7
:101B2000F8D003685B689847F4E700BFB80B002063
:101B30000EB403B503AA52F8041B00F5C870019255
:101B4000FFF7F6FE02B05DF804EB03B07047A0F5B6
:101B5000CA70EDE700000000000000000000000077
:101B6000F0B51746314A904246D1314CE26942F015
:101B70000102E261032402684D00AC40E64322EA20
:101B80000404046002240268AC401443046001248D
:101B900042688C40002F47D122EA04044460C268A6
:101BA000072902EA0602C260C46803FA05F242EAA3
:101BB0000402C260836806EA03064FF002038660EF
:101BC000826803FA05F343EA0203836086BFA1F14A
:101BD00008039A008A0007298CBF042300230F21E1
:101BE0001844036A914023EA010303620723016A50
:101BF00093400B430362F0BD0E4A904204D10C4C5B
:101C0000E26942F00202B4E70B4A904204D1084C68
:101C1000E26942F00402ACE7084A9042AAD1044CBF
:101C2000E26942F00802A4E71443B7E7000002406B
:101C3000003802400004024000080240000C02404C
:101C4000D0F81021D0F81C1100F588739B1A8B4234
:101C500028BF0B46C0F820317BB1002380F8183133
:101C600043685B68DA60D0F820215A60C268126A63
:101C70001A601A6842F001021A6070470000000002
:101C8000436859680A6822F00F020A60597B1A6893
:101C90000E238B405360D0F81021D0E947310A441D
:101CA0005B1A00F588718A4228BF00F11002C0F863
:101CB0001C31C0F810212BB9012380F818310368BA
:101CC0001B681847FFF7BCBF0000000000000000C1
:101CD000FFF7D6BF00000000000000000000000079
:101CE000D0F81C31FF2B16D8D0F814315A1CC0F88C
:101CF00014211970D0F8142100F588739A4224BF7A
:101D000000F11003C0F81431D0F81C310133C0F8D1
:101D10001C31002070470C207047000000000000BC
:101D2000FFF7DEBFA0F5C870FAE700000000000072
:101D300090F818310BB1FFF783BF70470000000027
:101D4000FFF7F6BFA0F5C870FAE70000000000003A
:101D50008368D0F828215B685B68C3F163039B1A32
:101D600048BF633383B1531CC0F82831024492F852
:101D70002C310B70D0F82831622B4FF0000301DDBD
:101D8000C0F82831184670470B207047000000004B
:101D90002DE9FF4190F88F310446002B6CD0384D6F
:101DA000384E05F1900720460DF10701FFF7D0FFEF
:101DB000002861D194F800329DF807201BB184F807
:101DC0000002C4F8FC01082AD4F8FC3105D1002B2C
:101DD000E9D0013BC4F8FC31E5E70D2A01D00A2A1D
:101DE00027D1002BDFD04FF00008234483F89881DF
:101DF000314604F5CC7001F0C3FE0123C4F804029F
:101E000084F800328DF80D3084F88F81202383F31D
:101E1000118800F08DFF01F01BF8D5F8AC30434578
:101E200010DC01F05DF900F09BFF002383F31188C3
:101E3000B9E7612BB7D8591C2344C4F8FC1183F8C7
:101E40009821B0E701F004F8D5F8AC3004F5CA7178
:101E5000013BC5F8AC30D5F894300B4803F10802CB
:101E6000C5F8942019600399BA42596028BFC5F893
:101E7000945001F08DF9D4E704B0BDE8F08100BFC3
:101E8000C00B0020504E0008580C0020000000003D
:101E9000C268D2E90013054A9342054A0CBF926812
:101EA0005268B2FBF1F29A60704700BF00380140FF
:101EB000640A002000000000000000000000000094
:101EC000002373B50446C0681A4681898068FFF70D
:101ED00047FEE3683B4A5B68934258D13A4B1A6A23
:101EE00042F480421A62DA6A22F48042DA62DB6AE1
:101EF00000262046FFF7CCFFE06809214368334AFB
:101F00001E618069234601F00BFDE56843686A683D
:101F10006060111D9960296A2869196001230C21EC
:101F200084F81831D160C02151611A46A98AFFF79F
:101F300017FEE068334632460921C06901F0F0FC23
:101F4000E16843684A68A060101D986004F59670C7
:101F5000D8606320496A58601960196841F001012E
:101F60001960D36843F40053D360194B1A6802B95F
:101F70001C60184C236843B9009380224FF4907181
:101F8000154B164801F054FA206002B070BD144A97
:101F900093420AD10C4B5A6A42F400325A621A6BCD
:101FA00022F400321A631B6BA2E70E4A93429FD1C0
:101FB000054B5A6A42F480225A621A6B22F480223C
:101FC000F0E700BF0038014000380240D11C000893
:101FD000B80B0020BC0B0020111B0008980A002041
:101FE00000440040004800400000000000000000E5
:101FF00010B52023044683F3118800F099FE0123D5
:1020000084F88F3100F0ACFE002383F3118810BDFB
:10201000FFF7EEBFA0F5CA70FAE70000000000006D
:1020200037B5002503682946DB6804469847C4F89D
:10203000845003B030BD000000000000000000002C
:1020400010B5044600F004FFE36823B12046BDE864
:10205000104001F0E5BA10BD0000000000000000D3
:102060000269036803EB82031963704700000000F4
:1020700010B50446C3692C309988FFF7F1FFE36976
:1020800000200833E36110BD0000000000000000E4
:1020900008B500212C30FFF7E3FF08BD0000000069
:1020A0001FB504460123D0F88800B4F88C200191B4
:1020B00001B91032934083619DF8041004F12C00A3
:1020C000FFF7CEFF9DF8051004F14800FFF7C8FFA9
:1020D0009DF8061004F16400FFF7C2FF04B010BDC4
:1020E00003680A465B680149184700BFA04E000814
:1020F000F7B5D0F88830394A04469342B0F88C607E
:1021000090F88E0052D13649CA6942F00102CA6184
:102110007200D1B203221D688A4025EA02051D60C3
:102120000125D3F800C005FA01F747EA0C071F6044
:102130005F68B54027EA05055D605D68B0402843EB
:102140005860D86804F12C0520EA0200D860D868ED
:10215000D860986820EA02029A60022298688A4051
:1021600002439A602846FFF70BF8D4F880102846FF
:1021700004F14805FFF7ACFA2846FFF701F8D4F858
:102180008010284604F16405FFF7A2FA2846FEF7FE
:10219000F7FF2846D4F88010FFF79AFA002120466E
:1021A0002368DB6803B0BDE8F04018470D4A93424E
:1021B00004D10B49CA6942F00202A8E70A4A9342D5
:1021C00004D10749CA6942F00402A0E7074A9342D2
:1021D0009ED10349CA6942F0080298E70000024014
:1021E000003802400004024000080240000C024097
:1021F0002DE9F041061D044630460D4642F21077A7
:10220000FFF71EFF40F2E73000214FF47A720023FF
:10221000E7FB0501FEF754F823460146024A304623
:10222000BDE8F04101F09CB9710F0008000000000A
:10223000C369D0F88420D3F8051070B591420446E4
:102240000AD00268D3F80150D66845B9B047E369AF
:10225000D3F80520C4F884200933E3612CE090F81A
:10226000842059798A4229D2013284F8842094F852
:10227000852099798A4224D2013284F8852094F805
:102280008620D9798A421FD2013284F8862094F8B8
:1022900087201B7A9A421AD2013284F8872020467E
:1022A000D4F88410B047E069D4F88420D0F8053021
:1022B0009A420FD10930E061002044E0D7D9013AB9
:1022C000D3E7DCD9013AD8E7E1D9013ADDE7E6D92D
:1022D000013AE2E794F884104379D0F801208B4268
:1022E0001CBF0431B2FBF1F194F8853018BF4D1CCE
:1022F000817908BF002599421BBF0433B2FBF3F379
:102300000021591CA94294F8863038BF2946C57966
:10231000007A9D421BBF0433B2FBF3F30023013369
:10232000994238BF194694F8873098421BBF04334E
:10233000B2FBF3F2002201329142204638BF11462F
:10234000FFF756FF012070BD0000000000000000F4
:1023500038B504460D46202383F3118800F0E8FCCD
:102360004FF0FF332362236820461B68C4E90655FB
:10237000984700F0F5FC002383F3118838BD000076
:102380002DE9F041061D044630460D4642F2107715
:10239000FFF756FE40F2E73000214FF47A72002337
:1023A000E7FB0501FDF78CFF23460146024A304654
:1023B000BDE8F04101F0D4B8710F00080000000042
:1023C00038B504460D4600F043FDD4F8AC30002B80
:1023D0001EDD00F03DFDD4F8AC3004F19800013B67
:1023E000C4F8AC30D4F8943003F10802C4F8942057
:1023F0002A681A606A685A60D4F8942004F190033D
:102400009A4228BFC4F8944000F0C2FE002038BDB4
:102410000220FCE7000000000000000000000000B7
:1024200038B5044600F014FD236913B1201DFFF7F1
:1024300007FE4FF0FF35E3691A78042AFDD8DFE87C
:1024400002F0030A13222E00236820469B68984757
:102450000128F0D138BD59680833E3610029EAD07A
:102460002046FFF78DFFF5E75A68A36903EBC20327
:10247000E36194F8293023B1114804F12401FFF7F6
:102480009FFF0121ECE794F8293023B10C4804F1B7
:102490002401FFF795FF0023C4E90633DAE7226A37
:1024A000013204BF5A682262226A1AB908332562CF
:1024B000E361C0E7A369013AE3612262BBE700BFC1
:1024C000C00B002000000000000000000000000021
:1024D0002DE99F480220FFF72BF9894A894F53685D
:1024E000894823F4604343F440435360FFF740F8C6
:1024F00000F07EFB00F074FE07F1A4001221C7E992
:10250000247700F00DFE002107F1980000F008FE8E
:102510007E48FFF7D5FC7E4A7E497F48FFF7C0FA28
:102520007E4C7948FFF7ECF87D48FFF7E1FD04F1B8
:102530002C00FEF725FE202383F3118800F0F8FB22
:102540004FF0FF332362774B2046C4E90633FFF791
:1025500067FF00F005FC002383F311887248FEF743
:1025600097FCDFF8BC8100285AD170494046FFF73C
:10257000EFFE42F2607000F0B3FF202383F3118876
:102580006B4D00F0D5FBAE69281DFFF759FD2B46BA
:10259000281D3146674A00F0E3FF002500F0E0FB0C
:1025A00085F31188DFF8C491A9F1080A20238DF87A
:1025B0000D50029583F3118800F0BAFB4FF0FF3104
:1025C000484600F0BDFD98B9D7F890205A4802F16E
:1025D0000803C7F89030534528BF3B461168029165
:1025E0005268C7F89030039200F0D2FD00F078FDF9
:1025F00000F0B6FB85F311889DF80D10022911D06B
:10260000072940D0012977D1029E4C49306FFEF74F
:102610001FFD014600285BD13046FFF761FD64E0F5
:102620004749A3E74AF6AA22464B1A60464A13686E
:102630000133042B1360B9D9D8F88430019533B92C
:10264000D8F818301BB9D8F81C30002BAED03F4951
:102650003348FFF77DFEA3698BB1202383F31188F4
:1026600000F066FB00F0F4FB236913B13848FFF774
:10267000E7FCC4E9065500F073FB85F31188274891
:10268000FFF706FD92E7304B324E1D60A3699DF8BF
:102690000CB0B34210D0202383F3118800F048FB24
:1026A0004FF0FF331D482362C4E90666FFF7B8FE0A
:1026B00000F056FB85F31188274B1A785A453FF4F2
:1026C00075AF2649164883F800B0FFF741FE6DE765
:1026D0002349306FFEF7BCFC60B933683046D3F84D
:1026E00004B00C4A0A4B1F49D847336830461B6870
:1026F00098475BE706218FE71B48FFF7D1F955E7BD
:1027000000380240C00B0020640A0020000D0020A9
:10271000B04E0008BE4E0008C44E00080C0F00204A
:10272000700C0020604F0008B8080020371000200F
:10273000D40F0020710F0008640C0020CC4E00085C
:10274000660F0020003000405C100020540F002075
:10275000100F0020304F0008080800201C10002037
:10276000D14E0008C54E0008D94E0008580C002074
:1027700038B5044600F06CFB236913B1201DFFF748
:102780005FFC4FF0FF35E3691A78042AFDD8DFE8D3
:1027900002F0030A14253100236820469B689847FD
:1027A0000128F0D138BDD3F801100933E3610029C5
:1027B000E9D02046FFF71CFDF4E7D3F80130A26909
:1027C00003EBC3031344E36194F8293023B11248A7
:1027D00004F12401FFF7F4FD0121EAE794F8293020
:1027E00023B10D4804F12401FFF7EAFD0023C4E9F9
:1027F0000633D7E7226A013204BFD3F801202262F0
:10280000226A1AB909332562E361BCE7A369013A78
:10281000E3612262B7E700BFC00B002000000000A8
:102820002DE9F84F682200240126FF274FF0030905
:102830006FF03001D94B4FF063085A709972DA7417
:102840001C701C229E70DC701C715C719F71DF71AA
:102850001C725E72DC721C735C739C73DC731C7480
:102860005C749C741E755C759C75DC751E765E765A
:102870009C7683F81B901C775C779C77DC7783F8D9
:10288000204083F8214083F8224083F8234002232C
:10289000C34900204A708B700C70CC700C714C7165
:1028A0008E71CE710C7281F809908C72CC720C739F
:1028B0004C738C73CC730C744C74BA494FF4E13381
:1028C0000C704C708C70CC700C714F718C71CC7121
:1028D0000C724E7281F80A80CC720C734C738C733C
:1028E000CC730C744C748C74CC740C754C758C75E6
:1028F000CC750C764C768C76CE7681F81C804C7735
:102900008C77CC7781F8204081F8214081F82240F3
:1029100081F8234081F8244081F8254081F8264041
:1029200081F8274081F8284081F8297081F82A40F1
:1029300081F82B4081F82C4081F82D6081F82E80A1
:1029400081F82F4081F8304081F8314081F83240E1
:1029500081F8334081F8344081F8354081F83640C1
:1029600081F8374081F8384081F8394081F83A40A1
:1029700081F83B4081F83C4081F83D4081F83E4081
:1029800081F83F6081F8408081F8414081F8424001
:1029900081F8434081F8444081F8454081F8464041
:1029A00081F8474081F8484081F8494081F84A4021
:1029B00081F84B4081F84C4081F84D7081F84E40D1
:1029C00081F84F4081F8504081F8516081F8528081
:1029D00081F8534081F8544081F8554081F85640C1
:1029E00081F8574081F8584081F8594081F85A40A1
:1029F00081F85B4081F85C4081F85D4081F85E4081
:102A000081F85F4081F8604081F8614081F8624060
:102A100081F8639081F8644081F8654081F86640F0
:102A200081F8674081F8684081F8694081F86A4020
:102A300081F86B4000215C4D4FF0FF3BC5E9000180
:102A40005A485B49C5E92455C0E9003101F54841C0
:102A5000816001610A21042381829221C0E907314A
:102A60004FF485510925416252498581C860C0F8FB
:102A7000189001F11000C1E944004F48C1E94744F2
:102A800000F12005C1F890514C4D08603030C1F87C
:102A90009401C1E94944E818C1E9814481F8186109
:102AA00081F88F61C1F8FC4181F80042214600F0B5
:102AB000EFFF0C204249DFF828A129604149A88690
:102AC000C5E90B1AC5E90E16C5E908B485F8294011
:102AD000A5F84040C5F844803B4D1C222146281DE6
:102AE00000F0D6FF0223394AEB63C5E90B2AC5E99A
:102AF0001172C5E91872C5E91C29AA636A65344ACE
:102B0000A5F88C302A60334B334A05211A6042F213
:102B10000672A9869A6140F2011104204FF4817275
:102B2000C5E908B4C5E91F7B85F82940A5F8401020
:102B3000C5F84CA0A5F85060A865A5F85C10C5F8CC
:102B400068A0A5F86C40A5F87810C5F88440C5F8D1
:102B500088A085F88E409A83204B1C705C709C7016
:102B6000DC701C715C719C71DC711C725C7283F88E
:102B70000A80DC721C735C739C7383F80FB01F7443
:102B80005C7483F81290DC741C755C759C75DC7544
:102B90001C765C769C76BDE8F88F00BF371000206D
:102BA000540F0020660F0020C00B0020F40F0020FF
:102BB00000380140000D0020684E00080C0F002076
:102BC000184F0008000C0140700C00200004004069
:102BD000F84E0008D40F0020484E00081C100020BA
:102BE000000402400000000000000000000000009F
:102BF00008B500F0E5FDBDE8084000F001B80000B0
:102C000000F03EB8000000000000000000000000DE
:102C10004FF08043002258631A610222DA60704745
:102C20004FF080430022DA6070470000000000008F
:102C30004FF0804358637047000000000000000020
:102C400010B500F0D5F84FF080431A6992070CD503
:102C500000241C61202383F3118800F099F800F010
:102C60000FFB00F0ADF884F3118800F0D9F8BDE84F
:102C7000104000F035BD0000000000000000000022
:102C8000134B02215A6A1C2042F001025A621A6B4D
:102C900042F001021A630F4A1B6B936843F0010371
:102CA00093600D4B5A6842F21073B2FBF3F24FF08F
:102CB0008043013A9A624FF6FF72DA6200229A610B
:102CC0005A63DA605A6001225A611A6000F008B84B
:102CD00000380240002004E0640A002000000000E8
:102CE0000122090100F1604303F56143C9B283F891
:102CF000001300F01F039A4043099B0003F1604357
:102D000003F56143C3F880211A607047000000009A
:102D1000044BD3E90A23134302D0034800F0A8BAB6
:102D2000704700BFA8100020B04F0008000000004E
:102D300010B5064CD4E90A1251EA020302D0044845
:102D400000F096FA0123E36210BD00BFA810002036
:102D5000C04F00080000000000000000000000005C
:102D600010B5064CA36A13B9E36A002B02DC0448D1
:102D700000F07EFA0023E36210BD00BFA81000201F
:102D8000D04F00080000000000000000000000001C
:102D900010B5064CA36A002B01DDE36A13B10448A9
:102DA00000F066FA0123E36210BD00BFA810002006
:102DB000E04F0008000000000000000000000000DC
:102DC00010B5064CA36A002B02DDE36A002B02DC7F
:102DD000034800F04DFA0023E36210BDA810002064
:102DE000F04F00080000000000000000000000009C
:102DF000202310B583F31188074CA36A002B01DB55
:102E0000E36A13B1054800F033FAA36A0133A36201
:102E1000002383F3118810BDA81000200050000883
:102E2000202310B583F31188074CA36A002B01DD22
:102E3000E36A13B1054800F01BFAA36A013BA362E1
:102E4000002383F3118810BDA81000201050000843
:102E5000054B9A6A002A02DBDB6A002B02DC03487E
:102E600000F006BA704700BFA810002020500008EC
:102E7000044B9A6A12B9DB6A002B02DC024800F0AC
:102E8000F7B97047A810002030500008000000007B
:102E90000022024BC3E900339A607047A81000205B
:102EA00010B50446FFF7D4FF14B9094800F0E0F963
:102EB0000023A2682375074B1B6899689142FBD2D7
:102EC0005A6823606260204614605C6010BD00BFD9
:102ED00050500008A8100020000000000000000072
:102EE00038B50446202383F31188FFF751FF237D73
:102EF0000025052B0BD8DFE803F0030A0A081C168F
:102F0000FFF75EFF85F3118838BDA3691D604FF0A0
:102F1000FF332046A361FFF7C3FFFFF751FF0023F4
:102F200083F31188F0E7A569FFF792FFAB680133DF
:102F3000AB60D4E9003213605A60E8E7000000009B
:102F400010B50446FFF784FF14B9094800F090F962
:102F50000023A2682375074B1B6899689142FBD830
:102F60005A6823606260204614605C6010BD00BF38
:102F700060500008A81000200000000000000000C1
:102F800070B506460D4C2569FFF772FF23682E7554
:102F90001A6854602260012223611A75EFF30983D5
:102FA0002A69243B9A4202D9054800F061F9294672
:102FB0002069BDE87040FDF7F3B800BFA8100020FD
:102FC0004050000800000000000000000000000069
:102FD00070B50D4686B00446FFF74AFF6B1C0D4ED8
:102FE00013D0336929460C4A01A800F0B9FA2046EB
:102FF000FFF7C6FFFFF72CFF049B13B101A800F0F9
:103000000FFB3369986906B070BD2046FFF7B8FF23
:10301000F7E700BFA8100020E12E00080000000024
:10302000F8B504460D46124E3769FFF721FFA26836
:10303000BB68A5619A4204D82046BDE8F840FFF776
:103040002FBF3846FFF77CFF012305463461237507
:10305000EFF309830269243B9A4202D9054800F044
:1030600007F929462046BDE8F840FDF799B800BFAA
:10307000A8100020405000080000000000000000E0
:10308000044B1A681B6990689B68984294BF0020A3
:1030900001207047A8100020000000000000000080
:1030A00038B50D4C236820691A68546022600122EB
:1030B0001A752361FFF744FF0546EFF309830269A0
:1030C000243B9A4202D9054800F0D2F829462069EB
:1030D000BDE83840FDF764B8A81000204050000853
:1030E00008B5FFF7C5FEFFF7B3FE064B1A681B696C
:1030F00092689B689A4203D9BDE80840FFF7D0BFA9
:1031000008BD00BFA8100020000000000000000063
:10311000FFF7C6BF00000000000000000000000034
:1031200038B50D46044608B1002902DA034800F01C
:103130009FF8C4E90044A56038BD00BF8050000876
:1031400038B504460D46FFF793FE14B90E4800F05B
:103150008FF8A3685A1E002AA26012DA1DB94FF038
:10316000FF30A36038BD094B62681B6929469C612A
:103170001C605A60052013606360BDE83840FFF7AB
:1031800027BF0020EEE700BF90500008A8100020E5
:1031900010B50446FFF75CFE14B9094800F068F862
:1031A000A3680133002BA36009DC20680368236057
:1031B0005C600023BDE810408361FFF771BE10BD65
:1031C000B0500008000000000000000000000000F7
:1031D000FEE700000000000000000000000000000A
:1031E00038B50025194CFFF753FE00F0A9F98022ED
:1031F000174904F13000C4E90A5500F0B9F8154B3D
:103200002061036101230375134B144AD96821F42B
:10321000E0610904090C0A431149DA60CA6842F006
:103220008072CA600F490A6842F001020A601022E7
:10323000DA77202283F82220FFF76AFD85F31188D0
:1032400062B6BDE83840084800F0DAB8A81000209F
:10325000C05000080004002000ED00E00003FA0563
:10326000F0ED00E0001000E0E05000080000000079
:1032700072B6014B5862FEE7A81000200000000063
:103280002DE9F84F4FF00008C146254CFFF7E0FD4F
:10329000FFF7DEFD656904F114074FF080435B6AB8
:1032A000268C9BB2AA689E1BB6B2964220D34FF0E2
:1032B000200AAA68238CD5F80CB0134423842B6809
:1032C000B61ABB425F606361C5F80C8001D1FFF79D
:1032D000A7FCFFF775FD89F311882869D8478AF3A1
:1032E0001188FFF755FD6569AB689E42E1D2D4E7CE
:1032F0006269BA4212D0916823848E1B96604FF6A1
:10330000FF72A868904228BF104602282CBF1818E8
:10331000981CBDE8F84F80B2FFF78ABCBDE8F88F73
:10332000A8100020000000000000000000000000C5
:10333000202383F31188FFF7FBBC0000000000008E
:1033400008B5FFF70DFD002383F3118808BD0000C9
:1033500010B5044610B90448FFF78AFF2146BDE8BE
:1033600010400820FFF734BE0051000800000000A4
:10337000826002228282704700000000000000008C
:1033800010B50446FFF764FD14B91948FFF770FF44
:103390006268500707D1A368590704D19A4202D244
:1033A0009B1A9F2B02D81248FFF762FFE368FF2B9E
:1033B00001D8236913B90E48FFF75AFFD4E9013049
:1033C00040F8103CA0F1440340F8143C2369203835
:1033D00040F8243C636940F8203C064B40F8043C2C
:1033E000E3688360022303750023437510BD00BFAB
:1033F00010510008B10100080000000000000000AA
:1034000010B5D0E90132044655219A420CD8FFF795
:103410008FFF2046FFF7B4FF04460021FFF700FEB0
:10342000FFF78EFF204610BD03F8011BEDE70000FB
:10343000F8B50C4616461F46054640B19F2906D9E9
:1034400040EA01035B0702D1FF2A00D817B91348ED
:10345000FFF70EFF2B4655212A199A421AD8203C15
:103460002C44FFF765FFA4F12403E360069B20468C
:1034700044F8203C0A4B002144F8043C0223256117
:10348000A38244F8247CA660FFF7CAFDFFF758FF2B
:103490002046F8BD03F8011BDFE700BF30510008EC
:1034A000B101000800000000000000000000000062
:1034B000024B1B6998610F20FFF762BDA810002026
:1034C00010B50446FFF734FF2046BDE81040FFF773
:1034D000EFBF00000000000000000000000000003E
:1034E00010B50446FFF724FF2046FFF731FFBDE883
:1034F0001040FFF725BF00000000000000000000A2
:10350000054B1B6921B1036098610320FFF760BD83
:103510004FF0FF30704700BFA810002000000000EF
:103520000346006820B100221A608161FFF7B8BC31
:1035300070470000000000000000000000000000D4
:10354000054B03F11402C3E905224FF0FF32DA61A3
:1035500000221A84704700BFA8100020000000005D
:10356000F8B505460C4616461F46FFF771FC0DB12F
:1035700006B114B92548FFF77BFE4FF08043586A27
:10358000234BC5E903671A4652F8146F022C2146F3
:1035900038BF022196421F4680B210D14FF6FF7409
:1035A0001884A14294BF40180019C3E9055580B2A0
:1035B000C5E90066A960BDE8F840FFF729BB1B8C90
:1035C000B268C41AA4B20C1902D3A41A36680AE06D
:1035D000A24208D94FF6FF70844294BF18191818F8
:1035E00080B2FFF725FBB368A3420CD373682E604B
:1035F0006B601D607560AC60B3681C1B4FF0FF33DF
:10360000B460FB61F8BDE41AE0E700BF6051000858
:10361000A8100020000000000000000000000000D2
:1036200038B50446FFF714FC14B92248FFF720FE12
:10363000214923680A4652F8140FA0420CD0616851
:103640000B602368596000219342E16003D09A68BF
:10365000A1680A449A6038BD002093424B615A60C9
:10366000E06003D1BDE83840FFF7DABA9868A26895
:103670000D8C104498604FF080435C6A641BA4B2C8
:10368000A042E8D9031B012B09D80234B4F5803FCE
:103690000BD2281980B2BDE83840FFF7C9BA4FF6FF
:1036A000FF74844228BF0446F3E70448FFF7E0FDB7
:1036B000EFE700BF70510008A8100020505100082B
:1036C000EFF30983203383F30988002383F3118800
:1036D0007047000000000000000000000000000033
:1036E000202310B583F311880D4B5B6813F400633E
:1036F00012D0EFF309844FF0807344F8043CA4F136
:10370000200383F30988FFF7BBFC18B1054B44F88D
:10371000083C10BD044BFAE783F31188F9E700BFBA
:1037200000ED00E0C5010008D00100080000000025
:1037300070470000000000000000000000000000D2
:1037400070470000000000000000000000000000C2
:1037500070470000000000000000000000000000B2
:10376000FEE7000000000000000000000000000074
:10377000F0B5082000261049D1E901341D460A6839
:10378000043AAC4210D8E21CD21ADD1E22F0030229
:10379000AC4238BF00221344CA689A4209D80138A3
:1037A00001F11001E8D1F0BD52F8047F45F8047B27
:1037B000E7E743F8046BF0E78051000800000000E1
:1037C00008B51A4B1A6942F07F4242F47F0242F474
:1037D000FF4242F040021A611A6922F4FF4222F0CD
:1037E00040021204120C1A611A699A6962F080523E
:1037F0009A619A6902F080529A619A695A694FF007
:10380000FF325A615A6900225A615A695A6A42F073
:1038100080525A621A6B42F080521A631B6B00F09E
:1038200007F8BDE8084000F023B900BF00380240A7
:1038300000230121084A10B5C2E900330748446853
:103840001030236042F8313001310829F7D14FF0B0
:10385000FF32034B5A6010BD601000201052000868
:1038600000600240000000000000000000000000B6
:103870002DE9F84F0446884692469B46FFF7E8FA42
:10388000062C09D80127224DA7402A68174207D0E5
:1038900000263046BDE8F88F1E48FFF7E9FCF7E741
:1038A0001D4B3A432A601D49DA694FEA041901EBBE
:1038B0000416013445F834A042F0807205EBC404CC
:1038C000C4F804B0DA619A6A0C4642F080729A62D7
:1038D0009B6ABAF1000F0AD06A68B3681A4203D132
:1038E0004146F07BFFF7FCF96B681F436F6004EB08
:1038F00009014B68497B1A6854F8090022F00F024D
:103900001A600E228A40426000221A60C1E700BF9E
:1039100060100020005200080038024010520008D9
:10392000F8B51F4604460D461646202383F311883A
:10393000FFF7FEF93B46324629462046FFF798FF3F
:103940000446FFF70DFA002383F311882046F8BDE3
:1039500010B40468437B21684268D940126801F0C2
:103960000E010A420ED0827B01FA03F36360064B1C
:10397000013253F832402CB103EBC203586823469E
:1039800010BC184710BC70476010002000000000F9
:1039900008B5FFF72DFA0448FFF7DAFFFFF740FA02
:1039A000BDE80840FFF79CBE105200080000000070
:1039B00008B5FFF71DFA0448FFF7CAFFFFF730FA12
:1039C000BDE80840FFF78CBE205200080000000050
:1039D00008B5FFF70DFA0448FFF7BAFFFFF720FA22
:1039E000BDE80840FFF77CBE305200080000000030
:1039F00008B5FFF7FDF90448FFF7AAFFFFF710FA33
:103A0000BDE80840FFF76CBE40520008000000000F
:103A100008B5FFF7EDF90448FFF79AFFFFF700FA42
:103A2000BDE80840FFF75CBE5052000800000000EF
:103A300008B5FFF7DDF90448FFF78AFFFFF7F0F953
:103A4000BDE80840FFF74CBE6052000800000000CF
:103A500008B5FFF7CDF90448FFF77AFFFFF7E0F963
:103A6000BDE80840FFF73CBE7052000800000000AF
:103A7000704700000000000000000000000000008F
:103A8000014B1868704700BF0C08002000000000C0
:103A900003460244934200D1704703F8011BF9E743
:103AA000F8B5CD1C25F0030508350C2D38BF0C25C5
:103AB000002D064601DBA94203D90C233360002008
:103AC000F8BD00F01DFA21490A6814469CB9204F40
:103AD0003B6823B92146304600F042F83860294659
:103AE000304600F03DF8431C23D10C2330463360B0
:103AF00000F00EFAE3E723685B1B17D40B2B03D906
:103B000023601C44256004E06368A2420CBF0B6084
:103B10005360304600F0FCF904F10B00231D20F047
:103B20000700C21ACCD01B1AA350C9E7224664680A
:103B3000CCE7C41C24F00304A042E3D0211A304691
:103B400000F00EF80130DDD1CFE700BFA01000205B
:103B5000A410002000000000000000000000000091
:103B600038B50023054D044608462B60FDF758FA8A
:103B7000431C02D12B6803B1236038BDB41100206F
:103B8000164B2DE9F0411F680546BC6D0E46ECB999
:103B9000502000F0ADF90246B86520B95721104B0E
:103BA000104800F04DF8C0E90044C0E90244C0E903
:103BB0000444C0E90A44C0E90C44C0E90E44C0E929
:103BC0001044C0E9124484610477446231462846B7
:103BD000BA6D0123BDE8F04100F00AB80C080020DE
:103BE00090520008A75200080000000000000000EA
:103BF000F0B508B9106888B104460F46204614F89D
:103C0000015B17F8016B1EB965B92846156005E020
:103C1000B542F6D1002BF0D114600370F0BD1C4604
:103C20000CE015B90E4614F8013B16F8015BAB42E7
:103C3000F7D1002BF3D0002304F8013C1460EDE72A
:103C40001FB514461A46094B05461B68D8684CB187
:103C5000074BCDE9013400912B46064900F0F8F8F6
:103C600000F0DEFD044B1C46F3E700BF0C0800200B
:103C7000105300081D530008A84E00080000000063
:103C8000002310B50446C0E90033C0E90433836063
:103C900081814366C2818361194608225C30FFF747
:103CA000F7FE054B24626362044BA362044BE3629C
:103CB000044B236310BD00BFB1450008E145000877
:103CC00021460008514600080000000000000000E6
:103CD000014900F0D5B800BF6149000800000000AC
:103CE00070B568254A1E55430E4605F17401FFF76D
:103CF000D7FE044640B10021C0E900160C30A06098
:103D000005F16802FFF7C4FE204670BD0000000008
:103D1000014800F0DDB800BFB01100200000000035
:103D2000014800F0DDB800BFB01100200000000025
:103D3000014800F0CDB800BFAB110020000000002A
:103D4000014800F0CDB800BFAB110020000000001A
:103D500010B50446FFF7ECFFA3691BB1BDE81040A6
:103D6000FFF7EEBFC4E912332365134B134A1B68F8
:103D7000A262A34208BF0123204608BFA36100F04E
:103D80001FF86060204600F01BF8A060204600F09D
:103D900017F800220421E0606068FFF771FF01223C
:103DA0000921A068FFF76CFF02221221E068FFF7EB
:103DB00067FF0123A361D1E780520008D13C0008CE
:103DC000F8B50746FFF7A4FF1E4B1E68B36913B989
:103DD0003046FFF7BDFF4836D6E90134013B03D535
:103DE00033680BB33668F7E7B4F90C50D5B9164B06
:103DF00004F15800E360656600F062F8FFF790FF99
:103E000008222946C4E90155C4E904552560A56185
:103E100004F15C00FFF73CFEC4E90D55C4E91255FE
:103E20002046F8BD6834D9E704213846FFF758FF2B
:103E3000044630600028D5D1FFF772FF0C233B60A9
:103E4000EEE700BF805200080100FFFF0000000005
:103E50000EB403B5014603AB054853F8042B0068C4
:103E6000019300F0DDF802B05DF804EB03B0704799
:103E70000C0800200000000000000000000000000E
:103E80002DE9F84306468846002700F14804D4E9A6
:103E90000195B9F1010905D52468002CF7D1384600
:103EA000BDE8F883AB89012B07D9B5F90E30013392
:103EB00003D029463046C04707436835E9E700008C
:103EC000704700000000000000000000000000003B
:103ED000704700000000000000000000000000002B
:103EE000704700000000000000000000000000001B
:103EF000024B01461868FFF7D3BD00BF0C08002035
:103F00000148FFF7E5BF00BFAC1100200000000032
:103F10000148FFF7E5BF00BFAC1100200000000022
:103F200038B50546002943D051F8043C0C1F002B3E
:103F3000B8BFE418FFF7E4FF1E4A1368104633B910
:103F4000636014602846BDE83840FFF7E1BFA34234
:103F50000AD921686218934201BF1A685B68521837
:103F6000226063600460EDE71A465B680BB1A34210
:103F7000FAD911685018A0420BD12068014450189A
:103F800083421160DED118685B68014411605360A0
:103F9000D8E702D90C232B60D4E7206821188B4284
:103FA00001BF19685B680918216063605460C9E744
:103FB00038BD00BFA010002000000000000000007D
:103FC000936810B4013B002B936007DA9469A34215
:103FD00001DB0A2902D110BC00F042BB1368581C57
:103FE00010601970084610BC704700000000000007
:103FF000F8B506460F461446D518AC4201D100204C
:1040000007E03A46304614F8011BFFF7D9FF431C7E
:10401000F3D1F8BD00000000000000000000000027
:104020002DE9F04F0D461446984606469DB018B14E
:1040300083690BB9FFF78CFE894B9D421BD17568D4
:104040006B6ED90705D4AB899A0502D4A86DFFF72A
:104050003FFFAB891B0701D52B69EBB929463046D9
:1040600000F06EFBC0B16B6EDC070ED54FF0FF3079
:104070001DB0BDE8F08F7B4B9D4201D1B568DFE7F5
:10408000794B9D4208BFF568DAE7AB899805EDD416
:10409000A86DFFF725FFE9E70023099320238DF89A
:1040A000293030234FF00109CDF80C80DFF8BC81B6
:1040B0008DF82A3023469A4613F8012B0AB1252A97
:1040C000F9D1BAEB040B0BD05B46224629463046A9
:1040D000FFF78EFF013000F0AA80099A5A44099236
:1040E0009AF80030002B00F0A28000234FF0FF323E
:1040F000CDE905230AF1010A049307938DF85330A3
:104100001A935446052214F8011B584800F0E8FCA5
:10411000049AD8B9D10644BF20238DF85330130731
:1041200044BF2B238DF853309AF800302A2B15D03A
:10413000544600204FF00A0C079A214611F8013B23
:10414000303B092B4ED9B0B1079214E0A0EB080325
:1041500009FA03F31343A2460493D2E7039B191D04
:104160001B680391002BBBBF5B4242F00202079326
:104170000793B8BF049223782E2B0CD163782A2B97
:1041800035D1039B02341A1D1B680392002BB8BF64
:104190004FF0FF330593DFF8E4A003225046217867
:1041A00000F09EFC40B14023A0EB0A0003FA00F0AF
:1041B000049B01340343049314F8011B06222C488A
:1041C0008DF8281000F08CFC00283FD0294B1BBB39
:1041D000039B073323F0070308330393099B3B44F6
:1041E000099367E70C4601200CFB0232A5E7002388
:1041F0004FF00A0C194601340593204610F8012BA4
:10420000303A092A03D9002BC5D00591C3E70446EB
:1042100001230CFB0121F0E703AB00932A46304653
:10422000154B04A9AFF300800746781CD6D16B6EFE
:10423000D90705D4AB899A0502D4A86DFFF750FEC3
:10424000AB895B063FF512AF099811E703AB00930A
:104250002A463046084B04A900F082F8E4E700BF84
:10426000705300089053000850530008B0530008E2
:10427000BA53000800000000F13F0008B6530008E0
:104280002DE9F047164699468A680B69074693421E
:10429000B8BF1346336091F843200C46DDF8208008
:1042A0000AB1013333602368990642BF3368023391
:1042B0003360256815F0060506D104F1190AE36894
:1042C00032689B1AAB4228DC94F84320131E226804
:1042D00018BF012392062DD44946384604F1430203
:1042E000C047013020D02368E56803F00603042BA3
:1042F00018BF002532684FF00006A36808BFAD1A4A
:10430000226908BF25EAE5759342C4BF9B1AED18E0
:104310001A34B5421AD1002008E00123524649461A
:104320003846C047013003D14FF0FF30BDE8F08779
:104330000135C4E73020E11881F843005A1C94F895
:1043400045102244023382F84310C5E70123224678
:1043500049463846C0470130E6D00136D9E700006B
:104360002DE9FF470C46277E9146782F80469A46D6
:104370000C9904F1430207D8622F0AD8002F00F0ED
:10438000D980582F00F0A48004F1420684F84270CE
:104390003AE0A7F16303152BF6D801A050F823F0FB
:1043A000F94300080D4400088943000889430008C8
:1043B00089430008894300080D4400088943000828
:1043C0008943000889430008894300081B45000809
:1043D0003D440008FD440008894300088943000863
:1043E0003D450008894300083D4400088943000812
:1043F00089430008054500080B6804F142061A1DB0
:104400001B680A6084F842300123A4E0256808682C
:104410002E0600F104030AD505680B60002D03DAAF
:104420002D236D4284F843300A235E4819E015F0CD
:10443000400F05680B6018BF2DB2EFE70B682568C9
:10444000181D0860280601D51D6802E06906FBD525
:104450001D886F2F0CBF08230A235248002184F8BF
:1044600043106668002EA8BF2168A660A4BF21F093
:10447000040121600DB9002E4DD01646B5FBF3F1B5
:1044800003FB1157C75D06F8017D2F46BB420D4661
:10449000F4D9082B0BD12368DF0708D5236961689D
:1044A0009942DEBF302306F8013C06F1FF36921B2D
:1044B00022614B4621464046CDF800A003AAFFF7F3
:1044C000DFFE01304CD14FF0FF3004B0BDE8F08783
:1044D000344884F845700E68236856F8045B1F065C
:1044E0000E6014D5D90744BF43F0200323601DB9E3
:1044F000236823F0200323601023AFE7236843F0F1
:10450000200323607823284884F84530E3E75E06DB
:1045100048BFADB2E6E71646BBE70B6826681D1D2F
:1045200060690D6035061B6801D5186002E07106F0
:10453000FBD51880002316462361BAE70B681A1DC5
:104540000A601E6800213046626800F0C9FA08B1AE
:10455000801B606063682361002384F84330A8E710
:104560003246494640462369D0470130ABD02368E4
:104570009B0713D4E068039B9842B8BF1846A4E792
:104580000123324649464046D04701309BD0013591
:10459000E36803995B1AAB42F2DCEBE7002504F118
:1045A0001906F5E7D0530008E153000800000000A9
:1045B00010B50C46B1F90E1000F0A2FA0028ABBFFE
:1045C000636DA3891B1823F48053ACBF6365A3817B
:1045D00010BD00000000000000000000000000000E
:1045E0002DE9F0411F468B890546DB050C46164632
:1045F00005D502230022B1F90E1000F0F1F9A389CC
:10460000324623F48053A38128463B46B4F90E106A
:10461000BDE8F04100F07CB80000000000000000A0
:1046200010B50C46B1F90E1000F0DAF9431CA3895D
:1046300015BF606523F4805343F48053A38118BFF2
:10464000A38110BD00000000000000000000000079
:10465000B1F90E1000F0ECB80000000000000000FE
:10466000F8B50E461446054618B183690BB9FFF735
:104670006FFB214B9C422BD16C68A369A360A3897B
:104680001A072FD523696BB323692068F6B2C01AC5
:1046900063693746834204DC2146284600F060F90E
:1046A00030BBA3680130013BA36023685A1C226021
:1046B0001E706369834204D0A389DB0706D50A2EE6
:1046C00004D12146284600F04BF988B93846F8BD98
:1046D0000A4B9C4201D1AC68CFE7094B9C4208BF12
:1046E000EC68CAE72146284600F02AF80028CBD01B
:1046F0004FF0FF37EAE700BF7053000890530008FF
:1047000050530008000000000000000000000000FE
:1047100038B50446084611460022054D2A601A465F
:1047200000F0B6FA431C02D12B6803B1236038BDF8
:10473000B411002000000000000000000000000094
:10474000324B70B51D6806460C4625B1AB6913B9EE
:104750002846FFF7FDFA2E4B9C420FD16C68A389C7
:10476000B4F90C2019072CD4DD0611D409233360C9
:1047700042F040034FF0FF30A3813EE0254B9C42C6
:1047800001D1AC68EBE7244B9C4208BFEC68E6E73C
:10479000580712D5616B41B104F14403994202D02C
:1047A0003046FFF7BDFB00236363A38923F0240396
:1047B000A3810023636023692360A38943F0080376
:1047C000A38123694BB9A38903F42073B3F5007F58
:1047D00003D02146304600F043F9A089B4F90C20FB
:1047E00010F001030AD00023A36063695B42A36158
:1047F000236943B910F08000BAD170BD810758BF5A
:104800006369A360F4E70020F7E700BF0C0800200D
:104810007053000890530008505300080000000037
:10482000062008B500F0ACF9012000F039FA0000CC
:1048300038B50023054D044608462B6000F0F0F91A
:10484000431C02D12B6803B1236038BDB411002092
:104850008A892DE9F041054610070C4658D44B686B
:10486000002B05DC0B6C002B02DC0020BDE8F08186
:10487000E66A002EF9D0002312F480522F682B60D4
:1048800032D0606DA3895A0705D56368C01A636B7F
:104890000BB1236CC01A00230246E66A2846216A3F
:1048A000B047431CA38906D129681D292CD82A4A60
:1048B000CA40D60728D5002262602269D904226046
:1048C00004D5421C01D12B6803B96065616B2F6070
:1048D0000029CAD004F14403994202D02846FFF7C8
:1048E0001FFB00206063C1E7216A01232846B0470F
:1048F000411CC7D12B68002BC4D01D2B01D0162B17
:1049000001D12F60B1E7A38943F04003A381ADE754
:104910000F69002FA9D0930718BF00230E6808BFA6
:104920004B69A6EB07080F608B60B8F1000F9CDDA8
:1049300043463A462846216AA66AB047002806DC64
:10494000A3894FF0FF3043F04003A3818EE7074473
:10495000A8EB0008E9E700BF0100402000000000CC
:1049600038B50B6905460C4613B90025284638BDF5
:1049700018B183690BB9FFF7EBF9144B9C421BD1BB
:104980006C68B4F90C30002BEFD0626ED00704D401
:10499000990502D4A06DFFF79BFA28462146FFF740
:1049A00057FF636E0546DA07E0D4A3899B05DDD483
:1049B000A06DFFF795FAD9E7054B9C4201D1AC6891
:1049C000DFE7044B9C4208BFEC68DAE7705300084D
:1049D0009053000850530008000000000000000041
:1049E00038B50446084611460022054D2A601A468D
:1049F00000F03EF9431C02D12B6803B1236038BD9F
:104A0000B4110020000000000000000000000000C1
:104A100070B50E46B1F90E10144600291D4696B029
:104A200007DA00232B60B3891A0610D44FF4806391
:104A30000EE06A4600F0CCF80028F2DB019A02F49E
:104A40007042A2F500535A425A412A60EEE74023D1
:104A50000020236016B070BD0000000000000000C0
:104A60008B8973B59D0706460C4607D504F14703AD
:104A7000236023610123636102B070BD6A4601AB0C
:104A8000FFF7C6FF009905463046FFF709F848B919
:104A9000B4F90C309A05EFD423F0030343F002037A
:104AA000A381E3E70D4BB362A389206043F0800349
:104AB000A381009B20616361019B5BB13046B4F927
:104AC0000E1000F09DF828B1A38923F0030343F0F2
:104AD0000103A381A0890543A581CDE7D13C00084E
:104AE000034610B5C9B202449342184601D10020D2
:104AF00003E0047801338C42F6D110BD00000000C1
:104B000038B50446084611460022054D2A601A466B
:104B100000F0B6F8431C02D12B6803B1236038BD06
:104B2000B4110020000000000000000000000000A0
:104B30001F2938B504460D4604D9162303604FF0EB
:104B4000FF3038BD426C12B152F821304BB92046CB
:104B500000F036F82A4601462046BDE8384000F00D
:104B600017B8012B0AD0591C03D11623036001206A
:104B7000E7E70024284642F8254098470020E0E770
:104B8000024B01461868FFF7D3BF00BF0C08002096
:104B900038B50023064D0446084611462B6000F048
:104BA0005FF8431C02D12B6803B1236038BD00BFFE
:104BB000B411002000000000000000000000000010
:104BC00000F03EB8000000000000000000000000FF
:104BD00038B50023064D0446084611462B6000F008
:104BE00027F8431C02D12B6803B1236038BD00BFF6
:104BF000B4110020000000000000000000000000D0
:104C000038B50023054D044608462B6000F020F817
:104C1000431C02D12B6803B1236038BDB4110020BE
:104C20005822024B4FF0FF301A607047B411002039
:104C30005822024B4FF0FF301A607047B411002029
:104C40005822024B4FF0FF301A607047B411002019
:104C50005822024B00201A60704700BFB411002098
:104C60005822024B4FF0FF301A607047B4110020F9
:104C70005822024B4FF0FF301A607047B4110020E9
:104C80005822024B4FF0FF301A607047B4110020D9
:104C90005822024B4FF0FF301A607047B4110020C9
:104CA000FEE700000000000000000000000000001F
:104CB00000000000000000000102030406070809CC
:104CC00000000000010203040000000000000000DA
:104CD000434320527374204661696C0D00434320A6
:104CE00057204661696C0D00434320522F572046E0
:104CF00061696C3B2072706C3D25750D004343204B
:104D000052204661696C0D00434320696E6974202E
:104D10006F6B0D00000000000000000000000000AC
:104D20000000000000000000E10500080000000095
:104D300025752025752025753B2025640D00000074
:104D40000B0C0C00102D112F1213156221B622101E
:104D5000191D1A1C1BC71C001DB023EA242A25009C
:104D6000261F2C882D312E090000000000000000B5
:104D70000D486172644661756C740D00000000009E
:104D8000566563746F72353800556E68616E646C79
:104D900065642025530D00000000000000000000A5
:104DA000566563746F723543000000000000000018
:104DB000566563746F72363000000000000000001A
:104DC000566563746F723634000000000000000006
:104DD000566563746F7236380000000000000000F2
:104DE000566563746F7239430000000000000000D4
:104DF000566563746F7245300000000000000000CB
:104E0000030406080C101820300000000000000009
:104E1000414842467265713D25754D487A3B2041B7
:104E2000504231467265713D25754D487A3B2041AF
:104E3000504232467265713D25754D487A0D00002D
:104E40000000000000000000910F000800000000BA
:104E5000202C000000000000000000000000000006
:104E60000000000000000000011B0008911D000868
:104E7000211D0008411D0008311B000811200008F9
:104E800070FEFFFF00000000251D0008451D000802
:104E90006CFEFFFF00000000152000084F1B0008FB
:104EA00041636B2025640D0A000000000000000033
:104EB00032303231303831305F3031303800446197
:104EC0006C616E000D25532025530D0050696E67EF
:104ED0000056657273696F6E00556E68616E646C22
:104EE0006564204D73672025750D000000000000EB
:104EF00000000000000000007127000821200008C9
:104F000031220008A120000800000000000000007D
:104F1000000000000000000021240008912000088B
:104F200071200008000000000000000000000000E8
:104F300000000000640000000100000063000000A9
:104F4000000000000000000001000000F00300006D
:104F5000020000000000000000000000000000004F
:104F60000000000064000000010000006300000079
:104F700000000000000000000100000063000000CD
:104F80000000000064000000010000006300000059
:104F9000000000000000000001000000F00300001D
:104FA00003000000000000000000000000000000FE
:104FB00053562333000000000000000000000000F2
:104FC00053562334000000000000000000000000E1
:104FD00053562335000000000000000000000000D0
:104FE00053562336000000000000000000000000BF
:104FF00053562337000000000000000000000000AE
:10500000535623380000000000000000000000009C
:10501000535623390000000000000000000000008B
:105020005356233130000000000000000000000053
:105030005356233131000000000000000000000042
:10504000737461636B206F766572666C6F770000B6
:105050006368536368526561647949000000000029
:105060006368536368526561647941686561644946
:105070000000000000000000000000000000000030
:10508000636853656D4F626A656374496E69740045
:10509000636853656D5761697454696D656F7574A4
:1050A00053000000000000000000000000000000AD
:1050B000636853656D5369676E616C490000000059
:1050C0006D61696E0000000000000000000000003B
:1050D00069646C6500000000000000000000000032
:1050E000D0500008F8100020A81100200100000096
:1050F000D1310008000000000000000000000000A6
:105100006368546864536C65657053000000000068
:105110006368546864437265617465537573706540
:105120006E6465644900000000000000000000009B
:10513000636854686443726561746553746174692B
:1051400063000000000000000000000000000000FC
:10515000636854696D654164645800000000000094
:1051600063685654446F53657449000000000000A2
:1051700063685654446F52657365744900000000BB
:1051800078540008B8110020B8110020B811002090
:10519000785400080000000000000000000000003B
:1051A000785400080000000000000000000000002B
:1051B000785400080000000000000000000000001B
:1051C000785400080000000000000000000000000B
:1051D00078540008000000000000000000000000FB
:1051E00078540008000000000000000000000000EB
:1051F00078540008000000000000000000000000DB
:10520000646D6153747265616D416C6C6F634900CC
:105210000060024008600240010000000000000B36
:10522000006002401C600240020000000004010C0B
:105230000060024030600240040000000008020DDF
:10524000006002404460024008000000000C030EB1
:105250000060024058600240100000000010040F7F
:10526000006002406C600240200000000014051045
:1052700000600240806002404000000000180611FB
:1052800010080020000000000000000000000000E6
:105290005245454E54206D616C6C6F63207375638D
:1052A000636565646564002F6275696C642F676E61
:1052B000752D746F6F6C732D666F722D73746D33F3
:1052C000325F392D323032302D71322D757064617C
:1052D00074652E32303230313030312D313632314A
:1052E0002F7372632F6E65776C69622F6E65776CB2
:1052F00069622F6C6962632F737472696E672F73B2
:105300007472746F6B2E63000000000000000000D8
:105310002C2066756E6374696F6E3A20006173733A
:10532000657274696F6E2022257322206661696C34
:1053300065643A2066696C6520222573222C206CF6
:10534000696E65202564257325730A00000000003E
:10535000000000000000000000000000000000004D
:10536000000000000000000000000000000000003D
:10537000000000000000000000000000000000002D
:10538000000000000000000000000000000000001D
:10539000000000000000000000000000000000000D
:1053A00000000000000000000000000000000000FD
:1053B000232D302B2000686C4C00656667454647FE
:1053C00000000000000000000000000000000000DD
:1053D000303132333435363738394142434445462B
:1053E00000303132333435363738396162636465C1
:0253F000660055
:0453F400F8B500BF49
:0453F800F8B500BF45
:0853FC00F4AEFF7F0100000088
:10540800C2010000B8110020FF00000010080020B1
:105418000000000070530008905300085053000823
:105428000000000000000000000000000000000074
:105438000000000000000000000000000000000064
:105448000000000000000000000000000000000054
:105458000000000000000000000000000000000044
:105468000000000000000000000000000000000034
:04000005080001915D
:00000001FF
