:020000040800F2
:1000000000040020A1010008A30100082119000834
:10001000A3010008A3010008A3010008A301000830
:10002000A3010008A3010008A3010008014500087E
:10003000A3010008A3010008A3010008A301000810
:10004000A3010008A3010008A3010008A301000800
:10005000A3010008A3010008D1190008211A000813
:10006000711A0008C11A0008111B0008E1470008B6
:10007000014800082148000841480008614800087C
:1000800081480008A1480008A3010008A301000856
:10009000A3010008A3010008A3010008611B0008D8
:1000A000A3010008210F0008A3010008A301000814
:1000B000C13A0008A3010008A3010008A301000839
:1000C000A3010008A3010008A3010008D11E000835
:1000D000111F0008A3010008A3010008A3010008E4
:1000E000B11B0008A3010008A3010008A301000838
:1000F000A3010008A3010008A3010008A301000850
:10010000A3010008A3010008A3010008A30100083F
:10011000A3010008A3010008A3010008A30100082F
:10012000A3010008A3010008A3010008A30100081F
:10013000A3010008A3010008A3010008A30100080F
:1001400085010008D1120008C114000861350008BB
:040150006101000841
:1001600010B5054C237833B9044B13B10448AFF3F1
:1001700000800123237010BD6808002000000000EB
:10018000B052000808B5034B1BB103490348AFF355
:10019000008008BD000000006C080020B05200087C
:1001A00026E000F000F8FEE700000000000000007C
:1001B0002DE9F04FC1F80CD0C3689D46BDE8F08F23
:1001C00003F006FD002383F311882846A047002092
:1001D00004F0AEF803F0ECFC03F0D2FE03F0F8FC00
:1001E00000DFFEE70000000000000000000000004B
:1001F00072B6274880F30888264880F30988264885
:100200004EF60851CEF200010860022080F31488F7
:10021000BFF36F8F04F0ACF904F0B2F94FF0553032
:100220001E491B4A91423CBF41F8040BFAE71C49A6
:10023000184A91423CBF41F8040BFAE719491A4A9F
:100240001A4B9A423EBF51F8040B42F8040BF8E7F0
:1002500000201749174A91423CBF41F8040BFAE7C6
:1002600004F0A6F904F094F9134C144DAC4203DAEF
:1002700054F8041B8847F9E702F052FF104C114D67
:10028000AC4203DA54F8041B8847F9E704F088B954
:1002900000040020000800200000000800000020EA
:1002A00000040020B0520008000800206808002068
:1002B00068080020A0130020400100085001000839
:1002C0005001000854010008000000000000000078
:1002D00053B94AB9002908BF00281CBF4FF0FF31AD
:1002E0004FF0FF3000F07CB9ADF1080C6DE904CEA1
:1002F00000F006F8DDF804E0DDE9022304B0704701
:100300002DE9F047089E0D4604468846002B4DD146
:100310008A42944668D9B2FA82F252B101FA02F3E3
:10032000C2F1200120FA01F10CFA02FC41EA0308B3
:1003300094404FEA1C41B8FBF1F71FFA8CFE01FB19
:10034000178807FB0EF0230C43EA084398420AD9AA
:100350001CEB030307F1FF3580F01E81984240F249
:100360001B81023F63441B1AB3FBF1F001FB103306
:1003700000FB0EFEA4B244EA0344A6450AD91CEBD6
:10038000040400F1FF3380F00981A64540F20681A4
:10039000644402380021A4EB0E0440EA07401EB179
:1003A0000023D440C6E90043BDE8F0878B4208D95A
:1003B000002E00F0EE800021C6E900050846BDE8E9
:1003C000F087B3FA83F100294AD1AB4202D38242CB
:1003D00000F2FC80841A65EB030301209846002E8E
:1003E000E2D0C6E90048DFE702B9FFDEB2FA82F2E6
:1003F000002A40F09180A1EB0C0001214FEA1C473C
:100400001FFA8CFEB0FBF7F307FB1300250C45EA3F
:1004100000450EFB03F0A84208D91CEB050503F1CB
:10042000FF3802D2A84200F2CE8043462D1AB5FB17
:10043000F7F007FB10550EFB00FEA4B244EA05449A
:10044000A64508D91CEB040400F1FF3502D2A645ED
:1004500000F2B6802846A4EB0E0440EA03409EE773
:10046000C1F120078B4022FA07FC4CEA030C25FA65
:1004700007FA4FEA1C49BAFBF9F820FA07F309FB1F
:1004800018AA8D401FFA8CFE1D4300FA01F308FBE9
:100490000EF02C0C44EA0A44A04202FA01F20BD9F5
:1004A0001CEB040408F1FF3A80F08880A04240F27F
:1004B0008580A8F102086444241AB4FBF9F009FB12
:1004C000104400FB0EFEADB245EA0444A64508D92F
:1004D0001CEB040400F1FF356CD2A6456AD9023842
:1004E000644440EA0840A0FB0295A4EB0E04AC4231
:1004F000C846AE4656D353D0002E69D0B3EB08029F
:1005000064EB0E0422FA01F304FA07F71F43CC4010
:10051000C6E90074002147E70CFA02FCC2F1200191
:1005200025FA01F34FEA1C4720FA01F195400D43EB
:10053000B3FBF7F107FB11331FFA8CFE280C40EADE
:10054000034001FB0EF3834204FA02F408D91CEBCA
:10055000000001F1FF382FD283422DD902396044C7
:10056000C01AB0FBF7F307FB1300ADB245EA004534
:1005700003FB0EF0A84208D91CEB050503F1FF3878
:1005800016D2A84214D9023B6544281A43EA014115
:1005900038E73146304607E72F46E4E61846F9E6E5
:1005A0004B45A9D2B9EB020865EB0C0E0138A3E765
:1005B0004346EAE7284694E74146D1E7D0467BE741
:1005C0006444023847E7023B65442FE7084606E7E4
:1005D0003146E9E6000000000000000000000000D5
:1005E000704700BF00000000000000000000000095
:1005F000816A09B1836A1847243003F0B9BE00004C
:10060000104B984205D1104AD36943F00103D361DE
:1006100070470E4B984204D10B4AD36943F0020352
:10062000F5E70B4B984204D1074AD36943F0040322
:10063000EDE7084B9842EBD1034AD36943F0080336
:10064000E5E700BF0000024000380240000402401D
:1006500000080240000C0240000000000000000002
:1006600070B515460226FFF7CBFF032204464B0068
:100670009A4006FA03F3012600688E4020EA020041
:1006800020602068072940EA03002060606820EAB3
:1006900006006060E06820EA0200E060E068E06078
:1006A000A06820EA0202A260A26843EA02038ABFAD
:1006B000A1F108028A00920007298CBF04200020C3
:1006C0000F21A3600444236A914023EA01032362BB
:1006D000236A95401D43256270BD000000000000A4
:1006E0000368197303689A68D207FCD5187B7047B2
:1006F0000123428A81689340034A0869184002D066
:10070000013AFAD101207047B882010000000000D0
:100710000123C18AC2688B409361704700000000CA
:10072000C38AC16803F11002012393408B617047B3
:100730000148FFF75DBF00BF8408002000000000F3
:100740007F2908B2C4BFA1F5807108B200EBD07058
:1007500040104A3840B2704700000000000000001E
:100760002DE9F04104460F461646FFF7D9FF204613
:10077000FFF7BEFF054630B12046FFF7C9FF012550
:100780002846BDE8F08104F1040847F080014046A6
:10079000FFF7A6FF00F0700084F8200029464046CD
:1007A000FFF79EFF30702046FFF7B2FFE8E700003A
:1007B0002DE9F04104460F461646FFF7B1FF2046EB
:1007C000FFF796FF054630B12046FFF7A1FF012550
:1007D0002846BDE8F08104F1040839464046FFF799
:1007E0007FFF31464046FFF77BFF2046FFF790FF33
:1007F000EEE7000000000000000000000000000024
:1008000070B504460E46FFF78BFF2046FFF770FFDA
:10081000054628B12046FFF77BFF0125284670BD1D
:100820003146201DFFF75CFF84F820002046FFF7CB
:100830006FFF94F8203003F0700384F82030EDE768
:100840003621FFF7DDBF00000000000000000000BF
:10085000F8B505460E4695F820401CB12846FFF72E
:10086000EFFFF8E7771C17F8142016F81410284645
:100870000134FFF79DFF142CF5D1F8BD00000000F6
:1008800038B504460D4694F820301BB12046FFF7DA
:10089000D7FFF8E72A462046BDE838400A21FFF78F
:1008A00087BF000000000000000000000000000002
:1008B0003D21FFF7A5BF0000000000000000000080
:1008C0003521FFF79DBF0000000000000000000080
:1008D0002DE9FF414268AB4B04469A4200F0838009
:1008E000A3F578439A420CBF4FF005084FF0060875
:1008F00003250126E18AE068FFF782FE4B000268CB
:10090000DBB205FA03F722EA07020260D0F800C062
:1009100006FA03F242EA0C020260D0F804C006FABA
:1009200001F22CEA020242604268218A4260C268F7
:1009300022EA0702C260C268C260826822EA070235
:1009400002278260826807FA03F3134383604246FA
:10095000A068FFF785FE4246618AA068FFF780FE27
:100960004246A18AA068FFF77BFEA18BA06901FA2D
:1009700006F3D9B294F81E80FFF742FE026805FA2A
:1009800001FC22EA0C020260C36808FA01F123EAC2
:100990000C034FF00F0CC360C36819437A4BC1605E
:1009A0001A6A32431A62DA6A22F00102DA62A28B10
:1009B000DB6A02F47F7303F1804303F5803302EABC
:1009C00005019868B9400CFA01FC20EA0C00986017
:1009D000DFF8B8C1A069604508D1986806FA01F14E
:1009E0000143996009E04FF0050881E7684EB04285
:1009F00039D198688F4007439F600127654B07FAFC
:100A000002F21968204611431960596821EA02016F
:100A10005960996821EA02019960D9681143D96047
:100A20005A61FFF775FE00235B4A1946CDE90023A2
:100A3000201D1A4601F0DCF9626830211368204657
:100A400043F040031360FFF7DBFE10B362685348C6
:100A5000136823F04003136001F01AFC3D4628465A
:100A600004B0BDE8F0814E4EB04203D1986805FA5B
:100A700001F1B5E74B4DA84205D104209D6800FA6D
:100A800001F12943ADE7484DA842B6D107209D6842
:100A9000F5E7072206212046FFF78AFE08B1434802
:100AA000DAE78DF80F00062120460DF10F02FFF75F
:100AB00057FE054640B99DF80F60072E06D0314617
:100AC0003B4801F0E5FBC9E73A48C5E73A21204633
:100AD000FFF796FE20220D212046FFF769FE252212
:100AE0000E212046FFF764FEED220F212046FFF77E
:100AF0005FFEA32213212046FFF75AFEFF22142196
:100B00002046FFF755FE082218212046FFF750FE29
:100B1000324603212046FFF74BFE3F22294620465E
:100B2000FFF746FE062202212046FFF741FE0C2277
:100B300031462046FFF73CFE442208212046FFF7BD
:100B400037FE50223E212046FFF732FE3246162164
:100B50002046FFF72DFE2A4617212046FFF728FEE4
:100B6000A08B09280AD804280AD8063080B20721A9
:100B700002F0F6FF104801F08BFB70E72820F6E743
:100B80001720F4E700300140003802400004024022
:100B90000008024000040140A02E6300504A0008F3
:100BA000000C024000100240001402405D4A0008A0
:100BB000684A00087D4A0008884A000800000000D2
:100BC00038B504460D46FFF773FE94F82030102B1D
:100BD0000AD02046FFF734FE3A212046FFF710FEE8
:100BE00034212046FFF70CFEA56238BD000000004E
:100BF0002DE9F04104460D461746FFF791FD2046CA
:100C0000FFF776FD064630B12046FFF781FD01264D
:100C10003046BDE8F08104F104087F214046FFF72B
:100C20005FFD2F44AF4205D0404615F8011BFFF78A
:100C300057FDF7E72046FFF76BFDE9E700000000EE
:100C4000F8B504460D4616461F46FFF739FE3246F4
:100C500029462046A762BDE8F840FFF7C9BF00005B
:100C60002DE9F7430E46904678210DF10702044620
:100C70001F46FFF775FD70B99DF90730002B0ADAA2
:100C80002046FFF74DFD2046FFF732FD054620B117
:100C90002046FFF73DFD012527E004F10409FF216F
:100CA0004846FFF71DFD3744BE424FF0000148465D
:100CB00006D0FFF715FD8DF8070006F8010BF3E7E6
:100CC000FFF70EFD00218DF807004846FFF708FDED
:100CD0002046FFF71DFDB8F1000F06D020469DF815
:100CE0000710FFF72DFD88F80000284603B0BDE887
:100CF000F083000000000000000000000000000081
:100D000010B51149114B08791A680128D36816D912
:100D100043F00203D36048230968546A4B43D83335
:100D20009C4202D303F57363FAE745F61F34A342EE
:100D300098BF5363064BC9B21970587110BD23F0A8
:100D40000203D360FAE700BF600C0020B009002066
:100D5000A4090020000000000000000000000000C6
:100D60003621FFF74DBD000000000000000000002C
:100D700038B52E4C082321462D48A21DFFF770FFE1
:100D80002C4D00283AD1E379CA2B37D12A4B62780F
:100D90001B689A4224DAA378032B21D8274B617869
:100DA0001A78914208D361781A78914218D1244A6E
:100DB000A1781278914213D26278D2B21A70A378D5
:100DC0001F4A0133DBB2137000231E4A13601E4A10
:100DD0001361B4F803302A683C335362FFF790FF85
:100DE0002378352BDAB209D8184B6079D3F8D8308C
:100DF00003EB42014870012103F812102B685A6A74
:100E0000B2F5736F04D35A6A44F6EF339A4208D9A5
:100E10000F490748FFF7D4FE4FF080620D4B9A61EF
:100E200038BD0348FFF79CFFF6E700BF9C09002090
:100E300084080020B0090020600C0020B5090020C3
:100E4000AC0900209809002000080140B0080020EB
:100E5000710D0008000402400000000000000000C6
:100E600010B504462046FFF77BFF80B994F8203088
:100E7000002BF7D133212046FFF7C2FC38B93D21C2
:100E80002046FFF7BDFC94F82030002BF7D110BDB1
:100E900038B54FF080631A4DAB611A4B1978A9B180
:100EA000194CD4F8DC30002B0FDD013B1748C4F897
:100EB000DC30FFF7D5FF164B0822144804F1E0019F
:100EC000FFF7BEFE4FF48063AB6138BD44F6EF32EE
:100ED000104B1B68586A90420CD90C48FFF7D0FCA5
:100EE0000D490A48FFF7B4FCBDE838400B490748F4
:100EF000FFF766BE5B6AB3F5736FE6D2F4E700BF37
:100F000000040240B4090020B0080020840800203A
:100F1000910E0008B0090020B04A0008710D0008C9
:100F2000F7B502F09DFE202383F3118802F068FEDE
:100F30006B4B1C69DA6814400022A0071A613ED589
:100F4000684B1B78002B3AD14FF48062664D03F159
:100F5000804303F501339A612B685A6A44F6EF33F4
:100F60009A4217D9782161480DF10702FFF7F8FB83
:100F70009DF80730590622D402215C48FFF780FC17
:100F80005B4B3E215A795948FFF712FC59495748A3
:100F9000FFF75EFC584B59491B780822DBB24B70B7
:100FA000574B52481B78DBB28B702B685B6A9BB245
:100FB000A1F80330534BFFF743FEFFF7A1FE620792
:100FC0000ED5484B1D785DB94848FFF7C9FE464B22
:100FD00044F6F0321B68996BB1F5736F46D19A6392
:100FE000E30737D54FF40063474D484CAB613F48AA
:100FF000FFF7B6FED4F8DC303A4F002B3C4E4ADD0A
:10100000013B0122C4F8DC304FF480633A700021C8
:10101000AB613648FFF734FCC5223E213348FFF769
:10102000C7FB3B493148FFF713FC33682F4884F86E
:10103000E0302D4B1B685B6AA4F8E330FFF710FF2C
:101040000822304B294804F1E001FFF7F9FD4FF089
:101050000063AB6102F0ECFD002383F3118802F022
:1010600017FE03B0BDE8F04003F05ABA9142B7D181
:101070004FF4736229469A631C48FFF701FC244928
:101080001A48FFF7E5FB1948FFF7EAFE2149174820
:10109000FFF796FDA4E702211448FFF7F1FB7279F0
:1010A0003E211248FFF784FB12491048FFF7D0FB9E
:1010B000002219493A700B680133052B0B6004D9E3
:1010C0000D4B317819700E4B1A700848FFF7C8FEA7
:1010D00010490648FFF774FDFFF712FEB7E700BF9F
:1010E00000080140B4090020B00900208408002055
:1010F000600C0020E04A0008B5090020A409002087
:10110000AC090020910E000800040240B008002045
:10111000B04A0008710D0008980900200000000086
:1011200070B55E4D5E48EB6943F00203EB615D4BC9
:101130001A6822F440121A601A6842F480121A6087
:101140005A6822F480625A605A685A60DA6822F457
:101150004012DA60DA68DA609A6822F440129A6023
:101160009A6842F400129A60EA6942F00202EA6167
:101170001A6822F440021A601A6842F480021A6067
:101180005A6822F400625A605A685A60DA6822F497
:101190004002DA60DA68DA609A6822F440029A6003
:1011A0009A6842F400029A60FFF792FB0446002816
:1011B00072D108223C4E06213948FFF7F9FA022184
:1011C0003748FFF75DFB72793E213548FFF7F0FAAB
:1011D00036493348FFF73CFBCA23354AD371354AB9
:1011E00082F8E7303278344B344E1A70344B304644
:1011F0001C7000F03DFAEB69192043F00103EB612C
:10120000304B1A6822F030021A601A6842F020024D
:101210001A605A6822F004025A60DA6822F030023A
:10122000DA60DA68DA609A6822F030029A609A68C6
:1012300042F020029A601A6A22F470621A621A6AF4
:1012400042F440721A624FF6F872336899680A40A5
:1012500042F007029A604FF68F7299680A4042F096
:1012600050029A6001229A6245F62032DA624FF407
:1012700073629A63DA68042142F00102DA60DA6884
:1012800042F00402DA6002F06BFC3268136843F04B
:1012900001031360204670BD0124FBE700380240C3
:1012A0008408002000040240600C0020E04A00088E
:1012B000A4090020B0080020B5090020B0090020D2
:1012C000AC09002000000240000000000000000007
:1012D000164A174B17481360174B1849536003F50C
:1012E0005043C2E902339361032393830023C2E98D
:1012F0000401134913489377C860194682F82030D7
:1013000053629362104A02F813100133362BFAD15C
:1013100000200D49013B81F86C0001F10201F9D177
:10132000C2E93623094B0A4A1A6070478408002034
:10133000A84A00080500060000300140070004002C
:10134000100B002031070008B0080020B009002071
:101350000008014000000000000000000000000044
:101360004FF004082DE988481F4F204C00212046EB
:1013700001264FF0030ABB681B4D04F103092A68DC
:10138000B5F804C0D2F810E006FA0CFC1CEA0E0F07
:10139000A34614F8012B1CD0012A01D0042A14D131
:1013A00004F801ACAA689A421BD003B1984758468A
:1013B0000021AB684C4505F10C05E0D103B198471D
:1013C0004FF4347002F0C4FFCFE7022204F8012C7E
:1013D000E8E7023A012A94BF04F8018C04F8016C92
:1013E000E0E70131E6E700BFD80A0020FC0A002050
:1013F000104B984205D1104AD36943F00103D361E1
:1014000070470E4B984204D10B4AD36943F0020354
:10141000F5E70B4B984204D1074AD36943F0040324
:10142000EDE7084B9842EBD1034AD36943F0080338
:10143000E5E700BF0000024000380240000402401F
:1014400000080240000C0240000000000000000004
:101450002DE9F74300264FF003093746144CDFF817
:101460005480A18820684900A579C9B2FFF7C0FF60
:10147000026809FA01FC22EA0C020260C3688D408E
:1014800023EA0C03C360C36801361D43032EC56005
:1014900004F10C0408F8017BE3D180224FF4907131
:1014A000054B0097054802F0FBFE03B0BDE8F08352
:1014B000D80A0020FC0A002061130008B8090020A7
:1014C0004FF40032094B0A49C3E90012094AC3E943
:1014D00002210949C3E9041201F1804101F2FF31FF
:1014E00099610649C3E90712704700BFD80A002076
:1014F00000000240811500080100020008000200FF
:10150000002313B5009306238DF800008DF80530F5
:101510008DF80110202383F31188164C02F048FB4C
:1015200002F0CEFBD4F8AC30002B19DD02F0C8FB82
:10153000D4F8AC300099013BC4F8AC30D4F8943006
:101540000D4803F10802C4F894201960019959600C
:1015500004F190039A4228BFC4F8944002F050FD71
:1015600002F0F6FC02F034FB002383F3118802B092
:1015700010BD00BF680C0020000D0020000000001E
:101580002DE9F84304460D464FF000094FF0804620
:10159000DFF85C80174F5FFA89F18D4225D9635CD3
:1015A000032B07D1002308F80130736A3B8009F14F
:1015B0000109F0E7042B06D118F801000028F6D144
:1015C000FFF79EFFF3E7022BF1D118F80130002B53
:1015D000EDD13A88736A9B1A44F2CB229BB29342B4
:1015E000E5D9012008F80100EAE7BDE8F88300BF6B
:1015F000FF0A0020020B0020000000000000000095
:10160000202383F3118802F0FBBA000000000000E1
:1016100008B502F00DFB002383F3118808BD00001C
:1016200010B50446FFF7ECFF236820461B68984777
:10163000BDE81040FFF7ECBF000000000000000014
:10164000074B5A68D2070AD5064ADA60064ADA60BA
:101650004FF480729A615A6822F480725A6070471F
:10166000003C0240EFCDAB890504030200000000FE
:101670000368B3F1804F0BD103F50E335A6A42F081
:1016800001025A621A6B22F001021A631B6B704747
:101690002A4A934208D12A4B5A6A42F002025A62FD
:1016A0001A6B22F00202F0E7264A934208D1244B3B
:1016B0005A6A42F004025A621A6B22F00402E4E70A
:1016C000214A934208D11E4B5A6A42F010025A62D4
:1016D0001A6B22F01002D8E71C4A934208D1184B2B
:1016E0005A6A42F020025A621A6B22F02002CCE7BA
:1016F000174A93420AD1124B1A6A42F004021A6244
:10170000DA6A22F00402DA62DB6A7047114A934215
:1017100008D10B4B1A6A42F008021A62DA6A22F008
:101720000802F0E70C4A9342EFD1054B1A6A42F0E7
:1017300010021A62DA6A22F01002E4E700040040A4
:101740000038024000080040001000400014004033
:1017500000080140000C01400010014000000000A2
:10176000F8B5FFF785FF036801461A6842F080026A
:101770001A608269DA62027D0069012A00F1FF3095
:101780000CBF0722062203280BD8DFE800F0026B0B
:10179000737B986940EA02129A611A6A42F0010268
:1017A0001A621A6842F001021A60494A934271D0E3
:1017B00002F5806293426DD002F5803293426BD085
:1017C00002F58062934267D002F58062934214BFB3
:1017D000012203224B6808894F7D3E498B425DD12F
:1017E0003D4CE16941F00101E161032419684600C3
:1017F000B440E54321EA04041C6002241968B440A3
:101800000C4301211C605C688140002F5ED124EAFA
:1018100001015960D968072801EA0501D960D96832
:10182000D960996805EA01054FF002019D609C6846
:1018300001FA06F141EA040199608ABFA0F10801AA
:101840008100890007288CBF042000200F24034456
:10185000186A8C4020EA04001862186A8A40024321
:101860001A62F8BD986940EA02329A611A6A42F037
:10187000100295E7D86940EA0212DA611A6A42F466
:1018800080728DE7D86940EA0232DA611A6A42F45E
:10189000805285E702229DE703229BE70F498B4296
:1018A00004D10D4CE16941F002019DE70C498B42E6
:1018B00004D1094CE16941F0040195E709498B42E3
:1018C00093D1054CE16941F008018DE72143A0E780
:1018D00000040040000002400038024000040240C2
:1018E00000080240000C0240000000000000000060
:1018F000074B01385A6922F080025A6110F8012F13
:1019000022B119680906FCD55A60F7E7704700BF95
:10191000003801400000000000000000000000004E
:1019200008B50248FFF7E4FF01BEFEE7104B0008D0
:1019300030B54FF0804501466A6A0E4C92B2A369F9
:10194000DB0710D4A369DB050FD4A36913F4F05FA0
:1019500014BF012000206B6A9B1A9BB2994206D9E2
:101960000328ECD030BD0320F5E70E20F3E702207A
:10197000F8E700BF003C024000000000000000004B
:1019800000F1006000F500200068704700000000D2
:1019900038B504464FF4E1700D46FFF751FEFFF7EE
:1019A000C7FF40B904F1006000F5002005604FF466
:1019B000E170FFF7BDFF034A536843F00103536032
:1019C00038BD00BF003C02400000000000000000E5
:1019D00008B502F045F9FFF713FE0A4B1B685BB12F
:1019E00098470122084B5A61FFF712FE02F050F9A6
:1019F000BDE8084002F094BD0449054800F068FCC9
:101A0000EFE700BF100B002000040140204B00084E
:101A1000294B00080000000000000000000000004A
:101A200008B502F01DF9FFF7EBFD0A4B5B685BB1EF
:101A300098470222084B5A61FFF7EAFD02F028F9A5
:101A4000BDE8084002F06CBD0449054800F040FCC8
:101A5000EFE700BF100B002000040140404B0008DE
:101A6000294B0008000000000000000000000000FA
:101A700008B502F0F5F8FFF7C3FD0A4B9B685BB1B0
:101A800098470422084B5A61FFF7C2FD02F000F9A3
:101A9000BDE8084002F044BD0449054800F018FCC8
:101AA000EFE700BF100B002000040140504B00087E
:101AB000294B0008000000000000000000000000AA
:101AC00008B502F0CDF8FFF79BFD0A4BDB685BB170
:101AD00098470822084B5A61FFF79AFD02F0D8F8A0
:101AE000BDE8084002F01CBD0449054800F0F0FBC9
:101AF000EFE700BF100B002000040140604B00081E
:101B0000294B000800000000000000000000000059
:101B100008B502F0A5F8FFF773FD0A4B1B695BB12E
:101B200098471022084B5A61FFF772FD02F0B0F897
:101B3000BDE8084002F0F4BC0449054800F0C8FBC9
:101B4000EFE700BF100B002000040140704B0008BD
:101B5000294B000800000000000000000000000009
:101B600008B502F07DF8FFF74BFD0A4B1B6863B127
:101B700098474FF47872084B5A61FFF749FD02F01D
:101B800087F8BDE8084002F0CBBC0449044800F0E7
:101B90009FFBEEE7280B002000040140804B00086B
:101BA000294B0008000000000000000000000000B9
:101BB00008B502F055F8FFF723FD0A4B1B6863B127
:101BC00098474FF47C42084B5A61FFF721FD02F021
:101BD0005FF8BDE8084002F0A3BC0449044800F0E7
:101BE00077FBEEE7240B002000040140904B000837
:101BF000294B000800000000000000000000000069
:101C00000023F0B593B0024611934FF480304FF4A7
:101C100000334FF48024CDE90A03364B364DCDE92D
:101C20000C43364B364CCDE90E53364B6168206879
:101C3000109303AB03C3217A06AD1970324B1F46D4
:101C400003F110062C4618685968083303C4B342E0
:101C50002546F7D13869716801AB03C32B48836807
:101C6000C3F38103022B40D0032B28D0012B3ED09D
:101C7000436812A9C3F3423301EB830353F8203CBA
:101C8000224CA168C1F303114831694411F8301C9A
:101C9000CB401360A068A168C0F30220C1F3C22149
:101CA000483048316844694410F8440C11F8441C29
:101CB00023FA00F0CB405060936013B0F0BD83680E
:101CC0008168C3F3834348336B4413F83C4C836807
:101CD0000F4813F4803F0F4B18BF03466343C1F313
:101CE00081510131B3FBF1F3CAE7094BC8E7094B56
:101CF000C6E700BF9CFF0700C0FD0F0068FF1F0084
:101D0000A04B0008D0FE3F00104A000800380240F7
:101D1000001BB7000024F4000000000000000000D9
:101D20000B4B0C4A99420C4B06D00C48814203D015
:101D300000F58060814206D19268986812F4005FD5
:101D400018BF400070479268586812F4806FF7E738
:101D50000008014000380240040B0020000C014044
:101D600038B505460C4601680848FFF7D9FF2B68CF
:101D7000DA6A0132B0FBF2F0B0FBF4F2A04228BF05
:101D800002F1FF329A6200225A6238BD040B002031
:101D900006480749836805C8B3FBF1F3B2FBF1F2CB
:101DA000B0FBF1F1034800F073BA00BF040B002050
:101DB00040420F00B04B000800000000000000008F
:101DC0004FF08052074B5A62074A5368D906FCD439
:101DD000136823F4C05343EAC02010605368DB0645
:101DE000FCD4704700380240007000400000000042
:101DF00070B50068324D049CA84246D105F5843583
:101E00002E6A46F480562E62EE6A26F48056EE6202
:101E1000ED6A4FF441750129056002BF016841F088
:101E200080010160012A02BF026842F002020260E2
:101E3000012B02BF036843F001030360204B98426B
:101E4000204B0CBF9B685B68B3FBF4F3802B2BDC4F
:101E5000402B2BDC202B2BDC102B2BDC082B2BDC42
:101E6000042B2BDC022BD4BF00230123026842EA9F
:101E7000C30303609DF81430012B02BF036843F4D1
:101E8000006303600023436070BD0F4DA842C0D1C2
:101E900005F500356E6A46F480466E622E6B26F4B8
:101EA00080462E632D6BB4E70723DFE70623DDE7CB
:101EB0000523DBE70423D9E70323D7E70223D5E78C
:101EC00000300140040B00200038004000000000FA
:101ED00008B501F0C5FEFFF793FB084B9B68DB07D5
:101EE00003D5074B1B6803B19847FFF791FB01F03F
:101EF000CFFEBDE8084002F013BB00BF0030014038
:101F00002C0B00200000000000000000000000007A
:101F100008B501F0A5FEFFF773FB084B9B68DB07D4
:101F200003D5074B1B6803B19847FFF771FB01F01E
:101F3000AFFEBDE8084002F0F3BA00BF0038004031
:101F4000300B002000000000000000000000000036
:101F500038B504460D4601F0B3FED4F8AC30002B82
:101F60001CDD01F0ADFED4F8AC302968013BC4F8AB
:101F7000AC30D4F8943004F1980003F10802C4F8AE
:101F8000942019606968596004F190039A4228BF4F
:101F9000C4F8944002F034F8002038BD0220FCE779
:101FA00073B5856904464DB9037F69460C480095B1
:101FB0008DF80530FFF7CCFF02B070BD061D01F0B3
:101FC0007FFE236913B1304602F04AFA23462946C0
:101FD0003046044A02B0BDE8704002F0E9B900BFE3
:101FE000680C00202116000800000000000000001E
:101FF00013B500220446037F694608488DF8053072
:102000000092FFF7A5FF637F012B05D1204602B0A8
:10201000BDE81040FFF7C4BF02B010BD680C00203F
:10202000884230B518D0421E12F8014F11F8010B4A
:10203000A4F14103192B88BF2346A0F141059CBFA1
:1020400004F12003DBB2192D9CBF2030C0B2181A56
:1020500001D1002CE8D130BD0020FCE700000000D9
:1020600070B508B9106868B103460E46184613F8F3
:10207000014B16F8015B15B1AC42FAD1F5E72CB96A
:102080002046146070BD23460CE015B90E4613F8C7
:10209000014B16F8015BAC42F7D1002CF3D00021C4
:1020A00003F8011C1360EDE70000000000000000D1
:1020B0002DE9F04385B0984601AB06460025084659
:1020C0001F469DF83090B0FBF2F4844602FB1401E9
:1020D00020460929CCB294BF30343734E4B2944559
:1020E00005F1010503F8014BEDD22C463368444558
:1020F0001B680BD249463046984718B10C2005B0F2
:10210000BDE8F0830134F1E7002DF8D03368013DDC
:1021100030461B68795D98470028F5D0EEE700004F
:102120002DE9F04F0B46054614464FF00A0B85B0DB
:102130001E4616F8011B31B928462B685B6805B0AE
:10214000BDE8F04F1847252902D02B681B6864E0D2
:102150005F784FF00008302F14BF20279E1C16F820
:10216000011BA1F13000C0B2092804D92A2905D1E8
:1021700054F8040BC0B20BFB0808F0E72E2909D174
:1021800016F8011BA1F13003092BF9D92A2901D135
:102190000434F5E763293BD015D841294ED003D844
:1021A0002529D2D03346C3E7532939D05829F9D14C
:1021B000434610220097284654F8041BFFF778FF87
:1021C0000028EFD0B8E773292AD01BD8642901D0A2
:1021D0006929E7D1A14659F8044B002C07DA2B688E
:1021E0002D2128461B6898470028A5D16442434604
:1021F0000A22214628460097FFF75AFF00289BD164
:102200004C46CFE77529CDD143460A220097D2E745
:102210002B6854F8041B1B68C9B228469847CFE7BF
:102220002768013F17F8011F09B90434BAE72B6882
:1022300028461B6898470028F4D07DE70027D4E99A
:10224000019823685FFA88FA03934F4501DB0C3449
:10225000A8E76FB9039B1022D95D3023284600936D
:102260000223FFF725FF00287FF466AF0137ECE774
:10227000B8F1000FEED02B68514628461B689847EE
:102280000028E7D058E70000000000000000000030
:102290000FB413B504AB53F8044B0193202383F31D
:1022A000118801F085FC2146019A0648FFF738FFA6
:1022B00001F08EFC002383F3118802B0BDE81040CA
:1022C00004B07047DC0F0020000000000000000098
:1022D0000FB407B504AA52F8041B04480192FFF793
:1022E0001FFF03B05DF804EB04B07047DC0F002063
:1022F0007047000000000000000000000000000027
:1023000008B5064C40F2DE3002F022F820680028C2
:10231000F8D003685B689847F4E700BF580C0020CA
:102320000EB403B503AA52F8041B00F5D87001924D
:10233000FFF7F6FE02B05DF804EB03B07047A0F5BE
:10234000DA70EDE70000000000000000000000006F
:10235000F0B51746314A904246D1314CE26942F01D
:102360000102E261032402684D00AC40E64322EA28
:102370000404046002240268AC4014430460012495
:1023800042688C40002F47D122EA04044460C268AE
:10239000072902EA0602C260C46803FA05F242EAAB
:1023A0000402C260836806EA03064FF002038660F7
:1023B000826803FA05F343EA0203836086BFA1F152
:1023C00008039A008A0007298CBF042300230F21E9
:1023D0001844036A914023EA010303620723016A58
:1023E00093400B430362F0BD0E4A904204D10C4C63
:1023F000E26942F00202B4E70B4A904204D1084C71
:10240000E26942F00402ACE7084A9042AAD1044CC7
:10241000E26942F00802A4E71443B7E70000024073
:10242000003802400004024000080240000C024054
:10243000D0F81021D0F81C1100F588739B1A8B423C
:1024400028BF0B46C0F820317BB1002380F818313B
:1024500043685B68DA60D0F820215A60C268126A6B
:102460001A601A6842F001021A607047000000000A
:10247000436859680A6822F00F020A60597B1A689B
:102480000E238B405360D0F81021D0E947310A4425
:102490005B1A00F588718A4228BF00F11002C0F86B
:1024A0001C31C0F810212BB9012380F818310368C2
:1024B0001B681847FFF7BCBF0000000000000000C9
:1024C000FFF7D6BF00000000000000000000000081
:1024D000D0F81C31FF2B16D8D0F814315A1CC0F894
:1024E00014211970D0F8142100F588739A4224BF82
:1024F00000F11003C0F81431D0F81C310133C0F8DA
:102500001C31002070470C207047000000000000C4
:10251000FFF7DEBFA0F5D870FAE70000000000006A
:1025200090F818310BB1FFF783BF7047000000002F
:10253000FFF7F6BFA0F5D870FAE700000000000032
:102540008368D0F828215B685B68C3F180039B1A1D
:1025500048BF803383B1531CC0F82831024492F83D
:102560002C310B70D0F828317F2B4FF0000301DDA8
:10257000C0F82831184670470B2070470000000053
:10258000F0B590F8AC31044685B0002B7AD0002627
:102590003D4F4FF0804520460DF10701FFF7D0FF7A
:1025A00000286FD194F840329DF8072043B9B4F861
:1025B00042126B6A5B1A40F2DE319BB28B4203D946
:1025C00084F84062C4F83C626B6A082AA4F842327C
:1025D000D4F83C3205D1002BDDD0013BC4F83C32AD
:1025E000D9E70D2A01D00A2A27D1002BD3D02344C2
:1025F00083F8B861394604F50E7204F5DC70FFF714
:102600002FFD0123C4F8440284F840328DF80D30C8
:1026100084F8AC61202383F311881C4D01F0C8FAC3
:1026200001F04EFBD5F8AC30002B0FDC01F090FC34
:1026300001F0CEFA86F31188ABE77E2BABD8591C9C
:102640002344C4F83C1283F8B821A4E701F038FB16
:10265000D5F8AC3004F5DA71013BC5F8AC30D5F8EB
:1026600094300B4803F10802C5F8942019600399CF
:10267000596005F190039A4228BFC5F8945001F0C3
:10268000BFFCD3E705B0F0BDF04B0008680C00209C
:10269000000D00200000000000000000000000000D
:1026A000C268D2E90013054A9342054A0CBF9268FA
:1026B0005268B2FBF1F29A60704700BF00380140E7
:1026C000040B0020000000000000000000000000DB
:1026D000002373B50446C0681A4681898068FFF7F5
:1026E00037FEE3683B4A5B68934258D13A4B1A6A1B
:1026F00042F480421A62DA6A22F48042DA62DB6AC9
:1027000000262046FFF7CCFFE06809214368334AE2
:102710001E618069234602F02BF8E56843686A6809
:102720006060111D9960296A2869196001230C21D4
:1027300084F81831D160C02151611A46A98AFFF787
:1027400007FEE068334632460921C06902F010F8FE
:10275000E16843684A68A060101D986004F59670AF
:10276000D8608020496A58601960196841F00101F9
:102770001960D36843F40053D360194B1A6802B947
:102780001C60184C236843B9009380224FF4907169
:10279000154B164801F084FD206002B070BD144A4C
:1027A00093420AD10C4B5A6A42F400325A621A6BB5
:1027B00022F400321A631B6BA2E70E4A93429FD1A8
:1027C000054B5A6A42F480225A621A6B22F4802224
:1027D000F0E700BF0038014000380240C124000883
:1027E000580C00205C0C002001230008380B00204E
:1027F00000440040004800400000000000000000CD
:1028000010B52023044683F3118801F0D1F9012388
:1028100084F8AC3101F0DCF9002383F3118810BD9A
:10282000FFF7EEBFA0F5DA70FAE700000000000045
:1028300037B5002403688DF804408DF805408DF805
:1028400006408DF80740DB6801990546984785F8F2
:10285000844085F8854085F8864085F8874003B038
:1028600030BD00000000000000000000000000007B
:10287000202383F3118801F09BB9000000000000C1
:1028800008B501F0A5F9002383F3118808BD000005
:1028900010B5044601F014FAE36823B12046BDE800
:1028A000104001F0DDBD10BD000000000000000080
:1028B000104B984205D1104AD36943F00103D3610C
:1028C00070470E4B984204D10B4AD36943F0020380
:1028D000F5E70B4B984204D1074AD36943F0040350
:1028E000EDE7084B9842EBD1034AD36943F0080364
:1028F000E5E700BF0000024000380240000402404B
:1029000000080240000C024000000000000000002F
:102910000368112B0AD8026D013342F8041B00F141
:1029200048018A4288BF021D0265036070470000AB
:102930000269036803EB820319637047000000001B
:1029400010B50446C3692C309988FFF7F1FFE3699D
:1029500000200833E36110BD00000000000000000B
:1029600008B500212C30FFF7E3FF08BD0000000090
:1029700013B504460123D0F88800B4F88C200191E7
:1029800001B91032934083619DF8041004F12C00CA
:10299000FFF7CEFF9DF8051004F14800FFF7C8FFD0
:1029A0009DF8061004F16400FFF7C2FF02B010BDED
:1029B000036801495B681847404C000800000000AC
:1029C000F7B5B0F88C60044690F88E10D0F8880007
:1029D000FFF76EFF7300DAB203230568934025EA20
:1029E000030505600125D0F800C005FA02F747EAA3
:1029F0000C0707604768B54027EA0505456045684C
:102A0000B14029434160C16804F12C0521EA03016A
:102A1000C160C168C160816821EA03038360022349
:102A2000816893400B4383602846FEF799FED4F8F3
:102A30008010284604F14805FFF792F92846FEF772
:102A40008FFED4F88010284604F16405FFF788F95A
:102A50002846FEF785FE2846D4F88010FFF780F957
:102A600023682046DA6800238DF804308DF805309D
:102A70008DF806308DF80730019903B0BDE8F040BD
:102A800010470000000000000000000000000000EF
:102A9000012910B5144603D0022907D061B910BD31
:102AA00011460830BDE81040FFF732BF114608302C
:102AB000FFF72EFF2146F5E711460830FFF728FF04
:102AC0002146F5E7000000000000000000000000C3
:102AD00010B50020FEF754FF044C6328206004D991
:102AE0000348FFF7D5FB0023236010BD600C0020D6
:102AF000504C000800000000000000000000000032
:102B00002DE9F041061D044630460D4642F210778D
:102B1000FFF7BEFE40F2E73000214FF47A72002347
:102B2000E5FB0701FDF7D4FB23460146024A304688
:102B3000BDE8F04101F03CBC211600080000000097
:102B4000C369D0F88420D3F8051070B591420446CB
:102B50000AD00268D3F80150D66845B9B047E36996
:102B6000D3F80520C4F884200933E3612CE090F801
:102B7000842059798A4229D2013284F8842094F839
:102B8000852099798A4224D2013284F8852094F8EC
:102B90008620D9798A421FD2013284F8862094F89F
:102BA00087201B7A9A421AD2013284F88720204665
:102BB000D4F88410B047E069D4F88420D0F8053008
:102BC0009A420FD10930E061002044E0D7D9013AA0
:102BD000D3E7DCD9013AD8E7E1D9013ADDE7E6D914
:102BE000013AE2E794F884104379D0F801208B424F
:102BF0001CBF0431B2FBF1F194F8853018BF4D1CB5
:102C0000817908BF002599421BBF0433B2FBF3F35F
:102C10000021591CA94294F8863038BF2946C5794D
:102C2000007A9D421BBF0433B2FBF3F30023013350
:102C3000994238BF194694F8873098421BBF043335
:102C4000B2FBF3F2002201329142204638BF114616
:102C5000FFF756FF012070BD0000000000000000DB
:102C600038B504460D46FFF703FE4FF0FF332362ED
:102C700023682046C4E906551B689847BDE83840DC
:102C8000FFF7FEBD00000000000000000000000093
:102C900038B583680446A3B1FFF7EAFD636D04F11C
:102CA000500253F8045B934288BF04F10C03636540
:102CB000A368013BA360FFF7E3FD29460148FFF746
:102CC000CFFF38BD9C0D0020000000000000000078
:102CD000836910B504466BB1FFF7CAFD00F0F0FF41
:102CE000236913B1201DFFF7D3FD0023C4E9063388
:102CF000FFF7C6FD23682046BDE810405B68184713
:102D000038B5044609480D46FFF7E2FF0023A360EB
:102D1000A36D04EB850504F10800E96D6365FFF719
:102D2000F7FD2046FFF7B4FF38BD00BF9C0D002023
:102D30002DE9F0415F4D00262C460327A18820682D
:102D40004B00D9B294F80680FFF7B2FD026807FA8B
:102D500001FC22EA0C020260C36808FA01F123EACE
:102D60000C03C360C36801361943082EC16004F127
:102D70000804E3D10024012726464FF00308286801
:102D8000A988036907FA01F21A4202BF07FA06F39B
:102D90001C43E4B24900FFF78BFD036808FA01F118
:102DA00001361943082E016005F10805E7D1424DAF
:102DB0002B689C4247D021464048FFF769FA4048BB
:102DC0002C60FFF785FF00233E4D3F4EAB60AB6D9F
:102DD0006B65B3696BB1FFF74BFD00F071FF3369B1
:102DE00013B1301DFFF754FD0023C6E90633FFF78A
:102DF00047FD3548FFF7B4FD3148FFF769FFC4F3DD
:102E00000211042928BF0421304EE20904F00F0406
:102E10000B2C3171B27118D9C02373712C4B2D4812
:102E2000FFF736FA2648FFF753FF0023AB60AB6D80
:102E300029486B65337905EB8305E96DFFF768FD7C
:102E40000838FFF725FFBDE8F081244B185D032803
:102E5000707119D0082819D00D2819D0172819D049
:102E60001D2819D0262819D0372819D0502819D054
:102E7000862819D0CD2819D0C52819D0144B184C44
:102E8000C02818BF2346CAE7164BC8E7164BC6E74B
:102E9000164BC4E7164BC2E7164BC0E7164BBEE70E
:102EA000164BBCE7164BBAE7164BB8E7164BB6E71E
:102EB000164BB4E77011002000080020C04C000839
:102EC0009C0D0020180D002074100020600C0020C4
:102ED000704C0008CE4C0008200D0020004E000869
:102EE000BA4C0008844C00088B4C0008924C000837
:102EF000994C0008A04C0008A74C0008AE4C0008F4
:102F00007F4C0008B44C0008774C00087D4C00084A
:102F100038B504460D46FFF7ABFC4FF0FF33236294
:102F200023682046C4E906551B689847BDE8384029
:102F3000FFF7A6BC00000000000000000000000039
:102F4000012938B5044612D109490A48FFF7E0FFC4
:102F50005CB9094D2146094885F8E540FFF7D0FEE8
:102F60004FF46173C5F8DC3001E0012CF1D038BDBD
:102F7000104E000874100020B0080020180D00202A
:102F80000B6870B504460E460BB1122303607368DC
:102F90000BB1122363602368002B0EDD364904F168
:102FA0000800FFF7B5FC3548354983698B4201D0ED
:102FB000FFF7AEFF2368043B23606368002B0EDD40
:102FC000304904F10800FFF7A3FC2C482C49836921
:102FD0008B4201D0FFF79CFF6368043B636023686A
:102FE000002B39DC6368002B36DCA26FB368002A43
:102FF00036D11D1E18BF0125E16FF268002933D1BB
:10300000002A18BF0125D4F88010326900292FD179
:10301000002A18BF0125A367F3682046E3673369D8
:10302000194AC4F88030B168FFF732FD2046174ACC
:10303000F168FFF72DFD2046154A3169FFF728FD9D
:1030400055B1144B9B793BB10C48836923B9C369D3
:1030500013B91149FFF75CFF2046FFF719FE70BD59
:10306000B3FA83F56D09C7E7002A08BF0125CAE74F
:10307000002A08BF0125CEE740110020741000206F
:10308000D04D0008B0110020DD1100200A120020F0
:1030900037120020600C0020104E000800000000D5
:1030A00010B586B01422002101A801F019FCFFF729
:1030B000DFFB164BD3F8D8409C4216BF1A4604F1EA
:1030C0006C0203F16C04C3F8D820FFF7D9FB002091
:1030D000A31C6E349C4212D013F8022C6AB113F870
:1030E000012C042A09D801A951F822100DF1040C71
:1030F00001314CF8221003F8020C0233EAE70448CD
:1031000001A9FFF73DFF06B010BD00BFB0080020C9
:10311000180D00200000000000000000000000006A
:10312000BFB50320FEF74CFE844A854D53688548A1
:1031300023F4604343F440435360FEF761FD00F025
:1031400097FC00F085FF122105F1A400C5E9245584
:103150007D4F00F01DFF002105F1980000F018FFE1
:103160007A48FFF7B5FA7A4CFFF7B2FC794A7A4908
:103170003B687A48FFF78CF87248FEF709FE204654
:10318000FFF71EFC04238DF80D3000236362039BC0
:103190007348A362FEF7E4FAFEF75AF97148FDF7A7
:1031A000BFFF38B120467049FFF75AFD42F2607008
:1031B00001F0CEF8FFF7BCFDFFF75AFB6B48FEF7B6
:1031C000EFFEFFF75DFB6A496A48FFF7A1FEDFF8F3
:1031D000A881A8F1080908F10C0A002304938DF8CE
:1031E0001530FFF745FB4FF0FF31404600F0E0FEA1
:1031F000A0B9D5F890205046116802F10803C5F82F
:1032000090300491526805924B4534BF1A462A46C5
:10321000C5F8902000F0F4FE00F09AFEFFF730FBB6
:103220009DF815104B1E052B75D8DFE803F024031D
:103230007420740F514C236801332360FFF778FD2D
:1032400023689B07C9D1FFF72BFFC6E79DF8114004
:103250009DF81060214632464948FFF719F83B793E
:10326000012BBAD831462046FFF76AFEB5E745483C
:10327000FFF70EFDB1E7049C4349D4F89000FEF738
:10328000CFFE18B92046FFF793FB0CE03F49D4F876
:103290009000FEF7C5FE58B9236820465E682E4AA6
:1032A0002C4B3B49B047236820461B68984794E75E
:1032B0003849D4F89000FEF7B3FE30B923682046B1
:1032C0005B683A6834499847EDE73449D4F8900090
:1032D000FEF7A6FE0646D0B9314904F18402FEF796
:1032E000BFFE38B1324601A901F082FB019B0646C0
:1032F0001878A0B123682B495B6820469847D2E72D
:103300002948FEF7C5FF236828495B68F5E723686D
:1033100027495B68F1E72748FEF7BAFF5DE7632EB0
:10332000F1D83146FEF734FB01460028E8D131469A
:1033300021483E60FEF7ACFFA4E700BF0038024022
:10334000680C0020040B0020600C00202C0E0020D4
:103350009C0D0020F04C0008FE4C0008064D0008B3
:10336000A0100020B0080020BC1000201C1100207C
:10337000104E000874100020000D00203C110020A9
:10338000154D0008180D0020204D0008254D00089F
:103390002D4D0008344D00084F4D00083A4D0008EF
:1033A000F04B0008404D0008574D0008654D0008DF
:1033B0006F4D00087C4D00084B4D000800000000D8
:1033C00038B5044600F07CFC236913B1201DFFF7DB
:1033D0005FFA4FF0FF35E3691A78042AFDD8DFE879
:1033E00002F0030A14253100236820469B689847A1
:1033F0000128F0D138BDD3F801100933E361002969
:10340000E9D02046FFF77CFBF4E7D3F80130A2694E
:1034100003EBC3031344E36194F8293023B112484A
:1034200004F12401FEF794FD0121EAE794F8293024
:1034300023B10D4804F12401FEF78AFD0023C4E9FD
:103440000633D7E7226A013204BFD3F80120226293
:10345000226A1AB909332562E361BCE7A369013A1C
:10346000E3612262B7E700BF680C002000000000A3
:103470002DE9F041061D044630460D4642F2107714
:10348000FFF706FA40F2E73000214FF47A7200238A
:10349000E5FB0701FCF71CFF23460146024A3046C4
:1034A000BDE8F04100F084BF2116000800000000D4
:1034B00038B5044600F004FC236913B1201DFFF762
:1034C000E7F94FF0FF35E3691A78042AFDD8DFE801
:1034D00002F0030A13222E00236820469B689847B7
:1034E0000128F0D138BD59680833E3610029EAD0DA
:1034F0002046FFF7BDFFF5E75A68A36903EBC20357
:10350000E36194F8293023B1114804F12401FEF756
:103510001FFD0121ECE794F8293023B10C4804F198
:103520002401FEF715FD0023C4E90633DAE7226A19
:10353000013204BF5A682262226A1AB9083325622E
:10354000E361C0E7A369013AE3612262BBE700BF20
:10355000680C0020000000000000000000000000D7
:103560002DE9F84F0E2100240125FF274FF0030815
:1035700068228020ED4B4FF0040A1C705C709C7038
:10358000DC701C715C719C71DF711C725D729972D0
:10359000DD721C735C739C73DC731C745C749C74B0
:1035A000DC741C755C759C75DC751C765C769C7691
:1035B000DD761A775D779C77DC7783F8204083F897
:1035C000214083F8224083F8234083F8248083F845
:1035D000254083F8264083F8274083F8284083F865
:1035E000294083F82A4083F82B4083F82C40D04BA5
:1035F0004FF0000B1C705C709C70DC701C715F7174
:103600009C71DC711C725D729972DD721C735C734B
:103610009C73DC731C745C749C74DC741C755C752A
:103620009C75DC751C765C769C76DD761A775D770A
:103630009C77DC7783F8204083F8214083F8224090
:1036400083F8234083F8248083F8254083F82640BC
:1036500083F8274083F8284083F8294083F82A40DC
:1036600083F82B4083F82C40B24B4FF0000C1C70B9
:103670005C709C70DC701C715F719871DC711C72E5
:103680005D729972DD721C735C739C73DC731C74C5
:103690005C749C74DC741C755C759C75DC751C76A4
:1036A0005C769C76DD761A775D779C77DC7783F89D
:1036B000204083F8214083F8224083F8234083F898
:1036C000248083F8254083F8264083F8274083F838
:1036D000284083F8294083F82A4083F82B4083F858
:1036E0002C40954B954E1C705C709C70DC701C716E
:1036F00058719C71DF711C725D729972DD721C735E
:103700005C739C73DC731C745C749C74DC741C753B
:103710005C759C75DC751C765C769C76DD761A771C
:103720005D779C77DC7783F8204083F8214083F82D
:10373000224083F8234083F8248083F8254083F8CF
:10374000264083F8274083F8284083F8294083F8EF
:103750002A4083F82B4083F82C40794B79481C7021
:103760005C709C70DC701C715C719F71DC711C72F0
:103770005D729972DD721C735C739C73DC731C74D4
:103780005C749C74DC741C755C759C75DC751C76B3
:103790005C769C76DD761A775D779C77DC7783F8AC
:1037A000204083F8214083F8224083F8234083F8A7
:1037B000248083F8254083F8264083F8274083F847
:1037C000284083F8294083F82A4083F82B4083F867
:1037D0002C4063235C4ADFF8749114705470947029
:1037E000D4701471937213774FF4E133577194715D
:1037F000D47114725572D472147354739473D47355
:10380000147454749474D474147554759475D47574
:10381000147654769476D57654779477D47782F864
:10382000204082F8214082F8224082F8234082F82A
:1038300024A082F825A082F8264082F8274082F84A
:10384000284082F8294082F82A4082F82B4082F8EA
:103850002C4082F82D8082F82E4082F82F4082F88A
:10386000304082F8314082F8324082F8334082F8AA
:10387000344082F83540364A0661C2E900BCC2E9EC
:103880002422344A4FF0920CC0E900320922C0E9E8
:1038900002620A22C0E905284FF48552C0E908C235
:1038A0002D4AC0F81CA0D06002F11000C2E944000B
:1038B0002A4882F8185100F1200CC2F8B0C14FF02C
:1038C0000F0C10603030C2E94744C2E94944C2E9F4
:1038D0008E44C2E9904482F8AC51C2F8B401204A47
:1038E0002048166196611662966208264FF00C0316
:1038F00010609060A2F81CC00D204FF00B0C968554
:10390000194EA2F824C0938291809571908195738D
:103910009575957782F8265082F82E50C2F830902F
:10392000918682F83650908730461FE04011002083
:10393000B0110020DD1100200A120020000002401A
:1039400037120020F4100020BC10002000040240B8
:10395000680C0020003801402C0E0020084C0008A4
:10396000701100200008024074100020C2F8389046
:1039700082F83E50324A214640F8042B1C2200F0C7
:10398000AFFF0C232F494FF0FF3BC6E90D316323F6
:10399000C6E90B19C6E90F54C6E908B4B4627364EA
:1039A000294E214606EB0A001C2200F099FF052251
:1039B000264B0221C6E90D2340F20112C6E90B395C
:1039C000C6E91173C6E9153AC6E91939C6E91B43B8
:1039D0001F4BC6E90F12C6E91727C6E91D823360DF
:1039E0001C4A1D4BC6E913951A6042F210729A6187
:1039F0004FF48172194DC6E91F7B194FC6E908B40F
:103A0000B462C6F88440C6F88890A6F88C1086F890
:103A10008E409A8305F15C0605F10C03C5E9153368
:103A20000FCF0FC63B6814222146C5E90044AC60A5
:103A3000336005F1700000F053FFBDE8F88F00BF60
:103A4000B84D0008000C01409C0D0020000400400F
:103A5000984D0008E84B00081C110020180D0020AC
:103A6000304A0008000000000000000000000000D4
:103A700008B500F0CDFDBDE8084000F001B8000039
:103A800000F03EB800000000000000000000000050
:103A90004FF08043002258631A610222DA607047B7
:103AA0004FF080430022DA60704700000000000001
:103AB0004FF0804358637047000000000000000092
:103AC00010B500F0CDF84FF080431A6992070CD57D
:103AD00000241C61202383F3118800F091F800F08A
:103AE00007FB00F0A5F884F3118800F0D1F8BDE8D9
:103AF000104000F015BD00000000000000000000B4
:103B0000134B08215A6A1C2042F001025A621A6BB8
:103B100042F001021A630F4A1B6B936843F00103E2
:103B200093600D4B5A6842F21073B2FBF3F24FF000
:103B30008043013A9A624FF6FF72DA6200229A617C
:103B40005A63DA605A6001225A611A6000F008B8BC
:103B500000380240002004E0040B002000000000B8
:103B60000122090100F1604303F56143C9B283F802
:103B7000001300F01F039A4043099B0003F16043C8
:103B800003F56143C3F880211A607047000000000C
:103B9000044BD3E90A23134302D0034800F0A0BA30
:103BA000704700BF64120020604E00080000000053
:103BB00010B5054CD4E90A23134302D0034800F0A2
:103BC0008FFA0123E36210BD64120020704E0008DA
:103BD00010B5064CA36A13B9E36A002B02DC044853
:103BE00000F07EFA0023E36210BD00BF64120020E3
:103BF000804E0008000000000000000000000000EF
:103C000010B5064CA36A002B01DDE36A13B104482A
:103C100000F066FA0123E36210BD00BF64120020C9
:103C2000904E0008000000000000000000000000AE
:103C300010B5064CA36A002B02DDE36A002B02DC00
:103C4000034800F04DFA0023E36210BD6412002027
:103C5000A04E00080000000000000000000000006E
:103C6000202310B583F31188074CA36A002B01DBD6
:103C7000E36A13B1054800F033FAA36A0133A36283
:103C8000002383F3118810BD64120020B04E000899
:103C9000202310B583F31188074CA36A002B01DDA4
:103CA000E36A13B1054800F01BFAA36A013BA36263
:103CB000002383F3118810BD64120020C04E000859
:103CC000054B9A6A002A02DBDB6A002B02DC034800
:103CD00000F006BA704700BF64120020D04E000802
:103CE000044B9A6A12B9DB6A002B02DC024800F02E
:103CF000F7B9704764120020E04E00080000000091
:103D00000022024BC3E900339A607047641200201E
:103D100010B50446FFF7D4FF14B9094800F0E0F9E4
:103D20000023A2682375074B1B6899689142FBD258
:103D30005A6823606260204614605C6010BD00BF5A
:103D4000204F000864120020000000000000000066
:103D500038B50446202383F31188FFF751FF237DF4
:103D60000025052B0BD8DFE803F0030A0A081C1610
:103D7000FFF75EFF85F3118838BDA3691D604FF022
:103D8000FF332046A361FFF7C3FFFFF751FF002376
:103D900083F31188F0E7A569FFF792FFAB68013361
:103DA000AB60D4E9003213605A60E8E7000000001D
:103DB00010B50446FFF784FF14B9094800F090F9E4
:103DC0000023A2682375074B1B6899689142FBD8B2
:103DD0005A6823606260204614605C6010BD00BFBA
:103DE000004F0008641200200000000000000000E6
:103DF00070B506460D4C2569FFF772FF23682E75D6
:103E00001A6854602260012223611A75EFF3098356
:103E10002A69243B9A4202D9054800F061F92946F3
:103E20002069BDE87040FCF7C3B900BF64120020F0
:103E3000F04E00080000000000000000000000003C
:103E400070B50D4686B00446FFF74AFF6B1C0D4E59
:103E500013D0336929460C4A01A800F0A9FA20467C
:103E6000FFF7C6FFFFF72CFF049B13B101A800F07A
:103E7000F7FA3369986906B070BD2046FFF7B8FFBE
:103E8000F7E700BF64120020513D00080000000069
:103E9000F8B504460D46124E3769FFF721FFA268B8
:103EA000BB68A5619A4204D82046BDE8F840FFF7F8
:103EB0002FBF3846FFF77CFF012305463461237589
:103EC000EFF309830269243B9A4202D9054800F0C6
:103ED00007F929462046BDE8F840FCF769B900BF5C
:103EE00064120020F04E00080000000000000000F6
:103EF000044B1A681B6990689B68984294BF002025
:103F00000120704764120020000000000000000043
:103F100038B50D4C236820691A685460226001226C
:103F20001A752361FFF744FF0546EFF30983026921
:103F3000243B9A4202D9054800F0D2F8294620696C
:103F4000BDE83840FCF734B964120020F04E000898
:103F500008B5FFF7C5FEFFF7B3FE064B1A681B69ED
:103F600092689B689A4203D9BDE80840FFF7D0BF2A
:103F700008BD00BF64120020000000000000000027
:103F8000FFF7C6BF000000000000000000000000B6
:103F900038B50D46044608B1002902DA034800F09E
:103FA0009FF8C4E90044A56038BD00BF604F000819
:103FB00038B504460D46FFF793FE14B90E4800F0DD
:103FC0008FF8A3685A1E002AA26012DA1DB94FF0BA
:103FD000FF30A36038BD094B62681B6929469C61AC
:103FE0001C605A60052013606360BDE83840FFF72D
:103FF00027BF0020EEE700BF404F000864120020FA
:1040000010B50446FFF75CFE14B9094800F068F8E3
:10401000A3680133002BA36009DC206803682360D8
:104020005C600023BDE810408361FFF771BE10BDE6
:10403000304F0008000000000000000000000000F9
:10404000FEE700000000000000000000000000008B
:1040500038B500251A4CFFF753FE00F099F980227D
:10406000184904F13000C4E90A5500F0B9F8164BBC
:104070002061036101230375144B154AD96821F4AB
:10408000E0610904090C0A43DA60D3F8FC20114905
:1040900042F08072C3F8FC200A6842F001020A6014
:1040A0001022DA77202283F82220FFF771FD85F3B2
:1040B000118862B6BDE83840074800F0D9B800BFA3
:1040C00064120020704F00080004002000ED00E0A2
:1040D0000003FA05001000E0904F00080000000007
:1040E00072B6014B5862FEE7641200200000000027
:1040F0002DE9F047264E4FF000083746FFF7E0FD68
:10410000FFF7DEFD57F8144F4FF08043586A358CA7
:1041100080B2A368451BADB29D4220D34FF0200969
:10412000A268338CD4F80CA0134433842368AD1AEE
:10413000BB425F607361C4F80C8001D1FFF7B0FC33
:10414000FFF776FD88F311882069D04789F311883D
:10415000FFF756FD7469A3689D42E1D2D4E7736905
:10416000BB4212D09A683084521B9A604FF6FF729D
:10417000A368BDE8F047934228BF1346022B2CBF2B
:10418000C018023080B2FFF793BCBDE8F08700BFD3
:104190006412002000000000000000000000000089
:1041A000202383F31188FFF703BD00000000000007
:1041B00008B5FFF70DFD002383F3118808BD00004B
:1041C00010B5044610B90448FFF78AFF2146BDE840
:1041D00010400820FFF734BEB04F00080000000078
:1041E000826002228282704700000000000000000E
:1041F00010B50446FFF764FD14B91948FFF770FFC6
:104200006268500707D1A368590704D19A4202D2C5
:104210009B1A9F2B02D81248FFF762FFE368FF2B1F
:1042200001D8236913B90E48FFF75AFFD4E90130CA
:1042300040F8103CA0F1440340F8143C23692038B6
:1042400040F8243C636940F8203C064B40F8043CAD
:10425000E3688360022303750023437510BD00BF2C
:10426000E04F0008C101000800000000000000004D
:1042700010B50446D4E901031A1A984288BF0022F7
:10428000552100F02DFBFFF78BFF2046FFF7B0FF15
:1042900004460021FFF7FCFDFFF78AFF204610BD12
:1042A000F8B50C4616461F46054640B19F2906D96B
:1042B00040EA01035B0702D1FF2A00D817B914486E
:1042C000FFF70EFFE54238BF2246A4F120042C443C
:1042D00028BF00225521284600F002FBFFF760FFAF
:1042E000A4F12403E360069B204644F8203C094BDC
:1042F000002144F8043C02232561A38244F8247C75
:10430000A660FFF7C5FDFFF753FF2046F8BD00BFCD
:10431000C04F0008C10100080000000000000000BC
:10432000024B1B6998610F20FFF762BD64120020E9
:1043300010B50446FFF734FF2046BDE81040FFF7F4
:10434000EFBF0000000000000000000000000000BF
:1043500010B50446FFF724FF2046FFF731FFBDE804
:104360001040FFF725BF0000000000000000000023
:104370000346006820B100221A608161FFF7C8BCC3
:104380007047000000000000000000000000000076
:10439000054B03F11402C3E905224FF0FF32DA6145
:1043A00000221A84704700BF641200200000000041
:1043B000F8B505460C4616461F46FFF781FC0DB1C1
:1043C00006B114B92448FFF78BFE4FF08043C5E9CE
:1043D0000367224F586A3B4653F8146F022C21465C
:1043E00038BF02219E4280B210D14FF6FF7338844D
:1043F000994294BF4018C018C7E9055580B2C5E975
:104400000066A960BDE8F840FFF742BB3B8CB2688C
:10441000C41AA4B20C1902D3A41A36680AE0A24244
:1044200008D94FF6FF72944294BF1B199B1898B29B
:10443000FFF73EFBB368A3420CD373682E606B603A
:104440001D607560AC60B3681B1BB3604FF0FF3339
:10445000FB61F8BDE41AE0E7205000086412002078
:1044600038B50446FFF72CFC14B92148FFF738FE95
:10447000204922680B4653F8140FA0424FF0000069
:104480000AD061689A420A605160E06003D0936884
:10449000A1680B44936038BD9A424A615360E06062
:1044A00003D1BDE83840FFF7FBBA9368A0680D8CD4
:1044B00018444FF0804390605C6A641BA4B2A04231
:1044C000E9D9031B012B09D80234B4F5803F0BD284
:1044D000281980B2BDE83840FFF7EABA4FF6FF74FA
:1044E000844228BF0446F3E70348FFF7F9FDEFE7EE
:1044F0000050000864120020105000080000000066
:10450000EFF30983203383F30988002383F31188B1
:1045100070470000000000000000000000000000E4
:10452000202310B583F311880D4B5B6813F40063EF
:1045300012D0EFF309844FF0807344F8043CA4F1E7
:10454000200383F30988FFF7D3FC18B1054B44F827
:10455000083C10BD044BFAE783F31188F9E700BF6C
:1045600000ED00E0D5010008E001000800000000B7
:104570007047000000000000000000000000000084
:104580007047000000000000000000000000000074
:104590007047000000000000000000000000000064
:1045A000FEE7000000000000000000000000000026
:1045B00070B50825134CD4E9010201462368043B79
:1045C0008A4219D8D31C1B1AC11E23F003038A4246
:1045D00038BF00231844E368C11EDA1C121A22F007
:1045E0000302994288BF0022002100F079F9013DC1
:1045F00004F11004DFD170BD53F8046F41F8046B6F
:10460000DEE700BF3050000800000000000000009E
:1046100008B51A4B1A6942F07F4242F47F0242F415
:10462000FF4242F040021A611A6922F4FF4222F06E
:1046300040021204120C1A611A699A6962F08052DF
:104640009A619A6902F080529A619A695A694FF0A8
:10465000FF325A615A6900225A615A695A6A42F015
:1046600080525A621A6B42F080521A631B6B00F040
:1046700007F8BDE8084000F023B900BF0038024049
:1046800000231946094A10B5C2E90033084C04EB6F
:1046900083004068016002EB430004331C2B8160FF
:1046A000F5D14FF0FF32034B5A6010BD601300206C
:1046B000C050000800600240000000000000000040
:1046C0002DE9F74F0446894693460193FFF7F8FA20
:1046D000062C0BD80127224DA7402A68019B3A429D
:1046E00008D00026304603B0BDE8F08F1D48FFF724
:1046F000F7FCF6E7DFF870804FEA041A08EB0416BF
:10470000013445F834B005EBC40463603A43174BF9
:104710002A60DA6942F08072DA619A6A42F0807245
:104720009A629B6ABBF1000F0AD06A68B3681A42AA
:1047300003D14946F07BFFF713FA6B683B436B608C
:1047400008EB0A014B68497B1A6858F80A0022F006
:104750000F021A600E228A40426000221A60C1E7EE
:1047600060130020B0500008C0500008003802401C
:10477000F8B51F4604460D461646202383F31188DC
:10478000FFF716FA3B46324629462046FFF798FFC8
:104790000446FFF71DFA002383F311882046F8BD75
:1047A00010B40468437B21684268D940126801F064
:1047B0000E010A420ED0827B01FA03F36360064BBE
:1047C000013253F832402CB103EBC2035868234640
:1047D00010BC184710BC7047601300200000000098
:1047E00008B5FFF73DFA0448FFF7DAFFFFF750FA84
:1047F000BDE80840FFF794BEC0500008000000006C
:1048000008B5FFF72DFA0448FFF7CAFFFFF740FA93
:10481000BDE80840FFF784BED0500008000000004B
:1048200008B5FFF71DFA0448FFF7BAFFFFF730FAA3
:10483000BDE80840FFF774BEE0500008000000002B
:1048400008B5FFF70DFA0448FFF7AAFFFFF720FAB3
:10485000BDE80840FFF764BEF0500008000000000B
:1048600008B5FFF7FDF90448FFF79AFFFFF710FAC4
:10487000BDE80840FFF754BE0051000800000000EA
:1048800008B5FFF7EDF90448FFF78AFFFFF700FAD4
:10489000BDE80840FFF744BE1051000800000000CA
:1048A00008B5FFF7DDF90448FFF77AFFFFF7F0F9E5
:1048B000BDE80840FFF734BE2051000800000000AA
:1048C0007047000000000000000000000000000031
:1048D000014B1868704700BF04080020000000006A
:1048E00003460244934200D1704703F8011BF9E7E5
:1048F000012B2DE9F047804601D0242B06D9FFF784
:10490000E7FF162303600020BDE8F0870D46354F12
:10491000284615F8014BE65D16F00806F8D12D2C57
:104920002FD101262C78851C002B57D0102B09D1B4
:10493000302C07D1287800F0DF00582849D1102307
:104940006C780235002706F1004E0EF1FF3EBEFBEB
:10495000F3F9384603FB19EAA4F1300CBCF1090F56
:1049600014D86446A34222DD002F1DDB81451BD3F2
:1049700001D1A24518DB012700FB034015F8014BCC
:10498000EAE72B2C04BF2C78851CCDE7A4F1410C61
:10499000BCF1190F01D8373CE4E7A4F1610CBCF17C
:1049A000190F04D8573CDDE74FF0FF37E6E7002F3B
:1049B00007DA22237046C8F80030002AA4D0691E06
:1049C00005E006B14042002A9ED0002FF7D11160C9
:1049D0009AE73024002BB5D10823B3E7302CA9D0B7
:1049E0000A23AFE73151000800000000000000007A
:1049F00013460A46014602480068FFF779BF00BF28
:104A0000040800200000000000000000000000007A
:104A1000000000000000000001020304060708096E
:104A2000000000000102030400000000000000007C
:104A300040110020B0110020DD1100200A120020DA
:104A400037120020000000000000000000000000FD
:104A5000434320527374204661696C0D0043432028
:104A600057204661696C0D00434320522F57204662
:104A700061696C3B2072706C3D25750D00434320CD
:104A800052204661696C0D00434320696E697420B1
:104A90006F6B0D000000000000000000000000002F
:104AA0000000000000000000F10500080000000008
:104AB0000B060C0010C81184121315332156221056
:104AC00019161A6C1B431C401D9123E9242A25004A
:104AD000261F2C812D352E0900000000000000004B
:104AE0000B0E0C00100E112F1273150021B62210A0
:104AF000191D1A1C1BC71C091DB023EA242A2500F6
:104B0000261F2C882D312E09000000000000000017
:104B10000D486172644661756C740D000000000000
:104B2000566563746F72353800556E68616E646CDB
:104B300065642025530D0000000000000000000007
:104B4000566563746F72354300000000000000007A
:104B5000566563746F72363000000000000000007C
:104B6000566563746F723634000000000000000068
:104B7000566563746F723638000000000000000054
:104B8000566563746F723943000000000000000036
:104B9000566563746F72453000000000000000002D
:104BA000030406080C10182030000000000000006C
:104BB000414842467265713D25754D487A3B20411A
:104BC000504231467265713D25754D487A3B204112
:104BD000504232467265713D25754D487A0D000090
:104BE0000000000000000000F11F000800000000AD
:104BF000202C000000000000000000000000000069
:104C00000000000000000000F122000881250008DB
:104C1000112500083125000821230008212800085B
:104C200050FEFFFF00000000152500083525000894
:104C30004CFEFFFF00000000252800083F2300086D
:104C40004F6B0D0A00000000000000000000000093
:104C50000D5573696E672064656661756C742049D3
:104C6000440D0000000000000000000000000000F3
:104C70002B313264426D002B3764426D002B313092
:104C800064426D002D333064426D002D3237644232
:104C90006D002D323564426D002D323064426D005E
:104CA0002D313564426D002D313064426D002D365A
:104CB00064426D002B3564426D003F3F64426D00DD
:104CC0004469703A203078253032583B20005479BE
:104CD00070653A2025753B20566962726F456E3AC1
:104CE0002025753B205077723A2025530D00000097
:104CF00032303233303731395F313933310044614A
:104D00006C616E3232000D25532025533B204944FF
:104D10003D25750D0042746E2025752025750D000A
:104D200050696E670056657273696F6E0025532077
:104D300025530D0047657449440053657449440088
:104D4000436D644572726F720D0A004E657720499B
:104D5000443A2025750D004545206572726F723A00
:104D60002025750D004661696C7572650D0A00435A
:104D70006D64556E6B6E6F776E0D0A00556E6861CF
:104D80006E646C6564204D73672025750D0000000E
:104D90000000000000000000C133000831280008B6
:104DA000412B0008712900080000000000000000ED
:104DB0000000000000000000B13400086129000874
:104DC0004129000800000000000000000000000071
:104DD000000000006400000001000000630000000B
:104DE000000000000000000001000000F0030000CF
:104DF00003000000000000000000000000000000B0
:104E000003080D171D26375086CDC5C000000000D1
:104E100000000000640000000100000063000000CA
:104E2000000000000000000001000000630000001E
:104E300000000000640000000100000063000000AA
:104E4000000000000000000001000000F00300006E
:104E5000030000000000000000000000000000004F
:104E60005356233300000000000000000000000043
:104E70005356233400000000000000000000000032
:104E80005356233500000000000000000000000021
:104E90005356233600000000000000000000000010
:104EA00053562337000000000000000000000000FF
:104EB00053562338000000000000000000000000EE
:104EC00053562339000000000000000000000000DD
:104ED00053562331300000000000000000000000A5
:104EE0005356233131000000000000000000000094
:104EF000737461636B206F766572666C6F77000008
:104F000063685363685265616479416865616449A7
:104F10000000000000000000000000000000000091
:104F2000636853636852656164794900000000005A
:104F3000636853656D5369676E616C4900000000DA
:104F4000636853656D5761697454696D656F7574F5
:104F500053000000000000000000000000000000FE
:104F6000636853656D4F626A656374496E69740066
:104F70006D61696E0000000000000000000000008C
:104F800069646C6500000000000000000000000083
:104F9000804F0008B01200206013002001000000C4
:104FA0004140000800000000000000000000000078
:104FB0006368546864536C656570530000000000BA
:104FC000636854686443726561746553746174699D
:104FD000630000000000000000000000000000006E
:104FE0006368546864437265617465537573706572
:104FF0006E646564490000000000000000000000CD
:1050000063685654446F526573657449000000002C
:10501000636854696D6541646458000000000000D5
:1050200063685654446F53657449000000000000E3
:1050300018530008A0130020A0130020A013002084
:1050400018530008000000000000000000000000ED
:1050500018530008000000000000000000000000DD
:1050600018530008000000000000000000000000CD
:1050700018530008000000000000000000000000BD
:1050800018530008000000000000000000000000AD
:10509000185300080000000000000000000000009D
:1050A000185300080000000000000000000000008D
:1050B000646D6153747265616D416C6C6F6349001E
:1050C0000060024008600240010000000000000B88
:1050D000006002401C600240020000000004010C5D
:1050E0000060024030600240040000000008020D31
:1050F000006002404460024008000000000C030E03
:105100000060024058600240100000000010040FD0
:10511000006002406C600240200000000014051096
:10512000006002408060024040000000001806114C
:105130000020202020202020202028282828282067
:10514000202020202020202020202020202020205F
:1051500020881010101010101010101010101010C7
:1051600010040404040404040404041010101010B7
:105170001010414141414141010101010101010181
:1051800001010101010101010101010110101010D3
:105190001010424242424242020202020202020253
:1051A00002020202020202020202020210101010A7
:1051B00020000000000000000000000000000000CF
:1051C00000000000000000000000000000000000DF
:1051D00000000000000000000000000000000000CF
:1051E00000000000000000000000000000000000BF
:1051F00000000000000000000000000000000000AF
:10520000000000000000000000000000000000009E
:10521000000000000000000000000000000000008E
:10522000000000000000000000000000000000007E
:10523000000000000000000000000000000000006E
:10524000000000000000000000000000000000005E
:10525000000000000000000000000000000000004E
:10526000000000000000000000000000000000003E
:10527000000000000000000000000000000000002E
:10528000000000000000000000000000000000001E
:10529000000000000000000000000000000000000E
:0452A000F8B500BF9E
:0452A400F8B500BF9A
:0852A80058B0FF7F0100000077
:1052B000FFFF000008080020000000006052000806
:1052C000805200084052000800000000000000006A
:1052D00000000000000000000000000000000000CE
:1052E00000000000000000000000000000000000BE
:1052F00000000000000000000000000000000000AE
:10530000000000000000000000000000000000009D
:08531000000000000000000095
:04000005080001A14D
:00000001FF
