:020000040800F2
:1000000000040020A1010008A301000851250008F8
:10001000A3010008A3010008A3010008A301000830
:10002000A3010008A3010008A3010008513D000836
:10003000A3010008A3010008A3010008A301000810
:10004000A3010008A3010008A3010008A301000800
:10005000A3010008A3010008A1250008F12500085C
:100060004126000891260008E126000821400008EA
:10007000414000086140000881400008A14000089C
:10008000C1400008E1400008A3010008A3010008E6
:10009000A3010008A3010008A301000831270008FC
:1000A000A3010008A3010008A3010008A3010008A0
:1000B000D1320008A3010008A3010008A301000831
:1000C000A3010008A3010008A3010008A12A000859
:1000D000E12A0008A3010008A3010008A301000809
:1000E00081270008A3010008A3010008A30100085C
:1000F000A3010008A3010008A3010008A301000850
:10010000A3010008A3010008A3010008A30100083F
:10011000A3010008A3010008A3010008A30100082F
:10012000A3010008A3010008A3010008A30100081F
:10013000A3010008A3010008A3010008A30100080F
:100140008501000881100008C11D0008C11F0008BA
:040150006101000841
:1001600010B5054C237833B9044B13B10448AFF3F1
:1001700000800123237010BD7008002000000000E3
:10018000F45D000808B5034B1BB103490348AFF306
:10019000008008BD0000000074080020F45D000825
:1001A00026E000F000F8FEE700000000000000007C
:1001B0002DE9F04FC1F80CD0C3689D46BDE8F08F23
:1001C00003F016F9002383F311882846A047002086
:1001D00003F0BEFC03F0F4F803F0E2FA03F008F9D0
:1001E00000DFFEE70000000000000000000000004B
:1001F00072B6274880F30888264880F30988264885
:100200004EF60851CEF200010860022080F31488F7
:10021000BFF36F8F03F0D4FD03F0DAFD4FF05530DC
:100220001E491B4A91423CBF41F8040BFAE71C49A6
:10023000184A91423CBF41F8040BFAE719491A4A9F
:100240001A4B9A423EBF51F8040B42F8040BF8E7F0
:1002500000201749174A91423CBF41F8040BFAE7C6
:1002600003F0CEFD03F0BCFD134C144DAC4203DA99
:1002700054F8041B8847F9E700F01AFD104C114DA3
:10028000AC4203DA54F8041B8847F9E703F0B0BD29
:1002900000040020000800200000000800000020EA
:1002A00000040020F85D0008000800206C08002011
:1002B00070080020D0130020400100085001000801
:1002C0005001000854010008000000000000000078
:1002D00053B94AB9002908BF00281CBF4FF0FF31AD
:1002E0004FF0FF3000F074B9ADF1080C6DE904CEA9
:1002F00000F006F8DDF804E0DDE9022304B0704701
:100300002DE9F047089E0D4604468E46002B40F02E
:1003100083808A42174647D9B2FA82F34BB1C3F1C0
:10032000200105FA03FE20FA01F19F4041EA0E0E7A
:100330009C404FEA1748BEFBF8FC1FFA87F908FB00
:100340001CE20CFB09F0210C41EA024290420AD95E
:10035000BA180CF1FF3180F01881904240F21581FB
:10036000ACF1020C3A44121AB2FBF8F008FB10226E
:1003700000FB09F1A4B244EA0244A14209D93C19A4
:1003800000F1FF3280F00381A14240F20081023887
:100390003C44641A002140EA0C401EB10022DC40BB
:1003A000C6E90042BDE8F08702B9FFDEB2FA82F387
:1003B000002B4FD18D1A01214FEA124E1FFA82F8FD
:1003C000B5FBFEFC0EFB1C5508FB0CF0220C42EAB0
:1003D0000545A84207D97D190CF1FF3202D2A84287
:1003E00000F2E98094462D1AB5FBFEF00EFB105585
:1003F00008FB00F8A4B244EA0544A04507D93C191B
:1004000000F1FF3202D2A04500F2D9801046A4EBE1
:10041000080440EA0C40C0E78B4208D9002E00F0E7
:10042000B1800021C6E900050846BDE8F087B3FAAF
:1004300083F100294BD1AB4202D3824200F2B98052
:10044000841A65EB030301209E46002EAAD0C6E95C
:10045000004EA7E79F40C3F12002D1404FEA174E5C
:10046000B1FBFEF01FFA87F80EFB101124FA02F21E
:100470009D4000FB08FC2A43150C45EA0145AC45AC
:1004800004FA03F409D97D1900F1FF3180F08F805F
:10049000AC4540F28C8002383D44A5EB0C05B5FB21
:1004A000FEF10EFB115C01FB08F995B245EA0C4523
:1004B000A94507D97D1901F1FF3274D2A94572D936
:1004C00002393D44A5EB090541EA004178E7C1F155
:1004D00020078B4022FA07FC4CEA030C25FA07F4AC
:1004E0004FEA1C4EB4FBFEF91FFA8CF80EFB1944C0
:1004F00020FA07F309FB08FA8D401D432B0C43EA51
:100500000444A24502FA01F200FA01F309D91CEBF6
:10051000040409F1FF3048D2A24546D9A9F10209E5
:100520006444A4EB0A04B4FBFEF00EFB104400FB91
:1005300008FAADB245EA0444A24508D91CEB04040C
:1005400000F1FF352DD2A2452BD90238644440EA90
:100550000940A0FB0289A4EB0A044C45C6464D465F
:1005600019D316D05EB1B3EB0E0264EB050404FAA6
:1005700007F722FA01F31F43CC40C6E900740021BB
:10058000BDE8F087314630460CE78C46EBE6104676
:10059000FFE64345E6D2B8EB020E69EB0C050138E5
:1005A000E0E72846D3E711468CE78146B9E70846DD
:1005B00073E7084649E7ACF1020C3D4413E7023803
:1005C0003C4424E7000000000000000000000000A0
:1005D000704700BF000000000000000000000000A5
:1005E00037B5002503682946DB6804469847C4F8F8
:1005F000845003B030BD0000000000000000000087
:1006000010B5044602F06CFFE36823B12046BDE854
:10061000104003F04DBB10BD0000000000000000C2
:10062000202383F3118802F0CBBE000000000000FD
:1006300008B502F0DDFE002383F3118808BD000039
:10064000104B984205D1104AD36943F00103D3619E
:1006500070470E4B984204D10B4AD36943F0020312
:10066000F5E70B4B984204D1074AD36943F00403E2
:10067000EDE7084B9842EBD1034AD36943F00803F6
:10068000E5E700BF000002400038024000040240DD
:1006900000080240000C02400000000000000000C2
:1006A0000269036803EB82031963704700000000CE
:1006B00008B500212C30FFF7F3FF08BD0000000053
:1006C0002DE9F843384E002734464FF003082179CE
:1006D00020684900A579C9B2FFF7B2FF026808FA9D
:1006E00001FC22EA0C020260C36805FA01F123EA68
:1006F0000C03C360C36801371943082FC16004F1BC
:100700000804E4D100254FF001082F464FF00309FB
:100710003068B488036908FA04F21A4202BF08FA82
:1007200007F10D43EDB2FFF78BFF6400036809FA90
:1007300004F401371C43082F046006F10806E7D1D2
:100740001A4C23689D422CD02946194802F0D8FA49
:100750002560184CA3696BB1FFF762FF02F0C0FE81
:10076000236913B1201DFFF74BFF0023C4E90633B3
:10077000FFF75EFF104C0F48FFF79AFFA3696BB1BC
:10078000FFF74EFF02F0ACFE236913B1201DFFF707
:1007900037FF0023C4E90633FFF74AFF0648FFF797
:1007A0001FFFBDE8F88300BF2C0D002000080020CB
:1007B000F05400082C0C00209009002000000000DC
:1007C00010B50446C3692C309988FFF769FFE369C7
:1007D00000200833E36110BD0000000000000000AD
:1007E00008B500212C30FFF75BFF08BD00000000BA
:1007F00038B50446C36900F12C052846B3F8051046
:1008000002F096F8E3692846D3F8011089B2FFF7A1
:1008100047FFE36900200733E36138BD00000000B3
:100820001FB504460123D0F88800B4F88C2001914C
:1008300001B91032934083619DF8041004F12C003B
:10084000FFF72EFF9DF8051004F14800FFF728FF81
:100850009DF8061004F16400FFF722FF04B010BDFC
:1008600003680A465B680149184700BF0055000845
:10087000F7B50446B4F88C60D0F8880094F88E1070
:10088000FFF7DEFE7300DAB203230568934025EA22
:10089000030505600125D0F800C005FA02F747EA14
:1008A0000C0707604768B54027EA050545604568BD
:1008B000B14029434160C16804F12C0521EA0301DC
:1008C000C160C168C160816821EA030383600223BB
:1008D000816893400B438360284601F061FDD4F8A2
:1008E0008010284604F1480502F022F8284601F05D
:1008F00057FDD4F88010284604F1640502F018F87A
:10090000284601F04DFD2846D4F8801002F010F87A
:10091000002120462368DB6803B0BDE8F04018479B
:1009200010B5002001F01CFE044CF328206004D90F
:10093000034802F0E5F90023236010BD8C08002075
:10094000105500080000000000000000000000003A
:100950002DE9F041061D044630460D4642F210775F
:10096000FFF74EFE40F2E73000214FF47A72002389
:10097000E7FB0501FFF7ACFC23460146024A30467F
:10098000BDE8F04103F034B9212100080000000067
:10099000C369D0F88420D3F8051070B5914204469D
:1009A0000AD00268D3F80150D66845B9B047E36968
:1009B000D3F80520C4F884200933E3612CE090F8D3
:1009C000842059798A4229D2013284F8842094F80B
:1009D000852099798A4224D2013284F8852094F8BE
:1009E0008620D9798A421FD2013284F8862094F871
:1009F00087201B7A9A421AD2013284F88720204637
:100A0000D4F88410B047E069D4F88420D0F80530D9
:100A10009A420FD10930E061002044E0D7D9013A71
:100A2000D3E7DCD9013AD8E7E1D9013ADDE7E6D9E5
:100A3000013AE2E794F884104379D0F801208B4220
:100A40001CBF0431B2FBF1F194F8853018BF4D1C86
:100A5000817908BF002599421BBF0433B2FBF3F331
:100A60000021591CA94294F8863038BF2946C5791F
:100A7000007A9D421BBF0433B2FBF3F30023013322
:100A8000994238BF194694F8873098421BBF043307
:100A9000B2FBF3F2002201329142204638BF1146E8
:100AA000FFF756FF012070BD0000000000000000AD
:100AB00038B504460D4602F013FDD4F8AC30002BD7
:100AC0001EDD02F00DFDD4F8AC3004F19800013BBE
:100AD000C4F8AC30D4F8943003F10802C4F8942080
:100AE0002A681A606A685A60D4F8942004F1900366
:100AF0009A4228BFC4F8944002F092FE002038BD0C
:100B00000220FCE7000000000000000000000000E0
:100B100038B5044602F0E4FC236913B1201DFFF749
:100B20006FFD4FF0FF35E3691A78042AFDD8DFE83E
:100B300002F0030A14253100236820469B68984779
:100B40000128F0D138BDD3F801100933E361002941
:100B5000E9D02046FFF7FCFEF4E7D3F80130A269A4
:100B600003EBC3031344E36194F8293023B1124823
:100B700004F12401FFF79CFF0121EAE794F82930F2
:100B800023B10D4804F12401FFF792FF0023C4E9CB
:100B90000633D7E7226A013204BFD3F8012022626C
:100BA000226A1AB909332562E361BCE7A369013AF5
:100BB000E3612262B7E700BFE00800200000000008
:100BC0002DE9F041061D044630460D4642F21077ED
:100BD000FFF716FD40F2E73000214FF47A72002350
:100BE000E7FB0501FFF774FB23460146024A304646
:100BF000BDE8F04102F0FCBF212100080000000028
:100C000038B5044602F06CFC236913B1201DFFF7D0
:100C1000F7FC4FF0FF35E3691A78042AFDD8DFE8C6
:100C200002F0030A14253100236820469B68984788
:100C30000128F0D138BDD3F801100733E361002952
:100C4000E9D02046FFF7BCFFF4E7D3F80130A269F2
:100C5000C3EBC3031344E36194F8293023B1124872
:100C600004F12401FFF724FF0121EAE794F8293079
:100C700023B10D4804F12401FFF71AFF0023C4E952
:100C80000633D7E7226A013204BFD3F8012022627B
:100C9000226A1AB907332562E361BCE7A369013A06
:100CA000E3612262B7E700BFE00800200000000017
:100CB0004FF0FF382DE9FF48022001F069FE924A0B
:100CC000924D5368924823F4604343F44043536089
:100CD00001F07EFD02F0D4FA02F0CAFD122105F106
:100CE000A400C5E924558B4F02F062FD002105F1F7
:100CF000980002F05DFD884802F012FAFFF710FE3E
:100D0000864A87493B68874801F0FAFF804801F02E
:100D100027FE854B854C186803F06AFA2046FFF7DA
:100D2000A7FDFFF77DFC824B2046C4E90633C4F8DB
:100D30002080FFF7EDFEFFF77BFC7E487E4E01F042
:100D4000DFFF7E4801F02CFB7D4801F0D9FF06F162
:100D50002C0001F025FBFFF763FC7A4B3046C6E917
:100D60000633C6F82080FFF74BFFFFF761FC42F225
:100D7000067002F0FDFE01F0E3F8FFF7A1FC7248F7
:100D800000F096FF58B1FFF74BFC704B2046C4E9CA
:100D90000633C4F82080FFF7BBFEFFF749FC6C4C1C
:100DA000FFF73EFCA669201DFFF72AFC23463146CB
:100DB000684A201D02F01CFFFFF73AFCDFF8CC91D7
:100DC000A9F1080A09F10C0B00238DF815300493E2
:100DD000FFF726FC4FF0FF31484602F0F9FC98B9C6
:100DE000D5F89020584602F10803C5F890305345D5
:100DF00028BF2B46116804915268C5F890300592BF
:100E000002F00EFD02F0B4FCFFF712FC9DF8158015
:100E100008F1FF33052B72D801A252F823F000BF6E
:100E2000570E0008390E0008FF0E0008C90D000813
:100E3000FF0E0008470E0008474A1368013313608D
:100E4000FFF73EFCC0E79DF810209DF811104348C5
:100E500001F056FFB8E7049C4149206F01F008FA01
:100E6000014618B92046FFF7FBFC0BE03D49206F17
:100E700001F0FEF958B92368294A5E683A49274BC0
:100E80002046B047236820461B6898479CE73749AF
:100E9000206F01F0EDF928B92368354A5E683549BD
:100EA0003B68EDE73449206F01F0E2F9064620BBCC
:100EB000324903F0DDF960670378BBB1324603A91C
:100EC00003F0BEFA039B0646187878B9F32E0BD8C8
:100ED000314601F04DFB58B90190314628483E603B
:100EE00001F00EFF019B98464146BBE70521B9E79B
:100EF0000146244801F004FFF6E70621B2E7414627
:100F0000214801F0FDFE5FE700380240E0080020C4
:100F10001C1100208C080020200A002030550008F9
:100F20003E550008445500086400F81F9009002051
:100F30006C0D00205355000894080020580C002028
:100F40005A55000830560008E00D0020740C0020AF
:100F5000080D002021210008280D002062550008FE
:100F60006D550008725500087A5500088155000833
:100F700084550008875500088F55000895550008CE
:100F800098550008A4550008B255000878090020BB
:100F90002DE9F041061D044630460D4642F2107719
:100FA000FFF72EFB40F2E73000214FF47A72002366
:100FB000E7FB0501FFF78CF923460146024A30465C
:100FC000BDE8F04102F014BE21210008000000003D
:100FD00038B5044602F084FA236913B1201DFFF7E7
:100FE0000FFB4FF0FF35E3691A78042AFDD8DFE8DC
:100FF00002F0030A13222E00236820469B689847BC
:101000000128F0D138BD59680833E3610029EAD0DE
:101010002046FFF7BDFFF5E75A68A36903EBC2035B
:10102000E36194F8293023B1114804F12401FFF75A
:101030003FFD0121ECE794F8293023B10C4804F17D
:101040002401FFF735FD0023C4E90633DAE7226AFD
:10105000013204BF5A682262226A1AB90833256233
:10106000E361C0E7A369013AE3612262BBE700BF25
:10107000E008002000000000000000000000000068
:1010800000212DE9F84F6FF03D020124FF264FF0BB
:10109000030A4FF06308E64BE648197059709970DF
:1010A000D97019719971D97119725C729A72DC7266
:1010B000197359739973D973197459749974D974CC
:1010C000197559759975D97559769976DC761A77A7
:1010D0005C7799775E711E76D97783F8201083F854
:1010E000211083F8221083F8231083F8241083F84A
:1010F000251083F8261083F8271083F8281083F82A
:10110000291083F82A1083F82C1083F82D4083F8D7
:101110002E2083F82F4083F8301083F8311083F8A5
:10112000321083F8331083F8341083F8351083F8C5
:10113000361083F8371083F8381083F8391083F8A5
:101140003A1083F83B1083F83C4083F83D1083F855
:101150003E1083F82B6083F83FA083F8401083F89B
:10116000411083F8421083F8431083F8441083F849
:10117000451083F8461083F84710AF4B00221970D2
:1011800059709970D97019719971D97119725C720D
:10119000D972197359739973D973197459749974ED
:1011A000D974197559759975D97519765E7183F861
:1011B0000A8059769976DC7659779977D97783F8CA
:1011C000201083F8211083F8221083F8231083F86D
:1011D000241083F8251083F8261083F8271083F84D
:1011E000281083F82A1083F82B1083F82C1083F82A
:1011F0002D4083F82F1083F8301083F8311083F8D6
:10120000321083F8331083F8341083F8351083F8E4
:10121000361083F8371083F8381083F8391083F8C4
:101220001C8083F8296083F82E8083F83A1083F8B5
:101230003B1083F83C1083F83D1083F83E1083F890
:101240003F4083F8411083F8421083F8431083F83D
:10125000441083F8451083F8461083F8471083F84C
:10126000481083F8491083F84A1083F84B1083F82C
:101270004C1083F84E1083F84F1083F8501083F809
:10128000514083F8531083F8541083F8551083F8B5
:10129000561083F8571083F8581083F8591083F8C4
:1012A0005A1083F8408083F84D6083F8528083F8A9
:1012B0005B1083F85C1083F85D1083F85E1083F890
:1012C0005F1083F8601083F8611083F8621083F870
:1012D000641083F8651083F8661083F8671083F84C
:1012E000681083F8691083F86A1083F86B1083F82C
:1012F00063A00023C0E92400C0E900234FF4E130DB
:101300004E4A4F4B0425C2E90003092393810A2367
:1013100093829223C2E907534FF48553494853629D
:10132000494B90601061DA60C2F818A003F1100216
:10133000C3E94422454A83F8184102F120051A60A6
:101340003032C3E94711C3E94911C3E9811183F878
:101350008F41C3F8FC1183F80012C3F89051C3F811
:1013600094213B4A3B4B0B27136093600C234FF0B7
:101370000E0C0D251061938290614FF00F031062E7
:10138000906208204FF01C0B9784334FA2F804C0E2
:10139000A2F834C093839471958194739475947773
:1013A00082F82640908582F82E40176382F83640F6
:1013B00095872A4D82F83E409763281D5A4602F0D1
:1013C000AFFE4FF0FF3900210C232548C5E90891F5
:1013D0002860244885F82910C5E90E04C5E90B07E3
:1013E000AB86A5F84010C5F844801F4D5A46281D0D
:1013F00002F096FE1D4B00212B601D4B4FF00F029B
:10140000C5E90E34C5E90B371623696285F8291042
:10141000AA86A5F840106B64C5F82090154D5A4671
:10142000281D02F07DFE0522AA8640F2011223E06B
:101430006C0D0020E0080020740C0020E00C00205F
:101440000038014000000240200A0020E857000850
:101450002C0D002000080240000402402C0C00204B
:10146000F8550008000C01409408002018560008A8
:1014700000100140900900201B4BA5F84020C5E951
:101480000B37C5E91163C5E91863C5E91C3AAB63BD
:101490006B65164BA5F85C20A5F878202B60144AE4
:1014A000144B00211A6041F218520220A5F8504056
:1014B0009A6104244FF48172C5E91F69C5F8209030
:1014C000696285F82910E863EF64AC65AF66A5F83A
:1014D0006C10C5F88410C5F88870A5F88C0085F8E4
:1014E0008E109A83BDE8F88F00040040D85500089C
:1014F000D8570008080D0020000000000000000080
:1015000008B501F075FF002383F3118808BD0000C2
:10151000816A10B5044619B188470023A36210BD43
:101520002430BDE8104002F043BB00000000000082
:10153000104B984205D1104AD36943F00103D3619F
:1015400070470E4B984204D10B4AD36943F0020313
:10155000F5E70B4B984204D1074AD36943F00403E3
:10156000EDE7084B9842EBD1034AD36943F00803F7
:10157000E5E700BF000002400038024000040240DE
:1015800000080240000C02400000000000000000C3
:101590000368197303689A68D207FCD5187B7047F3
:1015A00070B504461546FFF7C3FF022603224B0021
:1015B0009A4006FA03F3012600688E4020EA0200F2
:1015C00020602068072940EA03002060606820EA64
:1015D00006006060E06820EA0200E060E068E06029
:1015E000A06820EA0202A260A26843EA02038ABF5E
:1015F000A1F108028A00920007298CBF0420002074
:101600000F21A3600444236A914023EA010323626B
:10161000236A95401D43256270BD00000000000054
:1016200001238288012903FA02F30BD0022911D089
:1016300039B90A4A916819439160D16821EA0303D4
:10164000D3607047054A916821EA03019160D1682F
:101650000B43F5E7014A91681943F7E7000401409D
:10166000F8B50446267900687300DEB2A779FFF763
:101670005FFF0325026805FA06FC22EA0C020260FD
:10168000C36807FA06F623EA0C03C360C368A78899
:101690001E43C6600F26254B1A6A42F001021A62E9
:1016A000DA6A22F00102DA62DB6A07F47F7303F17F
:1016B000804303F5803307EA05029868920096405C
:1016C00020EA060098601A4E2068B04205D1012039
:1016D0009D6800FA02F22A430CE0164EB04202D195
:1016E00002209D68F5E7144EB04213D1986805FAC0
:1016F00002F202439A600126104DBE402B6820463C
:1017000033432B606B6823EA06036B60FFF788FFA7
:101710006E61F8BD0A4DA84202D104209D68D8E749
:10172000084DA842E7D107209D68D2E70038024063
:101730000004024000080240000C02400004014086
:1017400000100240001402400000000000000000F1
:101750000123428A81689340034A0869184002D0F5
:10176000013AFAD101207047B88201000000000060
:101770000123C18AC2688B4093617047000000005A
:10178000C38AC16803F11002012393408B61704743
:101790000148FFF7BDBE00BFB40D002000000000EF
:1017A0002DE9F04104460F461646FFF7E9FF2046B3
:1017B000FFF7CEFF054630B12046FFF7D9FF0125E0
:1017C0002846BDE8F08104F1040847F08001404656
:1017D000FFF7DEFE294684F820004046FFF7D8FEDA
:1017E00030702046FFF7C4FFEAE700000000000069
:1017F0002DE9F04104460F461646FFF7C1FF20468B
:10180000FFF7A6FF054630B12046FFF7B1FF0125DF
:101810002846BDE8F08104F1040839464046FFF748
:10182000B7FE31464046FFF7B3FE2046FFF7A0FF64
:10183000EEE70000000000000000000000000000D3
:1018400070B504460E46FFF79BFF2046FFF780FF6A
:10185000054628B12046FFF78BFF0125284670BDBD
:101860003146201DFFF794FE84F820002046FFF744
:101870007FFF94F8203003F0700384F82030EDE708
:101880003A21FFF7DDBF000000000000000000006B
:101890002DE9F043744B456804469D4285B069D0FC
:1018A000724A95420CBF05250625E068E18AFFF7DC
:1018B0003FFE4FF0030801264B000268DBB208FA36
:1018C00003F722EA07020260D0F800C006FA03F22A
:1018D00042EA0C020260426806FA01F122EA0101C2
:1018E00041604268218A4260C26822EA0702C260FF
:1018F000C268C260826822EA0702022782608268A8
:1019000007FA03F3134383602A46A068FFF748FEF3
:101910002A46618AA068FFF743FE2A46A18AA0688A
:10192000FFF73EFE314604F11800FFF799FE20460E
:10193000FFF71EFF00234E4A1946CDE90023201D64
:101940001A4601F03DF8626830211368204643F0E2
:1019500040031360FFF774FF70B162684548136875
:1019600023F04003136001F0CBF93546284605B05B
:10197000BDE8F083052598E7072206212046FFF7FA
:1019800037FF08B13C48EEE78DF80F0006212046EE
:101990000DF10F02FFF704FF054648B99DF80F90BF
:1019A000B9F1070F06D04946344801F0A9F9DCE740
:1019B0003348D8E72046FFF763FF20220D21204659
:1019C000FFF716FF25220E212046FFF711FFED221B
:1019D0000F212046FFF70CFFA32213212046FFF71B
:1019E00007FFFF2214212046FFF702FF08221821DB
:1019F0002046FFF7FDFE4A4641462046FFF7F8FE27
:101A00003F2229462046FFF7F3FE062239462046AC
:101A1000FFF7EEFE0C2249462046FFF7E9FE44227E
:101A200008212046FFF7E4FE50223E212046FFF722
:101A3000DFFE4A4616212046FFF7DAFE3022172144
:101A40002046FFF7D5FEA08B092809D8042809D81D
:101A50000630072101F08CFC0A4801F051F985E7B6
:101A60002820F6E71720F4E7003001400038004056
:101A7000A02E6300705600087D56000888560008A6
:101A80009D560008A8560008000000000000000055
:101A90003621FFF7D5BE0000000000000000000066
:101AA00038B504460D4694F820301BB12046FFF7A8
:101AB000EFFFF8E72A462046BDE838400A21FFF745
:101AC00097BE0000000000000000000000000000C1
:101AD000F8B505460E4695F820401CB12846FFF79C
:101AE000D7FFF8E7771C17F8142016F814102846CB
:101AF0000134FFF77DFE142CF5D1F8BD0000000085
:101B00002DE9F04104460D461746FFF739FE204601
:101B1000FFF71EFE064630B12046FFF729FE0126DC
:101B20003046BDE8F08104F104087F214046FFF70C
:101B30002FFD2F44AF4205D0404615F8011BFFF79B
:101B400027FDF7E72046FFF713FEE9E70000000056
:101B500070B50D46352104461646FFF771FE202369
:101B600083F3118801F02CFC002332462946A3623E
:101B70002046FFF7C5FF04F1240002F009F8BDE894
:101B80007040FFF7BDBC0000000000000000000036
:101B90003D4D04462E4680B53C4F3D4B1A889C4631
:101BA000013292B2B2F5B47F89BF00221A801A7056
:101BB0005A70BCF80020D8784FF0780C997842F22F
:101BC00010734143C1EB0121B1FBF3F1B2FBFCF314
:101BD0000CFB13234FF0640CC0EB0020B0FBFCF0B7
:101BE0004FF03C0C9BB23C3B002BB8BF5B42C3F1B7
:101BF0003C034B43B3FBFCF3401AC0B20144034423
:101C00003B2AC9B2DBB20DD9772A0FD9B32A10D932
:101C1000EF2A25D9B2F5967F024623D218460B4605
:101C2000114606E002460846194601E002461846FB
:101C3000134620736173A373A76095F820309BB19E
:101C400036213046FFF7FCFD0028F6D00822284652
:101C5000A118FFF77DFF40F2762001F089FF9CE795
:101C60000A46E1E70846DBE733212846FFF7E8FDAF
:101C70000028EBD13D213046FFF7E2FD96F82030F9
:101C8000002BF7D1E2E700BFB40D0020A15E11CA1E
:101C9000C80F00200000000000000000000000004D
:101CA00008B50148FFF774FFE00D002000000000B8
:101CB0003C4A13B5D369044643F00203D3613A4B5F
:101CC000196821F440111960196841F480111960F4
:101CD000596821F48061596059685960D96821F4C4
:101CE0004011D960D968D960996821F44011996090
:101CF000996841F400119960D16941F00201D16104
:101D00001A68092122F440221A601A6842F48022DB
:101D10001A605A6822F400725A605A685A60DA6887
:101D200022F44022DA60DA68DA609A6822F440220B
:101D30009A609A6842F400229A6000F11003C0E9A8
:101D40000A333C3001F034FD04F13000002101F091
:101D50002FFD1648FFF79CFD044608BB082206210C
:101D60001248FFF745FD302217211048FFF740FDCC
:101D700007210E48FFF794FE50223E210B48FFF743
:101D800037FD0B490948FFF7A3FEFF224FF4D0713E
:101D9000084B0948009401F093FE204602B010BDA4
:101DA0000124FAE70038024000040240B40D00208C
:101DB000D0560008A11C0008280E002000000000DA
:101DC000144B154A30B51A60144A15485A6002F58A
:101DD0005042C3E902229A6103229A8300221149E8
:101DE000C3E90922C3E904010F4910489A77C86082
:101DF0000F4983F8202000240B460025E3E9044521
:101E0000C1E90A330B4B78215A70642219709A7019
:101E1000DA7030BDB40D0020C85600080030014013
:101E20000500060007000400281100209117000893
:101E3000E00D0020C80F002000000000000000009E
:101E40004FF004092DE98848DFF8848000261F4CF4
:101E50003146204601274FF0030AD8F808301C4DC0
:101E60002A68B5F804C0D2F810E007FA0CFC1CEAA6
:101E70000E0FA346227804F101041DD0012A01D0DF
:101E8000042A15D104F801ACAA689A421CD003B107
:101E9000984758460021AB680136032E05F10C0522
:101EA000DED103B198474FF4347001F061FECDE705
:101EB000022204F8012CE7E7023A012A94BF04F851
:101EC000019C04F8017CDFE70131E5E714110020F3
:101ED000F0100020000000000000000000000000E2
:101EE000104B984205D1104AD36943F00103D361E6
:101EF00070470E4B984204D10B4AD36943F002035A
:101F0000F5E70B4B984204D1074AD36943F0040329
:101F1000EDE7084B9842EBD1034AD36943F008033D
:101F2000E5E700BF00000240003802400004024024
:101F300000080240000C0240000000000000000009
:101F40002DE9F74300264FF003093746154CDFF81B
:101F50006080217920684900A579C9B2FFF7C0FFE8
:101F6000026809FA01FC22EA0C020260C36805FA61
:101F700001F123EA0C03C360C36801361943032E41
:101F8000C16004F10C0408F8017BE2D180224FF417
:101F90009071054B0097054801F092FD03B0BDE834
:101FA000F08300BFF0100020411E0008D00F002079
:101FB00014110020000000000000000000000000DC
:101FC00000220A4B0A489A800A4A1860C3E9022094
:101FD000012018820848022198610820997199749B
:101FE0005A61988399771A62704700BFF0100020F9
:101FF00000000240812000080004024000000000B0
:10200000002313B5009306238DF800008DF80530EA
:102010008DF80110202383F31188164C01F0D0F9BC
:1020200001F05EFAD4F8AC30002B19DD01F058FA5B
:10203000D4F8AC300099013BC4F8AC30D4F89430FB
:102040000D4803F10802C4F8942019600199596001
:1020500004F190039A4228BFC4F8944001F0E0FBD9
:1020600001F086FB01F0C4F9002383F3118802B06C
:1020700010BD00BFE008002078090020000000002B
:102080002DE9F84304460D464FF000094FF0804615
:10209000DFF86080164F5FFA89F18D4225D9635CC5
:1020A000032B07D1002308F80130736A3B8009F144
:1020B0000109F0E7042B06D118F801000028F6D139
:1020C000FFF79EFFF3E7022BF1D118F80130002B48
:1020D000EDD13A88736A9B1A44F2CB229BB29342A9
:1020E000E5D9012008F80100EAE7BDE8F88300BF60
:1020F0001A1100201711002000000000000000004D
:10210000202383F3118801F08BB900000000000048
:1021100008B501F09DF9002383F3118808BD000084
:1021200010B50446FFF7ECFF236820461B6898476C
:10213000BDE81040FFF7ECBF000000000000000009
:10214000074B5A68D2070AD5064ADA60064ADA60AF
:102150004FF480729A615A6822F480725A60704714
:10216000003C0240EFCDAB890504030200000000F3
:102170004FF4E1730C4A9169013BC9079BB203D547
:10218000002BF8D1022070479169C90509D49269E2
:1021900012F4F05F14BF01200020002B08BF0220C2
:1021A00070470E20F9E700BF003C0240000000002D
:1021B00073B5037F1E4D8DF80530044601F090F98C
:1021C000D5F8AC30002B1CDD01F08AF90022D5F8DF
:1021D000AC301848013BC5F8AC30D5F8943003F169
:1021E0000801C5F894101A705A709A70DA70019A42
:1021F0005A6005F19003994228BFC5F8945001F048
:102200000FFB637F012B11D1A66901F069F92369E6
:10221000251D13B1284601F04BFD234631462846C3
:10222000054A02B0BDE8704001F0E2BC02B070BDEA
:10223000E0080020780900202121000800000000AB
:1022400008B50346084A03331068084923F003031E
:1022500003448B4206D901F05BFF0C2303604FF06F
:10226000FF3008BD1360FCE70408002000280020B0
:10227000884230B515D0431E13F8014F2046A4F113
:102280004102192A11F8012B98BF04F12000A2F194
:102290004105192D98BF2032801A01D1002CEBD1B5
:1022A00030BD0020FCE7000000000000000000003E
:1022B0000368B3F1804F0BD103F50E335A6A42F035
:1022C00001025A621A6B22F001021A631B6B7047FB
:1022D0002A4A934208D12A4B5A6A42F002025A62B1
:1022E0001A6B22F00202F0E7264A934208D1244BEF
:1022F0005A6A42F004025A621A6B22F00402E4E7BE
:10230000214A934208D11E4B5A6A42F010025A6287
:102310001A6B22F01002D8E71C4A934208D1184BDE
:102320005A6A42F020025A621A6B22F02002CCE76D
:10233000174A93420AD1124B1A6A42F004021A62F7
:10234000DA6A22F00402DA62DB6A7047114A9342C9
:1023500008D10B4B1A6A42F008021A62DA6A22F0BC
:102360000802F0E70C4A9342EFD1054B1A6A42F09B
:1023700010021A62DA6A22F01002E4E70004004058
:1023800000380240000800400010004000140040E7
:1023900000080140000C0140001001400000000056
:1023A000F8B50146FFF784FF82690368DA62027DAF
:1023B0000069012A00F1FF300CBF07220622032822
:1023C0000BD8DFE800F0026B737B986940EA0212D9
:1023D0009A611A6A42F001021A621A6842F0010216
:1023E0001A60494A934271D002F5806293426DD0DF
:1023F00002F5803293426BD002F58062934267D03F
:1024000002F58062934214BF012203224B680889BF
:102410004F7D3E498B425DD13D4CE16941F0010168
:10242000E161032419684600B440E54321EA04044D
:102430001C6002241968B4400C4301211C605C68D4
:102440008140002F5ED124EA01015960D968072834
:1024500001EA0501D960D968D960996805EA0105E2
:102460004FF002019D609C6801FA06F141EA040107
:1024700099608ABFA0F108018100890007288CBFFC
:10248000042000200F240344186A8C4020EA040032
:102490001862186A8A4002431A62F8BD986940EAD5
:1024A00002329A611A6A42F0100295E7D86940EA4E
:1024B0000212DA611A6A42F480728DE7D86940EA42
:1024C0000232DA611A6A42F4805285E702229DE7FD
:1024D00003229BE70F498B4204D10D4CE16941F087
:1024E00002019DE70C498B4204D1094CE16941F09E
:1024F000040195E709498B4293D1054CE16941F00C
:1025000008018DE72143A0E70004004000000240DD
:10251000003802400004024000080240000C024063
:10252000074B01385A6922F080025A6110F8012FD6
:1025300022B119680906FCD55A60F7E7704700BF59
:102540000038014000000000000000000000000012
:1025500008B50248FFF7E4FF01BEFEE70057000898
:1025600000F1006000F500200068704700000000E6
:1025700038B504460D46FFF7E3FDFFF7F9FD30B926
:1025800004F1006000F500200560FFF7F1FD034A4B
:10259000536843F00103536038BD00BF003C024064
:1025A00008B500F06DFFFFF7ABFD0A4B1B685BB190
:1025B00098470122084B5A61FFF7AAFD00F078FF07
:1025C000BDE8084001F0D4BB0449054800F0B8FB61
:1025D000EFE700BF28110020000401401057000859
:1025E0001957000800000000000000000000000073
:1025F00008B500F045FFFFF783FD0A4B5B685BB150
:1026000098470222084B5A61FFF782FD00F050FF05
:10261000BDE8084001F0ACBB0449054800F090FB60
:10262000EFE700BF281100200004014030570008E8
:102630001957000800000000000000000000000022
:1026400008B500F01DFFFFF75BFD0A4B9B685BB10F
:1026500098470422084B5A61FFF75AFD00F028FF03
:10266000BDE8084001F084BB0449054800F068FB60
:10267000EFE700BF28110020000401404057000888
:1026800019570008000000000000000000000000D2
:1026900008B500F0F5FEFFF733FD0A4BDB685BB1D0
:1026A00098470822084B5A61FFF732FD00F000FFFF
:1026B000BDE8084001F05CBB0449054800F040FB60
:1026C000EFE700BF28110020000401405057000828
:1026D0001957000800000000000000000000000082
:1026E00008B500F0CDFEFFF70BFD0A4B1B695BB18F
:1026F00098471022084B5A61FFF70AFD00F0D8FEF8
:10270000BDE8084001F034BB0449054800F018FB5F
:10271000EFE700BF281100200004014060570008C7
:102720001957000800000000000000000000000031
:1027300008B500F0A5FEFFF7E3FC0A4B1B6863B188
:1027400098474FF47872084B5A61FFF7E1FC00F0AC
:10275000AFFEBDE8084001F00BBB0449044800F09F
:10276000EFFAEEE740110020000401407057000826
:1027700019570008000000000000000000000000E1
:1027800008B500F07DFEFFF7BBFC0A4B1B6863B188
:1027900098474FF47C42084B5A61FFF7B9FC00F0B0
:1027A00087FEBDE8084001F0E3BA0449044800F0A0
:1027B000C7FAEEE73C1100200004014080570008F2
:1027C0001957000800000000000000000000000091
:1027D0000023F0B593B0024611934FF480304FF4CC
:1027E00000334FF48024CDE90A03354B354DCDE954
:1027F0000C43354B354CCDE90E53354B61682068A1
:10280000109303AB03C3217A06AD1970314B03F16A
:1028100010073E462C4618685968083303C4BB426B
:102820002546F7D13068716801AB03C32A48836835
:10283000C3F38103022B3FD0032B27D0012B3DD0C4
:10284000436812A9C3F3423301EB830353F8203CDE
:10285000214C12A8A168C1F30311014411F8301CE6
:10286000CB401360A068A168C0F3022012ACC1F392
:10287000C2212044214410F8440C11F8441C23FACE
:1028800000F0CB405060936013B0F0BD836812A994
:10289000C3F383430B4481688068104C10F4803F7D
:1028A0000F4818BF204613F83C3CC1F38151434305
:1028B0000131B3FBF1F3CBE7084BC9E7084BC7E79E
:1028C0009CFF0700C0FD0F0068FF1F009057000825
:1028D000D0FE3F00D054000800380240001BB70073
:1028E0000024F400000000000000000000000000D0
:1028F0000B4B0C4A99420C4B06D00C48814203D03A
:1029000000F58060814206D19268986812F4005FF9
:1029100018BF400070479268586812F4806FF7E75C
:1029200000080140003802401C110020000C01404A
:1029300038B505460C4601680848FFF7D9FF2B68F3
:10294000DA6A0132B0FBF2F0B0FBF4F2A04228BF29
:1029500002F1FF329A6200225A6238BD1C11002037
:1029600006480749836805C8B3FBF1F3B2FBF1F2EF
:10297000B0FBF1F1034800F0C3B900BF1C11002007
:1029800040420F00A05700080000000000000000B7
:102990004FF08052084B5A62084A11465368DB06D2
:1029A000FCD4136823F4C05343EAC02010604B6882
:1029B000DB06FCD4704700BF0038024000700040C6
:1029C00070B50068324D049CA84246D105F58435A7
:1029D0002E6A46F480562E62EE6A26F48056EE6227
:1029E000ED6A4FF441750129056002BF016841F0AD
:1029F00080010160012A02BF026842F00202026007
:102A0000012B02BF036843F001030360204B98428F
:102A1000204B0CBF9B685B68B3FBF4F3802B2BDC73
:102A2000402B2BDC202B2BDC102B2BDC082B2BDC66
:102A3000042B2BDC022BD4BF00230123026842EAC3
:102A4000C30303609DF81430012B02BF036843F4F5
:102A5000006303600023436070BD0F4DA842C0D1E6
:102A600005F500356E6A46F480466E622E6B26F4DC
:102A700080462E632D6BB4E70723DFE70623DDE7EF
:102A80000523DBE70423D9E70323D7E70223D5E7B0
:102A9000003001401C110020003800400000000000
:102AA00008B500F0EDFCFFF72BFB084B9B68DB073C
:102AB00003D5074B1B6803B19847FFF729FB00F0CC
:102AC000F7FCBDE8084001F053B900BF00300140F9
:102AD0004411002000000000000000000000000081
:102AE00008B500F0CDFCFFF70BFB084B9B68DB073C
:102AF00003D5074B1B6803B19847FFF709FB00F0AC
:102B0000D7FCBDE8084001F033B900BF00380040F1
:102B1000481100200000000000000000000000003C
:102B20002DE9F04385B0984601AB064600250846DE
:102B30001F469DF83090B0FBF2F4844602FB14016E
:102B400020460929CCB294BF30343734E4B29445DE
:102B500005F1010503F8014BEDD22C4633684445DD
:102B60001B680BD249463046984718B10C2005B077
:102B7000BDE8F0830134F1E7002DF8D03368013D62
:102B800030461B68795D98470028F5D0EEE70000D5
:102B90002DE9F04F0B46054614464FF00A0B85B061
:102BA0001E4616F8011B31B928462B685B6805B034
:102BB000BDE8F04F1847252902D02B681B6864E058
:102BC0005F784FF00008302F14BF20279E1C16F8A6
:102BD000011BA1F13000C0B2092804D92A2905D16E
:102BE00054F8040BC0B20BFB0808F0E72E2909D1FA
:102BF00016F8011BA1F13003092BF9D92A2901D1BB
:102C00000434F5E763293BD015D841294ED003D8C9
:102C10002529D2D03346C3E7532939D05829F9D1D1
:102C2000434610220097284654F8041BFFF778FF0C
:102C30000028EFD0B8E773292AD01BD8642901D027
:102C40006929E7D1A14659F8044B002C07DA2B6813
:102C50002D2128461B6898470028A5D16442434689
:102C60000A22214628460097FFF75AFF00289BD1E9
:102C70004C46CFE77529CDD143460A220097D2E7CB
:102C80002B6854F8041B1B68C9B228469847CFE745
:102C90002768013F17F8011F09B90434BAE72B6808
:102CA00028461B6898470028F4D07DE70027D4E920
:102CB000019823685FFA88FA03934F4501DB0C34CF
:102CC000A8E76FB9039B1022D95D302328460093F3
:102CD0000223FFF725FF00287FF466AF0137ECE7FA
:102CE000B8F1000FEED02B68514628461B68984774
:102CF0000028E7D058E700000000000000000000B6
:102D00000FB413B504AB53F8044B0193202383F3A2
:102D1000118800F055FB2146019A0648FFF738FF5D
:102D200000F066FB002383F3118802B0BDE8104079
:102D300004B07047B00B002000000000000000004D
:102D40000FB407B504AA52F8041B04480192FFF718
:102D50001FFF03B05DF804EB04B07047B00B002018
:102D600070470000000000000000000000000000AC
:102D700008B5064C40F2DE3000F0FAFE206800286C
:102D8000F8D003685B689847F4E700BF7012002032
:102D90000EB403B503AA52F8041B00F5C8700192E3
:102DA000FFF7F6FE02B05DF804EB03B07047A0F544
:102DB000CA70EDE700000000000000000000000005
:102DC000F0B51746314A904246D1314CE26942F0A3
:102DD0000102E261032402684D00AC40E64322EAAE
:102DE0000404046002240268AC401443046001241B
:102DF00042688C40002F47D122EA04044460C26834
:102E0000072902EA0602C260C46803FA05F242EA30
:102E10000402C260836806EA03064FF0020386607C
:102E2000826803FA05F343EA0203836086BFA1F1D7
:102E300008039A008A0007298CBF042300230F216E
:102E40001844036A914023EA010303620723016ADD
:102E500093400B430362F0BD0E4A904204D10C4CE8
:102E6000E26942F00202B4E70B4A904204D1084CF6
:102E7000E26942F00402ACE7084A9042AAD1044C4D
:102E8000E26942F00802A4E71443B7E700000240F9
:102E9000003802400004024000080240000C0240DA
:102EA000D0F81021D0F81C1100F588739B1A8B42C2
:102EB00028BF0B46C0F820317BB1002380F81831C1
:102EC00043685B68DA60D0F820215A60C268126AF1
:102ED0001A601A6842F001021A6070470000000090
:102EE000436859680A6822F00F020A60597B1A6821
:102EF0000E238B405360D0F81021D0E947310A44AB
:102F00005B1A00F588718A4228BF00F11002C0F8F0
:102F10001C31C0F810212BB9012380F81831036847
:102F20001B681847FFF7BCBF00000000000000004E
:102F3000FFF7D6BF00000000000000000000000006
:102F4000D0F81C31FF2B16D8D0F814315A1CC0F819
:102F500014211970D0F8142100F588739A4224BF07
:102F600000F11003C0F81431D0F81C310133C0F85F
:102F70001C31002070470C2070470000000000004A
:102F8000FFF7DEBFA0F5C870FAE700000000000000
:102F900090F818310BB1FFF783BF704700000000B5
:102FA000FFF7F6BFA0F5C870FAE7000000000000C8
:102FB0008368D0F828215B685B68C3F163039B1AC0
:102FC00048BF633383B1531CC0F82831024492F8E0
:102FD0002C310B70D0F82831622B4FF0000301DD4B
:102FE000C0F82831184670470B20704700000000D9
:102FF0002DE9FF4190F88F310446002B6CD0384DFD
:10300000384E05F1900720460DF10701FFF7D0FF7C
:10301000002861D194F800329DF807201BB184F894
:103020000002C4F8FC01082AD4F8FC3105D1002BB9
:10303000E9D0013BC4F8FC31E5E70D2A01D00A2AAA
:1030400027D1002BDFD04FF00008234483F898816C
:10305000314604F5CC7001F00BF90123C4F80402E9
:1030600084F800328DF80D3084F88F81202383F3AB
:10307000118800F0A5F900F033FAD5F8AC304345DB
:1030800010DC00F075FB00F0B3F9002383F3118826
:10309000B9E7612BB7D8591C2344C4F8FC1183F855
:1030A0009821B0E700F01CFAD5F8AC3004F5CA71ED
:1030B000013BC5F8AC30D5F894300B4803F1080259
:1030C000C5F8942019600399BA42596028BFC5F821
:1030D000945000F0A5FBD4E704B0BDE8F08100BF38
:1030E000E008002095550008780900200000000045
:1030F000C268D2E90013054A9342054A0CBF9268A0
:103100005268B2FBF1F29A60704700BF003801408C
:103110001C11002000000000000000000000000062
:10312000002373B50446C0681A4681898068FFF79A
:1031300047FEE3683B4A5B68934258D13A4B1A6AB0
:1031400042F480421A62DA6A22F48042DA62DB6A6E
:1031500000262046FFF7CCFFE06809214368334A88
:103160001E618069234600F023FFE56843686A68B2
:103170006060111D9960296A2869196001230C217A
:1031800084F81831D160C02151611A46A98AFFF72D
:1031900017FEE068334632460921C06900F008FF97
:1031A000E16843684A68A060101D986004F5967055
:1031B000D8606320496A58601960196841F00101BC
:1031C0001960D36843F40053D360194B1A6802B9ED
:1031D0001C60184C236843B9009380224FF490710F
:1031E000154B164800F06CFC206002B070BD144A0C
:1031F00093420AD10C4B5A6A42F400325A621A6B5B
:1032000022F400321A631B6BA2E70E4A93429FD14D
:10321000054B5A6A42F480225A621A6B22F48022C9
:10322000F0E700BF0038014000380240312F0008AD
:103230007012002074120020712D0008501100201F
:103240000044004000480040000000000000000072
:1032500010B52023044683F3118800F0B1F8012350
:1032600084F88F3100F0C4F8002383F3118810BD77
:10327000FFF7EEBFA0F5CA70FAE7000000000000FB
:1032800008B500F0E5FDBDE8084000F001B8000019
:1032900000F03EB800000000000000000000000048
:1032A0004FF08043002258631A610222DA607047AF
:1032B0004FF080430022DA607047000000000000F9
:1032C0004FF080435863704700000000000000008A
:1032D00010B500F0D5F84FF080431A6992070CD56D
:1032E00000241C61202383F3118800F099F800F07A
:1032F0000FFB00F0ADF884F3118800F0D9F8BDE8B9
:10330000104000F035BD000000000000000000008B
:10331000134B02215A6A1C2042F001025A621A6BB6
:1033200042F001021A630F4A1B6B936843F00103DA
:1033300093600D4B5A6842F21073B2FBF3F24FF0F8
:103340008043013A9A624FF6FF72DA6200229A6174
:103350005A63DA605A6001225A611A6000F008B8B4
:1033600000380240002004E01C1100200000000092
:103370000122090100F1604303F56143C9B283F8FA
:10338000001300F01F039A4043099B0003F16043C0
:1033900003F56143C3F880211A6070470000000004
:1033A000044BD3E90A23134302D0034800F0A8BA20
:1033B000704700BFC0120020205800080000000025
:1033C00010B5064CD4E90A1251EA020302D00448AF
:1033D00000F096FA0123E36210BD00BFC012002086
:1033E000305800080000000000000000000000004D
:1033F00010B5064CA36A13B9E36A002B02DC04483B
:1034000000F07EFA0023E36210BD00BFC01200206E
:10341000405800080000000000000000000000000C
:1034200010B5064CA36A002B01DDE36A13B1044812
:1034300000F066FA0123E36210BD00BFC012002055
:1034400050580008000000000000000000000000CC
:1034500010B5064CA36A002B02DDE36A002B02DCE8
:10346000034800F04DFA0023E36210BDC0120020B3
:10347000605800080000000000000000000000008C
:10348000202310B583F31188074CA36A002B01DBBE
:10349000E36A13B1054800F033FAA36A0133A3626B
:1034A000002383F3118810BDC0120020705800085B
:1034B000202310B583F31188074CA36A002B01DD8C
:1034C000E36A13B1054800F01BFAA36A013BA3624B
:1034D000002383F3118810BDC0120020805800081B
:1034E000054B9A6A002A02DBDB6A002B02DC0348E8
:1034F00000F006BA704700BFC012002090580008C4
:10350000044B9A6A12B9DB6A002B02DC024800F015
:10351000F7B97047C0120020A05800080000000052
:103520000022024BC3E900339A607047C0120020AA
:1035300010B50446FFF7D4FF14B9094800F0E0F9CC
:103540000023A2682375074B1B6899689142FBD240
:103550005A6823606260204614605C6010BD00BF42
:10356000C0580008C0120020000000000000000049
:1035700038B50446202383F31188FFF751FF237DDC
:103580000025052B0BD8DFE803F0030A0A081C16F8
:10359000FFF75EFF85F3118838BDA3691D604FF00A
:1035A000FF332046A361FFF7C3FFFFF751FF00235E
:1035B00083F31188F0E7A569FFF792FFAB68013349
:1035C000AB60D4E9003213605A60E8E70000000005
:1035D00010B50446FFF784FF14B9094800F090F9CC
:1035E0000023A2682375074B1B6899689142FBD89A
:1035F0005A6823606260204614605C6010BD00BFA2
:10360000D0580008C0120020000000000000000098
:1036100070B506460D4C2569FFF772FF23682E75BD
:103620001A6854602260012223611A75EFF309833E
:103630002A69243B9A4202D9054800F061F92946DB
:103640002069BDE87040FCF7B3BD00BFC012002088
:10365000B05800080000000000000000000000005A
:1036600070B50D4686B00446FFF74AFF6B1C0D4E41
:1036700013D0336929460C4A01A800F0B9FA204654
:10368000FFF7C6FFFFF72CFF049B13B101A800F062
:103690000FFB3369986906B070BD2046FFF7B8FF8D
:1036A000F7E700BFC01200207135000800000000DD
:1036B000F8B504460D46124E3769FFF721FFA268A0
:1036C000BB68A5619A4204D82046BDE8F840FFF7E0
:1036D0002FBF3846FFF77CFF012305463461237571
:1036E000EFF309830269243B9A4202D9054800F0AE
:1036F00007F929462046BDE8F840FCF759BD00BF50
:10370000C0120020B05800080000000000000000B7
:10371000044B1A681B6990689B68984294BF00200C
:1037200001207047C01200200000000000000000CF
:1037300038B50D4C236820691A6854602260012254
:103740001A752361FFF744FF0546EFF30983026909
:10375000243B9A4202D9054800F0D2F82946206954
:10376000BDE83840FCF724BDC0120020B058000866
:1037700008B5FFF7C5FEFFF7B3FE064B1A681B69D5
:1037800092689B689A4203D9BDE80840FFF7D0BF12
:1037900008BD00BFC01200200000000000000000B3
:1037A000FFF7C6BF0000000000000000000000009E
:1037B00038B50D46044608B1002902DA034800F086
:1037C0009FF8C4E90044A56038BD00BFF058000868
:1037D00038B504460D46FFF793FE14B90E4800F0C5
:1037E0008FF8A3685A1E002AA26012DA1DB94FF0A2
:1037F000FF30A36038BD094B62681B6929469C6194
:103800001C605A60052013606360BDE83840FFF714
:1038100027BF0020EEE700BF00590008C0120020BB
:1038200010B50446FFF75CFE14B9094800F068F8CB
:10383000A3680133002BA36009DC206803682360C0
:103840005C600023BDE810408361FFF771BE10BDCE
:1038500020590008000000000000000000000000E7
:10386000FEE7000000000000000000000000000073
:1038700038B50025194CFFF753FE00F0A9F9802256
:10388000174904F13000C4E90A5500F0B9F8154BA6
:103890002061036101230375134B144AD96821F495
:1038A000E0610904090C0A431149DA60CA6842F070
:1038B0008072CA600F490A6842F001020A60102251
:1038C000DA77202283F82220FFF76AFD85F311883A
:1038D00062B6BDE83840084800F0DAB8C0120020EF
:1038E000305900080004002000ED00E00003FA0554
:1038F000F0ED00E0001000E050590008000000006A
:1039000072B6014B5862FEE7C012002000000000B2
:103910002DE9F84F4FF00008C146254CFFF7E0FDB8
:10392000FFF7DEFD656904F114074FF080435B6A21
:10393000268C9BB2AA689E1BB6B2964220D34FF04B
:10394000200AAA68238CD5F80CB0134423842B6872
:10395000B61ABB425F606361C5F80C8001D1FFF706
:10396000A7FCFFF775FD89F311882869D8478AF30A
:103970001188FFF755FD6569AB689E42E1D2D4E737
:103980006269BA4212D0916823848E1B96604FF60A
:10399000FF72A868904228BF104602282CBF181852
:1039A000981CBDE8F84F80B2FFF78ABCBDE8F88FDD
:1039B000C012002000000000000000000000000015
:1039C000202383F31188FFF7FBBC000000000000F8
:1039D00008B5FFF70DFD002383F3118808BD000033
:1039E00010B5044610B90448FFF78AFF2146BDE828
:1039F00010400820FFF734BE705900080000000096
:103A000082600222828270470000000000000000F5
:103A100010B50446FFF764FD14B91948FFF770FFAD
:103A20006268500707D1A368590704D19A4202D2AD
:103A30009B1A9F2B02D81248FFF762FFE368FF2B07
:103A400001D8236913B90E48FFF75AFFD4E90130B2
:103A500040F8103CA0F1440340F8143C236920389E
:103A600040F8243C636940F8203C064B40F8043C95
:103A7000E3688360022303750023437510BD00BF14
:103A800080590008C101000800000000000000008B
:103A900010B5D0E90132044655219A420CD8FFF7FF
:103AA0008FFF2046FFF7B4FF04460021FFF700FE1A
:103AB000FFF78EFF204610BD03F8011BEDE7000065
:103AC000F8B50C4616461F46054640B19F2906D953
:103AD00040EA01035B0702D1FF2A00D817B9134857
:103AE000FFF70EFF2B4655212A199A421AD8203C7F
:103AF0002C44FFF765FFA4F12403E360069B2046F6
:103B000044F8203C0A4B002144F8043C0223256180
:103B1000A38244F8247CA660FFF7CAFDFFF758FF94
:103B20002046F8BD03F8011BDFE700BFA0590008DD
:103B3000C1010008000000000000000000000000BB
:103B4000024B1B6998610F20FFF762BDC012002075
:103B500010B50446FFF734FF2046BDE81040FFF7DC
:103B6000EFBF0000000000000000000000000000A7
:103B700010B50446FFF724FF2046FFF731FFBDE8EC
:103B80001040FFF725BF000000000000000000000B
:103B900010B5054C2369036098610320FFF738FDD9
:103BA0002369986910BD00BFC0120020000000000A
:103BB0000346006820B100221A608161FFF7B8BC9B
:103BC000704700000000000000000000000000003E
:103BD000054B03F11402C3E905224FF0FF32DA610D
:103BE00000221A84704700BFC012002000000000AD
:103BF000F8B505460C4616461F46FFF771FC0DB199
:103C000006B114B92548FFF77BFE4FF08043586A90
:103C1000234BC5E903671A4652F8146F022C21465C
:103C200038BF022196421F4680B210D14FF6FF7472
:103C30001884A14294BF40180019C3E9055580B209
:103C4000C5E90066A960BDE8F840FFF729BB1B8CF9
:103C5000B268C41AA4B20C1902D3A41A36680AE0D6
:103C6000A24208D94FF6FF70844294BF1819181861
:103C700080B2FFF725FBB368A3420CD373682E60B4
:103C80006B601D607560AC60B3681C1B4FF0FF3348
:103C9000B460FB61F8BDE41AE0E700BFD05900084A
:103CA000C012002000000000000000000000000022
:103CB00038B50446FFF714FC14B92248FFF720FE7C
:103CC000214923680A4652F8140FA0420CD06168BB
:103CD0000B602368596000219342E16003D09A6829
:103CE000A1680A449A6038BD002093424B615A6033
:103CF000E06003D1BDE83840FFF7DABA9868A268FF
:103D00000D8C104498604FF080435C6A641BA4B231
:103D1000A042E8D9031B012B09D80234B4F5803F37
:103D20000BD2281980B2BDE83840FFF7C9BA4FF668
:103D3000FF74844228BF0446F3E70448FFF7E0FD20
:103D4000EFE700BFE0590008C0120020C05900088A
:103D5000EFF30983203383F30988002383F3118869
:103D6000704700000000000000000000000000009C
:103D7000202310B583F311880D4B5B6813F40063A7
:103D800012D0EFF309844FF0807344F8043CA4F19F
:103D9000200383F30988FFF7BBFC18B1054B44F8F7
:103DA000083C10BD044BFAE783F31188F9E700BF24
:103DB00000ED00E0D5010008E0010008000000006F
:103DC000704700000000000000000000000000003C
:103DD000704700000000000000000000000000002C
:103DE000704700000000000000000000000000001C
:103DF000FEE70000000000000000000000000000DE
:103E0000F0B5082000261049D1E901341D460A68A2
:103E1000043AAC4210D8E21CD21ADD1E22F0030292
:103E2000AC4238BF00221344CA689A4209D801380C
:103E300001F11001E8D1F0BD52F8047F45F8047B90
:103E4000E7E743F8046BF0E7F059000800000000D2
:103E500008B51A4B1A6942F07F4242F47F0242F4DD
:103E6000FF4242F040021A611A6922F4FF4222F036
:103E700040021204120C1A611A699A6962F08052A7
:103E80009A619A6902F080529A619A695A694FF070
:103E9000FF325A615A6900225A615A695A6A42F0DD
:103EA00080525A621A6B42F080521A631B6B00F008
:103EB00007F8BDE8084000F023B900BF0038024011
:103EC00000230121084A10B5C2E9003307484468BD
:103ED0001030236042F8313001310829F7D14FF01A
:103EE000FF32034B5A6010BD78120020805A000840
:103EF0000060024000000000000000000000000020
:103F00002DE9F84F0446884692469B46FFF7E8FAAB
:103F1000062C09D80127224DA7402A68174207D04E
:103F200000263046BDE8F88F1E48FFF7E9FCF7E7AA
:103F30001D4B3A432A601D49DA694FEA041901EB27
:103F40000416013445F834A042F0807205EBC40435
:103F5000C4F804B0DA619A6A0C4642F080729A6240
:103F60009B6ABAF1000F0AD06A68B3681A4203D19B
:103F70004146F07BFFF7FCF96B681F436F6004EB71
:103F800009014B68497B1A6854F8090022F00F02B6
:103F90001A600E228A40426000221A60C1E700BF08
:103FA00078120020705A000800380240805A000839
:103FB000F8B51F4604460D461646202383F31188A4
:103FC000FFF7FEF93B46324629462046FFF798FFA9
:103FD0000446FFF70DFA002383F311882046F8BD4D
:103FE00010B40468437B21684268D940126801F02C
:103FF0000E010A420ED0827B01FA03F36360064B86
:10400000013253F832402CB103EBC2035868234607
:1040100010BC184710BC7047781200200000000048
:1040200008B5FFF72DFA0448FFF7DAFFFFF740FA6B
:10403000BDE80840FFF79CBE805A00080000000061
:1040400008B5FFF71DFA0448FFF7CAFFFFF730FA7B
:10405000BDE80840FFF78CBE905A00080000000041
:1040600008B5FFF70DFA0448FFF7BAFFFFF720FA8B
:10407000BDE80840FFF77CBEA05A00080000000021
:1040800008B5FFF7FDF90448FFF7AAFFFFF710FA9C
:10409000BDE80840FFF76CBEB05A00080000000001
:1040A00008B5FFF7EDF90448FFF79AFFFFF700FAAC
:1040B000BDE80840FFF75CBEC05A000800000000E1
:1040C00008B5FFF7DDF90448FFF78AFFFFF7F0F9BD
:1040D000BDE80840FFF74CBED05A000800000000C1
:1040E00008B5FFF7CDF90448FFF77AFFFFF7E0F9CD
:1040F000BDE80840FFF73CBEE05A000800000000A1
:1041000070470000000000000000000000000000F8
:10411000014B1868704700BF08080020000000002D
:1041200003460244934200D1704703F8011BF9E7AC
:10413000F8B5CD1C25F0030508350C2D38BF0C252E
:10414000002D064601DBA94203D90C233360002071
:10415000F8BD00F0E5FA21490A6814469CB9204FE1
:104160003B6823B92146304600F072F83860294692
:10417000304600F06DF8431C23D10C2330463360E9
:1041800000F0D6FAE3E723685B1B17D40B2B03D9A7
:1041900023601C44256004E06368A2420CBF0B60EE
:1041A0005360304600F0C4FA04F10B00231D20F0E8
:1041B0000700C21ACCD01B1AA350C9E72246646874
:1041C000CCE7C41C24F00304A042E3D0211A3046FB
:1041D00000F03EF80130DDD1CFE700BFB81200207B
:1041E000BC120020000000000000000000000000E1
:1041F00038B5104B04461D68AB6BB3B9182000F0FE
:1042000087FA0246A86320B940210B4B0B4800F007
:1042100027F90B490B4BC0E900130B4B00218360BE
:104220000B2383810120C2E904010022AB6B1C61D6
:104230005A6138BD08080020005B0008175B0008C1
:104240000E33CDAB34126DE6ECDE0500000000004D
:1042500038B50023054D044608462B60FDF7F0FFF6
:10426000431C02D12B6803B1236038BDCC1300205E
:10427000164B2DE9F0411F680546BC6D0E46ECB9A2
:10428000502000F045FA0246B86520B95721104B7E
:10429000104800F0E5F8C0E90044C0E90244C0E974
:1042A0000444C0E90A44C0E90C44C0E90E44C0E932
:1042B0001044C0E9124484610477446231462846C0
:1042C000BA6D0123BDE8F04100F00AB808080020EB
:1042D000005B0008805B0008000000000000000098
:1042E000F0B508B9106888B104460F46204614F8A6
:1042F000015B17F8016B1EB965B92846156005E02A
:10430000B542F6D1002BF0D114600370F0BD1C460D
:104310000CE015B90E4614F8013B16F8015BAB42F0
:10432000F7D1002BF3D0002304F8013C1460EDE733
:10433000012B2DE9F047864601D0242B06D9FFF743
:10434000E7FE162303600020BDE8F0878C463A4E56
:1043500060461CF8014BA55D15F00805F8D12D2C21
:1043600033D14FF001089CF8004000F1020C002B03
:104370005DD0102B0CD1302C0AD19CF8000000F03D
:10438000DF0058284ED110239CF801400CF1020C9C
:10439000002508F10047013FB7FBF3F9284603FB6E
:1043A000197AA4F13006092E18D83446A34224DD28
:1043B000002D1FDB81451DD301D1A2451ADB01254C
:1043C00000FB03401CF8014BEBE72B2C08BF9CF8CB
:1043D0000040A84608BF00F1020CC8E7A4F141065E
:1043E000192E01D8373CE1E7A4F16106192E04D853
:1043F000573CDBE74FF0FF35E4E7002D08DA2223D6
:104400003846CEF80030002A9ED00CF1FF3107E08C
:10441000B8F1000F00D04042002A95D0002DF4D111
:10442000116091E73024002BB2D10823B0E7302C83
:10443000A3D00A23ACE700BF315C000800000000F5
:1044400013460A46014602480068FFF771BF00BFE5
:10445000080800200000000000000000000000002C
:104460001FB514461A46094B05461B68D8684CB15F
:10447000074BCDE9013400912B46064900F0F8F8CE
:1044800000F0DEFD044B1C46F3E700BF08080020E7
:10449000F05B0008FD5B0008085500080000000004
:1044A000002310B50446C0E90033C0E9043383603B
:1044B00081814366C2818361194608225C30FFF71F
:1044C0002FFE054B24626362044BA362044BE3623C
:1044D000044B236310BD00BFD14D0008014E0008FE
:1044E000414E0008714E000800000000000000006E
:1044F000014900F0D5B800BF81510008000000005C
:1045000070B568254A1E55430E4605F17401FFF744
:104510000FFE044640B10021C0E900160C30A06037
:1045200005F16802FFF7FCFD204670BD00000000A9
:10453000014800F0DDB800BFC813002000000000F3
:10454000014800F0DDB800BFC813002000000000E3
:10455000014800F0CDB800BFC313002000000000E8
:10456000014800F0CDB800BFC313002000000000D8
:1045700010B50446FFF7ECFFA3691BB1BDE810407E
:10458000FFF7EEBFC4E912332365134B134A1B68D0
:10459000A262A34208BF0123204608BFA36100F026
:1045A0001FF86060204600F01BF8A060204600F075
:1045B00017F800220421E0606068FFF771FF012214
:1045C0000921A068FFF76CFF02221221E068FFF7C3
:1045D00067FF0123A361D1E7F05A0008F144000806
:1045E000F8B50746FFF7A4FF1E4B1E68B36913B961
:1045F0003046FFF7BDFF4836D6E90134013B03D50D
:1046000033680BB33668F7E7B4F90C50D5B9164BDD
:1046100004F15800E360656600F062F8FFF790FF70
:1046200008222946C4E90155C4E904552560A5615D
:1046300004F15C00FFF774FDC4E90D55C4E912559F
:104640002046F8BD6834D9E704213846FFF758FF03
:10465000044630600028D5D1FFF772FF0C233B6081
:10466000EEE700BFF05A00080100FFFF0000000065
:104670000EB403B5014603AB054853F8042B00689C
:10468000019300F0DDF802B05DF804EB03B0704771
:1046900008080020000000000000000000000000EA
:1046A0002DE9F84306468846002700F14804D4E97E
:1046B0000195B9F1010905D52468002CF7D13846D8
:1046C000BDE8F883AB89012B07D9B5F90E3001336A
:1046D00003D029463046C04707436835E9E7000064
:1046E0007047000000000000000000000000000013
:1046F0007047000000000000000000000000000003
:1047000070470000000000000000000000000000F2
:10471000024B01461868FFF70BBD00BF08080020D8
:104720000148FFF7E5BF00BFC413002000000000F0
:104730000148FFF7E5BF00BFC413002000000000E0
:1047400038B50546002943D051F8043C0C1F002B16
:10475000B8BFE418FFF7E4FF1E4A1368104633B9E8
:10476000636014602846BDE83840FFF7E1BFA3420C
:104770000AD921686218934201BF1A685B6852180F
:10478000226063600460EDE71A465B680BB1A342E8
:10479000FAD911685018A0420BD120680144501872
:1047A00083421160DED118685B6801441160536078
:1047B000D8E702D90C232B60D4E7206821188B425C
:1047C00001BF19685B680918216063605460C9E71C
:1047D00038BD00BFB812002000000000000000003B
:1047E000936810B4013B002B936007DA9469A342ED
:1047F00001DB0A2902D110BC00F042BB1368581C2F
:1048000010601970084610BC7047000000000000DE
:10481000F8B506460F461446D518AC4201D1002023
:1048200007E03A46304614F8011BFFF7D9FF431C56
:10483000F3D1F8BD000000000000000000000000FF
:104840002DE9F04F0D461446984606469DB018B126
:1048500083690BB9FFF78CFE894B9D421BD17568AC
:104860006B6ED90705D4AB899A0502D4A86DFFF702
:104870003FFFAB891B0701D52B69EBB929463046B1
:1048800000F06EFBC0B16B6EDC070ED54FF0FF3051
:104890001DB0BDE8F08F7B4B9D4201D1B568DFE7CD
:1048A000794B9D4208BFF568DAE7AB899805EDD4EE
:1048B000A86DFFF725FFE9E70023099320238DF872
:1048C000293030234FF00109CDF80C80DFF8BC818E
:1048D0008DF82A3023469A4613F8012B0AB1252A6F
:1048E000F9D1BAEB040B0BD05B4622462946304681
:1048F000FFF78EFF013000F0AA80099A5A4409920E
:104900009AF80030002B00F0A28000234FF0FF3215
:10491000CDE905230AF1010A049307938DF853307A
:104920001A935446052214F8011B584800F0E8FC7D
:10493000049AD8B9D10644BF20238DF85330130709
:1049400044BF2B238DF853309AF800302A2B15D012
:10495000544600204FF00A0C079A214611F8013BFB
:10496000303B092B4ED9B0B1079214E0A0EB0803FD
:1049700009FA03F31343A2460493D2E7039B191DDC
:104980001B680391002BBBBF5B4242F002020793FE
:104990000793B8BF049223782E2B0CD163782A2B6F
:1049A00035D1039B02341A1D1B680392002BB8BF3C
:1049B0004FF0FF330593DFF8E4A00322504621783F
:1049C00000F09EFC40B14023A0EB0A0003FA00F087
:1049D000049B01340343049314F8011B06222C4862
:1049E0008DF8281000F08CFC00283FD0294B1BBB11
:1049F000039B073323F0070308330393099B3B44CE
:104A0000099367E70C4601200CFB0232A5E700235F
:104A10004FF00A0C194601340593204610F8012B7B
:104A2000303A092A03D9002BC5D00591C3E70446C3
:104A300001230CFB0121F0E703AB00932A4630462B
:104A4000154B04A9AFF300800746781CD6D16B6ED6
:104A5000D90705D4AB899A0502D4A86DFFF750FE9B
:104A6000AB895B063FF512AF099811E703AB0093E2
:104A70002A463046084B04A900F082F8E4E700BF5C
:104A8000605D0008805D0008405D0008A05D0008D2
:104A9000AA5D00080000000011480008A65D00089B
:104AA0002DE9F047164699468A680B6907469342F6
:104AB000B8BF1346336091F843200C46DDF82080E0
:104AC0000AB1013333602368990642BF3368023369
:104AD0003360256815F0060506D104F1190AE3686C
:104AE00032689B1AAB4228DC94F84320131E2268DC
:104AF00018BF012392062DD44946384604F14302DB
:104B0000C047013020D02368E56803F00603042B7A
:104B100018BF002532684FF00006A36808BFAD1A21
:104B2000226908BF25EAE5759342C4BF9B1AED18B8
:104B30001A34B5421AD1002008E0012352464946F2
:104B40003846C047013003D14FF0FF30BDE8F08751
:104B50000135C4E73020E11881F843005A1C94F86D
:104B600045102244023382F84310C5E70123224650
:104B700049463846C0470130E6D00136D9E7000043
:104B80002DE9FF470C46277E9146782F80469A46AE
:104B90000C9904F1430207D8622F0AD8002F00F0C5
:104BA000D980582F00F0A48004F1420684F84270A6
:104BB0003AE0A7F16303152BF6D801A050F823F0D3
:104BC000194C00082D4C0008A94B0008A94B0008FF
:104BD000A94B0008A94B00082D4C0008A94B000860
:104BE000A94B0008A94B0008A94B00083B4D000841
:104BF0005D4C00081D4D0008A94B0008A94B00089A
:104C00005D4D0008A94B00085D4C0008A94B000849
:104C1000A94B0008254D00080B6804F142061A1D37
:104C20001B680A6084F842300123A4E02568086804
:104C30002E0600F104030AD505680B60002D03DA87
:104C40002D236D4284F843300A235E4819E015F0A5
:104C5000400F05680B6018BF2DB2EFE70B682568A1
:104C6000181D0860280601D51D6802E06906FBD5FD
:104C70001D886F2F0CBF08230A235248002184F897
:104C800043106668002EA8BF2168A660A4BF21F06B
:104C9000040121600DB9002E4DD01646B5FBF3F18D
:104CA00003FB1157C75D06F8017D2F46BB420D4639
:104CB000F4D9082B0BD12368DF0708D52369616875
:104CC0009942DEBF302306F8013C06F1FF36921B05
:104CD00022614B4621464046CDF800A003AAFFF7CB
:104CE000DFFE01304CD14FF0FF3004B0BDE8F0875B
:104CF000344884F845700E68236856F8045B1F0634
:104D00000E6014D5D90744BF43F0200323601DB9BA
:104D1000236823F0200323601023AFE7236843F0C8
:104D2000200323607823284884F84530E3E75E06B3
:104D300048BFADB2E6E71646BBE70B6826681D1D07
:104D400060690D6035061B6801D5186002E07106C8
:104D5000FBD51880002316462361BAE70B681A1D9D
:104D60000A601E6800213046626800F0C9FA08B186
:104D7000801B606063682361002384F84330A8E7E8
:104D80003246494640462369D0470130ABD02368BC
:104D90009B0713D4E068039B9842B8BF1846A4E76A
:104DA0000123324649464046D04701309BD0013569
:104DB000E36803995B1AAB42F2DCEBE7002504F1F0
:104DC0001906F5E7C05D0008D15D0008000000008D
:104DD00010B50C46B1F90E1000F0A2FA0028ABBFD6
:104DE000636DA3891B1823F48053ACBF6365A38153
:104DF00010BD0000000000000000000000000000E6
:104E00002DE9F0411F468B890546DB050C46164609
:104E100005D502230022B1F90E1000F0F1F9A389A3
:104E2000324623F48053A38128463B46B4F90E1042
:104E3000BDE8F04100F07CB8000000000000000078
:104E400010B50C46B1F90E1000F0DAF9431CA38935
:104E500015BF606523F4805343F48053A38118BFCA
:104E6000A38110BD00000000000000000000000051
:104E7000B1F90E1000F0ECB80000000000000000D6
:104E8000F8B50E461446054618B183690BB9FFF70D
:104E90006FFB214B9C422BD16C68A369A360A38953
:104EA0001A072FD523696BB323692068F6B2C01A9D
:104EB00063693746834204DC2146284600F060F9E6
:104EC00030BBA3680130013BA36023685A1C2260F9
:104ED0001E706369834204D0A389DB0706D50A2EBE
:104EE00004D12146284600F04BF988B93846F8BD70
:104EF0000A4B9C4201D1AC68CFE7094B9C4208BFEA
:104F0000EC68CAE72146284600F02AF80028CBD0F2
:104F10004FF0FF37EAE700BF605D0008805D0008E2
:104F2000405D0008000000000000000000000000DC
:104F300038B50446084611460022054D2A601A4637
:104F400000F0B6FA431C02D12B6803B1236038BDD0
:104F5000CC13002000000000000000000000000052
:104F6000324B70B51D6806460C4625B1AB6913B9C6
:104F70002846FFF7FDFA2E4B9C420FD16C68A3899F
:104F8000B4F90C2019072CD4DD0611D409233360A1
:104F900042F040034FF0FF30A3813EE0254B9C429E
:104FA00001D1AC68EBE7244B9C4208BFEC68E6E714
:104FB000580712D5616B41B104F14403994202D004
:104FC0003046FFF7BDFB00236363A38923F024036E
:104FD000A3810023636023692360A38943F008034E
:104FE000A38123694BB9A38903F42073B3F5007F30
:104FF00003D02146304600F043F9A089B4F90C20D3
:1050000010F001030AD00023A36063695B42A3612F
:10501000236943B910F08000BAD170BD810758BF31
:105020006369A360F4E70020F7E700BF08080020E9
:10503000605D0008805D0008405D00080000000021
:10504000062008B500F0ACF9012000F039FA0000A4
:1050500038B50023054D044608462B6000F0F0F9F2
:10506000431C02D12B6803B1236038BDCC13002050
:105070008A892DE9F041054610070C4658D44B6843
:10508000002B05DC0B6C002B02DC0020BDE8F0815E
:10509000E66A002EF9D0002312F480522F682B60AC
:1050A00032D0606DA3895A0705D56368C01A636B57
:1050B0000BB1236CC01A00230246E66A2846216A17
:1050C000B047431CA38906D129681D292CD82A4A38
:1050D000CA40D60728D5002262602269D90422601E
:1050E00004D5421C01D12B6803B96065616B2F6048
:1050F0000029CAD004F14403994202D02846FFF7A0
:105100001FFB00206063C1E7216A01232846B047E6
:10511000411CC7D12B68002BC4D01D2B01D0162BEE
:1051200001D12F60B1E7A38943F04003A381ADE72C
:105130000F69002FA9D0930718BF00230E6808BF7E
:105140004B69A6EB07080F608B60B8F1000F9CDD80
:1051500043463A462846216AA66AB047002806DC3C
:10516000A3894FF0FF3043F04003A3818EE707444B
:10517000A8EB0008E9E700BF0100402000000000A4
:1051800038B50B6905460C4613B90025284638BDCD
:1051900018B183690BB9FFF7EBF9144B9C421BD193
:1051A0006C68B4F90C30002BEFD0626ED00704D4D9
:1051B000990502D4A06DFFF79BFA28462146FFF718
:1051C00057FF636E0546DA07E0D4A3899B05DDD45B
:1051D000A06DFFF795FAD9E7054B9C4201D1AC6869
:1051E000DFE7044B9C4208BFEC68DAE7605D00082B
:1051F000805D0008405D0008000000000000000025
:1052000038B50446084611460022054D2A601A4664
:1052100000F03EF9431C02D12B6803B1236038BD76
:10522000CC1300200000000000000000000000007F
:1052300070B50E46B1F90E10144600291D4696B001
:1052400007DA00232B60B3891A0610D44FF4806369
:105250000EE06A4600F0CCF80028F2DB019A02F476
:105260007042A2F500535A425A412A60EEE74023A9
:105270000020236016B070BD000000000000000098
:105280008B8973B59D0706460C4607D504F1470385
:10529000236023610123636102B070BD6A4601ABE4
:1052A000FFF7C6FF009905463046FEF741FF48B9B3
:1052B000B4F90C309A05EFD423F0030343F0020352
:1052C000A381E3E70D4BB362A389206043F0800321
:1052D000A381009B20616361019B5BB13046B4F9FF
:1052E0000E1000F09DF828B1A38923F0030343F0CA
:1052F0000103A381A0890543A581CDE7F1440008FE
:10530000034610B5C9B202449342184601D10020A9
:1053100003E0047801338C42F6D110BD0000000098
:1053200038B50446084611460022054D2A601A4643
:1053300000F0B6F8431C02D12B6803B1236038BDDE
:10534000CC1300200000000000000000000000005E
:105350001F2938B504460D4604D9162303604FF0C3
:10536000FF3038BD426C12B152F821304BB92046A3
:1053700000F036F82A4601462046BDE8384000F0E5
:1053800017B8012B0AD0591C03D116230360012042
:10539000E7E70024284642F8254098470020E0E748
:1053A000024B01461868FFF7D3BF00BF0808002072
:1053B00038B50023064D0446084611462B6000F020
:1053C0005FF8431C02D12B6803B1236038BD00BFD6
:1053D000CC130020000000000000000000000000CE
:1053E00000F03EB8000000000000000000000000D7
:1053F00038B50023064D0446084611462B6000F0E0
:1054000027F8431C02D12B6803B1236038BD00BFCD
:10541000CC1300200000000000000000000000008D
:1054200038B50023054D044608462B6000F020F8EF
:10543000431C02D12B6803B1236038BDCC1300207C
:105440005822024B4FF0FF301A607047CC130020F7
:105450005822024B4FF0FF301A607047CC130020E7
:105460005822024B4FF0FF301A607047CC130020D7
:105470005822024B00201A60704700BFCC13002056
:105480005822024B4FF0FF301A607047CC130020B7
:105490005822024B4FF0FF301A607047CC130020A7
:1054A0005822024B4FF0FF301A607047CC13002097
:1054B0005822024B4FF0FF301A607047CC13002087
:1054C000FEE70000000000000000000000000000F7
:1054D00000000000000000000102030406070809A4
:1054E00000000000010203040000000000000000B2
:1054F0004469703A203078253032580D00000000A1
:1055000041636B2025640D0A0000000000000000CC
:105510000D5573696E672064656661756C7420490A
:10552000440D00000000000000000000000000002A
:1055300032303231313230335F303035380051540F
:10554000657374000D25532025533B2049443D25A8
:10555000750D00566962726F0D0042656570657267
:105560000D0042746E2025752025750D0050696E62
:10557000670056657273696F6E0025532025530DC1
:105580000047657449440025532C25640D0A0053D7
:105590006574494400202C004E65772049443A2028
:1055A00025750D004545206572726F723A2025758C
:1055B0000D00556E68616E646C6564204D736720E4
:1055C00025750D0000000000000000000000000034
:1055D0000000000000000000110B0008E1050008B9
:1055E00091090008210800080000000000000000E8
:1055F0000000000000000000D10F0008B106000804
:10560000C1070008000000000000000000000000CA
:105610000000000000000000010C0008E107000885
:10562000F10700080000000000000000000000007A
:105630000002000000B80701B400000000000002F2
:10564000000000B90901B4000000000000020000E1
:1056500000900B01B40000000000000000000000FA
:105660000003000000000000000000000000000037
:10567000434320527374204661696C0D00434320FC
:1056800057204661696C0D00434320522F57204636
:1056900061696C3B2072706C3D25750D00434320A1
:1056A00052204661696C0D00434320696E69742085
:1056B0006F6B0D0000000000000000000000000003
:1056C00000000000000000001115000800000000AC
:1056D0000B080C00105B11E51213154621B62210C1
:1056E000191D1A1C1BC71C001DB223EA242A250001
:1056F000261F2C812D312E09000000000000000023
:105700000D486172644661756C740D000000000004
:10571000566563746F72353800556E68616E646CDF
:1057200065642025530D000000000000000000000B
:10573000566563746F72354300000000000000007E
:10574000566563746F723630000000000000000080
:10575000566563746F72363400000000000000006C
:10576000566563746F723638000000000000000058
:10577000566563746F72394300000000000000003A
:10578000566563746F724530000000000000000031
:10579000030406080C101820300000000000000070
:1057A000414842467265713D25754D487A3B20411E
:1057B000504231467265713D25754D487A3B204116
:1057C000504232467265713D25754D487A0D000094
:1057D0000000000000000000B121000800000000EF
:1057E0000000000000000000612D0008F12F0008FB
:1057F000812F0008A12F0008912D000871320008A8
:1058000070FEFFFF00000000852F0008A52F000894
:105810006CFEFFFF0000000075320008AF2D00088D
:105820005356233300000000000000000000000079
:105830005356233400000000000000000000000068
:105840005356233500000000000000000000000057
:105850005356233600000000000000000000000046
:105860005356233700000000000000000000000035
:105870005356233800000000000000000000000024
:105880005356233900000000000000000000000013
:1058900053562331300000000000000000000000DB
:1058A00053562331310000000000000000000000CA
:1058B000737461636B206F766572666C6F7700003E
:1058C00063685363685265616479490000000000B1
:1058D00063685363685265616479416865616449CE
:1058E00000000000000000000000000000000000B8
:1058F000636853656D4F626A656374496E697400CD
:10590000636853656D5761697454696D656F75742B
:105910005300000000000000000000000000000034
:10592000636853656D5369676E616C4900000000E0
:105930006D61696E000000000000000000000000C2
:1059400069646C65000000000000000000000000B9
:105950004059000810130020C0130020010000006F
:105960006138000800000000000000000000000096
:105970006368546864536C656570530000000000F0
:1059800063685468644372656174655375737065C8
:105990006E64656449000000000000000000000023
:1059A00063685468644372656174655374617469B3
:1059B0006300000000000000000000000000000084
:1059C000636854696D65416464580000000000001C
:1059D00063685654446F536574490000000000002A
:1059E00063685654446F5265736574490000000043
:1059F000645E0008D0130020D0130020D0130020D4
:105A0000645E0008000000000000000000000000CC
:105A1000645E0008000000000000000000000000BC
:105A2000645E0008000000000000000000000000AC
:105A3000645E00080000000000000000000000009C
:105A4000645E00080000000000000000000000008C
:105A5000645E00080000000000000000000000007C
:105A6000645E00080000000000000000000000006C
:105A7000646D6153747265616D416C6C6F63490054
:105A80000060024008600240010000000000000BBE
:105A9000006002401C600240020000000004010C93
:105AA0000060024030600240040000000008020D67
:105AB000006002404460024008000000000C030E39
:105AC0000060024058600240100000000010040F07
:105AD000006002406C6002402000000000140510CD
