:020000040800F2
:1000000000040020A1010008A3010008A138000895
:10001000A3010008A3010008A3010008A301000830
:10002000A3010008A3010008A3010008C1500008B3
:10003000A3010008A3010008A3010008A301000810
:10004000A3010008A3010008A3010008A301000800
:10005000A3010008A3010008F13800084139000895
:1000600091390008E1390008313A0008915300083D
:10007000B1530008D1530008F1530008115400088F
:100080003154000851540008A3010008A3010008DE
:10009000A3010008A3010008A3010008813A000899
:1000A000A3010008C1300008A3010008A301000853
:1000B00021460008A3010008A3010008A3010008CD
:1000C000A3010008A3010008A3010008F13D0008F6
:1000D000313E0008A3010008A3010008A3010008A5
:1000E000D13A0008A3010008A3010008A3010008F9
:1000F000A3010008A3010008A3010008A301000850
:10010000A3010008A3010008A3010008A30100083F
:10011000A3010008A3010008A3010008A30100082F
:10012000A3010008A3010008A3010008A30100081F
:10013000A3010008A3010008A3010008A30100080F
:1001400085010008D11500080131000811330008AD
:040150006101000841
:1001600010B5054C237833B9044B13B10448AFF3F1
:1001700000800123237010BDB8080020000000009B
:100180006473000808B5034B1BB103490348AFF380
:10019000008008BD00000000BC0800206473000857
:1001A00026E000F000F8FEE700000000000000007C
:1001B0002DE9F04FC1F80CD0C3689D46BDE8F08F23
:1001C00004F0BEFA002383F311882846A0470020DC
:1001D00004F066FE04F09CFA04F08AFC04F0B0FA25
:1001E00000DFFEE70000000000000000000000004B
:1001F00072B6274880F30888264880F30988264885
:100200004EF60851CEF200010860022080F31488F7
:10021000BFF36F8F04F08CFF04F092FF4FF0553066
:100220001E491B4A91423CBF41F8040BFAE71C49A6
:10023000184A91423CBF41F8040BFAE719491A4A9F
:100240001A4B9A423EBF51F8040B42F8040BF8E7F0
:1002500000201749174A91423CBF41F8040BFAE7C6
:1002600004F086FF04F074FF134C144DAC4203DA23
:1002700054F8041B8847F9E700F0EAFE104C114DD2
:10028000AC4203DA54F8041B8847F9E704F068BF6E
:1002900000040020000800200000000800000020EA
:1002A000000400206873000800080020B80800203F
:1002B000B808002080180020400100085001000804
:1002C0005001000854010008000000000000000078
:1002D00053B94AB9002908BF00281CBF4FF0FF31AD
:1002E0004FF0FF3000F074B9ADF1080C6DE904CEA9
:1002F00000F006F8DDF804E0DDE9022304B0704701
:100300002DE9F047089E0D4604468E46002B40F02E
:1003100083808A42174647D9B2FA82F34BB1C3F1C0
:10032000200105FA03FE20FA01F19F4041EA0E0E7A
:100330009C404FEA1748BEFBF8FC1FFA87F908FB00
:100340001CE20CFB09F0210C41EA024290420AD95E
:10035000BA180CF1FF3180F01881904240F21581FB
:10036000ACF1020C3A44121AB2FBF8F008FB10226E
:1003700000FB09F1A4B244EA0244A14209D93C19A4
:1003800000F1FF3280F00381A14240F20081023887
:100390003C44641A002140EA0C401EB10022DC40BB
:1003A000C6E90042BDE8F08702B9FFDEB2FA82F387
:1003B000002B4FD18D1A01214FEA124E1FFA82F8FD
:1003C000B5FBFEFC0EFB1C5508FB0CF0220C42EAB0
:1003D0000545A84207D97D190CF1FF3202D2A84287
:1003E00000F2E98094462D1AB5FBFEF00EFB105585
:1003F00008FB00F8A4B244EA0544A04507D93C191B
:1004000000F1FF3202D2A04500F2D9801046A4EBE1
:10041000080440EA0C40C0E78B4208D9002E00F0E7
:10042000B1800021C6E900050846BDE8F087B3FAAF
:1004300083F100294BD1AB4202D3824200F2B98052
:10044000841A65EB030301209E46002EAAD0C6E95C
:10045000004EA7E79F40C3F12002D1404FEA174E5C
:10046000B1FBFEF01FFA87F80EFB101124FA02F21E
:100470009D4000FB08FC2A43150C45EA0145AC45AC
:1004800004FA03F409D97D1900F1FF3180F08F805F
:10049000AC4540F28C8002383D44A5EB0C05B5FB21
:1004A000FEF10EFB115C01FB08F995B245EA0C4523
:1004B000A94507D97D1901F1FF3274D2A94572D936
:1004C00002393D44A5EB090541EA004178E7C1F155
:1004D00020078B4022FA07FC4CEA030C25FA07F4AC
:1004E0004FEA1C4EB4FBFEF91FFA8CF80EFB1944C0
:1004F00020FA07F309FB08FA8D401D432B0C43EA51
:100500000444A24502FA01F200FA01F309D91CEBF6
:10051000040409F1FF3048D2A24546D9A9F10209E5
:100520006444A4EB0A04B4FBFEF00EFB104400FB91
:1005300008FAADB245EA0444A24508D91CEB04040C
:1005400000F1FF352DD2A2452BD90238644440EA90
:100550000940A0FB0289A4EB0A044C45C6464D465F
:1005600019D316D05EB1B3EB0E0264EB050404FAA6
:1005700007F722FA01F31F43CC40C6E900740021BB
:10058000BDE8F087314630460CE78C46EBE6104676
:10059000FFE64345E6D2B8EB020E69EB0C050138E5
:1005A000E0E72846D3E711468CE78146B9E70846DD
:1005B00073E7084649E7ACF1020C3D4413E7023803
:1005C0003C4424E7000000000000000000000000A0
:1005D000704700BF000000000000000000000000A5
:1005E000072903D90179054803F032BD012988BFE5
:1005F0000123017188BF4371704700BF8068000804
:1006000037B5002503682946DB6804469847C4F8D7
:10061000845003B030BD0000000000000000000066
:10062000202383F3118804F073B800000000000059
:1006300008B504F085F8002383F3118808BD000095
:1006400010B5044604F0F4F8E36823B12046BDE891
:10065000104004F0E5BC10BD0000000000000000E8
:10066000104B984205D1104AD36943F00103D3617E
:1006700070470E4B984204D10B4AD36943F00203F2
:10068000F5E70B4B984204D1074AD36943F00403C2
:10069000EDE7084B9842EBD1034AD36943F00803D6
:1006A000E5E700BF000002400038024000040240BD
:1006B00000080240000C02400000000000000000A2
:1006C000831E012B03D9831F5842584170470120D4
:1006D0007047000000000000000000000000000063
:1006E000031F012B03D9C31F5842584170470120F3
:1006F0007047000000000000000000000000000043
:100700000269036803EB820319637047000000006D
:1007100010B50446C3692C309988FFF7F1FFE369EF
:1007200000200833E36110BD00000000000000005D
:1007300008B500212C30FFF7E3FF08BD00000000E2
:100740001FB504460123D0F88800B4F88C2001912D
:1007500001B91032934083619DF8041004F12C001C
:10076000FFF7CEFF9DF8051004F14800FFF7C8FF22
:100770009DF8061004F16400FFF7C2FF04B010BD3D
:1007800003680A465B680149184700BF9068000883
:10079000F7B50446B4F88C60D0F8880094F88E1051
:1007A000FFF75EFF7300DAB203230568934025EA82
:1007B000030505600125D0F800C005FA02F747EAF5
:1007C0000C0707604768B54027EA0505456045689E
:1007D000B14029434160C16804F12C0521EA0301BD
:1007E000C160C168C160816821EA0303836002239C
:1007F000816893400B438360284602F079FFD4F868
:100800008010284604F1480503F03AFA284602F021
:100810006FFFD4F88010284604F1640503F030FA25
:10082000284602F065FF2846D4F8801003F028FA25
:10083000002120462368DB6803B0BDE8F04018477C
:100840004FF41672024B1A600022024B5A71704725
:10085000CC0D0020D40800200000000000000000A3
:1008600010B5002003F024F80C4CF328206004D9C4
:100870000B4803F0EDFB002323600A4B226893F83A
:10088000A41102F03F0262F3050183F8A41193F86A
:10089000A81162F3050183F8A81110BDD408002047
:1008A000A0680008E0100020000000000000000028
:1008B0002DE9F041061D044630460D4642F2107700
:1008C000FFF7BEFE40F2E73000214FF47A720023BA
:1008D000E7FB0501FFF7FCFC23460146024A3046D0
:1008E000BDE8F04104F03CBB71340008000000009A
:1008F000C369D0F88420D3F8051070B5914204463E
:100900000AD00268D3F80150D66845B9B047E36908
:10091000D3F80520C4F884200933E3612CE090F873
:10092000842059798A4229D2013284F8842094F8AB
:10093000852099798A4224D2013284F8852094F85E
:100940008620D9798A421FD2013284F8862094F811
:1009500087201B7A9A421AD2013284F887202046D7
:10096000D4F88410B047E069D4F88420D0F805307A
:100970009A420FD10930E061002044E0D7D9013A12
:10098000D3E7DCD9013AD8E7E1D9013ADDE7E6D986
:10099000013AE2E794F884104379D0F801208B42C1
:1009A0001CBF0431B2FBF1F194F8853018BF4D1C27
:1009B000817908BF002599421BBF0433B2FBF3F3D2
:1009C0000021591CA94294F8863038BF2946C579C0
:1009D000007A9D421BBF0433B2FBF3F300230133C3
:1009E000994238BF194694F8873098421BBF0433A8
:1009F000B2FBF3F2002201329142204638BF114689
:100A0000FFF756FF012070BD00000000000000004D
:100A100038B504460D46FFF703FE4FF0FF3323625F
:100A200023682046C4E906551B689847BDE838404E
:100A3000FFF7FEBD00000000000000000000000005
:100A400008B5044B1B79183350F823100248FFF700
:100A5000DFFF08BDD4080020100A002000000000BD
:100A60002DE9F0414F4D00272C464FF00308217926
:100A700020684900A679C9B2FFF7F2FD026808FABA
:100A800001FC22EA0C020260C36806FA01F123EAC3
:100A90000C03C360C36801371943082FC16004F118
:100AA0000804E4D10024012726464FF003082868F3
:100AB000A988036907FA01F21A4202BF07FA06F28F
:100AC0001443E4B2FFF7CCFD0368490008FA01F1D2
:100AD00001361943082E016005F10805E7D1324DB2
:100AE0002B689C425BD02146304803F0B1FA0022CB
:100AF0002F4B2C60DA602F4DDA6D9A65AB696BB1C4
:100B0000FFF78EFD03F094FE2B6913B1281DFFF74C
:100B100097FD0023C5E90633FFF78AFD264D2548DA
:100B2000FFF706FEAB696BB1FFF77AFD03F080FEBD
:100B30002B6913B1281DFFF783FD0023C5E9063398
:100B4000FFF776FD1C481D4D261104F00F04FFF73A
:100B500057FDFFF765FDFFF76BFD2246314618484C
:100B600003F076FA2846F1B2FFF73AFD154B2A79E1
:100B700093F8A61102F00F0262F3030183F8A611A5
:100B800093F8AA110A4862F3030183F8AA11FFF748
:100B900057FF0B2C8EBFC0230B4B1B5DAB71BDE809
:100BA000F08100BF680F00204C080020C0680008DA
:100BB00090090020AC0C0020100A0020D40800206E
:100BC000CE680008E0100020706A000800000000F5
:100BD00038B5C3680446A3B1FFF722FDA36D04F145
:100BE000540253F8045B934288BF04F11003A365D9
:100BF000E368013BE360FFF71BFD29460148FFF76F
:100C000007FF38BD100A00200000000000000000AF
:100C10000368112B0CD8026D013342F8041B00F15C
:100C200048018A4288BF021D0265036000207047A8
:100C30000C207047000000000000000000000000D1
:100C40002DE9F0411E4F05463B6C1B681BB11D4949
:100C50000C30FFF7DDFF3B6C5B6823B11A4905F1EF
:100C60000C00FFF7D5FF194B1B79032B01D0052B87
:100C700014D14FF0080805F1680405F10C063B6C2F
:100C800053F80830012B16D0022B10D05BB908F1B5
:100C90000408B8F1200F04F10404F0D12846FFF74E
:100CA00097FFBDE8F08130462168FFF7B1FF30467D
:100CB0002168FFF7ADFF30462168FFF7A9FFE6E79F
:100CC00000080020380F0020A80F0020D4080020C2
:100CD00038B504460D46FFF7A3FC4FF0FF332362FF
:100CE00023682046C4E906551B689847BDE838408C
:100CF000FFF79EBC000000000000000000000000A4
:100D0000012910B5044613D115491648FFF7E0FF35
:100D10007CB90522144C94F8AA3162F307131348E6
:100D200084F8AA31FFF78CFE4FF46173C4F89C314C
:100D300010BD012C04D10C4C062294F8AA31ECE72A
:100D4000022CF5D10722084C094994F8AA31094828
:100D500062F3071384F8AA31FFF75AFEE4E700BFF5
:100D6000606B0008AC0C0020E0100020900900200F
:100D70002F100020100A00200000000000000000DA
:100D800010B50C46002832D1B9B9394B1B683BB1BC
:100D900038493948FFF73CFF3848FFF719FF10BDC5
:100DA000374B1B683BB937493348FFF731FF3348AE
:100DB000FFF746FFF3E73449F6E70129EFD1334B5C
:100DC0001A79032A01D0052AE9D12D4A116841B9BF
:100DD0004FF4616059712C4910602D48FFF718FEDF
:100DE000DDE700211160012226495A71F5E701284B
:100DF00021D10129D3D127492748FFF769FF234B88
:100E000019790846FFF75CFC244A58B1022192F890
:100E1000AA3161F3071382F8AA315A221F4BC3F893
:100E20009C21BCE70846FFF75BFC0028F5D00421B5
:100E300092F8AA31EDE70228B1D10129AFD11549C5
:100E40001548FFF745FF114B19790846FFF738FCA5
:100E5000124A20B192F8AA3164F30713DBE708467F
:100E6000FFF73EFC0028D8D0032192F8AA31D0E742
:100E7000CC0D00206E1000209C090020900900205D
:100E8000C80D0020600D00202F100020D408002085
:100E9000100A0020606B0008AC0C0020E01000205D
:100EA000826908B51AB9C3690BB9FFF711FF08BD0C
:100EB00000212DE9F04F5C4C85B0236CA34204F176
:100EC00020030CBFC4E91034C4E91043236C1A1F7B
:100ED0001C3342F8041F9A42FBD1FFF7A1FB534B8E
:100EE0000026D3F89871DFF858A19F4216BF1A4622
:100EF00007F1CC0203F1CC07C3F89821C2F8C8600F
:100F0000FFF796FBB846DFF83C91DFF83CB1D7F825
:100F1000C830B34240F2848098F8025057F8263027
:100F200005F00F05072D03932ED898F90330019390
:100F30009DF80E3065F303038DF80E30DAB213F02E
:100F40000F0325D199F804100846FFF7B9FB02F00A
:100F5000F00208B1502A05D00846FFF7C1FB78B16E
:100F6000602A0DD1226C52F82530013342F8253029
:100F700012222F4B1A602F492F48FFF791FF03E0F1
:100F8000702A01D1FFF75CFC013608F10408BEE7C6
:100F9000012B1AD199F804100846FFF791FB02F0D3
:100FA000F00208B1502A06D00846FFF799FB002846
:100FB000E6D0602AE4D1226C52F82530013342F8A1
:100FC000253012221A4B5A60D5E7DAF80030002B90
:100FD000DAD199F804100846FFF772FBA8B102F0C5
:100FE000F002102A0DD115491348FFF759FF019B54
:100FF0006E33A1BF226C52F82530013342F8253000
:10100000C2E7202AF3D15946EEE70846FFF768FB0E
:101010000028ECD002F0F002302AE4D0402AF1E7B8
:1010200005B0BDE8F08F00BF00080020E0100020F0
:1010300090090020606B0008AC0C0020806A00085A
:10104000CC0D0020D4080020E0690008000000005A
:101050002DE9FF48022002F043FE954A954C536863
:10106000954823F4604343F44043536002F058FD35
:1010700003F0AEFA03F0A4FD122104F1A400C4E9C8
:1010800024448E4E03F03CFD002104F1980003F04F
:1010900037FD8B4803F0ECF9FFF7E2FB894A8A49F8
:1010A00033688A4802F0D4FF834802F001FE884B7F
:1010B000884D186804F054FA0421874802F0C8FFEC
:1010C0002846FFF765FB04238DF80D3000236B6283
:1010D000039B8248AB6202F00BFB02F0D9F8FFF7EA
:1010E000BFFC7F4801F00CFEA04638B128467D4980
:1010F000FFF78EFC42F2607003F0E2FE7A4CFFF7DD
:101100008FFAA569201DFFF79BFA29462346774AE7
:10111000201D03F025FFFFF78BFADFF81C92744DBA
:1011200000238DF815300493FFF77AFA4FF0FF3162
:10113000484603F0F5FCA0B9D8F890206D4802F1BC
:101140000803C8F89030834228BF43461168143022
:1011500004915268C8F89030059203F009FD03F03D
:10116000AFFCFFF765FA9DF815B00BF1FF33052BC7
:1011700000F21B81DFE813F066000600190162002F
:1011800019014E005C4C236801332360FFF768FCB3
:1011900023689B0701D1FFF78BFED5E9002313439A
:1011A0002AD056495648FFF77BFE2B683BB1554B7A
:1011B0001A6C1368013313602B68013B2B606B685A
:1011C0003BB1504B1A6C5368013353606B68013B61
:1011D0006B60AB680BB1013BAB604B494B480A6895
:1011E000036872B9002B9BD00A68013B0360002A98
:1011F00096D1002B94D10AE0AB68002BE9D044498A
:10120000D0E7013A0A60002AECD1002BECD101238F
:10121000737185E79DF811409DF8107021463D4897
:101220003A4602F015FF33793946012B204602D8A1
:10123000FFF766FD74E7FFF7A3FD71E72846FFF7A8
:10124000C7FC6DE7049C3449206F02F0B9F90146F0
:1012500018B92046FFF794FA0BE03049206F02F0EE
:10126000AFF9C8B92368184A5F682D49154B204665
:10127000B8472C49206F02F0A3F9002840F0938072
:10128000214B29481A68214B196802F0E1FE2368B6
:1012900020461B68984743E72449206F02F090F9E5
:1012A00000284BD12368224A5F6822493368DEE771
:1012B00000380240E0080020CC150020D4080020AF
:1012C000A00A0020F0680008FE6800080469000811
:1012D0006400F81F100A002013690008D80C0020D1
:1012E000E0100020F40C0020D00D00207134000824
:1012F0009009002070090020340F0020606B000866
:10130000AC0C002000080020C80D0020CC0D0020EF
:10131000406A00081E690008296900082E69000853
:10132000366900086E690008746900083D690008A4
:101330004069000843690008780900201D49206FB2
:1013400002F03EF90746002893D11B4904F048F902
:1013500060670378EBB13A4601A904F029FA019BD2
:1013600007461878A8B9F32F11D8394602F0A8FA21
:10137000824698B9114B394693F8A421104867F377
:101380000502376083F8A421D34602F061FE594676
:101390005FE705212046FFF7F3F978E701460948A2
:1013A00002F056FEF3E70621F4E75946064802F03C
:1013B0004FFEB5E64B69000851690008E0100020B7
:1013C000546900086069000888690008000000008E
:1013D00038B504460D4603F02BFAD4F8AC30002B98
:1013E0001EDD03F025FAD4F8AC3004F19800013B7F
:1013F000C4F8AC30D4F8943003F10802C4F8942057
:101400002A681A606A685A60D4F8942004F190033C
:101410009A4228BFC4F8944003F0AAFB002038BDCC
:101420000220FCE7000000000000000000000000B7
:1014300038B5044603F0FCF9236913B1201DFFF70A
:10144000FFF84FF0FF35E3691A78042AFDD8DFE88A
:1014500002F0030A14253100236820469B68984750
:101460000128F0D138BDD3F801100933E361002918
:10147000E9D02046FFF71CFAF4E7D3F80130A2695F
:1014800003EBC3031344E36194F8293023B11248FA
:1014900004F12401FFF79CFF0121EAE794F82930C9
:1014A00023B10D4804F12401FFF792FF0023C4E9A2
:1014B0000633D7E7226A013204BFD3F80120226243
:1014C000226A1AB909332562E361BCE7A369013ACC
:1014D000E3612262B7E700BFE008002000000000DF
:1014E0002DE9F041061D044630460D4642F21077C4
:1014F000FFF7A6F840F2E73000214FF47A7200239C
:10150000E7FB0501FEF7E4FE23460146024A3046AA
:10151000BDE8F04103F024BD713400080000000074
:1015200038B5044603F084F9236913B1201DFFF791
:1015300087F84FF0FF35E3691A78042AFDD8DFE811
:1015400002F0030A13222E00236820469B68984766
:101550000128F0D138BD59680833E3610029EAD089
:101560002046FFF7BDFFF5E75A68A36903EBC20306
:10157000E36194F8293023B1114804F12401FFF705
:1015800027FF0121ECE794F8293023B10C4804F13E
:101590002401FFF71DFF0023C4E90633DAE7226ABE
:1015A000013204BF5A682262226A1AB908332562DE
:1015B000E361C0E7A369013AE3612262BBE700BFD0
:1015C000E008002000000000000000000000000013
:1015D00000212DE9F84F0E200124FF2503260227C4
:1015E0006FF02F024FF0480C4FF0800EFA4B4FF087
:1015F000040B197059709970D970197159719971DA
:10160000DD7119725C729872DC7219735973997377
:10161000D973197459749974D97419755975997560
:10162000D975197659769976DC761A7799775F7736
:10163000D97783F8201083F8211083F8221083F8DB
:10164000231083F8251083F8261083F8271083F8D9
:10165000281083F8291083F82A1083F82B1083F8B8
:101660002C1083F82460DD4B4FF0630A1970597019
:101670009970D97019715D719971D97119725C7213
:101680009872DC72197359739973D97319745974F8
:101690009974D974197559759975D97519765976DA
:1016A0009976DC761A779977D97783F8201083F8C2
:1016B000211083F8221083F8231083F8251083F873
:1016C000261083F8271083F8281083F8291083F850
:1016D0002A1083F82B1083F82C105F7783F824608E
:1016E000BF4BDFF80C83197059709970D97019715C
:1016F0005D719D71D97119725C729872DC72197387
:1017000059739973D973197459749974D974197573
:1017100059759975D975197659769976DC761A774F
:101720009977D97783F8201083F8211083F8221055
:1017300083F8231083F8251083F8261083F82710E8
:101740005F7783F8246083F8281083F8291083F8E2
:101750002A1083F82B1083F82C10A24BDFF89492F8
:10176000197059709970D97019715D719D71D97125
:1017700019725C729872DC72197359739973D97308
:10178000197459749974D974197559759975D975ED
:10179000197659769976DC7683F81CC05977997753
:1017A000D97783F8201083F8211083F8221083F86A
:1017B000231083F8241083F8251083F8261083F86B
:1017C000271083F8281083F8295083F82A5083F8CB
:1017D0002B5083F82C1083F82D4083F82E0083F8CB
:1017E0002F4083F8301083F8311083F8321083F8DB
:1017F000331083F8341083F8351083F8361083F8EB
:10180000371083F8381083F8391083F83A1083F8CA
:101810003B1083F83C1083F83D1083F83E1083F8AA
:101820003F4083F8402083F8421083F8431083F848
:10183000441083F8451083F8461083F8471083F866
:10184000491083F84A1083F84B1083F84C1083F842
:101850004D1083F84E1083F84F1083F8501083F822
:10186000417083F84860604B83F805E04FF05A0EF2
:10187000197059709970D97019719971DD71197257
:101880005C729872DC72197359739973D9731974F5
:1018900059749974D974197559759975D9751976DA
:1018A00059769976DC761A779977D97783F820106C
:1018B00083F8211083F8221083F8231083F8251071
:1018C00083F8261083F8271083F8281083F829104E
:1018D00083F82A1083F82B1083F82C105F7783F895
:1018E0002460424B197059709970D97019715D71EB
:1018F0009971DD7119725C729872DC721973597387
:101900009973D973197459749974D974197559756F
:101910009975D975197659769976DC7683F81CC055
:1019200059779977D97783F8201083F8211083F8B5
:10193000221083F8231083F8241083F8251083F8ED
:10194000261083F8271083F8281083F8295083F88D
:101950002A5083F82B5083F82C1083F82D4083F8FD
:101960002E0083F82F4083F8301083F8311083F86D
:10197000321083F8331083F8341083F8351083F86D
:10198000361083F8371083F8381083F8391083F84D
:101990003A1083F83B1083F83C1083F83D1083F82D
:1019A0003E1083F83F4083F8402083F8421083F8CC
:1019B000417083F8431083F8441083F8451083F88E
:1019C000461083F8471083F8491083F84A1083F8CB
:1019D0004B1083F84C100FE0380F0020A80F0020A8
:1019E000D50F0020410E002002100020E30E002041
:1019F000AC0C00200004024083F84D1083F84E1018
:101A000083F84F1083F8501083F84860FB4B19702F
:101A100059709970D97019715D719D71D971197270
:101A20005C729872DC72197359739973D973197453
:101A300059749974D974197559759975DD75197634
:101A400059769976DC7618775C779977D97783F829
:101A5000201083F8211083F8221083F8231083F8D4
:101A6000241083F8251083F8261083F8271083F8B4
:101A7000281083F8291083F82A1083F82B1083F894
:101A80002C1083F82D4083F82EC083F82F1083F894
:101A9000301083F8311083F8321083F8331083F854
:101AA000341083F8351083F8361083F8371083F834
:101AB000381083F8391083F83A1083F83B1083F814
:101AC0003C1083F83D1083F83E1083F83F4083F8C4
:101AD000402083F8421083F8431083F8441083F8C1
:101AE000451083F8461083F8471083F8491083F8AF
:101AF0004A1083F84B1083F84C1083F84D1083F88C
:101B00004E1083F84F1083F8501083F8417083F81B
:101B10004860BB4B197059709970D97019715D711B
:101B20009971DD7119725C729872DC721973597354
:101B30009973D973197459749974D974197559753D
:101B40009975D975197659769976DC7683F81CC023
:101B500059779977D97783F8201083F8211083F883
:101B6000221083F8231083F8241083F8251083F8BB
:101B7000261083F8271083F8281083F8295083F85B
:101B80002A1083F82B1083F82C1083F82D4083F84B
:101B90002E0083F82F4083F8301083F8311083F83B
:101BA000321083F8331083F8341083F8351083F83B
:101BB000361083F8371083F8381083F8391083F81B
:101BC0003A1083F83B1083F83C1083F83D1083F8FB
:101BD0003E1083F83F4083F8402083F8421083F89A
:101BE000431083F8441083F8451083F8417083F85C
:101BF000461083F8471083F8491083F84A1083F899
:101C00004B1083F84C1083F84D1083F84E1083F876
:101C10004F1083F8501083F848607A4B1970597050
:101C20009970D970197159719971DD7119725C725D
:101C300083F80AC0D972197359739973D9731974D7
:101C400059749974D974197559759975D975197626
:101C500059769976DC7683F81CC059779977D977CD
:101C600083F8201083F8211083F8221083F82310C2
:101C700083F8254083F8261083F8271083F828106E
:101C800083F8291083F82A1083F82B1083F82C107E
:101C900083F82D4083F82E2083F8301083F831101C
:101CA00083F8321083F8331083F8341083F835103A
:101CB00083F824B083F82F7083F8366083F83710E8
:101CC00083F8381083F8391083F83A1083F83B1002
:101CD00083F83C1083F83D1083F83E104A4B19708E
:101CE00059709970D97019715D7183F806E0D971D6
:101CF00019725C7283F80AC0D97219735973997397
:101D0000D973197459749974D97419755975997569
:101D1000D975197659769976DC7683F81CC059778F
:101D20009977D97783F8201083F8211083F822104F
:101D300083F8231083F8254083F8261083F82710B2
:101D400083F8281083F8291083F82A1083F82B10C1
:101D500083F82C1083F82D4083F82E2083F8301060
:101D600083F8311083F8321083F8331083F834107D
:101D700083F8351083F8371083F8381083F839105A
:101D800083F824B083F82F7083F8366083F83A1014
:101D900083F83B1083F83C1083F83D1083F83E1025
:101DA0001A4B4FF0920E197059709970D9701971C1
:101DB00059719D71D97119725C7283F80AC0D97218
:101DC000197359739973D973197459749974D974AF
:101DD000197559759975D975197659769976DC768C
:101DE00083F81CC059779977D97783F8201083F846
:101DF000211083F8221083F8231009E0F00D002051
:101E0000920E00202F1000206E100020600D002088
:101E100083F8254083F8261083F8271083F82810CC
:101E200083F8291083F82A1083F82B1083F82C10DC
:101E300083F82D4083F82E2083F8301083F831107A
:101E400083F8321083F8331083F8341083F8351098
:101E500083F8371083F8381083F8391083F83A1074
:101E600083F83B1083F83C1083F824B083F82F707C
:101E700083F8366083F83D1083F83E10CC4B002287
:101E8000197059709970D97019715D719971D97102
:101E900019725C72D972197359739973D973197461
:101EA00059749974D974197559759975D9751976C4
:101EB00059769976DC765977997783F80AA083F872
:101EC0001CA0D97783F8201083F8211083F8221002
:101ED00083F8231083F8241083F8251083F8261044
:101EE00083F8271083F8281083F8295083F82A10E4
:101EF00083F82B1083F82C1083F82D4083F82F10D3
:101F000083F8301083F8311083F8321083F83310DF
:101F100083F8341083F8351083F8361083F83710BF
:101F200083F8381083F8391083F83A1083F83B109F
:101F300083F83C1083F83D1083F83E1083F83F404F
:101F400083F82EA083F840A083F8411083F8421054
:101F500083F8431083F8441083F8451083F8461043
:101F600083F8471083F8481083F8491083F84A1023
:101F700083F84B1083F84C1083F84D5083F84E10C3
:101F800083F84F1083F8501083F8514083F85310B2
:101F900083F8541083F8551083F8561083F85710BF
:101FA00083F8581083F8591083F85A1083F85B109F
:101FB00083F85C1083F85D1083F85E1083F85F107F
:101FC00083F8601083F852A083F8611083F86210E0
:101FD00083F8641083F8651083F8661083F867103F
:101FE00083F8681083F8691083F86A1083F86B101F
:101FF00083F863600023DFF8F4C1CCE90023CCE967
:1020000024CC4FF4E13C6B4A6B4BC2E9066BC2E94E
:1020100000C3092393810A2393824FF48553DFF889
:10202000D0C1C2E908E3654BC2F808C0C2F810C0CD
:10203000DA6003F11002C3E94422614AC3E947119F
:1020400002F1200EC3E9491183F8184183F88F414A
:10205000C3F8FC11C3F890E14FF00C0E1A60303257
:10206000C3F89421C3E9811183F80012554B564AF5
:10207000A3F814E04FF00F0E1A609A60C3F810C076
:102080000D22C3F818C0A3F81CE0C3F820C04FF01D
:102090000B0EC3F828C04FF0080C98809C719A81F1
:1020A0009C739C759C77A3F824E083F82640A3F8E2
:1020B0002CC083F82E40988683F836409A8783F8A0
:1020C0003E401C22C3F83090C3F8389008EB0B0058
:1020D00003F0DEF900214FF0FF334FF00C0E3B48C8
:1020E000C8E90831C8F80000394888F82910C8E95B
:1020F0000E04C8E90B09A8F84010A8F834E0C8F8A5
:1021000044A0DFF8F0801C2208EB0B0003F0C0F9BC
:1021100000214FF0FF332F4AC8E90831C8E91F53A7
:102120002D4BC8E91152C8E91852C8E90B29C8E972
:102130000E27C8E9152BC8E91C26C8F80030274A25
:10214000274B05201A6042F21072A8F834009A61F9
:1021500040F201104FF48172A8F85040214C88F8E9
:102160002910A8F84000A8F85C00A8F86C10A8F89E
:102170007800C8F8841088F88E101B4DC8F84C9071
:10218000C8F86890C8F88890A8F88C709A8304F111
:102190001003C4E90011C4E90211C4E916330FCDDC
:1021A00060340FC495E80F0084E80F00BDE8F88F95
:1021B000F40C0020A00D002000380140A00A0020EF
:1021C000586D0008680F002000080240C869000828
:1021D000000C014000040040A8690008486D000898
:1021E000D00D00209009002040680008E008002081
:1021F00000000240100A0020000000000000000063
:1022000008B502F09DFA002383F3118808BD000091
:10221000816A10B5044619B188470023A36210BD36
:102220002430BDE8104002F07BBE0000000000003A
:10223000104B984205D1104AD36943F00103D36192
:1022400070470E4B984204D10B4AD36943F0020306
:10225000F5E70B4B984204D1074AD36943F00403D6
:10226000EDE7084B9842EBD1034AD36943F00803EA
:10227000E5E700BF000002400038024000040240D1
:1022800000080240000C02400000000000000000B6
:102290000368197303689A68D207FCD5187B7047E6
:1022A00070B504461546FFF7C3FF022603224B0014
:1022B0009A4006FA03F3012600688E4020EA0200E5
:1022C00020602068072940EA03002060606820EA57
:1022D00006006060E06820EA0200E060E068E0601C
:1022E000A06820EA0202A260A26843EA02038ABF51
:1022F000A1F108028A00920007298CBF0420002067
:102300000F21A3600444236A914023EA010323625E
:10231000236A95401D43256270BD00000000000047
:1023200001238288012903FA02F30BD0022911D07C
:1023300039B90A4A916819439160D16821EA0303C7
:10234000D3607047054A916821EA03019160D16822
:102350000B43F5E7014A91681943F7E70004014090
:10236000F8B50446267900687300DEB2A779FFF756
:102370005FFF0325026805FA06FC22EA0C020260F0
:10238000C36807FA06F623EA0C03C360C368A7888C
:102390001E43C6600F26254B1A6A42F001021A62DC
:1023A000DA6A22F00102DA62DB6A07F47F7303F172
:1023B000804303F5803307EA05029868920096404F
:1023C00020EA060098601A4E2068B04205D101202C
:1023D0009D6800FA02F22A430CE0164EB04202D188
:1023E00002209D68F5E7144EB04213D1986805FAB3
:1023F00002F202439A600126104DBE402B6820462F
:1024000033432B606B6823EA06036B60FFF788FF9A
:102410006E61F8BD0A4DA84202D104209D68D8E73C
:10242000084DA842E7D107209D68D2E70038024056
:102430000004024000080240000C02400004014079
:1024400000100240001402400000000000000000E4
:102450000123428A81689340034A0869184002D0E8
:10246000013AFAD101207047B88201000000000053
:102470000123C18AC2688B4093617047000000004D
:10248000C38AC16803F11002012393408B61704736
:102490000148FFF7BDBE00BFB010002000000000E3
:1024A0007F2908B2C4BFA1F5807108B200EBD070DB
:1024B00040104A3840B270470000000000000000A1
:1024C0002DE9F04104460F461646FFF7D9FF204696
:1024D000FFF7BEFF054630B12046FFF7C9FF0125D3
:1024E0002846BDE8F08104F1040847F08001404629
:1024F000FFF7CEFE294684F820004046FFF7C8FECD
:1025000030702046FFF7B4FFEAE70000000000004B
:102510002DE9F04104460F461646FFF7B1FF20466D
:10252000FFF796FF054630B12046FFF7A1FF0125D2
:102530002846BDE8F08104F1040839464046FFF71B
:10254000A7FE31464046FFF7A3FE2046FFF790FF67
:10255000EEE70000000000000000000000000000A6
:1025600070B504460E46FFF78BFF2046FFF770FF5D
:10257000054628B12046FFF77BFF0125284670BDA0
:102580003146201DFFF784FE84F820002046FFF727
:102590006FFF94F8203003F0700384F82030EDE7EB
:1025A0003A21FFF7DDBF000000000000000000003E
:1025B0002DE9F043744B456804469D4285B069D0CF
:1025C000724A95420CBF05250625E068E18AFFF7AF
:1025D0002FFE4FF0030801264B000268DBB208FA19
:1025E00003F722EA07020260D0F800C006FA03F2FD
:1025F00042EA0C020260426806FA01F122EA010195
:1026000041604268218A4260C26822EA0702C260D1
:10261000C268C260826822EA07020227826082687A
:1026200007FA03F3134383602A46A068FFF738FED6
:102630002A46618AA068FFF733FE2A46A18AA0686D
:10264000FFF72EFE314604F11800FFF789FE204601
:10265000FFF70EFF00234E4A1946CDE90023201D47
:102660001A4601F055FB626830211368204643F09A
:1026700040031360FFF774FF70B162684548136848
:1026800023F04003136001F0E3FC3546284605B013
:10269000BDE8F083052598E7072206212046FFF7CD
:1026A00037FF08B13C48EEE78DF80F0006212046C1
:1026B0000DF10F02FFF704FF054648B99DF80F9092
:1026C000B9F1070F06D04946344801F0C1FCDCE7F8
:1026D0003348D8E72046FFF763FF20220D2120462C
:1026E000FFF716FF25220E212046FFF711FFED22EE
:1026F0000F212046FFF70CFFA32213212046FFF7EE
:1027000007FFFF2214212046FFF702FF08221821AD
:102710002046FFF7FDFE4A4641462046FFF7F8FEF9
:102720003F2229462046FFF7F3FE0622394620467F
:10273000FFF7EEFE0C2249462046FFF7E9FE442251
:1027400008212046FFF7E4FE50223E212046FFF7F5
:10275000DFFE4A4616212046FFF7DAFE3022172117
:102760002046FFF7D5FEA08B092809D8042809D8F0
:102770000630072101F0A4FF0A4801F069FC85E753
:102780002820F6E71720F4E7003001400038004029
:10279000A02E6300B06B0008BD6B0008C86B00087A
:1027A000DD6B0008E86B000800000000000000007E
:1027B0003621FFF7D5BE0000000000000000000039
:1027C00038B504460D4694F820301BB12046FFF77B
:1027D000EFFFF8E72A462046BDE838400A21FFF718
:1027E00097BE000000000000000000000000000094
:1027F000F8B505460E4695F820401CB12846FFF76F
:10280000D7FFF8E7771C17F8142016F8141028469D
:102810000134FFF77DFE142CF5D1F8BD0000000057
:102820003421FFF79DBE0000000000000000000002
:102830003D21FFF795BE00000000000000000000F1
:1028400038B504460D46202383F3118801F060FF5C
:102850002046FFF7EDFF94F8203003F07003102BB3
:1028600008D02046FFF7A4FF2046FFF799FE204638
:10287000FFF7D6FFA562BDE83840FFF7C1BC0000F6
:102880002DE9F04104460D461746FFF7F9FD2046B5
:10289000FFF7DEFD064630B12046FFF7E9FD0126D1
:1028A0003046BDE8F08104F104087F214046FFF77F
:1028B000EFFC2F44AF4205D0404615F8011BFFF74F
:1028C000E7FCF7E72046FFF7D3FDE9E7000000004B
:1028D00070B50D46352104461646FFF741FE20230C
:1028E00083F3118801F014FF002332462946A362C6
:1028F0002046FFF7C5FF04F1240002F0F1FABDE81D
:102900007040FFF77DBC00000000000000000000E8
:102910002DE9F7430E46904678210DF10702044653
:102920001F46FFF7CDFD70B99DF90730002B0ADA7D
:102930002046FFF7A5FD2046FFF78AFD054620B19A
:102940002046FFF795FD012527E004F10409FF214A
:102950004846FFF79DFC3744BE424FF00001484611
:1029600006D0FFF795FC8DF8070006F8010BF3E79A
:10297000FFF78EFC00218DF807004846FFF788FC22
:102980002046FFF775FDB8F1000F06D020469DF8F0
:102990000710FFF785FD88F80000284603B0BDE862
:1029A000F0830000000000000000000000000000B4
:1029B0002DE9F041DDF818801E4604460F46154605
:1029C000FFF7EEFD202383F3118801F0A1FE2046DE
:1029D000FFF726FF394604F1240002F091FA07467A
:1029E000FFF70EFC013707D0334642462946204602
:1029F000BDE8F041FFF78CBF2046FFF7D9FE02206B
:102A0000BDE8F081000000000000000000000000B0
:102A10002DE9F0418C46044642F2107740F2E7304F
:102A2000002115461E464FF47A720023E7FB0C0185
:102A3000FDF74EFC334601462A462046BDE8F041EC
:102A4000FFF7B6BF0000000000000000000000001B
:102A50000022064B1B685A624FF4B472DA620122FC
:102A60005A611A6842F001021A6070476814002027
:102A700010B5044694F8203033B12046FFF798FE95
:102A80000028F7D001200DE033212046FFF768FD34
:102A90000028F7D13D212046FFF762FD94F8200081
:102AA0000028F7D110BD0000000000000000000069
:102AB00070B5202304460D4683F3118801F028FEEB
:102AC0000022D4F8C830934220D014F8220029788C
:102AD00000F03F0001F03F01884215D1A87804EBD7
:102AE00082018E780009B0EB161F0DD191F90320F9
:102AF00095F903309A4201DA2B680B6001F020FE51
:102B0000002383F3118870BD0132DCE7322B1FBF35
:102B10002A6844F823200133C4F8C830EEE70000E7
:102B2000054683B5694E6A4CD5F89C31002B2DDDE6
:102B300000212046FFF744FEC5223E212046FFF734
:102B4000E7FC20466349FFF753FE05F5D477D5F837
:102B50009C3120465A1EC5F89C213BB1FFF788FFE7
:102B6000042239462046FFF7B3FEF0E7FFF720FEC8
:102B700020460721FFF724FE3E212046B279FFF7C9
:102B8000C7FC20465449FFF733FECDE73379012BCC
:102B900007D82046FFF70CFE41F2185002F090F9DA
:102BA000C2E7202383F3118801F0B2FD4FF0FF311B
:102BB00005F5E87005F5D87801F0B2FFE0B9D5F871
:102BC000C83105F5E17213F8027B05F5EE7093420A
:102BD00028BF4346C5F8C83101F0CAFF01F070FFB5
:102BE00001F0AEFD002383F31188042F9CD8DFE8A9
:102BF00007F02B05333942000027F1E72046FFF7A5
:102C0000D7FD0222354B20461A7095F8A431326860
:102C100062F30503324A85F8A4315368928903F0C0
:102C20000F039B0143EA8223B5F8A42102F03F027F
:102C30001343A5F8A431FFF71BFF0422204605F536
:102C4000D271FFF745FE6FE70122244B204625494C
:102C50001A70FFF7F5FD67E7204A20461370FFF76B
:102C6000A7FD61E71D4AD5F8980105F5D0711370ED
:102C7000FFF71EFF58E700212046FFF7A1FD154989
:102C80002046FFF7B5FD2046FFF7F2FE05F5D077A9
:102C900005F2A31300933A46042324212046FFF7AC
:102CA000B7FE20B93946D5F89801FFF701FF204655
:102CB000FFF77EFD20460721FFF782FD20460649EB
:102CC000FFF796FD2046FFF7D3FE2DE7D40800203E
:102CD000B0100020106C0008406C00086C1400203C
:102CE00070140020412F00080000000000000000C8
:102CF00008B50148FFF714FFE010002000000000B5
:102D000073B5724D0446EB69092143F00203EB6190
:102D10006F4B1A6822F440121A601A6842F480124B
:102D20001A605A6822F480625A605A685A60DA68F7
:102D300022F44012DA60DA68DA609A6822F440120B
:102D40009A609A6842F400129A60EA6942F00202BC
:102D5000EA611A6822F440221A601A6842F480225A
:102D60001A605A6822F400725A605A685A60DA6827
:102D700022F44022DA60DA68DA609A6822F44022AB
:102D80009A609A6842F400229A6000F5D873C0E90C
:102D9000723300F5EE7001F0B3FE04F5E870002127
:102DA00001F0AEFE4B48FFF703FC0446002840F05C
:102DB0008A80042206214748FFF7AAFB464E3022AC
:102DC00017214448FFF7A4FB07214248FFF7F8FC0E
:102DD000B2793E213F48FFF79BFB40493D48FFF752
:102DE00007FDEB6943F00103EB613D4B3D4D1A6874
:102DF000284622F030021A601A6842F020021A6057
:102E00005A6822F004025A60DA6822F03002DA606E
:102E1000DA68DA609A6822F030029A609A6842F0C2
:102E200020029A601A6A22F470621A621A6A42F4E4
:102E300040721A6200F0E4FB43F2B0622B68192082
:102E4000DA624FF6F87299680A4042F007029A6017
:102E50004FF68F7299680A4042F050029A609A6960
:102E6000072102F47F4242F001029A611A6A22F0BD
:102E70000A021A6201F024FC2B681B49DA681B481D
:102E800042F00102DA600A6842F004020A601A683D
:102E90004FF4D07142F001021A60FF22144B0094EB
:102EA00001F0B6FF202383F3118801F031FCFFF716
:102EB000CFFD32680F4B9A8101F042FC84F31188F8
:102EC000204602B070BD0124FAE700BF003802407E
:102ED00000040240B0100020D4080020406C00081C
:102EE000000002406814002000080140C8120020C1
:102EF000F12C000870140020000000000000000009
:102F000038B504460D4601F093FC636B002B14DDCD
:102F100001F08EFC636BE2692988013B6363931CBB
:102F2000E361118004F11202934204F1200028BFF2
:102F3000E46101F01DFE002038BD0220FCE7000026
:102F400037B5194C0423194804F2A31204F5D071C3
:102F5000FFF7DEFC30BB164B94F8A1219D89910848
:102F6000B5EB920F17DBB4F8A0211880C2F38312DF
:102F70005A6094F8A021998102F03F029A605A2287
:102F80000C4B1B685A624822DA6201225A611A68A5
:102F900042F001021A600323074801A9ADF804308A
:102FA000FFF7AEFF03B030BDE0100020B0100020EE
:102FB000701400206814002090120020000000000F
:102FC0004FF080631C4A13B5936143680446013394
:102FD00043604368042B17DD4FF480639361002343
:102FE00001A943601548ADF80430FFF789FF238835
:102FF000032B8BBF124B01331B68238088BFA38137
:10300000FFF726FD02B010BD4368042BF8D10B4832
:1030100001A9ADF80430FFF773FF0022094B1B68CC
:103020005A6241F2F952DA6201225A611A6842F098
:1030300001021A60E6E700BF00040240901200207F
:10304000D4080020681400200000000000000000E8
:10305000436813B5042B044603D1FFF7B1FF02B058
:1030600010BD8368013383608368312B0EDD00233C
:103070008360FFF7A5FF0F4BA1681A68914208D142
:103080005B7933B10123ADF804300AE0FFF7E0FCCF
:10309000F1E76268084B1B7842B9012BDFD0ADF82D
:1030A000042001A90548FFF72BFFD8E7002BD6D055
:1030B0000223E8E7D40800206C14002090120020BE
:1030C00008B501F085FB202383F3118801F050FB44
:1030D000094A0A48136923F001031361FFF7B8FF97
:1030E00001F05EFB002383F3118801F089FBBDE84A
:1030F000084001F0F5BF00BF000801407014002037
:10310000184B194A30B51A60184A19485A6002F526
:103110005042C3E902229A6103229A830022154990
:10312000C3E90922C3E904019A77134983F82020EF
:103130001248134B00240025C8601946E1E96C458C
:10314000C3E96523C3E97211C3F8C820C3F89C2101
:103150000C490D4B19600D4B5A609A603F229A81C1
:1031600030BD00BFB0100020086C000800300140E6
:103170000500060007000400D8150020912400086F
:10318000E0100020000801406814002070140020A6
:103190004FF004092DE98848DFF8848000261F4C91
:1031A0003146204601274FF0030AD8F808301C4D5D
:1031B0002A68B5F804C0D2F810E007FA0CFC1CEA43
:1031C0000E0FA346227804F101041DD0012A01D07C
:1031D000042A15D104F801ACAA689A421CD003B1A4
:1031E000984758460021AB680136032E05F10C05BF
:1031F000DED103B198474FF4347001F061FECDE7A2
:10320000022204F8012CE7E7023A012A94BF04F8ED
:10321000019C04F8017CDFE70131E5E7C4150020DB
:10322000A0150020000000000000000000000000C9
:10323000104B984205D1104AD36943F00103D36182
:1032400070470E4B984204D10B4AD36943F00203F6
:10325000F5E70B4B984204D1074AD36943F00403C6
:10326000EDE7084B9842EBD1034AD36943F00803DA
:10327000E5E700BF000002400038024000040240C1
:1032800000080240000C02400000000000000000A6
:103290002DE9F74300264FF003093746154CDFF8B8
:1032A0006080217920684900A579C9B2FFF7C0FF85
:1032B000026809FA01FC22EA0C020260C36805FAFE
:1032C00001F123EA0C03C360C36801361943032EDE
:1032D000C16004F10C0408F8017BE2D180224FF4B4
:1032E0009071054B0097054801F092FD03B0BDE8D1
:1032F000F08300BFA0150020913100088014002049
:10330000C4150020000000000000000000000000C4
:1033100000220A4B0A489A800A4A1860C3E9022030
:103320000120188208480221986108209971997437
:103330005A61988399771A62704700BFA0150020E0
:1033400000000240D13300080004024000000000E9
:10335000002313B5009306238DF800008DF8053087
:103360008DF80110202383F31188164C01F0D0F959
:1033700001F05EFAD4F8AC30002B19DD01F058FAF8
:10338000D4F8AC300099013BC4F8AC30D4F8943098
:103390000D4803F10802C4F894201960019959609E
:1033A00004F190039A4228BFC4F8944001F0E0FB76
:1033B00001F086FB01F0C4F9002383F3118802B009
:1033C00010BD00BFE00800207809002000000000C8
:1033D0002DE9F84304460D464FF000094FF08046B2
:1033E000DFF86080164F5FFA89F18D4225D9635C62
:1033F000032B07D1002308F80130736A3B8009F1E1
:103400000109F0E7042B06D118F801000028F6D1D5
:10341000FFF79EFFF3E7022BF1D118F80130002BE4
:10342000EDD13A88736A9B1A44F2CB229BB2934245
:10343000E5D9012008F80100EAE7BDE8F88300BFFC
:10344000CA150020C7150020000000000000000081
:10345000202383F3118801F08BB9000000000000E5
:1034600008B501F09DF9002383F3118808BD000021
:1034700010B50446FFF7ECFF236820461B68984709
:10348000BDE81040FFF7ECBF0000000000000000A6
:10349000074B5A68D2070AD5064ADA60064ADA604C
:1034A0004FF480729A615A6822F480725A607047B1
:1034B000003C0240EFCDAB89050403020000000090
:1034C0004FF4E1730C4A9169013BC9079BB203D5E4
:1034D000002BF8D1022070479169C90509D492697F
:1034E00012F4F05F14BF01200020002B08BF02205F
:1034F00070470E20F9E700BF003C024000000000CA
:1035000073B5037F1E4D8DF80530044601F090F928
:10351000D5F8AC30002B1CDD01F08AF90022D5F87B
:10352000AC301848013BC5F8AC30D5F8943003F105
:103530000801C5F894101A705A709A70DA70019ADE
:103540005A6005F19003994228BFC5F8945001F0E4
:103550000FFB637F012B11D1A66901F069F9236983
:10356000251D13B1284601F05BFD23463146284650
:10357000054A02B0BDE8704001F0F2BC02B070BD77
:10358000E0080020780900207134000800000000E5
:1035900008B50346084A03331068084923F00303BB
:1035A00003448B4206D901F06BFF0C2303604FF0FC
:1035B000FF3008BD1360FCE7500800200028002001
:1035C000884230B515D0431E13F8014F2046A4F1B0
:1035D0004102192A11F8012B98BF04F12000A2F131
:1035E0004105192D98BF2032801A01D1002CEBD152
:1035F00030BD0020FCE700000000000000000000DB
:103600000368B3F1804F0BD103F50E335A6A42F0D1
:1036100001025A621A6B22F001021A631B6B704797
:103620002A4A934208D12A4B5A6A42F002025A624D
:103630001A6B22F00202F0E7264A934208D1244B8B
:103640005A6A42F004025A621A6B22F00402E4E75A
:10365000214A934208D11E4B5A6A42F010025A6224
:103660001A6B22F01002D8E71C4A934208D1184B7B
:103670005A6A42F020025A621A6B22F02002CCE70A
:10368000174A93420AD1124B1A6A42F004021A6294
:10369000DA6A22F00402DA62DB6A7047114A934266
:1036A00008D10B4B1A6A42F008021A62DA6A22F059
:1036B0000802F0E70C4A9342EFD1054B1A6A42F038
:1036C00010021A62DA6A22F01002E4E700040040F5
:1036D0000038024000080040001000400014004084
:1036E00000080140000C01400010014000000000F3
:1036F000F8B50146FFF784FF82690368DA62027D4C
:103700000069012A00F1FF300CBF072206220328BE
:103710000BD8DFE800F0026B737B986940EA021275
:103720009A611A6A42F001021A621A6842F00102B2
:103730001A60494A934271D002F5806293426DD07B
:1037400002F5803293426BD002F58062934267D0DB
:1037500002F58062934214BF012203224B6808895C
:103760004F7D3E498B425DD13D4CE16941F0010105
:10377000E161032419684600B440E54321EA0404EA
:103780001C6002241968B4400C4301211C605C6871
:103790008140002F5ED124EA01015960D9680728D1
:1037A00001EA0501D960D968D960996805EA01057F
:1037B0004FF002019D609C6801FA06F141EA0401A4
:1037C00099608ABFA0F108018100890007288CBF99
:1037D000042000200F240344186A8C4020EA0400CF
:1037E0001862186A8A4002431A62F8BD986940EA72
:1037F00002329A611A6A42F0100295E7D86940EAEB
:103800000212DA611A6A42F480728DE7D86940EADE
:103810000232DA611A6A42F4805285E702229DE799
:1038200003229BE70F498B4204D10D4CE16941F023
:1038300002019DE70C498B4204D1094CE16941F03A
:10384000040195E709498B4293D1054CE16941F0A8
:1038500008018DE72143A0E700040040000002407A
:10386000003802400004024000080240000C024000
:10387000074B01385A6922F080025A6110F8012F73
:1038800022B119680906FCD55A60F7E7704700BFF6
:1038900000380140000000000000000000000000AF
:1038A00008B50248FFF7E4FF01BEFEE7706C0008B0
:1038B00000F1006000F50020006870470000000083
:1038C00038B504460D46FFF7E3FDFFF7F9FD30B9C3
:1038D00004F1006000F500200560FFF7F1FD034AE8
:1038E000536843F00103536038BD00BF003C024001
:1038F00008B500F06DFFFFF7ABFD0A4B1B685BB12D
:1039000098470122084B5A61FFF7AAFD00F078FFA3
:10391000BDE8084001F0E4BB0449054800F0B8FBED
:10392000EFE700BFD815002000040140806C0008BC
:10393000896C00080000000000000000000000008A
:1039400008B500F045FFFFF783FD0A4B5B685BB1EC
:1039500098470222084B5A61FFF782FD00F050FFA2
:10396000BDE8084001F0BCBB0449054800F090FBED
:10397000EFE700BFD815002000040140A06C00084C
:10398000896C00080000000000000000000000003A
:1039900008B500F01DFFFFF75BFD0A4B9B685BB1AC
:1039A00098470422084B5A61FFF75AFD00F028FFA0
:1039B000BDE8084001F094BB0449054800F068FBED
:1039C000EFE700BFD815002000040140B06C0008EC
:1039D000896C0008000000000000000000000000EA
:1039E00008B500F0F5FEFFF733FD0A4BDB685BB16D
:1039F00098470822084B5A61FFF732FD00F000FF9C
:103A0000BDE8084001F06CBB0449054800F040FBEC
:103A1000EFE700BFD815002000040140C06C00088B
:103A2000896C000800000000000000000000000099
:103A300008B500F0CDFEFFF70BFD0A4B1B695BB12B
:103A400098471022084B5A61FFF70AFD00F0D8FE94
:103A5000BDE8084001F044BB0449054800F018FBEC
:103A6000EFE700BFD815002000040140D06C00082B
:103A7000896C000800000000000000000000000049
:103A800008B500F0A5FEFFF7E3FC0A4B1B6863B125
:103A900098474FF47872084B5A61FFF7E1FC00F049
:103AA000AFFEBDE8084001F01BBB0449044800F02C
:103AB000EFFAEEE7F015002000040140E06C00088A
:103AC000896C0008000000000000000000000000F9
:103AD00008B500F07DFEFFF7BBFC0A4B1B6863B125
:103AE00098474FF47C42084B5A61FFF7B9FC00F04D
:103AF00087FEBDE8084001F0F3BA0449044800F02D
:103B0000C7FAEEE7EC15002000040140F06C000855
:103B1000896C0008000000000000000000000000A8
:103B20000023F0B593B0024611934FF480304FF468
:103B300000334FF48024CDE90A03354B354DCDE9F0
:103B40000C43354B354CCDE90E53354B616820683D
:103B5000109303AB03C3217A06AD1970314B03F107
:103B600010073E462C4618685968083303C4BB4208
:103B70002546F7D13068716801AB03C32A488368D2
:103B8000C3F38103022B3FD0032B27D0012B3DD061
:103B9000436812A9C3F3423301EB830353F8203C7B
:103BA000214C12A8A168C1F30311014411F8301C83
:103BB000CB401360A068A168C0F3022012ACC1F32F
:103BC000C2212044214410F8440C11F8441C23FA6B
:103BD00000F0CB405060936013B0F0BD836812A931
:103BE000C3F383430B4481688068104C10F4803F1A
:103BF0000F4818BF204613F83C3CC1F381514343A2
:103C00000131B3FBF1F3CBE7084BC9E7084BC7E73A
:103C10009CFF0700C0FD0F0068FF1F00006D00083B
:103C2000D0FE3F006068000800380240001BB7006B
:103C30000024F4000000000000000000000000006C
:103C40000B4B0C4A99420C4B06D00C48814203D0D6
:103C500000F58060814206D19268986812F4005F96
:103C600018BF400070479268586812F4806FF7E7F9
:103C70000008014000380240CC150020000C014033
:103C800038B505460C4601680848FFF7D9FF2B6890
:103C9000DA6A0132B0FBF2F0B0FBF4F2A04228BFC6
:103CA00002F1FF329A6200225A6238BDCC15002020
:103CB00006480749836805C8B3FBF1F3B2FBF1F28C
:103CC000B0FBF1F1034800F0C3B900BFCC150020F0
:103CD00040420F00106D00080000000000000000CE
:103CE0004FF08052084B5A62084A11465368DB066F
:103CF000FCD4136823F4C05343EAC02010604B681F
:103D0000DB06FCD4704700BF003802400070004062
:103D100070B50068324D049CA84246D105F5843543
:103D20002E6A46F480562E62EE6A26F48056EE62C3
:103D3000ED6A4FF441750129056002BF016841F049
:103D400080010160012A02BF026842F002020260A3
:103D5000012B02BF036843F001030360204B98422C
:103D6000204B0CBF9B685B68B3FBF4F3802B2BDC10
:103D7000402B2BDC202B2BDC102B2BDC082B2BDC03
:103D8000042B2BDC022BD4BF00230123026842EA60
:103D9000C30303609DF81430012B02BF036843F492
:103DA000006303600023436070BD0F4DA842C0D183
:103DB00005F500356E6A46F480466E622E6B26F479
:103DC00080462E632D6BB4E70723DFE70623DDE78C
:103DD0000523DBE70423D9E70323D7E70223D5E74D
:103DE00000300140CC1500200038004000000000E9
:103DF00008B500F0EDFCFFF72BFB084B9B68DB07D9
:103E000003D5074B1B6803B19847FFF729FB00F068
:103E1000F7FCBDE8084001F063B900BF0030014085
:103E2000F415002000000000000000000000000069
:103E300008B500F0CDFCFFF70BFB084B9B68DB07D8
:103E400003D5074B1B6803B19847FFF709FB00F048
:103E5000D7FCBDE8084001F043B900BF003800407E
:103E6000F815002000000000000000000000000025
:103E70002DE9F04385B0984601AB0646002508467B
:103E80001F469DF83090B0FBF2F4844602FB14010B
:103E900020460929CCB294BF30343734E4B294457B
:103EA00005F1010503F8014BEDD22C46336844457A
:103EB0001B680BD249463046984718B10C2005B014
:103EC000BDE8F0830134F1E7002DF8D03368013DFF
:103ED00030461B68795D98470028F5D0EEE7000072
:103EE0002DE9F04F0B46054614464FF00A0B85B0FE
:103EF0001E4616F8011B31B928462B685B6805B0D1
:103F0000BDE8F04F1847252902D02B681B6864E0F4
:103F10005F784FF00008302F14BF20279E1C16F842
:103F2000011BA1F13000C0B2092804D92A2905D10A
:103F300054F8040BC0B20BFB0808F0E72E2909D196
:103F400016F8011BA1F13003092BF9D92A2901D157
:103F50000434F5E763293BD015D841294ED003D866
:103F60002529D2D03346C3E7532939D05829F9D16E
:103F7000434610220097284654F8041BFFF778FFA9
:103F80000028EFD0B8E773292AD01BD8642901D0C4
:103F90006929E7D1A14659F8044B002C07DA2B68B0
:103FA0002D2128461B6898470028A5D16442434626
:103FB0000A22214628460097FFF75AFF00289BD186
:103FC0004C46CFE77529CDD143460A220097D2E768
:103FD0002B6854F8041B1B68C9B228469847CFE7E2
:103FE0002768013F17F8011F09B90434BAE72B68A5
:103FF00028461B6898470028F4D07DE70027D4E9BD
:10400000019823685FFA88FA03934F4501DB0C346B
:10401000A8E76FB9039B1022D95D3023284600938F
:104020000223FFF725FF00287FF466AF0137ECE796
:10403000B8F1000FEED02B68514628461B68984710
:104040000028E7D058E70000000000000000000052
:104050000FB413B504AB53F8044B0193202383F33F
:10406000118800F055FB2146019A0648FFF738FFFA
:1040700000F066FB002383F3118802B0BDE8104016
:1040800004B07047300C0020000000000000000069
:104090000FB407B504AA52F8041B04480192FFF7B5
:1040A0001FFF03B05DF804EB04B07047300C002034
:1040B0007047000000000000000000000000000049
:1040C00008B5064C40F2DE3000F0FAFE2068002809
:1040D000F8D003685B689847F4E700BF201700201A
:1040E0000EB403B503AA52F8041B00F5C870019280
:1040F000FFF7F6FE02B05DF804EB03B07047A0F5E1
:10410000CA70EDE7000000000000000000000000A1
:10411000F0B51746314A904246D1314CE26942F03F
:104120000102E261032402684D00AC40E64322EA4A
:104130000404046002240268AC40144304600124B7
:1041400042688C40002F47D122EA04044460C268D0
:10415000072902EA0602C260C46803FA05F242EACD
:104160000402C260836806EA03064FF00203866019
:10417000826803FA05F343EA0203836086BFA1F174
:1041800008039A008A0007298CBF042300230F210B
:104190001844036A914023EA010303620723016A7A
:1041A00093400B430362F0BD0E4A904204D10C4C85
:1041B000E26942F00202B4E70B4A904204D1084C93
:1041C000E26942F00402ACE7084A9042AAD1044CEA
:1041D000E26942F00802A4E71443B7E70000024096
:1041E000003802400004024000080240000C024077
:1041F000D0F81021D0F81C1100F588739B1A8B425F
:1042000028BF0B46C0F820317BB1002380F818315D
:1042100043685B68DA60D0F820215A60C268126A8D
:104220001A601A6842F001021A607047000000002C
:10423000436859680A6822F00F020A60597B1A68BD
:104240000E238B405360D0F81021D0E947310A4447
:104250005B1A00F588718A4228BF00F11002C0F88D
:104260001C31C0F810212BB9012380F818310368E4
:104270001B681847FFF7BCBF0000000000000000EB
:10428000FFF7D6BF000000000000000000000000A3
:10429000D0F81C31FF2B16D8D0F814315A1CC0F8B6
:1042A00014211970D0F8142100F588739A4224BFA4
:1042B00000F11003C0F81431D0F81C310133C0F8FC
:1042C0001C31002070470C207047000000000000E7
:1042D000FFF7DEBFA0F5C870FAE70000000000009D
:1042E00090F818310BB1FFF783BF70470000000052
:1042F000FFF7F6BFA0F5C870FAE700000000000065
:104300008368D0F828215B685B68C3F163039B1A5C
:1043100048BF633383B1531CC0F82831024492F87C
:104320002C310B70D0F82831622B4FF0000301DDE7
:10433000C0F82831184670470B2070470000000075
:104340002DE9FF4190F88F310446002B6CD0384D99
:10435000384E05F1900720460DF10701FFF7D0FF19
:10436000002861D194F800329DF807201BB184F831
:104370000002C4F8FC01082AD4F8FC3105D1002B56
:10438000E9D0013BC4F8FC31E5E70D2A01D00A2A47
:1043900027D1002BDFD04FF00008234483F8988109
:1043A000314604F5CC7001F01BF90123C4F8040276
:1043B00084F800328DF80D3084F88F81202383F348
:1043C000118800F0A5F900F033FAD5F8AC30434578
:1043D00010DC00F075FB00F0B3F9002383F31188C3
:1043E000B9E7612BB7D8591C2344C4F8FC1183F8F2
:1043F0009821B0E700F01CFAD5F8AC3004F5CA718A
:10440000013BC5F8AC30D5F894300B4803F10802F5
:10441000C5F8942019600399BA42596028BFC5F8BD
:10442000945000F0A5FBD4E704B0BDE8F08100BFD4
:10443000E008002051690008780900200000000011
:10444000C268D2E90013054A9342054A0CBF92683C
:104450005268B2FBF1F29A60704700BF0038014029
:10446000CC1500200000000000000000000000004B
:10447000002373B50446C0681A4681898068FFF737
:1044800047FEE3683B4A5B68934258D13A4B1A6A4D
:1044900042F480421A62DA6A22F48042DA62DB6A0B
:1044A00000262046FFF7CCFFE06809214368334A25
:1044B0001E618069234600F033FFE56843686A683F
:1044C0006060111D9960296A2869196001230C2117
:1044D00084F81831D160C02151611A46A98AFFF7CA
:1044E00017FEE068334632460921C06900F018FF24
:1044F000E16843684A68A060101D986004F59670F2
:10450000D8606320496A58601960196841F0010158
:104510001960D36843F40053D360194B1A6802B989
:104520001C60184C236843B9009380224FF49071AB
:10453000154B164800F06CFC206002B070BD144AA8
:1045400093420AD10C4B5A6A42F400325A621A6BF7
:1045500022F400321A631B6BA2E70E4A93429FD1EA
:10456000054B5A6A42F480225A621A6B22F4802266
:10457000F0E700BF003801400038024081420008E7
:104580002017002024170020C1400008001600203A
:10459000004400400048004000000000000000000F
:1045A00010B52023044683F3118800F0B1F80123ED
:1045B00084F88F3100F0C4F8002383F3118810BD14
:1045C000FFF7EEBFA0F5CA70FAE700000000000098
:1045D00008B500F0F5FDBDE8084000F001B80000A6
:1045E00000F03EB8000000000000000000000000E5
:1045F0004FF08043002258631A610222DA6070474C
:104600004FF080430022DA60704700000000000095
:104610004FF0804358637047000000000000000026
:1046200010B500F0D5F84FF080431A6992070CD509
:1046300000241C61202383F3118800F099F800F016
:104640000FFB00F0ADF884F3118800F0D9F8BDE855
:10465000104000F045BD0000000000000000000018
:10466000134B02215A6A1C2042F001025A621A6B53
:1046700042F001021A630F4A1B6B936843F0010377
:1046800093600D4B5A6842F21073B2FBF3F24FF095
:104690008043013A9A624FF6FF72DA6200229A6111
:1046A0005A63DA605A6001225A611A6000F008B851
:1046B00000380240002004E0CC150020000000007B
:1046C0000122090100F1604303F56143C9B283F897
:1046D000001300F01F039A4043099B0003F160435D
:1046E00003F56143C3F880211A60704700000000A1
:1046F000044BD3E90A23134302D0034800F0A8BABD
:10470000704700BF70170020906D00080000000087
:1047100010B5064CD4E90A1251EA020302D004484B
:1047200000F096FA0123E36210BD00BF701700206D
:10473000A06D000800000000000000000000000064
:1047400010B5064CA36A13B9E36A002B02DC0448D7
:1047500000F07EFA0023E36210BD00BF7017002056
:10476000B06D000800000000000000000000000024
:1047700010B5064CA36A002B01DDE36A13B10448AF
:1047800000F066FA0123E36210BD00BF701700203D
:10479000C06D0008000000000000000000000000E4
:1047A00010B5064CA36A002B02DDE36A002B02DC85
:1047B000034800F04DFA0023E36210BD701700209B
:1047C000D06D0008000000000000000000000000A4
:1047D000202310B583F31188074CA36A002B01DB5B
:1047E000E36A13B1054800F033FAA36A0133A36208
:1047F000002383F3118810BD70170020E06D0008BE
:10480000202310B583F31188074CA36A002B01DD28
:10481000E36A13B1054800F01BFAA36A013BA362E7
:10482000002383F3118810BD70170020F06D00087D
:10483000054B9A6A002A02DBDB6A002B02DC034884
:1048400000F006BA704700BF70170020006E000825
:10485000044B9A6A12B9DB6A002B02DC024800F0B2
:10486000F7B9704770170020106E000800000000B4
:104870000022024BC3E900339A6070477017002092
:1048800010B50446FFF7D4FF14B9094800F0E0F969
:104890000023A2682375074B1B6899689142FBD2DD
:1048A0005A6823606260204614605C6010BD00BFDF
:1048B000306E0008701700200000000000000000AB
:1048C00038B50446202383F31188FFF751FF237D79
:1048D0000025052B0BD8DFE803F0030A0A081C1695
:1048E000FFF75EFF85F3118838BDA3691D604FF0A7
:1048F000FF332046A361FFF7C3FFFFF751FF0023FB
:1049000083F31188F0E7A569FFF792FFAB680133E5
:10491000AB60D4E9003213605A60E8E700000000A1
:1049200010B50446FFF784FF14B9094800F090F968
:104930000023A2682375074B1B6899689142FBD836
:104940005A6823606260204614605C6010BD00BF3E
:10495000406E0008701700200000000000000000FA
:1049600070B506460D4C2569FFF772FF23682E755A
:104970001A6854602260012223611A75EFF30983DB
:104980002A69243B9A4202D9054800F061F9294678
:104990002069BDE87040FBF70BBC00BF701700201A
:1049A000206E000800000000000000000000000071
:1049B00070B50D4686B00446FFF74AFF6B1C0D4EDE
:1049C00013D0336929460C4A01A800F0C9FA2046E1
:1049D000FFF7C6FFFFF72CFF049B13B101A800F0FF
:1049E0001FFB3369986906B070BD2046FFF7B8FF1A
:1049F000F7E700BF70170020C14800080000000062
:104A0000F8B504460D46124E3769FFF721FFA2683C
:104A1000BB68A5619A4204D82046BDE8F840FFF77C
:104A20002FBF3846FFF77CFF01230546346123750D
:104A3000EFF309830269243B9A4202D9054800F04A
:104A400007F929462046BDE8F840FBF7B1BB00BF97
:104A500070170020206E0008000000000000000019
:104A6000044B1A681B6990689B68984294BF0020A9
:104A700001207047701700200000000000000000B7
:104A800038B50D4C236820691A68546022600122F1
:104A90001A752361FFF744FF0546EFF309830269A6
:104AA000243B9A4202D9054800F0D2F829462069F1
:104AB000BDE83840FBF77CBB70170020206E000873
:104AC00008B5FFF7C5FEFFF7B3FE064B1A681B6972
:104AD00092689B689A4203D9BDE80840FFF7D0BFAF
:104AE00008BD00BF7017002000000000000000009B
:104AF000FFF7C6BF0000000000000000000000003B
:104B000038B50D46044608B1002902DA034800F022
:104B10009FF8C4E90044A56038BD00BF606E00087E
:104B200038B504460D46FFF793FE14B90E4800F061
:104B30008FF8A3685A1E002AA26012DA1DB94FF03E
:104B4000FF30A36038BD094B62681B6929469C6130
:104B50001C605A60052013606360BDE83840FFF7B1
:104B600027BF0020EEE700BF706E0008701700201E
:104B700010B50446FFF75CFE14B9094800F068F868
:104B8000A3680133002BA36009DC2068036823605D
:104B90005C600023BDE810408361FFF771BE10BD6B
:104BA000906E0008000000000000000000000000FF
:104BB000FEE7000000000000000000000000000010
:104BC00038B50025194CFFF753FE00F0B9F98022E3
:104BD000174904F13000C4E90A5500F0B9F8154B43
:104BE0002061036101230375134B144AD96821F432
:104BF000E0610904090C0A431149DA60CA6842F00D
:104C00008072CA600F490A6842F001020A601022ED
:104C1000DA77202283F82220FFF76AFD85F31188D6
:104C200062B6BDE83840084800F0DAB870170020D6
:104C3000A06E00080004002000ED00E00003FA056B
:104C4000F0ED00E0001000E0C06E00080000000081
:104C500072B6014B5862FEE770170020000000009A
:104C60002DE9F84F4FF00008C146254CFFF7E0FD55
:104C7000FFF7DEFD656904F114074FF080435B6ABE
:104C8000268C9BB2AA689E1BB6B2964220D34FF0E8
:104C9000200AAA68238CD5F80CB0134423842B680F
:104CA000B61ABB425F606361C5F80C8001D1FFF7A3
:104CB000A7FCFFF775FD89F311882869D8478AF3A7
:104CC0001188FFF755FD6569AB689E42E1D2D4E7D4
:104CD0006269BA4212D0916823848E1B96604FF6A7
:104CE000FF72A868904228BF104602282CBF1818EF
:104CF000981CBDE8F84F80B2FFF78ABCBDE8F88F7A
:104D000070170020000000000000000000000000FC
:104D1000202383F31188FFF7FBBC00000000000094
:104D200008B5FFF70DFD002383F3118808BD0000CF
:104D300010B5044610B90448FFF78AFF2146BDE8C4
:104D400010400820FFF734BEE06E000800000000AD
:104D50008260022282827047000000000000000092
:104D600010B50446FFF764FD14B91948FFF770FF4A
:104D70006268500707D1A368590704D19A4202D24A
:104D80009B1A9F2B02D81248FFF762FFE368FF2BA4
:104D900001D8236913B90E48FFF75AFFD4E901304F
:104DA00040F8103CA0F1440340F8143C236920383B
:104DB00040F8243C636940F8203C064B40F8043C32
:104DC000E3688360022303750023437510BD00BFB1
:104DD000F06E0008C10100080000000000000000A3
:104DE00010B5D0E90132044655219A420CD8FFF79C
:104DF0008FFF2046FFF7B4FF04460021FFF700FEB7
:104E0000FFF78EFF204610BD03F8011BEDE7000001
:104E1000F8B50C4616461F46054640B19F2906D9EF
:104E200040EA01035B0702D1FF2A00D817B91348F3
:104E3000FFF70EFF2B4655212A199A421AD8203C1B
:104E40002C44FFF765FFA4F12403E360069B204692
:104E500044F8203C0A4B002144F8043C022325611D
:104E6000A38244F8247CA660FFF7CAFDFFF758FF31
:104E70002046F8BD03F8011BDFE700BF106F0008F4
:104E8000C101000800000000000000000000000058
:104E9000024B1B6998610F20FFF762BD701700205D
:104EA00010B50446FFF734FF2046BDE81040FFF779
:104EB000EFBF000000000000000000000000000044
:104EC00010B50446FFF724FF2046FFF731FFBDE889
:104ED0001040FFF725BF00000000000000000000A8
:104EE00010B5054C2369036098610320FFF738FD76
:104EF0002369986910BD00BF7017002000000000F2
:104F0000054B1B6921B1036098610320FFF750BD79
:104F10004FF0FF30704700BF701700200000000006
:104F20000346006820B100221A608161FFF7A8BC27
:104F300070470000000000000000000000000000BA
:104F4000054B03F11402C3E905224FF0FF32DA6189
:104F500000221A84704700BF701700200000000074
:104F6000F8B505460C4616461F46FFF761FC0DB125
:104F700006B114B92548FFF76BFE4FF08043586A1D
:104F8000234BC5E903671A4652F8146F022C2146D9
:104F900038BF022196421F4680B210D14FF6FF74EF
:104FA0001884A14294BF40180019C3E9055580B286
:104FB000C5E90066A960BDE8F840FFF719BB1B8C86
:104FC000B268C41AA4B20C1902D3A41A36680AE053
:104FD000A24208D94FF6FF70844294BF18191818DE
:104FE00080B2FFF715FBB368A3420CD373682E6041
:104FF0006B601D607560AC60B3681C1B4FF0FF33C5
:10500000B460FB61F8BDE41AE0E700BF406F000840
:1050100070170020000000000000000000000000E9
:1050200038B50446FFF704FC14B92248FFF710FE18
:10503000214923680A4652F8140FA0420CD0616837
:105040000B602368596000219342E16003D09A68A5
:10505000A1680A449A6038BD002093424B615A60AF
:10506000E06003D1BDE83840FFF7CABA9868A2688B
:105070000D8C104498604FF080435C6A641BA4B2AE
:10508000A042E8D9031B012B09D80234B4F5803FB4
:105090000BD2281980B2BDE83840FFF7B9BA4FF6F5
:1050A000FF74844228BF0446F3E70448FFF7D0FDAD
:1050B000EFE700BF506F000870170020306F000846
:1050C000EFF30983203383F30988002383F31188E6
:1050D0007047000000000000000000000000000019
:1050E000202310B583F311880D4B5B6813F4006324
:1050F00012D0EFF309844FF0807344F8043CA4F11C
:10510000200383F30988FFF7ABFC18B1054B44F883
:10511000083C10BD044BFAE783F31188F9E700BFA0
:1051200000ED00E0D5010008E001000800000000EB
:1051300070470000000000000000000000000000B8
:1051400070470000000000000000000000000000A8
:105150007047000000000000000000000000000098
:10516000FEE700000000000000000000000000005A
:10517000F0B5082000261049D1E901341D460A681F
:10518000043AAC4210D8E21CD21ADD1E22F003020F
:10519000AC4238BF00221344CA689A4209D8013889
:1051A00001F11001E8D1F0BD52F8047F45F8047B0D
:1051B000E7E743F8046BF0E7606F000800000000C9
:1051C00008B51A4B1A6942F07F4242F47F0242F45A
:1051D000FF4242F040021A611A6922F4FF4222F0B3
:1051E00040021204120C1A611A699A6962F0805224
:1051F0009A619A6902F080529A619A695A694FF0ED
:10520000FF325A615A6900225A615A695A6A42F059
:1052100080525A621A6B42F080521A631B6B00F084
:1052200007F8BDE8084000F023B900BF003802408D
:1052300000230121084A10B5C2E900330748446839
:105240001030236042F8313001310829F7D14FF096
:10525000FF32034B5A6010BD28170020F06F000882
:10526000006002400000000000000000000000009C
:105270002DE9F84F0446884692469B46FFF7D8FA38
:10528000062C09D80127224DA7402A68174207D0CB
:1052900000263046BDE8F88F1E48FFF7D9FCF7E737
:1052A0001D4B3A432A601D49DA694FEA041901EBA4
:1052B0000416013445F834A042F0807205EBC404B2
:1052C000C4F804B0DA619A6A0C4642F080729A62BD
:1052D0009B6ABAF1000F0AD06A68B3681A4203D118
:1052E0004146F07BFFF7ECF96B681F436F6004EBFE
:1052F00009014B68497B1A6854F8090022F00F0233
:105300001A600E228A40426000221A60C1E700BF84
:1053100028170020E06F000800380240F06F0008F6
:10532000F8B51F4604460D461646202383F3118820
:10533000FFF7EEF93B46324629462046FFF798FF35
:105340000446FFF7FDF9002383F311882046F8BDDA
:1053500010B40468437B21684268D940126801F0A8
:105360000E010A420ED0827B01FA03F36360064B02
:10537000013253F832402CB103EBC2035868234684
:1053800010BC184710BC7047281700200000000010
:1053900008B5FFF71DFA0448FFF7DAFFFFF730FA08
:1053A000BDE80840FFF79CBEF06F00080000000059
:1053B00008B5FFF70DFA0448FFF7CAFFFFF720FA18
:1053C000BDE80840FFF78CBE007000080000000038
:1053D00008B5FFF7FDF90448FFF7BAFFFFF710FA29
:1053E000BDE80840FFF77CBE107000080000000018
:1053F00008B5FFF7EDF90448FFF7AAFFFFF700FA39
:10540000BDE80840FFF76CBE2070000800000000F7
:1054100008B5FFF7DDF90448FFF79AFFFFF7F0F949
:10542000BDE80840FFF75CBE3070000800000000D7
:1054300008B5FFF7CDF90448FFF78AFFFFF7E0F959
:10544000BDE80840FFF74CBE4070000800000000B7
:1054500008B5FFF7BDF90448FFF77AFFFFF7D0F969
:10546000BDE80840FFF73CBE507000080000000097
:105470007047000000000000000000000000000075
:10548000014B1868704700BF54080020000000005E
:1054900003460244934200D1704703F8011BF9E729
:1054A000F8B5CD1C25F0030508350C2D38BF0C25AB
:1054B000002D064601DBA94203D90C2333600020EE
:1054C000F8BD00F0E5FA21490A6814469CB9204F5E
:1054D0003B6823B92146304600F072F8386029460F
:1054E000304600F06DF8431C23D10C233046336066
:1054F00000F0D6FAE3E723685B1B17D40B2B03D924
:1055000023601C44256004E06368A2420CBF0B606A
:105510005360304600F0C4FA04F10B00231D20F064
:105520000700C21ACCD01B1AA350C9E722466468F0
:10553000CCE7C41C24F00304A042E3D0211A304677
:1055400000F03EF80130DDD1CFE700BF6817002042
:105550006C170020000000000000000000000000A8
:1055600038B5104B04461D68AB6BB3B9182000F07A
:1055700087FA0246A86320B940210B4B0B4800F084
:1055800027F90B490B4BC0E900130B4B002183603B
:105590000B2383810120C2E904010022AB6B1C6153
:1055A0005A6138BD540800207070000887700008E8
:1055B0000E33CDAB34126DE6ECDE050000000000CA
:1055C00038B50023054D044608462B60FDF7E0FF83
:1055D000431C02D12B6803B1236038BD7C18002026
:1055E000164B2DE9F0411F680546BC6D0E46ECB91F
:1055F000502000F045FA0246B86520B95721104BFB
:10560000104800F0E5F8C0E90044C0E90244C0E9F0
:105610000444C0E90A44C0E90C44C0E90E44C0E9AE
:105620001044C0E91244846104774462314628463C
:10563000BA6D0123BDE8F04100F00AB8540800201B
:1056400070700008F070000800000000000000000A
:10565000F0B508B9106888B104460F46204614F822
:10566000015B17F8016B1EB965B92846156005E0A6
:10567000B542F6D1002BF0D114600370F0BD1C468A
:105680000CE015B90E4614F8013B16F8015BAB426D
:10569000F7D1002BF3D0002304F8013C1460EDE7B0
:1056A000012B2DE9F047864601D0242B06D9FFF7C0
:1056B000E7FE162303600020BDE8F0878C463A4ED3
:1056C00060461CF8014BA55D15F00805F8D12D2C9E
:1056D00033D14FF001089CF8004000F1020C002B80
:1056E0005DD0102B0CD1302C0AD19CF8000000F0BA
:1056F000DF0058284ED110239CF801400CF1020C19
:10570000002508F10047013FB7FBF3F9284603FBEA
:10571000197AA4F13006092E18D83446A34224DDA4
:10572000002D1FDB81451DD301D1A2451ADB0125C8
:1057300000FB03401CF8014BEBE72B2C08BF9CF847
:105740000040A84608BF00F1020CC8E7A4F14106DA
:10575000192E01D8373CE1E7A4F16106192E04D8CF
:10576000573CDBE74FF0FF35E4E7002D08DA222352
:105770003846CEF80030002A9ED00CF1FF3107E009
:10578000B8F1000F00D04042002A95D0002DF4D18E
:10579000116091E73024002BB2D10823B0E7302C00
:1057A000A3D00A23ACE700BFA171000800000000ED
:1057B00013460A46014602480068FFF771BF00BF62
:1057C000540800200000000000000000000000005D
:1057D0001FB514461A46094B05461B68D8684CB1DC
:1057E000074BCDE9013400912B46064900F0F8F84B
:1057F00000F0DEFD044B1C46F3E700BF5408002018
:10580000607100086D7100089868000800000000D1
:10581000002310B50446C0E90033C0E904338360B7
:1058200081814366C2818361194608225C30FFF79B
:105830002FFE054B24626362044BA362044BE362B8
:10584000044B236310BD00BF416100087161000873
:10585000B1610008E16100080000000000000000E4
:10586000014900F0D5B800BFF16400080000000055
:1058700070B568254A1E55430E4605F17401FFF7C1
:105880000FFE044640B10021C0E900160C30A060B4
:1058900005F16802FFF7FCFD204670BD0000000026
:1058A000014800F0DDB800BF7818002000000000BB
:1058B000014800F0DDB800BF7818002000000000AB
:1058C000014800F0CDB800BF7318002000000000B0
:1058D000014800F0CDB800BF7318002000000000A0
:1058E00010B50446FFF7ECFFA3691BB1BDE81040FB
:1058F000FFF7EEBFC4E912332365134B134A1B684D
:10590000A262A34208BF0123204608BFA36100F0A2
:105910001FF86060204600F01BF8A060204600F0F1
:1059200017F800220421E0606068FFF771FF012290
:105930000921A068FFF76CFF02221221E068FFF73F
:1059400067FF0123A361D1E7607000086158000878
:10595000F8B50746FFF7A4FF1E4B1E68B36913B9DD
:105960003046FFF7BDFF4836D6E90134013B03D589
:1059700033680BB33668F7E7B4F90C50D5B9164B5A
:1059800004F15800E360656600F062F8FFF790FFED
:1059900008222946C4E90155C4E904552560A561DA
:1059A00004F15C00FFF774FDC4E90D55C4E912551C
:1059B0002046F8BD6834D9E704213846FFF758FF80
:1059C000044630600028D5D1FFF772FF0C233B60FE
:1059D000EEE700BF607000080100FFFF000000005C
:1059E0000EB403B5014603AB054853F8042B006819
:1059F000019300F0DDF802B05DF804EB03B07047EE
:105A0000540800200000000000000000000000001A
:105A10002DE9F84306468846002700F14804D4E9FA
:105A20000195B9F1010905D52468002CF7D1384654
:105A3000BDE8F883AB89012B07D9B5F90E300133E6
:105A400003D029463046C04707436835E9E70000E0
:105A5000704700000000000000000000000000008F
:105A6000704700000000000000000000000000007F
:105A7000704700000000000000000000000000006F
:105A8000024B01461868FFF70BBD00BF5408002009
:105A90000148FFF7E5BF00BF7418002000000000B8
:105AA0000148FFF7E5BF00BF7418002000000000A8
:105AB00038B50546002943D051F8043C0C1F002B93
:105AC000B8BFE418FFF7E4FF1E4A1368104633B965
:105AD000636014602846BDE83840FFF7E1BFA34289
