:020000040800F2
:10000000000400205101000853010008217100087C
:100010005301000853010008530100085301000870
:10002000530100085301000853010008C15800089B
:100030005301000853010008530100085301000850
:100040005301000853010008530100085301000840
:10005000530100085301000851710008A171000804
:10006000F17100084172000891720008715900088E
:1000700091590008B1590008D1590008F1590008F8
:10008000115A0008315A00085301000853010008B2
:10009000530100085301000853010008E1720008F1
:1000A00053010008E17300085301000853010008E0
:1000B00053010008530100085301000853010008D0
:1000C0005301000853010008530100088173000820
:1000D000B1730008530100085301000853010008E0
:1000E0003173000853010008530100085301000850
:1000F0005301000853010008530100085301000890
:10010000530100085301000853010008530100087F
:10011000530100085301000853010008530100086F
:10012000530100085301000853010008530100085F
:10013000530100085301000853010008530100084F
:04014000A17400089E
:1001500026E000F000F8FEE70000000000000000CC
:100160002DE9F04FC1F80CD0C3689D46BDE8F08F73
:1001700004F006FB002383F311882846A0470020E3
:1001800005F08EFB04F0E4FA05F052FB04F0F8FAF7
:1001900000DFFEE70000000000000000000000009B
:1001A00072B6274880F30888264880F309882648D5
:1001B0004EF60851CEF200010860022080F3148848
:1001C000BFF36F8F05F08CFB05F092FB4FF05530BD
:1001D0001E491B4A91423CBF41F8040BFAE71C49F7
:1001E000184A91423CBF41F8040BFAE719491A4AF0
:1001F0001A4B9A423EBF51F8040B42F8040BF8E741
:1002000000201749174A91423CBF41F8040BFAE716
:1002100005F086FB05F074FB134C144DAC4203DA79
:1002200054F8041B8847F9E705F012FC104C114DF7
:10023000AC4203DA54F8041B8847F9E705F068BBC1
:10024000000400200008002000000008000000203A
:1002500000040020B08A0008000800205C0800208C
:1002600060080020DC230020400100084401000851
:1002700044010008440100080000000000000000E4
:1002800053B94AB9002908BF00281CBF4FF0FF31FD
:100290004FF0FF3000F00CB8ADF1080C6DE904CE62
:1002A00007F08EFBDDF804E0DDE9022304B07047BF
:1002B000704700BF000000000000000000000000C8
:1002C000064B9A6A002A01DDDA6A1AB172B6044A4C
:1002D0005A62FEE70122DA62704700BFAC1D0020BF
:1002E000B07C0008000000000000000000000000DA
:1002F000064B9A6A002A02DDDA6A002A03DC72B62B
:10030000034A5A62FEE70022DA627047AC1D002001
:10031000C07C000800000000000000000000000099
:10032000202383F31188074B9A6A002A01DBD96ADC
:1003300019B172B6044A5A62FEE701329A6281F339
:1003400011887047AC1D0020D07C00080000000020
:10035000202383F31188074B9A6A002A01DDD96AAA
:1003600019B172B6044A5A62FEE7013A9A6281F301
:1003700011887047AC1D0020E07C000800000000E0
:10038000054B9A6A002A02DBDA6A002A03DC72B69D
:10039000024A5A62FEE77047AC1D0020F07C00085C
:1003A000054B9A6A12B9DA6A002A03DC72B6034A6C
:1003B0005A62FEE7704700BFAC1D0020007D0008B8
:1003C00008B5FFF7DDFF094B18B972B6084A5A6243
:1003D000FEE70022027582681B6899689142FBD88B
:1003E0005A68036042601060586008BDAC1D002070
:1003F000408800080000000000000000000000002D
:10040000FEE7000000000000000000000000000007
:1004100070B515461E46254CFFF7B2FF19B972B6E6
:10042000234B6362FEE7C0E903562646214D56F88A
:10043000143F02296A6A38BF0221B34292B212D134
:100440002284C4E90500C0E900334FF6FF739942E6
:1004500094BF5218D218002392B281606A632B6154
:100460000223EB6070BD268C921B92B289189A68A9
:1004700002D31B68891A09E0914207D24FF6FF7236
:10048000914294BF7618B618B6B26E639A688A42E3
:10049000EFD35A68036042601060586081609A68C8
:1004A000521A9A604FF0FF33E361DBE7AC1D002086
:1004B000A0880008000801400000000000000000C3
:1004C00038B51F4CFFF75CFF234653F8141F8142D9
:1004D0000CD0D0E900210A60516000219A42C1602D
:1004E00003D0936881680B44936038BD00250A6887
:1004F00014489A4262615360CD6001D1C560F4E74F
:10050000936889680B449360218C426A521A92B2B4
:100510009342EAD99D1A012D07D8931CB3F5803F69
:1005200009D2194489B24163DFE74FF6FF72934263
:1005300028BF1346F5E772B6034B6362FEE700BFC0
:10054000AC1D002000080140808800080000000069
:10055000202383F311880F4B5B6813F4006315D0DD
:10056000EFF309834FF0807243F8042CA3F12002CB
:1005700082F30988084A1168126989689268914271
:100580008CBF064A064A43F8082C704783F311884B
:10059000704700BF00ED00E0AC1D002085010008A1
:1005A00090010008000000000000000000000000B2
:1005B00010B40468437B2168827B4068D94000689E
:1005C00001F00E0108420DD001FA03F36360064BFF
:1005D000013253F832402CB103EBC2035868234672
:1005E00010BC184710BC7047A81E00200000000077
:1005F00008B5FFF7C5FEC3681BB1BDE80840FFF7AB
:100600005FBF08BD00000000000000000000000007
:100610000269036803EB820319637047000000005E
:1006200000214830FFF7F4BF000000000000000088
:1006300000214830FFF7ECBF000000000000000080
:1006400038B50446856B4830A9880835FFF7E0FFC8
:100650000020A56338BD000000000000000000007D
:1006600037B5002503682946DB680446984784F8B7
:10067000C85084F8C95084F8CA5084F8CB5003B0ED
:1006800030BD00000000000000000000000000007D
:1006900013B5044601916430C9B2FFF7B9FF9DF864
:1006A000051004F18400FFF7B3FF9DF8061004F174
:1006B000A40002B0BDE81040FFF7AABF0000000090
:1006C00042F62F220A4B1B6893420ADCB3F5616F96
:1006D00009DA002B09DA13F5167FACBF03200420DA
:1006E000704700207047012070470220704700BF0C
:1006F00004080020000000000000000000000000CE
:10070000104B984205D1104AD36943F00103D361DD
:1007100070470E4B984204D10B4AD36943F0020351
:10072000F5E70B4B984204D1074AD36943F0040321
:10073000EDE7084B9842EBD1034AD36943F0080335
:10074000E5E700BF0000024000380240000402401C
:1007500000080240000C0240000000000000000001
:10076000104B984205D1104AD36943F00103D3617D
:1007700070470E4B984204D10B4AD36943F00203F1
:10078000F5E70B4B984204D1074AD36943F00403C1
:10079000EDE7084B9842EBD1034AD36943F00803D5
:1007A000E5E700BF000002400038024000040240BC
:1007B00000080240000C02400000000000000000A1
:1007C000202383F31188FFF77BBD000000000000A9
:1007D00008B5FFF78DFD002383F3118808BD0000E5
:1007E00008B5FFF7EDFF03681B689847BDE80840B0
:1007F000FFF7EEBF00000000000000000000000056
:100800000268134B10B59A421248134B06D0134C92
:10081000A24203D004F58064A24214D180689B6890
:1008200010F4005FD06A18BF5B000130B3FBF0F337
:10083000B3FBF1F08B424FF0000328BF00F1FF3013
:100840009062536210BD80685B6810F4806FE9E7C6
:1008500000080140003802408C080020000C0140D4
:1008600070B5856B0446B5F8051000F1480611B166
:100870003046FFF7C5FFD5F80110304689B207357D
:10088000FFF7C6FE0020A56370BD00000000000059
:10089000034670B500B913680E46184613F8014BAD
:1008A00016F8015B6DB9A4B10E4613F8014B16F8AA
:1008B000015BAC420AD13CB1002103F8011C13607A
:1008C00070BDAC42ECD1E7E72346F8E7002DEED14E
:1008D000EAE723462046F2E700000000000000009F
:1008E000D0F80C21D0F8181100F586739B1A8B42B2
:1008F00028BF0B46C0F81C317BB1002380F81431AF
:1009000003685B68DA60D0F81C215A608268126A5A
:100910001A601A6842F001021A6070470000000075
:10092000036859680A6822F00F020A60597B1A6846
:100930000E238B405360D0F80C21D0E946310A4495
:100940005B1A00F586718A4228BF00F10C02C0F8DC
:100950001831C0F80C211BB9012380F814317047FD
:10096000FFF7BEBF00000000000000000000000014
:10097000D0F81831FF2B02D94FF00D007047D0F896
:1009800010315A1CC0F810211970D0F8102100F550
:1009900086739A4224BF00F10C03C0F81031D0F8DE
:1009A00018310133C0F818314FF0000070470000D3
:1009B0005830FFF7DDBF000000000000000000001D
:1009C00090F814310BB1FFF78BBF704700000000A7
:1009D0005830FFF7F5BF00000000000000000000E5
:1009E000002301226C202DE9F047FF2403256FF03E
:1009F0003D0604274FF0020CFA496FF04B0E0B70C6
:100A00004B708B70CB700B71CB710B724A72CB72C7
:100A10000B734B738B73CB730B744B748B74CB74E2
:100A20000B754B758B75CB750B764B768B76CA76C3
:100A30004B778B774C718C7188720877CB7781F804
:100A4000203081F8213081F8223081F8233081F87C
:100A5000252081F8263081F8273081F8283081F868
:100A6000293081F82A3081F82B3081F82C3081F838
:100A70002D2081F82F2081F8303081F8313081F835
:100A8000323081F8333081F8343081F83530C1F8B4
:100A9000373081F83B3081F83C3081F83D3081F8C7
:100AA0003E3081F8247081F82E6081F83650CE49AE
:100AB0004FF01B080B704B708B70CB700B714B7130
:100AC0008B710B724A72CB720B734B738B73CB733C
:100AD0000B744B748B74CB740B754B758B75CB751A
:100AE0000B764B768B76CA764A778B77CB7781F805
:100AF000203081F8213081F8223081F82330C1F88C
:100B00002530CC7188720E7781F8245081F8293015
:100B100081F82A3081F82B3081F82C30B3496FF0FE
:100B200028090B704B708B70CB700B714B718B71F4
:100B30000B724A72CB720B734B738B73CB730B7448
:100B40004B748B74CB740B754B758B75CB750B76A7
:100B50004B768B76CA76CC71887208774B778B7719
:100B6000CB7781F8203081F8213081F8223081F86C
:100B7000233081F8252081F8263081F8273081F84C
:100B8000283081F8293081F82A3081F82B3081F81B
:100B90002C3081F82D2081F82F2081F8303081F819
:100BA000313081F8323081F8333081F8343081F8D7
:100BB0003530C1F8373081F83B3081F83C3081F86E
:100BC0003D3081F83E3081F8247081F82E6081F844
:100BD000365087494FF0760A0B704B708B70CB7094
:100BE0000B714B718B710B724A72CB720B734B731F
:100BF0008B73CB730B744B748B74CB740B754B75FD
:100C00008B75CB750B764B768B76CA764B778B775D
:100C1000CB7781F8203081F82130CC718872087749
:100C200081F8223081F8233081F8263081F827308E
:100C300081F8283081F8293081F82A3081F82B306A
:100C400081F82C3081F82D2081F82F2081F8303068
:100C500081F8313081F8323081F8333081F8343026
:100C600081F83530C1F8373081F83B3081F83C30BD
:100C700081F83D3081F83E3081F8247081F825C03C
:100C800081F82E6081F836505A490B704B708B708A
:100C9000CB700B714C718C71CC710B724A72CB7230
:100CA0000B734B738B73CB730B744B748B74CB7450
:100CB0000B754B758B75CA750A764A768B76CB6148
:100CC00081F8203081F8213081F8223081F82330FA
:100CD0008872CD7648490B704B708B70CB700B715E
:100CE0008B714C71CB710B724A72CB720B734B735D
:100CF0008B73CB730B744B748B74CB740B754B75FC
:100D00008B75CB750B764B768B76CA764A778B775D
:100D1000CB7781F8203081F8213081F8223081F8BA
:100D20002330C1F8253081F8293081F82A308872C3
:100D30000E7781F8245081F82B3081F82C302F4920
:100D40000B704B708B70CB700B718B71CB710B7206
:100D50004A72CB720B734B738B73CB730B744B74E4
:100D60008B74CB740B754B758B75CB750B764B7683
:100D70008B76CA764B778B774C7188720877CB77F6
:100D800081F8203081F8213081F8223081F8233039
:100D900081F8252081F8263081F8273081F8283025
:100DA00081F8293081F82A3081F82B3081F82C30F5
:100DB00081F82D2081F82F2081F8303081F83130F2
:100DC00081F8323081F8333081F8343081F83530B1
:100DD000C1F8373081F83B3081F83C3081F83D3044
:100DE0000EE000BF5B0A0020010F00202E0F002044
:100DF0006D0F0020F41A00202F1000205C1000203E
:100E000081F83E3081F8247081F82E6081F83650E8
:100E1000FA490B704B708B70CB700B718B71CB716F
:100E20000B724A72CB720B734B738B73CB730B7455
:100E30004B748B74CB740B754B758B75CB750B76B4
:100E40004B768B76CA764B778B77CB7781F82030D1
:100E500081F8213081F8223081F823304C7188727A
:100E6000087781F8247081F825C081F8263081F850
:100E7000273081F8283081F8293081F82A3081F82C
:100E80002B3081F82C3081F82D2081F82F2081F82B
:100E9000303081F8313081F8323081F8333081F8E8
:100EA000343081F83530C1F8373081F83B3081F883
:100EB0003C3081F83D3081F83E3081F82E6081F879
:100EC0003650CF490B704B708B70CB700B718B71A0
:100ED0000B724A724C71CC718872CB720B734B736C
:100EE0008B73CB730B744B748B74CB740B754B750A
:100EF0008B75CB750B764B768B76CA764A778B776C
:100F0000CB7781F8203081F8213081F8223081F8C8
:100F10002330C1F8253081F8293081F82A3081F852
:100F20002B3081F82C300E7781F82450B5490B70A6
:100F30004B708B70CB700B714B710B724A72CB7212
:100F40000B734B738B73CB730B744B748B74CB74AD
:100F50000B754B758B75CB750B764B768B76CA768E
:100F60004A778B77CB7781F8203081F821308C71EC
:100F7000CC7188720E7781F8223081F82330C1F865
:100F8000253081F8293081F82A3081F82B3081F81A
:100F90002C3081F824509C490B704B708B70CB70B7
:100FA0000B718B71CB710B724A72CB720B734B73DB
:100FB0008B73CB730B744B748B74CB740B754B7539
:100FC0008B75CB750B764C7188724B768B76CA76A7
:100FD0004B778B77CB7781F8203081F8213081F8FF
:100FE000223081F8233081F8243081F8253081F8CF
:100FF000263081F8273081F8283081F8293081F8AF
:101000002B3081F82C3081F82D2081F82F3081F899
:10101000303081F8313081F8323081F8333081F866
:10102000343081F8353081F8363081F8373081F846
:10103000383081F83930087781F82A4081F82E005D
:1010400081F83A3081F83B3081F83C3081F83D300E
:1010500081F83E3081F83F2081F8412081F842300C
:1010600081F8433081F8443081F8453081F84630CA
:1010700081F84730C1F8493081F84D3081F84E3061
:1010800081F84F3081F8503081F8406081F8485045
:101090005E490B704B708B70CB700B718B71CB7189
:1010A0000B724A72CB720B734C7188724B738B73D9
:1010B000CB730B744B748B74CB740B754B758B7536
:1010C000CB750B764B768B76CA764B778B77CB7757
:1010D00081F8203081F8213081F8223081F82330E6
:1010E00081F8252081F8263081F8273081F82830D2
:1010F00081F8293081F82A3081F82B3081F82C30A2
:1011000081F82D30087781F8247081F82E3081F82D
:101110002F3081F8303081F8313081F8323081F869
:10112000343081F8353081F8362081F8383081F854
:10113000393081F83A3081F83B3081F83C3081F821
:101140003D3081F83E3081F83F3081F8403081F801
:10115000413081F8423081F8433081F8443081F8E1
:10116000453081F8463081F8473081F8482081F8D1
:101170004A2081F84B3081F84C3081F84D3081F8AD
:101180004E3081F8334081F8370081F8496081F8AA
:101190004F3081F85030C1F8523081F8563081F824
:1011A000573081F8583081F8593081F8515018493A
:1011B0000B704B708B70CB700B718B71CB710B7292
:1011C0004A72CB720B734B738B73CB730B744B7470
:1011D0008B74CB740B754B758B75CB750B764C7113
:1011E00088724B768B76CA764B778B77CB7781F884
:1011F000203081F8213081F822300BE09B10002054
:10120000010A0020541A002075130020C613002084
:101210002014002081F8233081F8263081F827300F
:1012200081F8283081F8293081F82A3081F82B3074
:1012300081F82C3081F82D3081F82E3081F82F3054
:1012400081F8303081F8313081F8323081F8343033
:1012500081F8353081F8362081F8383081F839301E
:10126000087781F8247081F825C081F8334081F82F
:10127000370081F83A3081F83B3081F83C3081F812
:101280003D3081F83E3081F83F3081F8403081F8C0
:10129000413081F8423081F8433081F8443081F8A0
:1012A000453081F8463081F8473081F8482081F890
:1012B0004A2081F84B3081F84C3081F84D3081F86C
:1012C0004E3081F84F3081F85030C1F8523081F8FB
:1012D000563081F8573081F8583081F8593081F80C
:1012E000496081F85150FA490B704B708B70CB708C
:1012F0000B71CB710B724A72CB720B734B738B7386
:10130000CB730B744B748B74CB740B754B758B75E3
:10131000CB750B764B768B76CA764A778B77CB7705
:1013200081F8203081F8213081F8223081F8233093
:10133000C1F825304C718C7188720E7781F8245079
:1013400081F8293081F82A3081F82B3081F82C304F
:10135000E0490B704B708B70CB700B714B71CB7184
:101360000B724A72CB720B734B738B73CB730B7410
:101370004B748B74CB740B754B758B75CB750B766F
:101380004B768B76CA768C7188720E774A778B771C
:10139000CB7781F8203081F8213081F8223081F834
:1013A0002330C1F8253081F8293081F82A3081F8BE
:1013B0002B3081F82C3081F82450C7490B704B70CA
:1013C0008B70CB700B714B718B710B724A72CB723D
:1013D0000B734B738B73CB730B744B748B74CF7118
:1013E0008872CB740B754B758B75CB750B764B7602
:1013F0008B76CA764A778B77CB7781F8203081F865
:10140000213081F8223081F82330C1F8253081F86D
:10141000293081F82A3081F82B3081F82C300E7772
:1014200081F82450AD490B704B708B70CB700B71F1
:101430004B718B710B724A72CF718872CB720B73C6
:101440004B738B73CB730B744B748B74CB740B75A6
:101450004B758B75CB750B764B768B76CA764B7747
:101460008B77CB7781F8203081F8213081F82230DA
:1014700081F8233081F8252081F8263081F8273043
:1014800081F8283081F8293081F82A3081F81CE071
:1014900081F8247081F82B3081F82C3081F82D20D0
:1014A00081F82F2081F8303081F8313081F83230E6
:1014B00081F8333081F8343081F83530C1F8373075
:1014C00081F83B3081F83C3081F83D3081F83E3086
:1014D00081F82E6081F8365081490B704B708B700B
:1014E000CB700B714B718B710B724A72CB720B7399
:1014F0004B738B73CB73CF7188720B744B748B747B
:10150000CB740B754B758B75CB750B764B768B76D9
:10151000CA764B778B77CB7781F8203081F82130F2
:1015200081F8223081F8233081F8263081F8273085
:1015300081F8283081F8293081F82A3081F82B3061
:1015400081F82C3081F82D2081F82F2081F830305F
:1015500081F81CE081F8247081F825C081F82E60A4
:1015600081F8313081F8323081F8333081F834300D
:1015700081F83530C1F8373081F83B3081F83C30A4
:1015800081F83D3081F83E3081F8365055490B7076
:101590004B708B70CB700B714A718A71CA710B7270
:1015A000C1F80A308B73CB730B744B744D724E4978
:1015B0000B704B708B70CB700B718B714F71CB714B
:1015C0000B724A72CB720B734B738B73CB730B74AE
:1015D0004B748B74CB740B754B758B75CB750B760D
:1015E0004B768B76CA764A778B77CB7781F820302B
:1015F00081F8213081F8223081F82330C1F825307C
:1016000081F8293081F82A3088720E7781F82450C9
:1016100081F82B3081F82C3034490B704B708B7073
:10162000CB700B718B71CB710B724A72CB720B73D7
:101630004B738B73CB730B744B748B74CB740B75B4
:101640004B758B75CB750B764B768B76CA764B7755
:101650008B774F71887281F81CE0CB7781F820304E
:1016600081F8213081F8223081F8233081F825205B
:1016700081F8263081F8273081F8283081F8293028
:1016800081F82A3081F82B3081F82C3081F82D2018
:1016900081F82F2081F8303081F8313081F83230F4
:1016A00081F8333081F8343081F83530C1F8373083
:1016B00081F83B3081F83C3081F83D3081F83E3094
:1016C00081F8247081F82E6081F8365010E000BF58
:1016D0002E0A00201C1A0020E614002013150020FA
:1016E000521500203B120020D0150020FD150020CF
:1016F000FA490B704B708B70CB700B718B71CB7187
:101700000B724A72CB720B734B738B73CB730B746C
:101710004B748B74CB740B754B758B75CB750B76CB
:101720004B768B76CA764B778B77CB7781F82030E8
:1017300081F8213081F8223081F823304F7188728E
:1017400081F81CE081F8247081F825C081F82630EA
:1017500081F8273081F8283081F8293081F82A3043
:1017600081F82B3081F82C3081F82D2081F82F2042
:1017700081F8303081F8313081F8323081F83330FF
:1017800081F8343081F83530C1F8373081F83B309A
:1017900081F83C3081F83D3081F83E3081F82E6090
:1017A00081F83650CE490B704B708B70CB700B713B
:1017B0008B710B724A724F71CF718872CB720B733F
:1017C0004B738B73CB730B744B748B74CB740B7523
:1017D0004B758B75CB750B764B768B76CA764A77C5
:1017E0008B77CB7781F8203081F8213081F8223057
:1017F00081F82330C1F8253081F8293081F82A306A
:1018000081F82B3081F82C300E7781F82450B549BF
:101810000B704B70C1F80A308B70CB700B714B7131
:101820000B728B73CB730B744B7481F806C081F809
:1018300007C04D72AC490B704B708B70CB700B7145
:101840004B7181F8068081F807800B724A72CB7267
:101850000B734B738B73CB730B744B748B748872D9
:10186000CB740B754B758B75CB750B764B768B7676
:10187000CA764A778B77CB7781F8203081F8213090
:1018800081F8223081F82330C1F8253081F82930E1
:1018900081F82A3081F82B3081F82C300E7781F8CE
:1018A000245092490B704B708B70CB700B714B7145
:1018B00081F8068081F807800B724A728872CB72B9
:1018C0000B734B738B73CB730B744B748B74CB7424
:1018D0000B754B758B75CB750B764B768B76CA7605
:1018E0004B778B77CB7781F8203081F8213081F8E6
:1018F000223081F8233081F8252081F8263081F8C4
:10190000273081F8283081F8293081F82A3081F891
:101910001CE081F8247081F82B3081F82C3081F89C
:101920002D2081F82F2081F8303081F8313081F876
:10193000323081F8333081F8343081F83530C1F8F5
:10194000373081F83B3081F83C3081F83D3081F808
:101950003E3081F82E6081F83650654981F8068066
:1019600081F807806FF02F080B704B708B70CB7075
:101970000B714B710B724A72CB720B734B738B737F
:10198000CB7388720B744B748B74CB740B754B7563
:101990008B75CB750B764B768B76CA764B778B77C0
:1019A000CB7781F8203081F8213081F8223081F81E
:1019B000233081F8263081F8273081F8283081F8EB
:1019C000293081F82A3081F82B3081F82C3081F8C9
:1019D0002D2081F82F2081F8303081F81CE081F82B
:1019E000247081F825C081F82E6081F8313081F8AB
:1019F000323081F8333081F8343081F83530C1F835
:101A0000373081F83B3081F83C3081F83D3081F847
:101A10003E3081F8365037490B704B708B70CB706D
:101A20000B714B718C710B72C1F80A308B73CB73D5
:101A30000B744B74CC714D722F490B704B708B70C3
:101A4000CB700B718B714F71CB710B724A72CB7271
:101A50000B734B738B73CB730B744B748B74CB7492
:101A60000B754B758B75CB750B764B768B76CA7673
:101A70004B778B77CB7781F8203081F8213081F854
:101A8000223081F8233081F8243081F8253081F824
:101A9000263081F82730887281F81CE081F82830E0
:101AA00081F8293081F82B3081F82C3081F82D20F5
:101AB00081F82F3081F8303081F8313081F83230C0
:101AC00081F8333081F8343081F8353081F83630A0
:101AD00081F8373081F8383010E000BF3C16002024
:101AE0001B1300207E11002090110020BD1100204A
:101AF000FC11002000110020BA16002081F83930B6
:101B000081F83A3081F83B3081F83C3081F83D3043
:101B100081F83E3081F83F2081F8412081F8423041
:101B200081F8433081F8443081F8453081F84630FF
:101B300081F84730C1F8493081F82A7081F82E00C9
:101B400081F8406081F8485081F84D3081F84E307E
:101B500081F84F3081F85030FA490B704B708B7020
:101B6000CB700B718B71CB710B724A72CB720B7392
:101B70004B738B73CB730B744B748B74CB740B756F
:101B80004B758B75CB750B764B768B76CA764F7112
:101B9000887281F81CE04B778B77CB7781F8203007
:101BA00081F8213081F8223081F8233081F8252016
:101BB00081F8263081F8273081F8283081F82930E3
:101BC00081F82A3081F82B3081F82C3081F82D30C3
:101BD00081F82E3081F82F3081F8303081F83130A3
:101BE00081F8323081F8343081F8353081F8362090
:101BF00081F8383081F8393081F83A3081F83B305B
:101C000081F83C3081F8247081F8337081F8370016
:101C100081F83D3081F83E3081F83F3081F8403026
:101C200081F8413081F8423081F8433081F8443006
:101C300081F8453081F8463081F8473081F84820F6
:101C400081F84A2081F84B3081F84C3081F84D30D2
:101C500081F84E3081F84F3081F85030C1F8523061
:101C600081F8563081F8573081F8583081F8593072
:101C700081F8496081F85150B3490B704B708B70FB
:101C8000CB700B718B714F71CB710B724A72CB722F
:101C90000B734B738B73CB730B744B748B74CB7450
:101CA0000B754B758B75CB750B764B768B76CA7631
:101CB0004B778B77CB7781F8203081F8213081F812
:101CC000223081F8233081F8263081F8273088725D
:101CD00081F81CE081F8247081F825C081F8283053
:101CE00081F8293081F82A3081F82B3081F82C30A6
:101CF00081F82D3081F82E3081F82F3081F8303086
:101D000081F8313081F8323081F8343081F8353063
:101D100081F8362081F8383081F8393081F83A304E
:101D200081F83B3081F83C3081F83D3081F83E301D
:101D300081F83F3081F8403081F8413081F84230FD
:101D400081F8433081F8443081F8453081F84630DD
:101D500081F8473081F8482081F8337081F83700E6
:101D600081F8496081F84A2081F84B3081F84C3085
:101D700081F84D3081F84E3081F84F3081F8503085
:101D8000C1F8523081F8563081F8573081F8583018
:101D900081F8593081F851506C490B7081F80180FD
:101DA000CB7081F802C00B714B71CB710B72C1F813
:101DB0000A308B73CB730B744B748C714D72644906
:101DC00081F801804FF007080B70CB7081F802C0DA
:101DD0000B71C1F80A304B718B71CB710B728B7325
:101DE000CB730B744B744D725A490B704B708B70E4
:101DF000CB700B714B71CB710B724A72CB720B7340
:101E00004B738B73CB730B744B748B74CB740B75DC
:101E10004B758C7188728B75CB750B764B768B7688
:101E2000CA764A778B77CB7781F8203081F82130DA
:101E300081F8223081F82330C1F8253081F829302B
:101E400081F82A3081F82B3081F82C300E7781F818
:101E5000245041490B704B708B70CB700B714B71E0
:101E6000CB710B724A72CB720B738C7188724B738D
:101E70008B73CB730B744B748B74CB740B754B756A
:101E80008B75CB750B764B768B76CA764B778B77CB
:101E9000CB7781F8203081F8213081F8223081F829
:101EA000233081F8252081F8263081F8273081F809
:101EB000283081F8293081F82A3081F82B3081F8D8
:101EC0002C3081F82D2081F81CE081F8247081F8F5
:101ED0002E6081F82F2081F8303081F8313081F880
:101EE000323081F8333081F8343081F83530C1F840
:101EF000373081F83B3081F83C3081F83D3081F853
:101F00003E3081F8365015490B704B708B70CB709A
:101F10000B714B71CB710B724A72CB720B734B739B
:101F20008B73CB730B744B748B748C718872CB7402
:101F30000B754B758B75CB750B764B768B76CA769E
:101F40004B770DE00B17002065170020EF0E0020E7
:101F50001D100020440E0020710E0020B00E002045
:101F60008B77CB7781F8203081F8213081F82230CF
:101F700081F8233081F8263081F8273081F8283025
:101F800081F8293081F82A3081F82B3081F82C3003
:101F900081F82D2081F82F2081F8303081F8313000
:101FA00081F8323081F8333081F81CE081F82470F8
:101FB00081F825C081F82E6081F8343081F8353001
:101FC000C1F8373081F83B3081F83C3081F83D3042
:101FD00081F83E3081F83650FA490B704B708B70A7
:101FE000CB700B718B710B724A72CB720B734B738C
:101FF0008B73CB730B744B748B74CB740B754B75E9
:102000008B75CB750B764C71CC7188724B768B7659
:10201000CA764A778B77CB7781F8203081F82130E8
:1020200081F8223081F82330C1F8253081F8293039
:1020300081F82A3081F82B3081F82C300E7781F826
:102040002450E1490B704B708B70CB700B718B710E
:102050000B724A72CB720B734B738B73CB734C71D5
:10206000CC7188720B744B748B74CB740B754B757D
:102070008B75CB750B764B768B76CA764B778B77D9
:10208000CB7781F8203081F8213081F8223081F837
:10209000233081F8252081F8263081F8273081F817
:1020A000283081F8293081F82A3081F82B3081F8E6
:1020B0002C3081F82D2081F82F2081F8303081F8E4
:1020C0001CE081F8247081F82E6081F8313081F8AD
:1020D000323081F8333081F8343081F83530C1F84E
:1020E000373081F83B3081F83C3081F83D3081F861
:1020F0003E3081F83650B5490B704B708B70CB7009
:102100000B718B710B724A72CB720B734B738B73A7
:10211000CB730B744B748B74CB740B754B754C7108
:10212000CC7188728B75CB750B764B768B76CA76B5
:102130004B778B77CB7781F8203081F8213081F88D
:10214000223081F8233081F8263081F8273081F859
:10215000283081F8293081F82A3081F82B3081F835
:102160002C3081F82D2081F82F2081F8303081F833
:10217000313081F8323081F8333081F8343081F8F1
:102180003530C1F8373081F81CE081F8247081F8CF
:1021900025C081F82E6081F8365081F83B3081F8F7
:1021A0003C3081F83D3081F83E3089490B704B70EE
:1021B0008B70CB700B714B710B724A72CB720B73BD
:1021C0004B738B73CB730B744B748B74CB740B7519
:1021D0004B758B75CB750B764B768B76CA768C717F
:1021E000CC7188720E774A778B77CB7781F8203065
:1021F00081F8213081F8223081F82330C1F8253070
:1022000081F8293081F82A3081F82B3081F82C3080
:1022100081F824506F490B704B708B70CB700B7131
:102220004B710B724A72CB720B734B738B73CB7304
:102230000B744B748B748C71CC718872CB740B756E
:102240004B758B75CB750B764B768B76CA764B7749
:102250008B77CB7781F8203081F8213081F82230DC
:1022600081F8233081F8252081F8263081F8273045
:1022700081F8283081F8293081F82A3081F82B3014
:1022800081F82C3081F82D2081F82F2081F8303012
:1022900081F8313081F8323081F8333081F81CE038
:1022A00081F8247081F82E6081F8343081F835305F
:1022B000C1F8373081F83B3081F83C3081F83D304F
:1022C00081F83E3081F8365043490B704B708B706B
:1022D000CB700B714B710B724A72CB720B734B73D9
:1022E0008B73CB730B744B748B74CB740B754B75F6
:1022F0008B75CB750B768C71CC7188724B768B7627
:10230000CA764B778B77CB7781F8203081F82130F4
:1023100081F8223081F8233081F8263081F8273087
:1023200081F8283081F8293081F82A3081F82B3063
:1023300081F82C3081F82D2081F82F2081F8303061
:1023400081F8313081F8323081F8333081F834301F
:1023500081F83530C1F8373081F83B3081F83C30B6
:1023600081F81CE081F8247081F825C081F82E6086
:1023700081F8365081F83D3081F83E3017490B70B6
:102380004B708B70CB700B71CB710B724A72CB722E
:102390000B734B738B73CB730B744B748B74CB7449
:1023A0000B754B758B75CB750B764B768B76CA762A
:1023B0004A778B774C718C7188720E77CB7781F866
:1023C00020300DE0040C0020310C0020700C0020A7
:1023D000990D0020C60D0020050E0020EE0C0020F7
:1023E00081F8213081F8223081F82330C1F825307E
:1023F00081F8293081F82A3081F82B3081F82C308F
:1024000081F82450FA490B704B708B70CB700B71B4
:10241000CB710B724A72CB720B734B738B73CB7392
:102420000B744B748B74CB740B754B754C718C7136
:1024300088728B75CB750B764B768B76CA764B771D
:102440008B77CB7781F8203081F8213081F82230EA
:1024500081F8233081F8252081F8263081F8273053
:1024600081F8283081F8293081F82A3081F82B3022
:1024700081F82C3081F82D2081F82F2081F8303020
:1024800081F8313081F8323081F8333081F83430DE
:1024900081F83530C1F8373081F81CE081F82470BC
:1024A00081F82E6081F8365081F83B3081F83C305D
:1024B00081F83D3081F83E30CE490B704B708B7007
:1024C000CB700B71CB710B724A72CB720B734B7367
:1024D0008B73CB730B744B748B74CB740B754B7504
:1024E0008B75CB750B764B768B76CA764C718C716F
:1024F000887281F81CE04B778B77CB7781F820309E
:1025000081F8213081F8223081F8233081F826309B
:1025100081F8273081F8283081F8293081F82A3075
:1025200081F82B3081F82C3081F82D2081F82F2074
:1025300081F8303081F8313081F8323081F8333031
:1025400081F8343081F83530C1F8373081F83B30CC
:1025500081F83C3081F83D3081F83E3081F82470BC
:1025600081F825C081F82E6081F83650A2490B70A1
:102570004B708B70CB700B718B71CB710B724A727D
:10258000CB720B734B738B73CB730B744B748B7459
:10259000CB740B754B758B75CB750B764B768B7639
:1025A000CA764B778B77CB7781F8203081F8213052
:1025B0004C71887281F81CE081F8223081F8233058
:1025C00081F8263081F8273081F8283081F82930C9
:1025D00081F82A3081F82B3081F82C3081F82D20B9
:1025E00081F82F8081F8303081F8313081F8323035
:1025F00081F8333081F8343081F83530C1F8373024
:1026000081F83B3081F83C3081F83D3081F83E3034
:1026100081F8247081F825C081F82E9081F8365019
:1026200076490B704B708B70CB700B714C718C7149
:10263000CC710B724A72CB720B734B738B73CB736F
:102640000B744B748B74CB740B754B758B75CB758E
:102650000B764B768B76CA764B778B77CB7781F878
:10266000203081F8213081F8223081F8233081F840
:10267000263081F82730887281F81CE081F82470B8
:1026800081F825C081F8283081F8293081F82A3076
:1026900081F82B3081F82C3081F82D2081F82F80A3
:1026A00081F8303081F8313081F8323081F83330C0
:1026B00081F8343081F83530C1F8373081F83B305B
:1026C00081F83C3081F83D3081F83E3081F82E9021
:1026D00081F836504A490B704B708B70CB700B7180
:1026E0004B718B710B724A720B73CC7181F80AA01B
:1026F00081F80BC04B738B73CB730B744B748B745F
:10270000CB740B754B758B75CB750B764B768B76C7
:10271000CA7681F81D808B77CB7781F8203081F8DD
:10272000213081F8223081F82330C1F8253081F83A
:10273000293081F82A3081F82B3081F82C3081F84B
:102740001C9081F824502F490B704B708B70CB700C
:102750000B718B71CB710B724A720B734B738B7352
:10276000CB730B744B748B74CB740B754B758B756F
:10277000CB750B764B768B76CA7681F81D808B777E
:10278000CB7781F8203081F8213081F8223081F830
:102790002330C1F825304C7181F80AA081F80BC0B4
:1027A00081F81C9081F8245081F8293081F82A3072
:1027B00081F82B3081F82C3013490B704B708B70E3
:1027C000CB700B718B710B724A720B734B738B73E3
:1027D000CB730B744B748B74CB740B754B758B75FF
:1027E000CB750B764B768B76CA764C71CC710DE03F
:1027F0001B0D00205A0D0020EA080020AF0C00201D
:1028000048130020B9140020EE12002081F80AA01D
:1028100081F80BC081F81C9081F81D808B77CB77F5
:1028200081F8203081F8213081F8223081F823307E
:10283000C1F8253081F8293081F82A3081F82B3011
:1028400081F82C3081F82450FA490B704B708B7052
:10285000CB700B718B710B724A72CB720B734B7313
:102860008B73CB730B744B748B744C71CC718872FB
:10287000CB740B754B758B75CB750B764B768B7656
:10288000CA764B778B77CB7781F8203081F821306F
:1028900081F8223081F8233081F8252081F8263014
:1028A00081F8273081F8283081F8293081F82A30E2
:1028B00081F82B3081F82C3081F82D2081F82F8081
:1028C00081F8303081F8313081F8323081F833309E
:1028D00081F81CE081F8247081F82E9081F8343062
:1028E00081F83530C1F8373081F83B3081F83C3021
:1028F00081F83D3081F83E3081F83650CE490B707A
:102900004B708B70CB700B718B710B724A72CB72E8
:102910000B734B738B73CB730B744B748B74CB74C3
:102920000B754B758B75CB750B764C71CC718872B2
:102930004B768B76CA764B778B77CB7781F82030C6
:1029400081F8213081F8223081F8233081F8243059
:1029500081F8253081F8263081F8273081F8283039
:1029600081F82A3081F82B3081F82C3081F82D2025
:1029700081F82F3081F8303081F8313081F83230F1
:1029800081F8333081F8343081F8353081F83630D1
:1029900081F8373081F8383081F8393081F81CE01F
:1029A00081F8294081F82E0081F83A3081F8418081
:1029B0004FF02D0881F83B3081F83C3081F83D30F4
:1029C00081F83E3081F83F2081F8423081F8433071
:1029D00081F8443081F8453081F8463081F847303D
:1029E000C1F8493081F84D3081F84E3081F84F30D0
:1029F00081F8503081F8409081F848508F490B7031
:102A00004B708B70CB700B714B718B710B724A7268
:102A1000CB720B7381F8078088724B738B73CB7307
:102A20000B744B748B74CB740B754B758B75CB75AA
:102A30000B764B768B76CA764A778B77CB7781F895
:102A4000203081F8213081F8223081F82330C1F81C
:102A5000253081F8293081F82A3081F82B3081F82F
:102A60002C300E7781F8245075490B704B708B70A9
:102A7000CB700B71CB710B724A72CB720B734B73B1
:102A80008B73CB730B744B748B74CB740B754B754E
:102A90008B75CB750B764B768B76CA764A778B77B0
:102AA000CB7781F8203081F8213081F8223081F80D
:102AB0002330C1F8253081F8058081F806808872BE
:102AC0000E7781F8245081F8293081F82A3081F876
:102AD0002B3081F82C305B490B704B708B70CB70B6
:102AE0000B718B71CB710B724A72CB720B734B7380
:102AF0008B73CB730B744B748B74CB740B754B75DE
:102B00008B75CB750B764B768B76CA7681F8058004
:102B100088720E774A778B77CB7781F8203081F8EF
:102B2000213081F8223081F82330C1F8253081F836
:102B3000293081F82A3081F82B3081F82C3081F847
:102B4000245041490B704B708B70CB700B714B71E3
:102B50008B710B724A72CB720B734B738B73CB738B
:102B60000B744B748B7481F807808872CB740B756F
:102B70004B758B75CB750B764B768B76CA764B7710
:102B80008B77CB7781F8203081F8213081F82230A3
:102B900081F8233081F8252081F8263081F827300C
:102BA00081F8283081F8293081F82A3081F82B30DB
:102BB00081F82C3081F82D2081F82F2081F83030D9
:102BC00081F8313081F8323081F8333081F81CE0FF
:102BD00081F8247081F82E6081F8343081F8353026
:102BE000C1F8373081F83B3081F83C3081F83D3016
:102BF00081F83E3081F8365014490B704B708B7061
:102C0000CB700B71CB710B724A72CB720B734B731F
:102C10008B73CB730B744B748B74CB740B754B75BC
:102C20008B75CB750B7681F8058081F806808872EC
:102C30004B760DE03F1100209D1200201211002064
:102C400070120020F00F0020911500207B1600204C
:102C50008B76CA764B778B77CB7781F8203081F8EB
:102C6000213081F8223081F8233081F8252081F845
:102C7000263081F8273081F8283081F8293081F812
:102C80002A3081F82B3081F82C3081F82D2081F802
:102C90002F2081F8303081F8313081F8323081F8DE
:102CA000333081F8343081F83530C1F8373081F86D
:102CB0003B3081F83C3081F81CE081F8247081F8C9
:102CC0002E6081F8365081F83D3081F83E30FB4966
:102CD0000B704B708B70CB700B718B71CB710B7257
:102CE0004A72CB720B734B738B73CB730B744B7435
:102CF0008B74CB740B754B758B75CB750B764B76D4
:102D00008B76CA764B778B7781F80580887281F84D
:102D10001CE0CB7781F8203081F8213081F8223017
:102D200081F8233081F8252081F8263081F827307A
:102D300081F8283081F8293081F82A3081F82B3049
:102D400081F82C3081F82D2081F82F2081F8303047
:102D500081F8313081F8323081F8333081F8343005
:102D600081F83530C1F8373081F83B3081F83C309C
:102D700081F83D3081F83E3081F8247081F82E6072
:102D800081F83650CE490B704B708B70CB700B7145
:102D90008B71CB710B724A72CB720B734B738B734B
:102DA000CB730B744B748B74CB740B754B758B7529
:102DB000CB750B764B768B76CA764B778B77CB774A
:102DC00081F8203081F8213081F8223081F82330D9
:102DD0004C718872087781F8247081F8255081F849
:102DE000263081F8273081F8283081F8293081F8A1
:102DF0002A3081F82B3081F82C3081F82D3081F881
:102E00002E3081F82F3081F8303081F8313081F860
:102E1000323081F8333081F8343081F8353081F840
:102E2000362081F8382081F8393081F83A3081F83D
:102E30003B3081F83C3081F83D3081F83E300B6406
:102E400081F8443081F8453081F8463081F84730C8
:102E500081F8376081F83F509A490B704B708B7046
:102E6000CB700B718B71CB710B724A72CB720B737F
:102E70004B738B73CB730B744B748B74CB740B755C
:102E80004B758B75CB750B764B768B76CA764B77FD
:102E90008B77CB7781F8203081F821304C718872A4
:102EA000087781F8223081F8233081F8263081F8C4
:102EB000273081F8283081F8293081F82A3081F8CC
:102EC0002B3081F82C3081F82D3081F82E3081F8AC
:102ED0002F3081F8303081F8313081F8323081F88C
:102EE000333081F8343081F8353081F8362081F87C
:102EF000382081F8393081F83A3081F83B3081F858
:102F00003C3081F83D3081F83E300B6481F844302C
:102F100081F8453081F8247081F825C081F8376048
:102F200081F83F5081F8463081F8473066490B7090
:102F30004B708B70CB700B718B71CB710B724A72B3
:102F4000CB720B734B738B73CB730B744B748B748F
:102F5000CB740B754B758B75CB750B764B768B766F
:102F6000CA764B778B774C7188720877CB7781F86C
:102F7000203081F8213081F8223081F8233081F827
:102F8000252081F8263081F8273081F8283081F813
:102F9000293081F82A3081F82B3081F82C3081F8E3
:102FA0002D3081F82E3081F82F3081F8303081F8C3
:102FB000313081F8323081F8333081F8343081F8A3
:102FC000353081F8362081F8382081F8393081F8A1
:102FD0003A3081F83B3081F83C3081F83D3081F85F
:102FE0003E300B6481F8247081F8376081F83F50DF
:102FF00081F8443081F8453081F8463081F8473017
:1030000032490B704B708B70CB700B718B71CB7125
:103010000B724A72CB720B734B738B73CB730B7443
:103020004B748B74CB740B754B758B75CB750B76A2
:103030004B768B76CA764C71887208774B778B7794
:10304000CB7781F8203081F8213081F8223081F867
:10305000233081F8243081F8253081F8263081F83A
:10306000273081F8283081F8293081F82B3081F819
:103070002C3081F82D2081F82F3081F8303081F804
:10308000313081F8323081F8333081F8343081F8D2
:10309000353081F8363081F8373081F8383081F8B2
:1030A000393081F83A3081F83B3081F83C3081F892
:1030B0002A4081F82E0081F83D3009E07A14002082
:1030C000E20A00209A0A002029090020181B00208B
:1030D00081F83E3081F83F2081F8412081F842306C
:1030E00081F8433081F8443081F8453081F846302A
:1030F00081F84730C1F8493081F84D3081F84E30C1
:1031000081F84F3081F8503081F8406081F84850A4
:10311000D9490B704B708B70CB700B714B71CB71AD
:103120000B724A72CB720B734B738B73CB738C71B4
:1031300088720B744B748B74CB740B754B758B75D9
:10314000CB750B764B768B76CA764B778B77CB77B6
:1031500081F8203081F8213081F8223081F8233045
:1031600081F8252081F8263081F8273081F8283031
:1031700081F8293081F82A3081F82B3081F82C3001
:1031800081F82D3081F82E3081F82F3081F83030E1
:10319000087781F8247081F8313081F8323081F875
:1031A000333081F8343081F8353081F8362081F8B9
:1031B000382081F8393081F83A3081F83B3081F895
:1031C0003C3081F83D3081F83E300B6481F844306A
:1031D00081F8453081F8463081F8473081F8376012
:1031E00081F83F50A5490B704B708B70CB700B7101
:1031F0004B71CB710B724A72CB720B738C718872EC
:103200004B738B73CB730B744B748B74CB740B75C8
:103210004B758B75CB750B764B768B76CA764B7769
:103220008B77CB7781F8203081F8213081F82230FC
:1032300081F8233081F8263081F8273081F8283052
:1032400081F8293081F82A3081F82B3081F82C3030
:1032500081F82D30087781F8247081F825C081F835
:103260002E3081F82F3081F8303081F8313081F8FC
:10327000323081F8333081F8343081F8353081F8DC
:10328000362081F8382081F8393081F83A3081F8D9
:103290003B3081F83C3081F83D3081F83E300B64A2
:1032A00081F8443081F8453081F8463081F8473064
:1032B00081F8376081F83F5071490B704B708B700B
:1032C000CB700B714B71CB710B724A728C7188721F
:1032D000CB720B734B738B73CB730B744B748B74FC
:1032E000CB740B754B758B75CB750B764B768B76DC
:1032F000CA764B778B77CB7781F8203081F82130F5
:1033000081F8223081F8233081F8263081F8273087
:1033100081F8283081F8293081F82A30087781F83F
:10332000247081F8255081F82B3081F82C3081F8F9
:103330002D3081F82E3081F82F3081F8303081F82F
:10334000313081F8323081F8333081F8343081F80F
:10335000353081F8362081F8382081F8393081F80D
:103360003A3081F83B3081F83C3081F83D3081F8CB
:103370003E300B6481F8443081F8453081F84630A6
:1033800081F8473081F8376081F83F503D490B7034
:103390004B708B70CB700B714B718C71CB710B724E
:1033A0004A72CB720B734B738B73CB730B744B746E
:1033B0008B74CB740B754B758B75CB750B764B760D
:1033C0008B76CA764B778B77CB7781F8203081F874
:1033D000213081F8223081F8233081F8263081F8BD
:1033E00027308872087781F8247081F8257081F879
:1033F000283081F8293081F82A3081F82B3081F883
:103400002C3081F82D3081F82E3081F82F3081F862
:10341000303081F8313081F8323081F8333081F842
:10342000343081F8353081F8362081F8382081F841
:10343000393081F83A3081F83B3081F83C3081F8FE
:103440003D3081F83E300B6481F8443081F84530DE
:1034500081F8463081F8473081F8376081F83F5075
:1034600009220021084B013AC3E9001103F10803C6
:10347000F9D1BDE8F08700BF71090020B90900202B
:103480002A0B0020720B0020BC0B00200000000063
:10349000034BD968DA8A0123103293408B6170475D
:1034A0006008002000000000000000000000000094
:1034B000064B5A8A996801239340054A08691840C7
:1034C00002D0013AFAD10120704700BF6008002005
:1034D000B8820100000000000000000000000000B1
:1034E000034BDA68D98A01238B409361704700BF90
:1034F0006008002000000000000000000000000044
:10350000034B5B6818739A68D207FCD5187B704729
:103510006008002000000000000000000000000023
:1035200070B50D460646FFF7B3FFFFF7C1FFC4B203
:1035300024B1FFF7D5FF4FF0010070BD46F08000C9
:10354000FFF7DEFF064B00F0700083F820002046F6
:10355000FFF7D6FF2870FFF7C3FF2046EDE700BF57
:1035600060080020000000000000000000000000D3
:1035700038B5FFF78DFF0546FFF79AFFC4B224B1B7
:10358000FFF7AEFF4FF0010038BD2846FFF7B8FF48
:10359000054D85F8200000F07000FFF7A1FF85F8C9
:1035A00020002046F0E700BF600800200000000077
:1035B00010B50D4C3620FFF7DBFFC0B210B14FF055
:1035C000010010BD94F82030002BF3D13320FFF719
:1035D000CFFFC0B20028F2D13D20FFF7C9FF94F819
:1035E00020000028F8D1ECE760080020000000006F
:1035F00070B50D460646FFF74BFFFFF759FFC4B203
:1036000024B1FFF76DFF4FF0010070BD3046FFF7AA
:1036100077FF2846FFF774FFFFF762FF2046F4E7C5
:10362000F8B51546FDF76CF8032304464A00006818
:10363000D2B2934020EA030020600120276800FAFC
:1036400002F63E4326606668884026EA0000606015
:1036500060688D4005436560E16821EA0301E1602F
:10366000E168E160A16821EA0303A3600223A16885
:1036700093400B43A360F8BD000000000000000071
:1036800040F2C313064A1168013B03D10123022013
:1036900013737047086840690006F5D5002070472D
:1036A000981F002000000000000000000000000043
:1036B000064B1A6840F2C313013B01D10220704748
:1036C000116849694907F7D500207047981F002005
:1036D000F8B516461D46FDF713F8032304460768A0
:1036E0004A009340D84327EA030323600223276854
:1036F00093403B43236001238B40002E2BD166680F
:1037000026EA03036360E368072903EA0003E36032
:10371000E368E360A36800EA03004FF00203A060DF
:10372000A06803FA02F343EA0003A3608ABFA1F191
:1037300008038B009B0007298CBF042200220F2165
:103740001444226A994022EA01022262226A9D40C0
:1037500015432562F8BD66683343D3E700000000D7
:10376000002238B53B4B1C681A736568042301229C
:1037700028462189FFF7ACFF0423012228466189EE
:10378000FFF7A6FF2268344B9A424AD103F5F23381
:10379000596A41F400115962196B21F4001119633F
:1037A000196B996941F400119961996921F400112B
:1037B00099619B694FF6C070284B5968536818404F
:1037C000274B994243D9274BB1FBF3F3202B28BF5A
:1037D0002023184380B25060106820F001000004DC
:1037E000000C10604FF4967043434FF47A70B3FBB3
:1037F000F0F3192001339BB21362E3684343B1FB3A
:10380000F3F189B2012938BF012141F44041D1616E
:10381000136843F001031360536843F4006353607B
:1038200038BD114B9A42C5D103F5F033596A41F4C2
:1038300080015962196B21F480011963196B996930
:1038400041F480019961996921F48001B0E7022374
:10385000BFE700BF981F0020005400408C080020E4
:103860007F841E0040420F0000580040000000000E
:1038700038B5094B1C689D889A7929462046FFF780
:10388000CFFE0123AB40A36100BF00BF00BF00BF5C
:10389000BDE83840FFF764BF4C1A0020000000006C
:1038A000024B1B681B685A699B697047981F002070
:1038B000034B1B681A68136843F4807313607047E6
:1038C000981F002000000000000000000000000021
:1038D00040F2C31310B5084A1068013B02D1012021
:1038E000107310BD01684C698969E407F5D5890733
:1038F000F3D00020F5E700BF981F00200000000073
:1039000040F2C312064B1B681968013A4B6905D097
:1039100013F4806002D19B07F7D5704701207047F0
:10392000981F0020000000000000000000000000C0
:10393000034B1B681A68136843F4007313607047E5
:10394000981F0020000000000000000000000000A0
:1039500038B5214B214A1D682B68934226D1204B54
:103960009A6942F400129A619A6922F400129A61EB
:103970009A695A6A22F400125A621A6B22F40012EF
:103980001A631B6B032468682989FCF7B9FE490098
:10399000036804FA01F1194301606989FCF7B0FE7C
:1039A000490003688C401C43046038BD0D4A9342B3
:1039B000E8D10B4B9A6942F480029A619A6922F429
:1039C00080029A619A695A6A22F480025A621A6BDA
:1039D00022F48002D4E700BF981F0020005400406A
:1039E00000380240005800400000000000000000C5
:1039F00008B5FFF7ADFF01220A4B9988186810310E
:103A00008A40826100BF00BF00BF00BF186899886C
:103A1000FCF776FE0323026849008B4013430360E2
:103A200008BD00BF4C1A002000000000000000008C
:103A300010B50F4C0F49626A92B28B69DB0711D443
:103A40008B69DB0510D48B6913F4F05F14BF012080
:103A50000020636A9B1A9BB2B3F5E17F06D204286B
:103A6000EBD010BD0420F4E70F20F2E70220F8E7C6
:103A700000080140003C024000000000000000007F
:103A800038B500F1006404F5002423680D468B422C
:103A900002D14FF0000038BD0D4B5A68D2070AD54D
:103AA0000C4ADA600C4ADA604FF480729A615A6804
:103AB00022F480725A60FFF7BBFFC3B213B92560CE
:103AC000FFF7B6FF024A536843F001035360E2E791
:103AD000003C0240EFCDAB8905040302000000006A
:103AE000F8B5044616461D46FCF73AFE0323276840
:103AF00048008340DA4327EA030323600223276850
:103B000083403B43236001238B40002E2FD1666806
:103B100026EA03036360E36885401340E360E368DB
:103B2000072945EA0305E560A36802EA03024FF0AE
:103B30000203A260A26803FA00F343EA02038ABF09
:103B4000A1F108028A0092000729A3608CBF042318
:103B500000230F211C44236A914023EA01032362BE
:103B60009DF81830216A93400B432362F8BD6668C4
:103B70003343CFE700000000000000000000000019
:103B8000036813B5B3F1804F1CD1604A516A41F00C
:103B900001015162116B21F001011163126B1A686E
:103BA000016942F080021A60C2690139DA62426931
:103BB000012A0CBF07220622032968D8DFE801F09A
:103BC0005F899199524A934209D102F50D32516AA7
:103BD00041F002015162116B21F00201DDE74D4A13
:103BE000934209D102F50C32516A41F0040151624D
:103BF000116B21F00401D0E7474A934209D102F545
:103C00000A32516A41F010015162116B21F010012A
:103C1000C3E7424A934209D102F50932516A41F0A1
:103C200020015162116B21F02001B6E73C4A93421A
:103C30000BD102F59832116A41F004011162D16A88
:103C400021F00401D162D26AA9E7364A934209D130
:103C500002F59632116A41F008011162D16A21F031
:103C60000801EFE7304A934299D102F59432116A84
:103C700041F010011162D16A21F01001E2E7996967
:103C800041EA02129A611A6A42F001021A621A6843
:103C900042F001021A601E4A934232D002F580625D
:103CA00093422ED002F5803293422CD002F58062EE
:103CB000934228D002F5806293420CBF0323012374
:103CC0000093027E018900234068FFF709FF02B0DC
:103CD00010BD996941EA02329A611A6A42F01002F3
:103CE000D4E7D96941EA0212DA611A6A42F48072B1
:103CF000CCE7D96941EA0232DA611A6A42F48052A9
:103D0000C4E70223DCE70323DAE700BF0038024000
:103D10000004004000080040001000400014004073
:103D200000080140000C01400010014000000000AC
:103D30002DE9FF41984601AB00251F460E469DF830
:103D40002810B6FBF2F4B64602FB146C2646BCF112
:103D5000090F5FFA8CF494BF30343734E4B29645DF
:103D600005F1010503F8014BEBD22E4600F1580492
:103D7000464509D3013D2046795DFCF7F9FDC0B207
:103D800038B9002DF6D105E02046FCF7F1FDC0B2B0
:103D900018B10D2004B0BDE8F0810136E8E700005D
:103DA0002DE9F04F0B46074614464FF00A0B85B03D
:103DB00000F158051E4616F8011B29B9284605B022
:103DC000BDE8F04FFCF7FCBD252903D02846FCF7E1
:103DD000CFFD3AE093F801904FF0000AB9F1300FAF
:103DE00014BF4FF020099E1C16F8011BA1F13003EF
:103DF000DBB2092B03D92A2904D114F8043B0BFBAD
:103E00000A3AF1E72E2909D116F8011BA1F1300376
:103E1000092BF9D92A2901D10434F5E7632940D0C7
:103E200017D841296CD003D82529CFD03346C1E714
:103E3000532939D05829F9D153461022CDF8009092
:103E4000384654F8041BFFF773FFC0B20028EDD0CA
:103E5000B4E7732928D01DD8642901D06929E5D198
:103E6000A04658F8044B002C07DA2D212846FCF711
:103E70007FFDC0B20028A1D1644253460A222146E8
:103E80003846CDF80090FFF753FFC0B2002895D117
:103E90004446CBE77529C9D153460A22CDF8009094
:103EA000CEE714F8041B91E72368B3B14FF0000884
:103EB00013F8082072B9AAEB080803F1FF3ABAF127
:103EC000FF3F02D01AF8011F49B9B8F1000F0DDC0D
:103ED0000434ABE708F10108EAE79846EBE7284627
:103EE000FCF746FDC0B20028E9D067E749462846FE
:103EF000FCF73EFDC0B208F1FF380028E5D05DE7D1
:103F00004FF000082368D4F80890029363685FFAC2
:103F100089FA0393039B434501DC0C3486E7B8F12F
:103F2000000F10D1029B102213F8081030233846DE
:103F300000930223FFF7FCFEC0B200287FF43EAFDF
:103F400008F10108E6E7B9F1000FEBD05146284629
:103F5000FCF70EFDC0B20028E4D02FE700000000FF
:103F6000134B30B5596DE9B181421ED0013911F8BA
:103F7000014F10F8012BA4F14103192B8CBF2346EC
:103F800004F12003A2F1410598BFDBB2192D9CBFBB
:103F90002032D2B29B1A01D1002CE8D1B3FA83F0BF
:103FA000400930BD4FF0FF33F8E70023F6E700BFCC
:103FB0007C20002000000000000000000000000045
:103FC00070B5164604460D46FCF712FB33462946EB
:103FD0002046BDE87040014AFCF71ABAE107000824
:103FE00070B505460C4642F2107640F2E7300021EB
:103FF0004FF47A72E4FB06010023FCF741F92A46EC
:10400000014605F13C00BDE87040FFF7D9BF000054
:10401000436DD0F8C820D3F8051070B5914204461E
:104020000AD00268D3F80150D66845B9B047636D2D
:10403000D3F80520C4F8C820093363652CE090F854
:10404000C82059798A4229D2013284F8C82094F8CC
:10405000C92099798A4224D2013284F8C92094F87F
:10406000CA20D9798A421FD2013284F8CA2094F832
:10407000CB201B7A9A421AD2013284F8CB202046F8
:10408000D4F8C810B047606DD4F8C820D0F8053017
:104090009A420FD109306065002043E0D7D9013A38
:1040A000D3E7DCD9013AD8E7E1D9013ADDE7E6D92F
:1040B000013AE2E794F8C8504379D0F80120AB42C6
:1040C0001CBF0435B2FBF5F5817994F8C9300CBFFB
:1040D0000025013599421BBF191DB2FBF1F10021EA
:1040E0000131A94294F8CA3038BF2946C579007A0F
:1040F0009D421BBF0433B2FBF3F30023013399420B
:1041000038BF194694F8CB3098421BBF0433B2FB3A
:10411000F3F2002201329142204638BF1146FFF7E8
:104120005FFF012070BD00000000000000000000E3
:1041300008B5FCF725F9094B18B972B6084A5A6256
:10414000FEE70022027582681B6899689142FBD2E3
:104150005A68036042601060586008BDAC1D0020C2
:10416000708800080000000000000000000000004F
:1041700008B5202383F31188FCF7A2F8037D002102
:10418000052B0BD8DFE803F0030A0A081B15FCF720
:10419000AFF881F3118808BD836919604FF0FF33D0
:1041A0008361FFF7C5FFFCF7A3F8002383F31188B1
:1041B000F1E78169FCF7E4F88B6801338B60D0E9A3
:1041C000003213605A60E9E70000000000000000C0
:1041D0001C4910B5FCF7D4F8D1F8AC40002C02DC37
:1041E0004FF0020010BDFCF7CBF8013CD1F8943041
:1041F000C1F8AC40046803F10802C1F894201C60C7
:104200004068586001F190039A422CBF0B46D1F8E8
:104210009430C1F89430FCF7B3F8D1F8A0300133F2
:10422000002BC1F8A0300ADCD1F89800064A0368D8
:10423000C1F898305A6000238361FFF779FF4FF08F
:104240000000CFE7E81E0020801F002000000000D3
:1042500070B5FCF795F8836C044613B13C30FCF75D
:10426000C7F904F1300504F10806636D1A78042AD1
:10427000FDD8DFE802F0030A28381500236820463D
:104280009B6898470128F0D170BDD3F8011009331D
:1042900063650029E9D02046BDE87040FFF7A0BE65
:1042A000A26D013204BFD3F80120A265A26D2AB924
:1042B0004FF0FF320933A2656365D6E7236D013AFB
:1042C0006365A265D1E7D3F80130226D03EBC30328
:1042D0001A4494F8613062651BB104F15C00FFF789
:1042E00077FF0121D7E794F861301BB104F15C003E
:1042F000FFF76EFF626812B9C4E91422C4E7636B6A
:10430000013A53F8041B6260AB4288BF33466363D3
:104310004FF0FF3321656165A365A6E7000000004B
:10432000F8B5FCF72DF8C36A044613B12030FCF74A
:104330005FF904F1140504F10806A36B1A78042A46
:10434000FDD8DFE802F0030A354423002368204645
:104350009B6898470128F0D1F8BD5F680833A363D4
:10436000002FEAD042F2107540F2E73000214FF4FE
:104370007A720023E7FB0501FBF782FF2246014624
:10438000BDE8F84002F12000FFF71ABEE26B0132EF
:1043900004BF5A68E263E26B2AB94FF0FF32083378
:1043A000E263A363C9E7636B013AA363E263C4E713
:1043B0005A68636B03EBC203A36394F845301BB1E7
:1043C00004F14000FFF704FF22460A21D8E794F8E1
:1043D00045301BB104F14000FFF7FAFE626812B9E4
:1043E000C4E90D22B8E7A369013A53F8041B6260DF
:1043F000AB4288BF3346A3614FF0FF336163A163D3
:10440000E3639AE7000000000000000000000000E5
:10441000F8B5FBF7B5FFC36A044613B12030FCF7CB
:10442000E7F804F1140504F10806A36B1A78042ACE
:10443000FDD8DFE802F0030A37482400236820464D
:104440009B6898470128F0D1F8BDD3F80170073375
:10445000A363002FE9D042F2107540F2E73000214B
:104460004FF47A720023E7FB0501FBF709FF2246B0
:104470000146BDE8F84002F12000FFF7A1BDE26B64
:10448000013204BFD3F80120E263E26B2AB94FF096
:10449000FF320733E263A363C7E7636B013AA363A9
:1044A000E263C2E7D3F80130626BC3EBC3031A4483
:1044B00094F84530A2631BB104F14000FFF788FE79
:1044C00022460A21D5E794F845301BB104F140009B
:1044D000FFF77EFE626812B9C4E90D22B4E7A36952
:1044E000013A53F8041B6260AB4288BF3346A361B4
:1044F0004FF0FF336163A163E36396E700000000C0
:1045000007B58169024649B9037F684600918DF875
:104510000530FFF75DFE03B05DF804FB043003B027
:104520005DF804EBFFF74CBD000000000000000048
:1045300013B500220446037F68468DF805300092CB
:10454000FFF746FE637F012B05D1204602B0BDE890
:104550001040FFF7D5BF02B010BD00000000000002
:10456000826A03460AB1836A1847406A18B15A62E0
:104570008261FFF7DDBD7047000000000000000011
:104580000148FFF7EDBF00BF6008002000000000F9
:1045900008B50146FCF714F9006920B100230B614E
:1045A0008361FFF7C5FDBDE80840FCF711B90000C5
:1045B00010B50D4CFBF7F4FE2169087520680368FF
:1045C0005C602360012320610375EFF309830A69AE
:1045D000243B9A4203D972B6044B6362FEE7BDE8FE
:1045E0001040FBF7BDBD00BFAC1D0020107D0008D2
:1045F00030B50D4687B0FBF7D3FE013504460C4DB0
:1046000012D02B690B4A01A8FBF702FF2046FFF7E7
:10461000CFFFFBF7B5FE049B13B101A8FBF750FFDA
:104620002B69986907B030BDFFF7C2FFF8E700BFFC
:10463000AC1D0020714100080000000000000000D7
:10464000034B1B69036098610320FFF7B1BF00BFF4
:10465000AC1D002000000000000000000000000071
:1046600038B5FBF79DFE0023104D826829698361F0
:104670008B6804469A4203D8BDE83840FFF758BD1E
:104680000846FBF79DFE012301462C612375EFF3DD
:1046900009830269243B9A4203D972B6044B6B62C8
:1046A000FEE72046BDE83840FBF75ABDAC1D0020B0
:1046B000107D000800000000000000000000000065
:1046C0000C4B13B503F144020446196D0020FCF7AE
:1046D000DFF860B1002201A903F052F9019B1B78B9
:1046E0001BB92060184602B010BD0E23FAE74FF048
:1046F0000100F8E77C20002000000000000000001E
:104700000FB407B5054905AA05480192FFF748FB14
:1047100003B05DF804EB04B0704700BF207D0008D3
:104720007C200020000000000000000000000000CD
:104730000EB403B503AA52F8041B04480192FFF714
:104740002FFB02B05DF804EB03B070477C20002023
:10475000054BD3E90A210A4303D072B6034A5A62D1
:10476000FEE70122DA627047AC1D0020307D0008B0
:10477000202383F31188FFF7EBBF00000000000047
:10478000054B9A6A12B9D96A002903DC72B6034A4A
:104790005A62FEE7DA627047AC1D0020407D0008D7
:1047A0002DE9F843044688469146202383F3118877
:1047B000FFF7CEFFFBF7E4FD06280FD84FF0010E00
:1047C0002C4D0EFA00F62B681E420CD00020FFF78D
:1047D000D7FF002383F31188BDE8F88372B6264B18
:1047E000264A5A62FEE733432B60254B0134DA69CF
:1047F00045F8348042F0807205EBC404C4F804909C
:10480000DA619A6A1F4F42F080729A624FEA001C86
:104810009B6A07EB0010B8F1000F1AD06968836833
:10482000194214D19024C37B03F1604202F5614226
:1048300082F8004303F01F025B099B0003F1604311
:104840000EFA02F203F56143C3F880211A600E43A9
:104850006E6007EB0C014B68497B1A6857F80C40F7
:1048600022F00F021A600E228A40626000221A6053
:10487000ADE700BFA81E0020AC1D002090880008F6
:1048800000380240B088000800000000000000006E
:1048900008B5202383F31188FFF75AFF20B972B6B9
:1048A000064B074A5A62FEE701460820FFF7A0FEC2
:1048B000FFF766FF002383F3118808BDAC1D0020BD
:1048C00060880008000000000000000000000000F8
:1048D000112838B504468CBF39203620FEF748FE33
:1048E00042F2107540F2E73000210023E4FB05019D
:1048F0004FF47A72FBF7C4FCBDE83840FFF7C8BF3D
:1049000038B50524094D013C14F0FF0403D10123FF
:1049100002202B7338BD2B681B68986910F00200C9
:10492000F8D00A20FFF7B4FFEDE700BF981F002082
:1049300008B5FFF725FF002383F3118808BD0000A9
:104940000FB407B504AB53F8040B0193FFF710FF46
:104950000146019A0448FFF723FAFFF7E9FF03B085
:104960005DF804EB04B070477C20002000000000DC
:1049700008B5054B28201968FFF782F8BDE8084004
:1049800002490348FFF7DCBF08080020507D0008FB
:104990005F7D000800000000000000000000000033
:1049A00008B5054B2C201968FFF76AF8BDE80840E8
:1049B00002490348FFF7C4BF04080020707D0008C7
:1049C0005F7D000800000000000000000000000003
:1049D00008B5054B30201968FFF752F8BDE80840CC
:1049E00002490348FFF7ACBFCC1A0020807D0008C5
:1049F0005F7D0008000000000000000000000000D3
:104A000008B5054B34201979FFF73AF8BDE808409E
:104A100002490348FFF794BFCC1A0020907D00089C
:104A20005F7D0008000000000000000000000000A2
:104A300038B5FFF765FFC5B225B11348FFF780FF12
:104A4000042038BDFEF784FFFEF78AFE0F4B1B687B
:104A50001C68656163695B0612D4FEF721FFFEF7EF
:104A600027FFFEF735FFC0B260B9A0232361FEF730
:104A700047FFC0B2002818BF1220FEF759FFE0E739
:104A80002369E7E70120F8E7B07D0008981F0020C0
:104A90001F4B1B7A372B2AD016D8172B29D00BD8AF
:104AA000082B28D00D2B28D01A491B4A032B08BFEE
:104AB00011461A48FFF744BF1D2B20D01549184A4C
:104AC000262B08BF1146F4E7C02B1AD007D8502B6D
:104AD00019D01049134A862B08BF1146E9E7C52BA8
:104AE00013D00C49104ACD2B08BF1146E1E70F49FE
:104AF000DFE70F49DDE70F49DBE70F49D9E70F494A
:104B0000D7E70F49D5E70F49D3E70F49D1E700BFF2
:104B1000A01D00200A7E0008C07D0008107E00084D
:104B2000E37D0008F07D0008F67D0008EA7D0008BE
:104B3000D57D0008C77D0008CE7D0008DC7D00081B
:104B4000037E0008FE7D0008FC7D000800000000D8
:104B50002B4BF0B559680C2400232A4A85B004FB7E
:104B600003F08558A94242D1024451682648FFF714
:104B7000E7FE264B26481968FFF7E2FE254B26483C
:104B80001968FFF7DDFE254B25481A681979FFF7EC
:104B9000D7FE244924488B69002503934B69234C95
:104BA00002930B69224E0193CB68224F0093D1E907
:104BB00001230968FFF7C4FE1F48FFF7C1FE012368
:104BC000216831B1636832683846D21AFFF7B8FEFF
:104BD00000230135092D04F10804F1D113B1174860
:104BE000FFF7AEFE05B0BDE8F040FFF751BF01335F
:104BF0000F2BB4D1124805B0BDE8F040FFF7A0BEBE
:104C0000A01D0020F0840008207E00080808002075
:104C10002D7E0008040800203B7E0008CC1A0020EE
:104C20004A7E0008D81A0020687E0008BC0B0020CD
:104C3000181A0020ED7E0008D27E0008077F0008C9
:104C4000DF7E0008000000000000000000000000FF
:104C50002DE9F74388468DF80700FFF751FEC0B2F3
:104C6000002840F08C80474C2668356868616B6985
:104C70005B060CD4FEF714FEFEF71AFEFEF728FEC4
:104C8000C0B230B10125284603B0BDE8F0832B69DE
:104C9000EDE7A0232B61FEF733FEC0B210B1FEF7A3
:104CA00047FEEFE7FEF7FCFDFEF7EAFCC0B2002886
:104CB000E8D163680DF107025B680E27DA60B2691C
:104CC00031481A6001225A60FFF752FD63685A6842
:104CD000136843F001031360FFF7B2FCFFF728FEEF
:104CE000636859680A6822F00F020A601A685B7BE1
:104CF00007FA03F35360FEF7C3FCC0B20028C1D12A
:104D0000FEF7D6FDFEF7E4FDC0B20028BAD1A1231C
:104D1000D4F80090D9F800603361FEF7F1FDC5B218
:104D2000002DBCD13368184843F480633360FEF72C
:104D3000B7FDA368D9F81C205B68C3F80C801A6023
:104D400004225A60736843F480537360FFF710FDC8
:104D5000A3685A68136843F001031360FFF770FCFF
:104D6000FFF7E6FDA36859680A6822F00F020A609F
:104D70001A685B7B9F405760FEF7DAFD83E70425E6
:104D800081E700BF981F0020A81F0020000000003E
:104D90002DE9F74F044642F2107540F2E73000214A
:104DA0004FF47A72E4FB05010023FBF769FA06462B
:104DB000DFF834813446D8F824704FF4006AFEF7E7
:104DC000F7FB4A4DDFF82891BFB23A20C5F818A08A
:104DD000FEF7CEFB3420FFF7CBFCFEF7C9FBD9F87A
:104DE00010207CB9FFF7A4FD3620FEF7C1FB4FF081
:104DF0000063AB61D8F82440E41BA4B2A64270D98A
:104E0000341BE2E73B4B214643F8242F93610320F8
:104E1000FFF7EEFBFFF78CFD0130E5D078200DF1B8
:104E20000701FEF77DFBC0B20028E0D19DF90730F5
:104E3000002BDCDAFEF72CFBFEF73AFBC0B210B118
:104E4000FEF74EFBD3E7DFF8B0B0FF20FEF758FBCC
:104E500008215C460020FEF753FB013911F0FF01E9
:104E60008DF807000BF8010BF4D10846FEF748FB5C
:104E700083460846FEF744FBFEF732FB0FFA8BF33E
:104E80007F2BC4BFABF5807B0FFA8BF303EBD3739F
:104E90005B104A3BE3714FF00063AB61174BD4F8F2
:104EA00000C01868034653F8042BD10001F1040E2A
:104EB00086449E450AD84318C3F804C06168222A74
:104EC00098BF0132996098BF026093E7D3F800B0B1
:104ED000E34504D1C3F800C062685A608AE708332A
:104EE000E7E703B0BDE8F08F00080140000402408E
:104EF000AC1D002060080020081A002000080020D7
:104F000083B59B4E9B4F9C4D6A68A2F10903012B10
:104F100001D8002034E0994C2B68236000232371D2
:104F20006371A371E3710F2AF3D801A151F822F044
:104F3000714F00087B4F0008F54F0008FF4F000835
:104F40000350000839500008415000084D50000837
:104F500053500008134F0008134F0008134F000868
:104F60005B5000086D5000087D5000088950000813
:104F7000A37943F01003A3713FE001206371207116
:104F80006B680F2B00F2AE807D4A12F80380002878
:104F900040F0AD80B8F1000F79D13920FEF7E8FA82
:104FA0004FF40760FFF774FC764B297A1A788A422F
:104FB00003D03E201970FEF71BFB734A13680133C0
:104FC000032B13609FD900201060FFF7D1FB0B2348
:104FD0006E4A6F4914688DF805306E4B00948C4210
:104FE00018BF0B46186068461360FFF7F1F8FFF72B
:104FF0009FFC88E70222227163710120C0E703222F
:10500000F9E7DFF8948198F80300002881D0FFF7D2
:10501000AFFBB8F900303BB1A380A37943F00103A3
:10502000A371FFF785FCABE798F80230002BF8D0AE
:10503000A37943F00203F3E74FF0FF332371DBE77B
:105040006FF0010323714FF0FF33D5E76FF00203D8
:10505000F8E7A37943F004038DE7FBF731FB03384E
:105060000128CAD8A37943F0080384E74FF0FF333F
:1050700023716371A37943F002037CE76FF00103AE
:1050800023714FF0FF33F4E76FF00203F8E7D82005
:10509000FFF77EFE3920FEF76BFA41F6501081E7EC
:1050A000FFF716FC3EE07F20FEF72AFA0821DFF822
:1050B000CCA01AF8010B0139FEF722FA11F0FF011A
:1050C000F7D143E0A4EB840404F1D500B8F1000F5C
:1050D00005D0B9F1000F02D1FFF75AFE42E0FFF709
:1050E000F7FB3FE000283FF458AF4FF000084FF0C7
:1050F000000943F23904294B1A6807FB02441C607B
:10510000482324F00044B4FBF3F203FB12444CB1F7
:1051100004EB4400B8F1000FC2D0B9F1000FBFD1C9
:10512000FFF736FE4FF48063B361FEF741FA352096
:10513000FEF71EFAFFF71CFB0022194B9A62FEF7DE
:10514000A7F9FEF7B5F9C0B20028ACD01548FEF7B4
:10515000C7F9FFF775FAFFF7EBFB4FF08063472CB9
:10516000B361AFD109F10109B9F1040FC1D11BE756
:10517000000402406D4EC641A01D0020101A002000
:1051800080840008D41A0020DC10002000080020D1
:10519000C0170020E41800206A1B0020101D00200A
:1051A00060080020840800200000000000000000CB
:1051B00010B504461148FFF7DBFA436B6BB94FF0AB
:1051C000FF324360C369C0E90D44C2638361FFF7E6
:1051D000A7F8BDE81040FFF7ABBB4268032AF8D838
:1051E000C36900F1080143F8044B00F11404A34221
:1051F00088BF0B460132C3614260EAE73C220020CF
:1052000010B504461148FFF7B3FA036D73B96CB1DA
:105210004FF0FF324360836BC0E9144482654363FF
:10522000FFF716F8BDE81040FFF782BB42680A2A74
:10523000F8D8836B064943F8044BA1F128048B424C
:1052400088BF2346013283634260EBE7AC1F002036
:10525000DC1F002000000000000000000000000033
:105260000E4A137923B91368002BD4BF00230123FE
:1052700042F27E510A4A12688A4206DD09480A4A09
:10528000002B08BF1046FFF7BBBFB2F5965FA7BF64
:105290000648074A0748084AF2E700BFCC1A002030
:1052A0000808002091150020121100207B16002014
:1052B000701200207A140020F00F0020000000007F
:1052C00038B500234FF461511C4A13601C4A116029
:1052D00045F260411B4A116019461B4A1360137165
:1052E0001A4A138053801A4AC2E90033C2E90233D2
:1052F000C2E904339361174A42F833100133092B92
:10530000FAD1154B0C2059680023144C00FB03F212
:105310001559A94209D1144461681148FFF710FBDF
:10532000A068BDE83840FFF76BBF01330F2BEDD10C
:105330000C48BDE83840FFF703BB00BF181A002037
:105340000808002004080020CC1A00206A1B002056
:10535000D81A0020BC0B0020A01D0020F0840008FB
:10536000207E0008107F0008000000000000000000
:1053700010B50B4C6060FFF7A3FFFFF7F9FAFFF7DA
:105380000FFBFFF725FBFFF73BFB61682420FEF7CF
:1053900077FBBDE8104003490348FFF7D1BA00BFCF
:1053A000A01D0020307F00085F7D00080000000085
:1053B00010B5194C014620723620FEF761FB1749E3
:1053C0001748FFF7BDFAFFF763FB237A862B1DD042
:1053D0000BD8372B18D004D81D2B0ED0262B11D06C
:1053E00010BD502BFCD10F4808E0C52B12D0CD2B9F
:1053F0000ED0C02BF4D10C4800E00C48BDE81040A2
:10540000FFF7FEBE0A48F9E70A48F7E70A48F5E75A
:105410000A48F3E70A48F1E7A01D0020407F000892
:105420005F7D0008181B0020720B0020E20A00209C
:105430009A0A00202909002071090020B9090020DA
:105440002A0B002000000000000000000000000007
:1054500010B5FFF78DF94FF0FF3304460648C363DC
:1054600000234360C369C0E90D448361FEF758FF20
:10547000BDE81040FFF75CBA3C22002000000000AD
:1054800008B50A4B1A68104420EAE070B0F5615F75
:10549000A8BF4FF46150824207D01860FFF768FA46
:1054A000BDE808400248FFF7D3BF08BD0808002048
:1054B00060870008000000000000000000000000FD
:1054C00045F2604108B5094B1A68101A20EAE070ED
:1054D0008842A8BF0846824207D01860FFF760FAEA
:1054E000BDE808400248FFF7B3BF08BD040800202C
:1054F00060870008000000000000000000000000BD
:1055000010B5FFF735F94FF0FF3304460648C36383
:1055100000234360C369C0E90D448361FEF778FF4F
:10552000BDE81040FFF704BA381D0020000000005D
:1055300008B50548FFF704FA0448FFF761FEBDE827
:1055400008400348FFF7DCBF507F0008EA0800204E
:10555000908600080000000000000000000000002D
:1055600010B504468548FFF7EBF9631E1A2B00F2CD
:10557000F980DFE813F01B002A00420053006A00A4
:105580007F008A00910096009B00A000A500AA0061
:10559000AF00B400B900BE00C300C800CD00D40005
:1055A000D900DE00E300E800ED00F2007448FFF7E8
:1055B00027FE7448FFF7C4F9FFF782FEFFF7D8F91A
:1055C000FFF7EEF9FFF704FA39E06F48FFF718FE2E
:1055D0006E48FFF7B5F96E4B5B68092B02D00C2BB8
:1055E00006D07BBB4FF49660FFF74AFF6948C1E0E5
:1055F0004FF49660FFF764FFF8E76748FFF700FE97
:105600006648FFF79DF9624B5B68092B02D00C2BB3
:1056100002D0BBB96248E7E76148EBE76148FFF7B2
:105620008FF95B4B5A680C2A0CD85F4B1341DA0791
:1056300008D45E48FFF7E4FD01225D4B1A71FFF7C5
:10564000DFF9D3E7FFF774FFD0E75A48FFF778F99F
:105650004F4B5A680C2AF5D8534B1341DB07F1D452
:105660005548FFF7CDFD4FF46162514B1A60FFF7CB
:10567000AFF9BBE75148FFF7C3FD5148FFF760F9A9
:1056800000224B4B1A711A609CE74E48FFF758F9FD
:105690000920FFF76DFEA9E74B48FFF751F90020FD
:1056A000F7E74A48FFF74CF90C20F2E74848FFF7C4
:1056B00047F90A20EDE74748FFF742F90120E8E7FC
:1056C0004548FFF73DF90220E3E74448FFF738F982
:1056D0000320DEE74248FFF733F90520D9E74148C8
:1056E000FFF72EF90620D4E73F48FFF729F90720F6
:1056F000CFE73E48FFF724F90D20CAE73C48FFF703
:105700001FF90E20C5E73B48FFF71AF90F20C0E745
:105710003948FFF715F91D20FFF74AFE66E73748BD
:10572000FFF70EF92620F7E73548FFF709F937208C
:10573000F2E73448FFF704F95020EDE73248FFF76D
:10574000FFF88620E8E73148FFF7FAF8CD20E3E7D5
:105750002F48FFF7F5F8C520DEE72E48FFF7F0F8F1
:10576000C020D9E721462C48FFF7EAF82B48FFF77D
:1057700047FD2B48BDE81040FFF7C2BE6B82000812
:10578000AF0C0020607F000848130020677F0008EE
:10579000A01D002050860008B91400206E7F00086C
:1057A00050FBFFFF767F0008FEEDFFFFEE120020AA
:1057B000CC1A0020827F00083F1100209D1200209B
:1057C0008C7F0008987F0008AB7F0008BE7F000830
:1057D000CE7F0008DD7F0008F27F00080780000808
:1057E0001C80000832800008488000085E800008A5
:1057F0007980000894800008AF800008C18000080C
:10580000D3800008E4800008F580000806810008C5
:1058100017810008298100083B810008EA08002060
:10582000908600080000000000000000000000005A
:1058300010B50D4C236820691A685460226001225B
:105840001A752361FAF7BCFD0146EFF3098302697B
:10585000243B9A4203D972B6044B6362FEE7206987
:10586000BDE81040FAF77CBCAC1D0020107D00089C
:1058700008B5FAF795FDFAF783FD064B1A681B6920
:1058800092689B689A4203D9BDE80840FFF7D0BFF1
:1058900008BD00BFAC1D002000000000000000009B
:1058A00008B5202383F31188FEF752FF034B1B69D1
:1058B00098610F20BDE80840FEF77ABEAC1D0020BD
:1058C000EFF30983203383F30988002383F31188DE
:1058D0007047000000000000000000000000000011
:1058E0007047000000000000000000000000000001
:1058F00070470000000000000000000000000000F1
:1059000070470000000000000000000000000000E0
:10591000FEE70000000000000000000000000000A2
:10592000F0B5082000261049D1E901341D460A6867
:10593000043AAC4210D8E21CD21ADD1E22F0030257
:10594000AC4238BF00221344CA689A4209D80138D1
:1059500001F11001E8D1F0BD52F8047F45F8047B55
:10596000E7E743F8046BF0E7208900080000000037
:1059700008B50548FAF7D4FCFAF71AFEFAF7E8FC7E
:10598000BDE80840FAF7E4BDB08800080000000058
:1059900008B50548FAF7C4FCFAF70AFEFAF7D8FC8E
:1059A000BDE80840FAF7D4BDC08800080000000038
:1059B00008B50548FAF7B4FCFAF7FAFDFAF7C8FC9F
:1059C000BDE80840FAF7C4BDD08800080000000018
:1059D00008B50548FAF7A4FCFAF7EAFDFAF7B8FCAF
:1059E000BDE80840FAF7B4BDE088000800000000F8
:1059F00008B50548FAF794FCFAF7DAFDFAF7A8FCBF
:105A0000BDE80840FAF7A4BDF088000800000000D7
:105A100008B50548FAF784FCFAF7CAFDFAF798FCCE
:105A2000BDE80840FAF794BD0089000800000000B6
:105A300008B50548FAF774FCFAF7BAFDFAF788FCDE
:105A4000BDE80840FAF784BD108900080000000096
:105A50004FF080522DE98048BB4B9DB05A62A3F5B0
:105A6000E4335A68D206FCD41A6842F4C0521A6071
:105A70005C6814F01004FBD1B34A4FF480355368CE
:105A80004FF4802623F4604343F4404353604FF4C3
:105A90000033CDE91453AD4BAD4FCDE91663AD4B9B
:105AA000AD4ACDE91873AD4B106851681A930DAB30
:105AB00003C3127A1B941A70A94B10AD1F4603F151
:105AC00010062A4618685968083303C2B3421546BF
:105AD000F7D1716838690BAB03C39B498B68C3F37B
