:020000040800F2
:10000000000400205101000853010008113A0008C3
:100010005301000853010008530100085301000870
:10002000530100085301000853010008F10C0008B7
:100030005301000853010008530100085301000850
:100040005301000853010008530100085301000840
:100050005301000853010008213A0008713A0008D2
:10006000C13A0008113B0008613B0008C10F0008BD
:10007000E10F0008011000082110000841100008DD
:1000800061100008811000085301000853010008A6
:10009000530100085301000853010008B13B000858
:1000A00053010008530100085301000853010008E0
:1000B000B14600085301000853010008530100082D
:1000C000530100085301000853010008513F000884
:1000D000913F000853010008530100085301000834
:1000E000013C0008530100085301000853010008B7
:1000F0005301000853010008530100085301000890
:10010000530100085301000853010008530100087F
:10011000530100085301000853010008530100086F
:10012000530100085301000853010008530100085F
:10013000530100085301000853010008530100084F
:1001400001160008B122000831310008013300080F
:1001500026E000F000F8FEE70000000000000000CC
:100160002DE9F04FC1F80CD0C3689D46BDE8F08F73
:1001700000F006F9002383F311882846A0470020E9
:1001800000F0AEFC00F0ECF800F0D2FA00F0F8F865
:1001900000DFFEE70000000000000000000000009B
:1001A00072B6274880F30888264880F309882648D5
:1001B0004EF60851CEF200010860022080F3148848
:1001C000BFF36F8F00F0CCFD00F0D2FD4FF0553043
:1001D0001E491B4A91423CBF41F8040BFAE71C49F7
:1001E000184A91423CBF41F8040BFAE719491A4AF0
:1001F0001A4B9A423EBF51F8040B42F8040BF8E741
:1002000000201749174A91423CBF41F8040BFAE716
:1002100000F0C6FD00F0B4FD134C144DAC4203DAFF
:1002200054F8041B8847F9E701F012FD104C114DFA
:10023000AC4203DA54F8041B8847F9E700F0A8BD84
:10024000000400200008002000000008000000203A
:1002500000040020A05300080008002074080020BB
:1002600078080020F0170020400100085001000825
:1002700050010008500100080000000000000000CC
:1002800053B94AB9002908BF00281CBF4FF0FF31FD
:100290004FF0FF3000F00CB8ADF1080C6DE904CE62
:1002A00004F056FADDF804E0DDE9022304B07047FB
:1002B000704700BF000000000000000000000000C8
:1002C00008B500F095FDBDE8084000F001B8000059
:1002D00004F00EBA00000000000000000000000062
:1002E0004FF08043002258631A610222DA6070479F
:1002F0004FF080430022DA607047000000000000E9
:100300004FF0804358637047000000000000000079
:100310000122090100F1604303F56143C9B283F88A
:10032000001300F01F039A4043099B0003F1604350
:1003300003F56143C3F880211A6070470000000094
:10034000044AD2E90A32134302D0034800F0A0BAAB
:10035000704700BF78080020804B000800000000B4
:1003600010B5054CD4E90A32134302D0034800F01B
:100370008FFA0123E36210BD78080020904B00083B
:1003800010B5064CA36A13B9E36A002B02DC0448DB
:1003900000F07EFA0023E36210BD00BF7808002061
:1003A000A04B00080000000000000000000000005A
:1003B00010B5064CA36A002B01DDE36A13B10448B3
:1003C00000F066FA0123E36210BD00BF7808002048
:1003D000B04B00080000000000000000000000001A
:1003E00010B5064CA36A002B02DDE36A002B02DC89
:1003F000034800F04DFA0023E36210BD78080020A6
:10040000C04B0008000000000000000000000000D9
:10041000202310B583F31188074CA36A002B01DB5E
:10042000E36A13B1054800F033FAA36A0133A3620B
:10043000002383F3118810BD78080020D04B0008FA
:10044000202310B583F31188074CA36A002B01DD2C
:10045000E36A13B1054800F01BFAA36A013BA362EB
:10046000002383F3118810BD78080020E04B0008BA
:10047000054B9A6A002A02DBDB6A002B02DC034888
:1004800000F006BA704700BF78080020F04B000863
:10049000044B9A6A12B9DB6A002B02DC024800F0B6
:1004A000F7B9704778080020004C000800000000F1
:1004B0000022024BC3E900339A607047780800209D
:1004C00010B50446FFF7D4FF14B9094800F0E0F96D
:1004D0000023A2682375074B1B6899689142FBD2E1
:1004E0005A6823606260204614605C6010BD00BFE3
:1004F000404C0008780800200000000000000000C8
:1005000038B50446202383F31188FFF751FF237D7C
:100510000025052B0BD8DFE803F0030A0A081C1698
:10052000FFF75EFF85F3118838BDA3691D604FF0AA
:10053000FF332046A361FFF7C3FFFFF751FF0023FE
:1005400083F31188F0E7A569FFF792FFAB680133E9
:10055000AB60D4E9003213605A60E8E700000000A5
:1005600010B50446FFF784FF14B9094800F090F96C
:100570000023A2682375074B1B6899689142FBD83A
:100580005A6823606260204614605C6010BD00BF42
:10059000204C000878080020000000000000000047
:1005A00070B506460D4C2569FFF772FF23682E755E
:1005B0001A6854602260012223611A75EFF30983DF
:1005C0002A69243B9A4202D9054800F061F929467C
:1005D0002069BDE87040FFF7C3BD00BF7808002068
:1005E000104C0008000000000000000000000000A7
:1005F00070B50D4686B00446FFF74AFF6B1C0D4EE2
:1006000013D0336929460C4A01A800F0C9FA2046E4
:10061000FFF7C6FFFFF72CFF049B13B101A800F002
:1006200017FB3369986906B070BD2046FFF7B8FF25
:10063000F7E700BF7808002001050008000000006F
:10064000F8B504460D46124E3769FFF721FFA26840
:10065000BB68A5619A4204D82046BDE8F840FFF780
:100660002FBF3846FFF77CFF012305463461237511
:10067000EFF309830269243B9A4202D9054800F04E
:1006800007F929462046BDE8F840FFF769BD00BFDD
:1006900078080020104C0008000000000000000056
:1006A000044B1A681B6990689B68984294BF0020AD
:1006B00001207047780800200000000000000000C2
:1006C00038B50D4C236820691A68546022600122F5
:1006D0001A752361FFF744FF0546EFF309830269AA
:1006E000243B9A4202D9054800F0D2F829462069F5
:1006F000BDE83840FFF734BD78080020104C0008F2
:1007000008B5FFF7C5FEFFF7B3FE064B1A681B6975
:1007100092689B689A4203D9BDE80840FFF7D0BFB2
:1007200008BD00BF780800200000000000000000A5
:10073000FFF7C6BF0000000000000000000000003E
:1007400038B50D46044608B1002902DA034800F026
:100750009FF8C4E90044A56038BD00BF804C000884
:1007600038B504460D46FFF793FE14B90E4800F065
:100770008FF8A3685A1E002AA26012DA1DB94FF042
:10078000FF30A36038BD094B62681B6929469C6134
:100790001C605A60052013606360BDE83840FFF7B5
:1007A00027BF0020EEE700BF604C0008780800205B
:1007B00010B50446FFF75CFE14B9094800F068F86C
:1007C000A3680133002BA36009DC20680368236061
:1007D0005C600023BDE810408361FFF771BE10BD6F
:1007E000504C000800000000000000000000000065
:1007F000FEE7000000000000000000000000000014
:1008000038B500251A4CFFF753FE00F0B9F98022E5
:10081000184904F13000C4E90A5500F0B9F8164B44
:100820002061036101230375144B154AD96821F433
:10083000E0610904090C0A43DA60D3F8FC2011498D
:1008400042F08072C3F8FC200A6842F001020A609C
:100850001022DA77202283F82220FFF771FD85F33A
:10086000118862B6BDE83840074800F0D9B800BF2B
:1008700078080020904C00080004002000ED00E003
:100880000003FA05001000E0B04C00080000000072
:1008900072B6014B5862FEE77808002000000000A5
:1008A0002DE9F84F4FF00008254EC1463746FFF7B7
:1008B000DFFDFFF7DDFD57F8144F4FF08043586A16
:1008C000358C80B2A368451BADB29D4220D34FF05A
:1008D000200AA268338CD4F80CB013443384236804
:1008E000AD1ABB425F607361C4F80C8001D1FFF7A1
:1008F000FFFCFFF775FD89F311882069D8478AF35B
:100900001188FFF755FD7469A3689D42E1D2D4E7D1
:100910007369BB4212D09A683084521B9A604FF6BA
:10092000FF72A368934228BF1346022B2CBFC01846
:100930000230BDE8F84F80B2FFF7E2BCBDE8F88FA7
:100940007808002000000000000000000000000007
:10095000202383F31188FFF703BD0000000000008F
:1009600008B5FFF70DFD002383F3118808BD0000D3
:1009700010B5044610B90448FFF78AFF2146BDE8C8
:1009800010400820FFF734BED04C000800000000E3
:100990008260022282827047000000000000000096
:1009A00010B50446FFF764FD14B91948FFF770FF4E
:1009B0006268500707D1A368590704D19A4202D24E
:1009C0009B1A9F2B02D81248FFF762FFE368FF2BA8
:1009D00001D8236913B90E48FFF75AFFD4E9013053
:1009E00040F8103CA0F1440340F8143C236920383F
:1009F00040F8243C636940F8203C064B40F8043C36
:100A0000E3688360022303750023437510BD00BFB4
:100A1000004D000871010008000000000000000007
:100A200010B5D0E90132044655219A420CD8FFF79F
:100A30008FFF2046FFF7B4FF04460021FFF700FEBA
:100A4000FFF78EFF204610BD03F8011BEDE7000005
:100A5000F8B50C4616461F46054640B19F2906D9F3
:100A600040EA01035B0702D1FF2A00D817B91348F7
:100A7000FFF70EFF2B4655212A199A421AD8203C1F
:100A80002C44FFF765FFA4F12403E360069B204696
:100A900044F8203C0A4B002144F8043C0223256121
:100AA000A38244F8247CA660FFF7CAFDFFF758FF35
:100AB0002046F8BD03F8011BDFE700BFE04C00084B
:100AC00071010008000000000000000000000000AC
:100AD000024B1B6998610F20FFF762BD7808002068
:100AE00010B50446FFF734FF2046BDE81040FFF77D
:100AF000EFBF000000000000000000000000000048
:100B000010B50446FFF724FF2046FFF731FFBDE88C
:100B10001040FFF725BF00000000000000000000AB
:100B200010B5054C2369036098610320FFF738FD79
:100B30002369986910BD00BF7808002000000000FC
:100B4000054B1B6921B1036098610320FFF750BD7D
:100B50004FF0FF30704700BF780800200000000011
:100B60000346006820B100221A608161FFF7A8BC2B
:100B700070470000000000000000000000000000BE
:100B8000054B03F11402C3E905224FF0FF32DA618D
:100B900000221A84704700BF78080020000000007F
:100BA000F8B505460C4616461F46FFF761FC0DB129
:100BB00006B114B92348FFF76BFEC5E90367224F5E
:100BC0004FF080433A4652F8146F022C5B6A38BFEC
:100BD000022496429BB210D14FF6FF723B8494429E
:100BE00094BF1B199B18C7E9055598B2C5E9006663
:100BF000AC60BDE8F840FFF773BB388C1B1A9BB2A2
:100C0000E418B36802D33668E41A0AE0A34208D9AC
:100C10004FF6FF739C4294BF0019C01880B2FFF7D3
:100C20006FFBB368A342EED373682E606B601D60E8
:100C30007560AC60B3681B1BB3604FF0FF33FB61A2
:100C4000F8BD00BF404D00087808002000000000FB
:100C500038B50446FFF70CFC14B92148FFF718FE1D
:100C6000204922680B4653F8140FA0424FF00000B1
:100C70000AD061689A420A605160E06003D09368CC
:100C8000A1680B44936038BD9A424A615360E060AA
:100C900003D1BDE83840FFF72BBB9368A4680D8CE7
:100CA0001C4494604FF08042526A521B92B29442AC
:100CB000E9D9A11A012909D8941CB4F5803F0BD2B7
:100CC000281980B2BDE83840FFF71ABB4FF6FF7213
:100CD000944228BF1446F3E70348FFF7D9FDEFE736
:100CE000204D000878080020304D0008000000006A
:100CF000EFF30983203383F30988002383F31188FA
:100D0000704700000000000000000000000000002C
:100D1000202310B583F311880D4B5B6813F4006337
:100D200012D0EFF309844FF0807344F8043CA4F12F
:100D3000200383F30988FFF7B3FC18B1054B44F88F
:100D4000083C10BD044BFAE783F31188F9E700BFB4
:100D500000ED00E08501000890010008000000009F
:100D600070470000000000000000000000000000CC
:100D700070470000000000000000000000000000BC
:100D800070470000000000000000000000000000AC
:100D9000FEE700000000000000000000000000006E
:100DA000F0B5082000261049D1E901341D460A6833
:100DB000043AAC4210D8E21CD21ADD1E22F0030223
:100DC000AC4238BF00221344CA689A4209D801389D
:100DD00001F11001E8D1F0BD52F8047F45F8047B21
:100DE000E7E743F8046BF0E7504D0008000000000F
:100DF00008B51A4B1A6942F07F4242F47F0242F46E
:100E0000FF4242F040021A611A6922F4FF4222F0C6
:100E100040021204120C1A611A699A6962F0805237
:100E20009A619A6902F080529A619A695A694FF000
:100E3000FF325A615A6900225A615A695A6A42F06D
:100E400080525A621A6B42F080521A631B6B00F098
:100E500007F8BDE8084000F023B900BF00380240A1
:100E600000231946094A10B5C2E90033084C04EBC7
:100E700083004068016002EB430004331C2B816057
:100E8000F5D14FF0FF32034B5A6010BD78090020B6
:100E9000E04D00080060024000000000000000007B
:100EA0002DE9F74F0446894693460193FFF7E0FA90
:100EB000062C0BD80127224DA7402A68019B3A42F5
:100EC00008D00026304603B0BDE8F08F1D48FFF77C
:100ED000DFFCF6E7DFF870804FEA041A08EB04162F
:100EE000013445F834B005EBC40463603A43174B52
:100EF0002A60DA6942F08072DA619A6A42F080729E
:100F00009A629B6ABBF1000F0AD06A68B3681A4202
:100F100003D14946F07BFFF7FBF96B683B436B60FD
:100F200008EB0A014B68497B1A6858F80A0022F05E
:100F30000F021A600E228A40426000221A60C1E746
:100F400078090020D04D0008E04D0008003802402C
:100F5000F8B51F4604460D461646202383F3118834
:100F6000FFF7FEF93B46324629462046FFF798FF39
:100F70000446FFF705FA002383F311882046F8BDE5
:100F800010B40468437B2168827B4068D9400068C4
:100F900001F00E0108420DD001FA03F36360064B25
:100FA000013253F832402CB103EBC2035868234698
:100FB00010BC184710BC70477809002000000000E2
:100FC00008B5FFF725FA0448FFF7DAFFFFF738FA0C
:100FD000BDE80840FFF79CBEE04D0008000000009F
:100FE00008B5FFF715FA0448FFF7CAFFFFF728FA1C
:100FF000BDE80840FFF78CBEF04D0008000000007F
:1010000008B5FFF705FA0448FFF7BAFFFFF718FA2B
:10101000BDE80840FFF77CBE004E0008000000005D
:1010200008B5FFF7F5F90448FFF7AAFFFFF708FA3C
:10103000BDE80840FFF76CBE104E0008000000003D
:1010400008B5FFF7E5F90448FFF79AFFFFF7F8F94D
:10105000BDE80840FFF75CBE204E0008000000001D
:1010600008B5FFF7D5F90448FFF78AFFFFF7E8F95D
:10107000BDE80840FFF74CBE304E000800000000FD
:1010800008B5FFF7C5F90448FFF77AFFFFF7D8F96D
:10109000BDE80840FFF73CBE404E000800000000DD
:1010A0007047000000000000000000000000000089
:1010B0000EB403B503AA52F8041B019203F060F8C2
:1010C00002B05DF804EB03B07047000000000000C0
:1010D000037A372B2AD016D8172B29D00BD8082BF8
:1010E00028D00D2B28D01949194A032B08BF1146C7
:1010F000184803F015B91D2B20D01449164A262B89
:1011000008BF1146F4E7C02B1AD007D8502B19D0CE
:101110000E49124A862B08BF1146E9E7C52B13D0AA
:101120000A490F4ACD2B08BF1146E1E70D49DFE719
:101130000D49DDE70D49DBE70D49D9E70D49D7E753
:101140000D49D5E70D49D3E70D49D1E79A4E00087F
:10115000504E0008A04E0008734E0008804E000854
:10116000864E00087A4E0008654E0008574E00086B
:101170005E4E00086C4E0008934E00088E4E00082C
:101180008C4E00080000000000000000000000007D
:1011900038B5054D04462B681BB90146034803F0DA
:1011A000BFF82C6038BD00BFF40A0020B04E000824
:1011B000034AD368002BC4BF03F1FF33D3607047E9
:1011C00000080020000000000000000000000000F7
:1011D0000A4B10B51A685B680260012B0CBF122322
:1011E0006323037143F23903054A064C116804FB7B
:1011F00001331360A0F8053010BD00BF00080020C7
:10120000B41600206D4EC641000000000000000032
:1012100037B504463249406D02F01AFFA0B9314B90
:101220003148196803F07CF8304B3148196803F0F5
:1012300077F8304B3048196803F072F82F4803B044
:10124000BDE83040FFF744BF2D49606D02F000FF5C
:101250000546D0B9216D04F1440202F021FF70B1BE
:101260002A4601A903F05CFC019B1B783BB9C3B281
:101270000B2B04D8234A2148D35C0372DFE72249B1
:101280002046FFF715FF03B030BD2049606D02F026
:10129000DFFE0546E8B9216D04F1440202F000FFCB
:1012A000A0B12A4601A903F03BFC019B1B7873B94E
:1012B000174B002817490EBF002501251946164B6C
:1012C00016481D7003F02CF81549D9E70546114959
:1012D000F5E72046626D1349FFF7EAFED3E700BF4A
:1012E000D14E0008F80A0020D74E0008000B00205D
:1012F000E64E0008F40A0020F84E0008000800201E
:10130000054F0008D04F00080E4F0008194F000885
:10131000C04E0008C84E0008FC0A0020274F0008F5
:101320003A4F00083F4F0008000000000000000096
:1013300038B504460D46202383F31188FFF710F8D3
:10134000236D93B98DB14FF0FF326360A36B2046DC
:1013500063632368C4E914551B68A2659847FFF7C7
:101360000FF8002383F3118838BD63680A2BF6D881
:10137000A26B04F1300142F8045B8A4288BF04F199
:1013800008020133A2636360E9E700000000000087
:1013900008B5074B5A68012A08D1DB6823B905490B
:1013A0000548FFF7C5FF08BD0449F9E70449F7E719
:1013B00000080020BD0A0020E00C0020E10A002007
:1013C000CF0A002000000000000000000000000024
:1013D00008B50A4B0A4A5B7A0A49D35C0A4ACB71C0
:1013E000D3710A4A0A48D3710A4A93710A4A53715F
:1013F000FFF79EFFBDE80840FFF7CABF00080020C6
:10140000904F0008E50900203F0A00207E0A0020D6
:10141000E00C0020120A0020B809002000000000A3
:10142000002814BF0122002208B5054B14BF05484F
:1014300005485A6002F074FFBDE80840FFF7C8BFD6
:1014400000080020504F00085A4F0008000000001C
:1014500082B0ADF80400C0F3072001280DD00228A7
:1014600014D0C8B90D4BDA68002A0CBF4FF496624D
:101470000022DA6002B0FFF78BBF084A537A022BD2
:1014800001D80133537202B0FFF7A2BF034A537A67
:10149000002BF8D0013BF5E702B0704700080020B0
:1014A00038B504460D46202383F31188FEF758FF14
:1014B000636B93B98DB14FF0FF326360E3692046EF
:1014C000A3612368C4E90D551B68E2639847FEF7E2
:1014D00057FF002383F3118838BD6368032BF6D8C8
:1014E000E26904F1140142F8045B8A4288BF04F106
:1014F00008020133E2616360E9E7000000000000D8
:101500002DE9F84FDFF8B8908046D9F80430012B68
:1015100029D10026054637463446DFF8A8A0DFF873
:10152000A8B0D8F80030B3422BD8284B012C1C604F
:10153000274B1F603AD0022C3DD0002C3DD1D9F86A
:101540000C3023B91CB123492348FFF7A9FF57B139
:1015500022492348FFF7ECFED9F80C301BB921498A
:101560001D48FFF79DFF204B1A6840F697039A42EB
:1015700003D81E491A48FFF7DBFEBDE8F84FFFF716
:1015800007BF9AF8003033B1584695F90B302A7AE4
:10159000696802F0C5FE2B7A122B03D101340136A3
:1015A0000835BEE7632B08BF0137F8E710490C4840
:1015B000FFF7BEFEC3E70F49F9E70F49F7E700BFA2
:1015C00000080020FC0A0020704F0008F80A0020E4
:1015D000000B0020A04F0008740F0020120A00200A
:1015E000E00C0020E04F0008F40A0020B8090020B9
:1015F000E50900203F0A00207E0A002000000000CC
:101600000023F0B5012103206C24FF266FF03D0577
:101610000427C34A137053709370D37013715371BE
:101620009371D671137251729472D3721373537390
:101630009373D373137453749374D3741375537572
:101640009375D375137653769376D1761577517754
:101650009377D37782F8203082F8213082F82230D5
:1016600082F82330C2F8253082F8240082F829302D
:1016700082F82A3082F82B3082F82C30A94A137075
:1016800053709370D370137153719371D671137239
:1016900051729472D372137353739373D37313741D
:1016A00053749374D37413755375937582F82470BF
:1016B000D375137653769376D176147753779377E1
:1016C000D37782F8203082F8213082F8223082F8F5
:1016D000233082F8251082F8263082F8273082F8ED
:1016E000283082F8293082F82A3082F82B3082F8AC
:1016F0002C3082F82D1082F82E5082F82F1082F8AC
:10170000303082F8313082F8323082F8333082F86B
:10171000343082F83530C2F8373082F8360082F83B
:101720003B3082F83C3082F83D3082F83E307E4AD1
:10173000137053709370D370137153719371D6718A
:10174000137251729472D372137353739373D3736E
:10175000137453749374D374137553759375D3754D
:10176000137653769376D176147782F82470022715
:1017700053779377D37782F8203082F8213082F83C
:10178000223082F8233082F8257082F8263082F8E1
:10179000273082F8283082F8293082F82A3082F8FF
:1017A0002B3082F82C3082F82D1082F82E5082F8DF
:1017B0002F1082F8303082F8313082F8323082F8DF
:1017C000333082F8343082F83530C2F8373082F85E
:1017D000360082F83B3082F83C3082F83D3082F8A7
:1017E0003E30524A137053709370D370137153711B
:1017F0009671D371137251729472D37213735373BF
:101800009373D373137453749374D37413755375A0
:101810009375D375137653769376D1761577517782
:101820009377D37782F8203082F8213082F8223003
:1018300082F82330C2F8253082F8240082F829305B
:1018400082F82A3082F82B3082F82C30384A137014
:1018500053709370D370137156719371D371137267
:1018600051729472D372137353739373D37313744B
:1018700053749374D374137553759375D37513762A
:1018800053769376D176157751779377D37782F81D
:10189000203082F8213082F8223082F82330C2F8DA
:1018A000253082F8240082F8293082F82A3082F824
:1018B0002B3082F82C301F4A137053709370D37002
:1018C000137153719171D1711372C2F80A30507251
:1018D0009373D37313745374174A137053709370C4
:1018E000D370137151719171D3711372C2F80A30B0
:1018F00050729373D37313745374104A13705370EC
:101900009370D370137153719171D3711372C2F8C4
:101910000A3050729373D37313745374F0BD00BFC5
:10192000E50900203F0A00207E0A0020120A00205C
:10193000B8090020BD0A0020E10A0020CF0A0020DB
:1019400037B5002503682946DB680446984784F8C4
:10195000C85084F8C95084F8CA5084F8CB5003B0FA
:1019600030BD00000000000000000000000000008A
:1019700010B50446FEF77CFDE36823B12046BDE8C0
:101980001040FFF765B910BD000000000000000026
:10199000583002F0D5BD000000000000000000003B
:1019A000583002F0ADBD0000000000000000000053
:1019B000104B984205D1104AD36943F00103D3611B
:1019C00070470E4B984204D10B4AD36943F002038F
:1019D000F5E70B4B984204D1074AD36943F004035F
:1019E000EDE7084B9842EBD1034AD36943F0080373
:1019F000E5E700BF0000024000380240000402405A
:101A000000080240000C024000000000000000003E
:101A10002DE9F0412D4D00262C460327A188206892
:101A2000490094F80680C9B2FFF7C2FF026807FABE
:101A300001F322EA03020260C268013622EA0302CD
:101A4000C260C26808FA01F31343082EC36004F1B0
:101A50000804E3D10024012726464FF00308286834
:101A6000A988036907FA01F21A4202BF07FA06F3CE
:101A70002343DCB24900FFF79BFF036808FA01F13A
:101A800001361943082E016005F10805E7D1104D14
:101A90002B68A34218D021460E4802F041FC04F006
:101AA0000F030B2B8CBFC0230B4A2C6098BFD35C59
:101AB0000A4D04F080002B72FFF7B2FC2846FFF7B6
:101AC00007FB0920BDE8F0811B20FBE7040B002089
:101AD0001008002030500008F050000800080020D6
:101AE0000269036803EB820319637047000000007A
:101AF00038B50446856B4830A9880835FFF7F0FFF4
:101B00000020A56338BD00000000000000000000B8
:101B100008B500214830FFF7E3FF08BD00000000D2
:101B200013B504460123D0F8CC00B4F8D0200191BD
:101B300001B91032934083619DF8041004F16400F0
:101B4000FFF7CEFF9DF8051004F18400FFF7C8FFF2
:101B50009DF8061004F1A400FFF7C2FF02B010BD0B
:101B6000F7B50446D0F8CC00B4F8D06094F8D210A1
:101B7000FFF71EFF032372000568D2B2934025EAE7
:101B8000030505600125D0F800C005FA02F747EA11
:101B90000C0707604768B54027EA050545604568BA
:101BA000B14029434160C16804F1640521EA0301A1
:101BB000C160C168C160816821EA030383600223B8
:101BC000816893400B438360284601F031FED4F8CE
:101BD000C410284604F1840502F002F9284601F0F9
:101BE00027FED4F8C410284604F1A40502F0F8F842
:101BF000284601F01DFE2846D4F8C41002F0F0F883
:101C0000002120462368DB6803B0BDE8F040184798
:101C100038B504460D46202383F31188FEF7A0FB58
:101C20004FF0FF33C4E914550025A365A36B20468C
:101C30006363236865601B689847FEF7A1FB85F323
:101C4000118838BD00000000000000000000000006
:101C50002DE9FF47032002F0F3F88E4A8E4D5368BA
:101C60008E4823F4604343F44043536001F0F0FF97
:101C70008A4802F005F8FEF723FBFEF7C1FD1221AA
:101C800005F1A400C5E92455FEF75AFD002105F130
:101C90009800FEF755FD824802F092FC01F038FDF5
:101CA000804F814A0346814910603A68804802F0BB
:101CB00037FB7A4802F0ACF801F082FE7D48FFF76E
:101CC0004FFF7D4801F0B4FD01F08AFB01F0B8F947
:101CD000C0B200285CD179497648FFF799FF42F2FB
:101CE0006070FEF70DFF2024FFF792FE84F3118849
:101CF000FEF736FB724802F06BF90026FEF740FB58
:101D000086F3118884F31188FEF72AFB6D4802F0F0
:101D10005FF9FEF735FB86F3118801F0B9FAB0469A
:101D2000694C04F158092023CDE9026683F3118838
:101D3000FEF716FB4FF0FF316448FEF711FDA8B91E
:101D4000D5F89020134653F8081B0291526803926D
:101D50005F4AA2F19000934228BF034602F11400AB
:101D6000C5F89030FEF724FDFEF7CAFCFEF708FB2D
:101D700088F311889DF80D104B1E0A2B00F2858008
:101D8000DFE803F008657B838383838373837700B5
:101D90005049A1E7DFF840A148460DF1070102F0E4
:101DA000D7FBC0B20028BED194F84C309DF8072074
:101DB00053B94FF08043B4F84E105B6A5B1A40F29F
:101DC000DE319BB28B4202D984F84C60A6644FF09E
:101DD00080435B6A082AA4F84E30A36C0DD1002B17
:101DE000DAD0013BA364D7E720463C49FFF760F90E
:101DF000D2E72046FFF70CFACEE70D2A01D00A2AD7
:101E00001ED1002BC8D02344216D1E715246344888
:101E100002F046F901233349606584F84C3002F042
:101E200017F90028E0D03049606D02F011F9002860
:101E3000DFD120463B681D4A2C49FFF739F9ABE753
:101E40003E2B9FBF591C1B19A1641A71A4E7FFF711
:101E5000DFFDC0B2092803D141F6A470FEF750FEA1
:101E600001F026FBFFF7A4F95DE70298FFF7F0FA0F
:101E700059E70298FFF744FB55E7002001F038FBD3
:101E800001F06EFBFFF784F94DE7194802F048FABC
:101E900049E700BF00380240300C002084160020C3
:101EA0000C0E0020140800200008002040500008FC
:101EB0004B500008E00C0020BC0F0020E40B002079
:101EC000C40B0020A40B0020B40D0020C80C00207F
:101ED000C00C0020440B0020F80D00203A4F0008F1
:101EE000B80D00206E5000085F50000867500008D1
:101EF0007350000800000000000000000000000017
:101F00002DE9F04100F13C06044630460D4642F210
:101F10001077FFF72DFD40F2E73000214FF47A7281
:101F20000023E5FB0701FEF7ABF923460146034A10
:101F30003046BDE8F041FEF733BE00BF4136000831
:101F4000436DD0F8C820D3F8051070B5914204460F
:101F50000AD00268D3F80150D66845B9B047636D1E
:101F6000D3F80520C4F8C820093363652CE090F845
:101F7000C82059798A4229D2013284F8C82094F8BD
:101F8000C92099798A4224D2013284F8C92094F870
:101F9000CA20D9798A421FD2013284F8CA2094F823
:101FA000CB201B7A9A421AD2013284F8CB202046E9
:101FB000D4F8C810B047606DD4F8C820D0F8053008
:101FC0009A420FD109306065002043E0D7D9013A29
:101FD000D3E7DCD9013AD8E7E1D9013ADDE7E6D920
:101FE000013AE2E794F8C8504379D0F80120AB42B7
:101FF0001CBF0435B2FBF5F5817994F8C9300CBFEC
:102000000025013599421BBF191DB2FBF1F10021DA
:102010000131A94294F8CA3038BF2946C579007AFF
:102020009D421BBF0433B2FBF3F3002301339942FB
:1020300038BF194694F8CB3098421BBF0433B2FB2B
:10204000F3F2002201329142204638BF1146FFF7D9
:1020500057FF012070BD00000000000000000000DC
:1020600038B504460D46FEF703FAD4F8AC30002B21
:1020700002DC4FF0020038BDFEF7FAF9D4F8AC30BC
:102080002968013BC4F8AC30D4F8943004F19800CE
:1020900003F10802C4F8942019606968596004F1DA
:1020A00090039A4228BFC4F89440FEF781FB4FF09A
:1020B0000000E0E700000000000000000000000059
:1020C00070B50446FEF7D4F9A36C1BB104F13C00D3
:1020D000FFF74EFC2F4E04F10805636D1A78042AB1
:1020E000FDD8DFE802F0030A2738140023682046F1
:1020F0009B6898470128F0D170BDD3F801100933CF
:1021000063650029E9D02046FFF7FAFEF4E7A26DE7
:10211000013204BFD3F80120A265A26D2AB94FF0A5
:10212000FF320933A2656365D7E7236D013A636522
:10213000A265D2E7D3F80130226D03EBC3031A4442
:1021400094F86130626523B1124804F15C01FFF735
:1021500087FF0121D7E794F8613023B1304604F1BD
:102160005C01FFF77DFF626812B9C4E91422C3E77E
:10217000636B013A53F8041B6260216504F130017E
:102180008B4288BF2B466363236D63654FF0FF333B
:10219000A365A2E7300C0020000000000000000052
:1021A0002DE9F04100F12006044630460D4642F28A
:1021B0001077FFF7DDFB40F2E73000214FF47A7231
:1021C0000023E5FB0701FEF75BF823460146034ABF
:1021D0003046BDE8F041FEF7E3BC00BF41360008E1
:1021E00070B50446FEF744F9E36A1BB104F1200020
:1021F000FFF7BEFB2D4E04F10805A36B1A78042AE5
:10220000FDD8DFE802F0030A2534130023682046D6
:102210009B6898470128F0D170BD59680833A363C3
:102220000029EAD02046FFF7BBFFF5E7E26B013259
:1022300004BF5A68E263E26B2AB94FF0FF320833F9
:10224000E263A363D9E7636B013AA363E263D4E774
:102250005A68636B03EBC203A36394F8453023B160
:10226000124804F14001FFF7FBFE0121DAE794F880
:10227000453023B1304604F14001FFF7F1FE6268BA
:1022800012B9C4E90D22C7E7A369013A53F8041B48
:102290006260616304F114018B4288BF2B46A36125
:1022A000636BA3634FF0FF33E363A6E7300C0020BA
:1022B00000232DE9F0430121FF246FF03D00BC4ACB
:1022C00003260427137053709370D37013715471E5
:1022D0009371D371137251729072D17213735373DD
:1022E0009373D373137453749374D37413755375B6
:1022F0009375D375147653769376D176107751779C
:102300009377D37782F82E002D204FF000084FF0FE
:1023100000094FF4E13582F8203082F8213082F84C
:10232000223082F8233082F8243082F8253082F877
:10233000263082F8273082F8283082F8293082F857
:102340002A3082F82B4082F82C3082F82D1082F847
:102350002F1082F8303082F8313082F8323082F833
:10236000333082F8343082F8353082F8363082F8F3
:10237000373082F8383082F8393082F83A3082F8D3
:102380003B3082F83C3082F83D3082F83E301364B6
:1023900082F83F6082F8443082F8453082F8463057
:1023A00082F84730834A4FF0920C13705370937049
:1023B000D370137154719371D371137251729072FF
:1023C000D372137353739373D373137453749374DB
:1023D000D374137553759375D375137653769376BB
:1023E000D176107753779377D37782F8203082F8BD
:1023F000213082F8223082F8233082F8251082F8CA
:10240000263082F8273082F8283082F8293082F886
:102410002A3082F82B3082F82C30C2F82E3082F825
:10242000323082F8333082F8343082F8353082F836
:10243000247082F82D60604A6048C2E90089C2E9D0
:1024400024225F4A4FF00E08C0E9005209225D4D78
:102450004FF00C0EC0E902520A22C0E905264FF4E3
:1024600085520561C761C0E908C2574A4FF00D0C9B
:10247000106602F16400C2E959005448C2E91633FB
:1024800010655348C2E95C331060C2E95E335148BD
:1024900082F86C115364A2F84E30936482F84C3089
:1024A00053654D4A106090600F2090830B20A2F876
:1024B00004809171A2F80CC09173156191759561BA
:1024C00091771562A2F814E090840820A2F8348075
:1024D0004FF005089085414882F8361082F82610A2
:1024E000956282F82E109063A2F83CC082F83E10EC
:1024F00010633B4A4FF0FF3C02F10805C2E90D555D
:10250000384DC2E91F141560374DC2E91433C2E9D2
:102510001B854FF00208C2E916C3C2E91D81C2E95A
:10252000231553601366C2E91950C2E92150C2E96C
:102530002571C2E92714C2E92F14C2E92B35C2E97B
:102540002D61C2E931C382F8D230C2E92950C2F804
:10255000CC00A2F8D080254A02F10804C2E9064462
:10256000234CC2E90D33C2E90FC3536082F84530F2
:102570001460D36582F860301E4C6323C2E91541B4
:1025800042F210715366C2E912401B4BA2F850E0B0
:102590001A4A1A6099614FF481719983184B1A6035
:1025A00040F2DE329A6140F201129A83BDE8F08374
:1025B000E40B0020440B0020300C00207C0B00209A
:1025C0000038014000000240B40D00209050000887
:1025D000A850000800080240040B0020000402403C
:1025E000E00C0020B850000800040040740F0020E8
:1025F000D8500008000C0140C40B0020885200088D
:10260000A40B0020000000000000000000000000FB
:10261000816A09B1836A18472430FEF7A1BA000025
:10262000104B984205D1104AD36943F00103D3619E
:1026300070470E4B984204D10B4AD36943F0020312
:10264000F5E70B4B984204D1074AD36943F00403E2
:10265000EDE7084B9842EBD1034AD36943F00803F6
:10266000E5E700BF000002400038024000040240DD
:1026700000080240000C02400000000000000000C2
:1026800070B51546FFF7CCFF032203684E00B24039
:1026900023EA0203036002230446B34001260068D4
:1026A0008E40184320606068072920EA06006060B9
:1026B000E06820EA0200E060E068E060A06820EAEC
:1026C0000202A260A26843EA0203A3608ABFA1F1EA
:1026D00008038B009B0007298CBF042200220F21D6
:1026E0001444226A994022EA01022262226A9D4031
:1026F0001543256270BD00000000000000000000CE
:102700000368197303689A68D207FCD5187B704771
:102710000123428A81689340034A0869184002D025
:10272000013AFAD101207047B88201000000000090
:102730000123C18AC2688B4093617047000000008A
:102740000123C28AC168103293408B617047000038
:102750000148FFF75DBF00BFDC0F00200000000054
:102760007F2908B2C4BFA1F5807108B200EBD07018
:1027700040104A3840B270470000000000000000DE
:102780002DE9F04105460F461646FFF7D9FF2846CA
:10279000FFF7BEFFC4B234B12846FFF7C9FF4FF0C0
:1027A0000100BDE8F08105F1040847F080014046D2
:1027B000FFF7A6FF00F07000214685F82000404694
:1027C000FFF79EFF30702846FFF7B2FF2046E8E78C
:1027D0002DE9F04105460F461646FFF7B1FF2846A2
:1027E000FFF796FFC4B234B12846FFF7A1FF4FF0C0
:1027F0000100BDE8F08105F1040839464046FFF7C5
:102800007FFF31464046FFF77BFF2846FFF790FFEA
:102810002046EEE70000000000000000000000007D
:1028200070B504460E46FFF78BFF2046FFF770FF9A
:10283000C5B22DB12046FFF77BFF4FF0010070BD00
:102840003146201DFFF75CFF064684F8200006F0A5
:1028500070062046FFF76CFF284684F82060EEE7FC
:102860002DE9F043AD4B456804469D4285B000F02C
:10287000B780A3F578439D420CBF052506250326A6
:1028800001274FF00208E18AE068FFF7C9FE4B001C
:102890000268DBB206FA03FC22EA0C020260D0F8FE
:1028A00000E007FA03F242EA0E020260426807FA09
:1028B00001F122EA010242604268D4F808904260C5
:1028C000C26808FA03F322EA0C02C260C268218AD5
:1028D000C260826822EA0C028260826813438360CD
:1028E0002A464846FFF7CCFE2A464846618AFFF74B
:1028F000C7FE2A464846A18AFFF7C2FE217FA0698B
:10290000A58B94F81E90FFF78BFE01FA07F302687F
:10291000DBB206FA03FC22EA0C020260C26809FA82
:1029200003F322EA0C02C260C2681343C3607C4B0B
:102930001A6A3A431A62DA6A22F00102DA6201EA9A
:1029400006020F21DB6A05F47F7303F1804303F570
:102950008033D3F808C002FA08F291402CEA010152
:102960009960704988423DD1996897400F439F60B4
:1029700001276D4B07FA05F51968204629431960B0
:10298000596821EA05015960996821EA05019960B1
:10299000D9682943D9605D61FFF7CAFE0023634A05
:1029A0001946CDE90023201D1A4601F061FA62683C
:1029B00030211368204643F040031360FFF730FFD7
:1029C000C0B2002830D062685948136823F0400331
:1029D000136001F0A5FC3D46284605B0BDE8F08334
:1029E00005254CE75349884206D1996808FA02F850
:1029F00048EA01019960BBE74F49884204D19968D0
:102A000096400E439E60B3E74C49884206D10421AC
:102A1000986801FA02F202439A60A9E7484988429D
:102A2000A6D107219868F4E7072206212046FFF780
:102A3000CFFEC3B20BB14348CBE78DF80F000621A0
:102A400020460DF10F02FFF79BFEC5B245B99DF878
:102A50000F60072E06D031463B4801F061FCBAE713
:102A60003A48B6E73A212046FFF7DAFE20220D2148
:102A70002046FFF7ADFE25220E212046FFF7A8FED7
:102A8000ED220F212046FFF7A3FEA02213212046AE
:102A9000FFF79EFEE62214212046FFF799FE08224A
:102AA00018212046FFF794FE324603212046FFF707
:102AB0008FFE3F2229462046FFF78AFE062202218A
:102AC0002046FFF785FE0C2231462046FFF780FEA8
:102AD000442208212046FFF77BFE50223E2120465B
:102AE000FFF776FE324616212046FFF771FE3022B0
:102AF00017212046FFF76CFEA08B09280AD804286E
:102B00000AD8063080B20721FDF702FC104801F018
:102B100007FC61E72820F6E71720F4E700300140C2
:102B2000003802400004024000040140A02E63006F
:102B30002051000800080240000C02400010024032
:102B4000001402402D510008385100084D51000872
:102B500058510008000000000000000000000000C4
:102B600038B504460D4694F8203033B92A4620463D
:102B7000BDE838400A21FFF72BBE36212046FFF77B
:102B80004FFEF0E700000000000000000000000021
:102B9000F8B505460E4695F820405CB9771C17F845
:102BA000142016F8141028460134FFF711FE142CD7
:102BB000F5D1F8BD36212846FFF732FEEBE70000DD
:102BC000F8B504460D461646FFF7BAFD2046FFF756
:102BD0009FFDC0B228B12046FFF7AAFD4FF00100CB
:102BE000F8BD271D7F213846FFF78AFD2E44B542E8
:102BF00005D12046FFF79CFD4FF00000F0E7384676
:102C000015F8011BFFF77CFDF1E700000000000054
:102C1000F8B50D46352104461646FFF701FE202380
:102C200083F311880027FDF79BFB32462946204697
:102C3000A762FFF7C5FF04F12400FDF771FFFDF760
:102C40009FFB87F31188F8BD000000000000000022
:102C50002DE9F7430E46904678210DF10702044610
:102C60001F46FFF78DFDC0B270B99DF90730002BEC
:102C70000ADA2046FFF764FD2046FFF749FDC5B29A
:102C800025B12046FFF754FD01251EE004F104099B
:102C9000FF214846FFF734FD3744BE424FF00001A4
:102CA000484616D1FFF72CFD002106464846FFF79F
:102CB00027FD2046FFF73CFDB8F1000F05D0314657
:102CC0002046FFF74DFD88F80000284603B0BDE818
:102CD000F083FFF715FD8DF8070006F8010BDCE720
:102CE0002DE9F0410F463A211E4604461546DDF80F
:102CF0001880FFF795FD202383F31188FDF730FB43
:102D000034212046FFF78CFD394604F12400FDF7FD
:102D100017FF0746FDF734FB002383F311880137C3
:102D200007D03346424629462046BDE8F041FFF72A
:102D30008FBF36212046FFF773FD4FF00200BDE83C
:102D4000F081000000000000000000000000000012
:102D5000112838B588BF3921044698BF3621094863
:102D6000FFF75EFD42F2107540F2E73000210023CC
:102D7000E4FB05014FF47A72FDF782FABDE83840B2
:102D8000FDF7BEBEDC0F00200000000000000000C8
:102D900010B5044636212046FFF742FDC0B210B1FF
:102DA0004FF0010010BD94F82030002BF2D13321F8
:102DB0002046FFF735FDC0B20028F1D13D21204665
:102DC000FFF72EFD94F820000028F7D1EAE7000075
:102DD0002DE9F3470024054642F2107640F2E73031
:102DE00021464FF47A72E5FB06010023FDF748FA0D
:102DF0004FF08043054625485E6A4FF40069FFF7AF
:102E0000C7FF2946DFF88880224FB6B2224A08233E
:102E1000C8F818901D480092073AFFF761FF4FF07D
:102E20000063C0B2C8F8183000BB1C4BD7F800C014
:102E300018680134034653F8042BD10001F1040E45
:102E400086449E450AD84318C3F804C07968342ADA
:102E500098BF0132996098BF026007E0D3F800A0E4
:102E6000E2450CD1C3F800C07A685A604FF0804345
:102E7000596A891B89B28D4203D9691AC6E708339A
:102E8000DFE7204602B0BDE8F08700BFDC0F00207E
:102E900000040240741300207B1300201C08002053
:102EA000F8B543F239041C4B1C491A68064601FB6D
:102EB00002441C603F2324F00044B4FBF3F3C3EB53
:102EC0008313E41A22D0A000E6B1FFF781FF054684
:102ED0004FF48063124F1348BB61FFF759FF08227C
:102EE00011491048FFF794FE4FF080633E2CBB6100
:102EF00006D0C4F13E04A00056B1FFF769FF0544B7
:102F00002846F8BDFFF724FF3546E1E72546DFE711
:102F1000FFF71EFFF4E700BFB41600206D4EC64158
:102F200000040240DC0F00207C13002000000000A1
:102F300083B5364E364D374C374F3046FEF748F99D
:102F40000120FFF7ADFF002853D0042323603B602E
:102F50004FF001082368984552D3304B1A7A304B12
:102F60001978914204D03E212E481A70FFF730FCA8
:102F70002D4A13680133032B1360DED9002420236C
:102F8000146083F31188FDF7EBF90B232F68274AB0
:102F90008DF80530264B974218BF13461C60254C10
:102FA0002B60FDF765FAD4F8AC30002B1BDDFDF784
:102FB0005FFAD4F8AC300199013BC4F8AC30D4F8D6
:102FC00094301D4803F10802C4F894201F60596032
:102FD00004F190039A422CBF2346D4F89430C4F8ED
:102FE0009430FDF7E5FBFDF7CBF9002383F311885F
:102FF000A1E73B680BB1013BA9E710232360A7E7DA
:103000000020FFF74DFF08F10108A3E77C13002023
:103010001C080020200800201808002000080020BC
:1030200084130020DC0F0020081000200C1000206A
:10303000C0110020300C0020C80C0020000000004F
:10304000334A13B5D369334843F00203D361324B9B
:10305000196821F440111960196841F48011196050
:10306000596821F48061596059685960D96821F420
:103070004011D960D968D960996821F440119960EC
:10308000996841F400119960D16941F00201D16160
:103090001A6822F440021A601A6842F480021A6028
:1030A0005A6822F400625A605A685A60DA6822F458
:1030B0004002DA60DA68DA609A6822F440029A60C4
:1030C0009A6842F400029A60FFF7CAFBC4B2ECB9F6
:1030D000082206210F48FFF77BFB21460D48FFF72A
:1030E0003FFD0E4B3E211A7A0A48FFF771FB0C494F
:1030F0000848FFF74DFDFF224FF4D071094B0A48F5
:103100000094FDF7A5FC204602B010BD0124FAE7AB
:1031100000380240DC0F00200004024000080020BC
:1031200080510008312F00088813002000000000A3
:1031300038B5154A154B00241A60154A4FF4D87556
:103140005A6002F55042C3E902229A6103221148F3
:1031500011499A83C3E90401104A11491148D16009
:103160009C772A46214683F820405C629C6240F8A6
:10317000044B01F0E5FC0C482A46214640F8044B7C
:1031800001F0DEFC38BD00BF78510008DC0F0020E4
:1031900000300140050006000700040090160020E2
:1031A000512700080C100020C01100200000000072
:1031B00080B501271C4E1D4C00212046B3681A4DD6
:1031C00004F103082A68B5F804C0D2F810E007FA41
:1031D0000CFC1CEA0E0FA14614F8012B1AD0012A90
:1031E0001ED0042A0CBF0322022204F8012CAA6874
:1031F0009A4217D003B1984748460021AB6844452E
:1032000005F10C05DED103B198474FF43470FDF79A
:1032100077FCD0E7023A012A8CBF01220422E4E7BE
:103220000322E2E70131EAE7481600206C1600208D
:10323000104B984205D1104AD36943F00103D36182
:1032400070470E4B984204D10B4AD36943F00203F6
:10325000F5E70B4B984204D1074AD36943F00403C6
:10326000EDE7084B9842EBD1034AD36943F00803DA
:10327000E5E700BF000002400038024000040240C1
:1032800000080240000C02400000000000000000A6
:103290002DE9F74300264FF003093746144CDFF8B9
:1032A0005480A18820684900A579C9B2FFF7C0FF02
:1032B000036809FA01F223EA02030360C3688D4040
:1032C00023EA0203C360C36801361D43032EC560B1
:1032D00004F10C0408F8017BE3D180224FF49071D3
:1032E000054B00970548FDF7B3FB03B0BDE8F0833D
:1032F000481600206C160020B13100082815002067
:103300004FF40032094B0A49C3E90012094AC3E9E4
:1033100002210949C3E9041201F1804101F2FF31A0
:1033200099610649C3E90712704700BF481600209B
:103330000000024081350008010002000800020080
:10334000224B37B51B68002559680A6822F00F0226
:103350000A60597B1A680E238B4053601C4B9D609A
:10336000202383F31188FDF723F80323194C8DF8EC
:103370000530FDF77DF8D4F8AC30AB421EDDFDF72B
:1033800077F8D4F8AC300199013BC4F8AC30D4F8EC
:103390009430114803F10802C4F894201D705D7048
:1033A0009D70DD70596004F190039A422CBF234652
:1033B000D4F89430C4F89430FDF7FAF9FDF710F81A
:1033C000002383F3118803B030BD00BF80160020B6
:1033D00000240140300C0020C80C00200000000038
:1033E000F8B500212B4B01241F2611271A6A2A4801
:1033F00042F400721A62DA6A22F40072DA62DB6A5C
:10340000436823F4403343F480334360234B1A6B07
:1034100022F0F8721A631A6B42F4E0021A631A6916
:1034200022F460021A611A6942F420021A61062C21
:1034300022D81A6C06FA01F522EA05021A641D6CFC
:1034400007FA01F22A431A640134092C01F105013B
:10345000EDD14368124A43F40003436000230F2177
:103460001846FDF775FD0F4B0F4A186043689A60C8
:1034700040F282521A60F8BDDD6BA1F11E0206FA1D
:1034800002FC25EA0C05DD63DD6B07FA02F22A4334
:10349000DA63D9E7003802400027014000240140E8
:1034A000413300088016002058240140000000002D
:1034B0000C4B0D4A1B685B68DA6008225A6040F2C8
:1034C00082521A601A6842F001021A604FF4807248
:1034D000064B5A6040F201129A609A6842F08042AC
:1034E0009A6070478016002070160020002401406A
:1034F0002DE9F041082001241549024623460E8992
:1035000031F813704FEA4308BE421CD801EB420564
:10351000AE4635F802C9664517D39342DFBF013383
:1035200002F1FF3221F808C0AEF80070032AD8BFBC
:103530001C46042BC8BF10469A42E1DA8442DCDB09
:103540000889BDE8F0810133DAE7013AE0E700BF1E
:1035500070160020000000000000000000000000C5
:1035600040F6B832034BB3F878309BB25343B3FB09
:10357000F0F070470000F81F00000000000000009D
:103580002DE9F34107460D460026214C04F1900831
:10359000F3B29D4202D802B0BDE8F081FA5C032A82
:1035A00033D100214FF41062CDE900128DF80130C3
:1035B000202383F31188FCF7D3FEFCF759FFD4F8DE
:1035C000AC30002B1ADDFCF753FFD4F8AC30009977
:1035D000013BC4F8AC30D4F894300E4803F1080233
:1035E000C4F8942019600199424559602CBF2346C4
:1035F000D4F89430C4F89430FDF7DAF8FDF780F889
:10360000FCF7BEFE002383F311880136C0E700BF3C
:10361000300C0020C80C002000000000000000005A
:10362000202383F31188FCF7C3BE000000000000D4
:1036300008B5FCF7D5FE002383F3118808BD000010
:1036400010B50446FFF7ECFF236820461B68984737
:10365000BDE81040FFF7ECBF0000000000000000D4
:103660006FF00303F0B521F003048E08051903FB86
:1036700006441F4FDFF87CC0DFF87CE00444A5421D
:1036800009D101F00303022B2FD0032B12D0012B01
:103690001FD1002413E054F8043B7B434FEA7343EB
:1036A0000CFB03F353404FEAF34303EB830303EBB9
:1036B0000E02E4E7AC7824046B7844EA032410F8A3
:1036C00026300B48634043430A484FEA7343434361
:1036D0005A404A40094882EA12425043084B80EA65
:1036E0005030584380EA1040F0BD0024E4E700BFAA
:1036F000512D9ECC9335871B646B54E66BCAEB85CA
:1037000035AEB2C200000000000000000000000062
:103710001FB5084B0C211A6D01A801925A6D029237
:103720005B6E40F2D2420393FFF79AFF05B05DF85B
:1037300004FB00BF0000F81F0000000000000000B4
:103740000368B3F1804F0BD103F50E335A6A42F090
:1037500001025A621A6B22F001021A631B6B704756
:103760002A4A934208D12A4B5A6A42F002025A620C
:103770001A6B22F00202F0E7264A934208D1244B4A
:103780005A6A42F004025A621A6B22F00402E4E719
:10379000214A934208D11E4B5A6A42F010025A62E3
:1037A0001A6B22F01002D8E71C4A934208D1184B3A
:1037B0005A6A42F020025A621A6B22F02002CCE7C9
:1037C000174A93420AD1124B1A6A42F004021A6253
:1037D000DA6A22F00402DA62DB6A7047114A934225
:1037E00008D10B4B1A6A42F008021A62DA6A22F018
:1037F0000802F0E70C4A9342EFD1054B1A6A42F0F7
:1038000010021A62DA6A22F01002E4E700040040B3
:103810000038024000080040001000400014004042
:1038200000080140000C01400010014000000000B1
:10383000F8B5FFF785FF036801461A6842F0800279
:103840001A60C269DA6242690069012A00F1FF3038
:103850000CBF0722062203280BD8DFE800F0026B1A
:10386000737B986940EA02129A611A6A42F0010277
:103870001A621A6842F001021A604A4A934271D0F1
:1038800002F5806293426DD002F5803293426BD094
:1038900002F58062934267D002F58062934214BFC2
:1038A000012203224B6808890E7E3F498B425DD17D
:1038B0003E4CE16941F00101E16103211F684500CF
:1038C000A940CC4327EA0101196002211F68A940E1
:1038D0003943196001218140002E5FD15E6826EADC
:1038E00001015960D968072801EA0401D960D96843
:1038F000D960996804EA01044FF002019C609C6859
:1039000001FA05F141EA040199608ABFA0F10801BA
:103910008100890007288CBF042000200F24034465
:10392000186A8C4020EA04001862186A8A40024330
:103930001A62F8BD986940EA02329A611A6A42F046
:10394000100295E7D86940EA0212DA611A6A42F475
:1039500080728DE7D86940EA0232DA611A6A42F46D
:10396000805285E702229DE703229BE710498B42A4
:1039700004D10E4CE16941F002019DE70D498B42F3
:1039800004D10A4CE16941F0040195E70A498B42F0
:1039900093D1064CE16941F008018DE75E6831433F
:1039A0009FE700BF000400400000024000380240D2
:1039B0000004024000080240000C02400000000029
:1039C000044AD2E91431526E0B441344024A136084
:1039D000704700BF0000F81FB41600200000000070
:1039E000074B01385A6922F080025A6110F8012F02
:1039F00002B9704719680906FCD55A60F6E700BF9E
:103A0000003801400000000000000000000000003D
:103A100008B50248FFF7E4FF01BEFEE7B051000819
:103A200008B5FCF7F5FCFFF7FBFD0A4B1B685BB123
:103A300098470122084B5A61FFF7FAFDFCF700FD99
:103A4000BDE80840FDF764B90449054800F088FC6A
:103A5000EFE700BF9016002000040140C0510008AD
:103A6000C951000800000000000000000000000034
:103A700008B5FCF7CDFCFFF7D3FD0A4B5B685BB1E3
:103A800098470222084B5A61FFF7D2FDFCF7D8FC99
:103A9000BDE80840FDF73CB90449054800F060FC6A
:103AA000EFE700BF9016002000040140E05100083D
:103AB000C9510008000000000000000000000000E4
:103AC00008B5FCF7A5FCFFF7ABFD0A4B9B685BB1A3
:103AD00098470422084B5A61FFF7AAFDFCF7B0FC97
:103AE000BDE80840FDF714B90449054800F038FC6A
:103AF000EFE700BF9016002000040140F0510008DD
:103B0000C951000800000000000000000000000093
:103B100008B5FCF77DFCFFF783FD0A4BDB685BB162
:103B200098470822084B5A61FFF782FDFCF788FC92
:103B3000BDE80840FDF7ECB80449054800F010FC6A
:103B4000EFE700BF9016002000040140005200087B
:103B5000C951000800000000000000000000000043
:103B600008B5FCF755FCFFF75BFD0A4B1B695BB121
:103B700098471022084B5A61FFF75AFDFCF760FC8A
:103B8000BDE80840FDF7C4B80449054800F0E8FB6B
:103B9000EFE700BF9016002000040140105200081B
:103BA000C9510008000000000000000000000000F3
:103BB00008B5FCF72DFCFFF733FD0A4B1B6863B11A
:103BC00098474FF47872084B5A61FFF731FDFCF7C4
:103BD00037FCBDE80840FDF79BB80449044800F0F5
:103BE000BFFBEEE7A81600200004014020520008A9
:103BF000C9510008000000000000000000000000A3
:103C000008B5FCF705FCFFF70BFD0A4B1B6863B119
:103C100098474FF47C42084B5A61FFF709FDFCF7C7
:103C20000FFCBDE80840FDF773B80449044800F0F4
:103C300097FBEEE7A4160020000401403052000874
:103C4000C951000800000000000000000000000052
:103C5000074A136843F00103136042F20F731168BF
:103C6000890703D4013BFAD1022070470020704736
:103C700000380240000000000000000000000000CA
:103C80000023F0B593B0024611934FF480304FF407
:103C900000334FF48024CDE90A03364B364DCDE98D
:103CA0000C43364B364CCDE90E53364B61682068D9
:103CB000109303AB03C3217A06AD1970324B1F4634
:103CC00003F110062C4618685968083303C4B34240
:103CD0002546F7D17168386901AB03C32B4B99684E
:103CE000C1F38101022940D0032928D001293ED007
:103CF0005B6812A9C3F3423301EB830353F8203C02
:103D0000224CA168C1F303114831694411F8301CF9
:103D1000CB401360A068A168C0F30220C1F3C221A8
:103D2000483048316844694410F8440C11F8441C88
:103D300023FA00F0CB405060936013B0F0BD996857
:103D4000134CC1F383414831694411F83C0C996824
:103D50009B68C1F3815113F4803F0E4B18BF23467B
:103D600043430131B3FBF1F3CAE7094BC8E7094B01
:103D7000C6E700BF9CFF0700C0FD0F0068FF1F00E3
:103D800040520008D0FE3F00604B0008003802405F
:103D9000001BB7000024F400000000000000000039
:103DA0000B4B0C4A99420C4B06D00C48814203D075
:103DB00000F58060814206D19268986812F4005F35
:103DC00018BF400070479268586812F4806FF7E798
:103DD000000801400038024084160020000C014019
:103DE00010B50C4601680848FFF7DAFFCB6A0133CB
:103DF000B0FBF3F0B0FBF4F3A04228BF03F1FF33B4
:103E00008B6200234B6210BD84160020000000006E
:103E100006480749836805C8B3FBF1F3B2FBF1F22A
:103E2000B0FBF1F1034800F07BBA00BF841600201C
:103E300040420F0050520008000000000000000047
:103E40004FF08052074B5A62074A5368D906FCD498
:103E5000136823F4C05343EAC02010605368DB06A4
:103E6000FCD47047003802400070004000000000A1
:103E700070B50068334C1D46A042049B46D104F542
:103E80008434266A46F480562662E66A26F4805612
:103E9000E662E46A4FF441740129046002BF0168DC
:103EA00041F080010160012A02BF026842F0020273
:103EB0000260012D02BF026842F001020260214A45
:103EC0009042214A0CBF92685268B2FBF3F3802BF8
:103ED0002BDC402B2BDC202B2BDC102B2BDC082BA2
:103EE0002BDC042B2BDC022BD4BF00230123026824
:103EF00042EAC30303609DF81430012B02BF03683C
:103F000043F4006303600023436070BD0F4CA04284
:103F1000C0D104F50034666A46F480466662266BBA
:103F200026F480462663246BB4E70723DFE70623E5
:103F3000DDE70523DBE70423D9E70323D7E70223E3
:103F4000D5E700BF00300140841600200038004053
:103F500008B5FCF75DFAFFF763FB084B9B68DB07CE
:103F600003D5074B1B6803B19847FFF761FBFCF7CC
:103F700067FABDE80840FCF7CBBE00BF0030014047
:103F8000AC1600200000000000000000000000004F
:103F900008B5FCF73DFAFFF743FB084B9B68DB07CE
:103FA00003D5074B1B6803B19847FFF741FBFCF7AC
:103FB00047FABDE80840FCF7ABBE00BF0038004040
:103FC000B01600200000000000000000000000000B
:103FD00073B5856904464DB9037F69460C48009561
:103FE0008DF80530FEF73CF802B070BD061DFCF7F9
:103FF0003FFA236913B13046FCF72AFE23462946CF
:104000003046044A02B0BDE87040FCF7C9BD00BFAD
:10401000300C0020413600080000000000000000C5
:1040200013B500220446037F694608488DF8053021
:104030000092FEF715F8637F012B05D1204602B0F0
:10404000BDE81040FFF7C4BF02B010BD300C002027
:1040500030B5E0B1D9B188421CD0431E13F8014FEE
:10406000A4F14102192A88BF204611F8012B98BFFC
:1040700004F12000A2F1410598BFC0B2192D9CBFE8
:104080002032D2B2801A01D1002CE7D130BD4FF0DE
:10409000FF30FBE70020F9E700000000000000000F
:1040A000034670B510460BB952B113680D461E4653
:1040B00013F8012B15F8014B1CB942B902601046E8
:1040C00070BDA242F6D1F1E713460CE014B90D46DB
:1040D00013F8012B15F8014BA242F7D1002AF3D0B7
:1040E000002203F8012C03603046E9E700000000DD
:1040F000034628B100201A5C02B970470130FAE784
:1041000070470000000000000000000000000000F8
:104110002DE9F04385B0984601AB064600250846D8
:104120001F469DF83090B0FBF2F4844602FB140168
:1041300020460929CCB294BF30343734E4B29445D8
:1041400005F1010503F8014BEDD22C4633684445D7
:104150001B680AD33368013D30461B68795D984778
:10416000C0B238B9002DF5D105E049463046984730
:10417000C0B218B10D2005B0BDE8F0830134E5E709
:104180002DE9F04F0B46054614464FF00A0B85B05B
:104190001E4616F8011B31B928462B685B6805B02E
:1041A000BDE8F04F1847252902D02B681B6863E053
:1041B00093F801804FF00009B8F1300F14BF4FF0B1
:1041C00020089E1C16F8011BA1F13003DBB2092B5D
:1041D00003D92A2904D114F8043B0BFB0939F1E770
:1041E0002E2909D116F8011BA1F13003092BF9D9A9
:1041F0002A2901D10434F5E7632939D017D8412998
:1042000064D003D82529D0D03346C1E7532936D00E
:104210005829F9D14B461022CDF8008054F8041BE0
:104220002846FFF775FFC0B20028EDD0B4E7732928
:1042300025D016D8642901D06929E5D154F8047B2A
:10424000002F08DA2B682D2128461B689847C0B23A
:104250000028A1D17F424B460A223946CDF8008082
:10426000DEE77529D0D14B460A22CDF80080D5E78C
:104270002B6814F8041B1B6828469847D3E7D4F82A
:1042800000A05046FFF734FF07460AF1FF3ABAF1A3
:10429000FF3F02D01AF8011F11B9A9EB070711E07F
:1042A0002B6828461B689847C0B20028EFD073E7F8
:1042B0002B68414628461B689847C0B2013F00283A
:1042C0007FF46AAF002FF3DC04349DE70027D4E9C4
:1042D0000093D4F8088003935FFA88FA039B9F4207
:1042E00001DB0C3490E777B9302319F8071010225E
:1042F000009328460223FFF70BFFC0B200287FF48B
:104300004BAF0137EAE7B8F1000FEDD02B6851460B
:1043100028461B689847C0B20028E5D03CE700005B
:104320000FB413B504AB53F8044B0193202383F36C
:104330001188FCF715F82146019A0648FFF720FF7F
:10434000FCF71EF8002383F3118802B0BDE810408B
:1043500004B07047B40D0020000000000000000011
:104360000FB407B504AA52F8041B04480192FFF7E2
:1043700007FF03B05DF804EB04B07047B40D0020F4
:10438000F0B5324CA04244D1314DEC6944F0010407
:10439000EC61032407684D00AC40E64327EA0404BF
:1043A000046002240768AC403C43046001248C4054
:1043B000002A46D1426822EA04024260C268AB4049
:1043C0003240C260C268072943EA0203C3608368BF
:1043D00006EA03064FF002038660826803FA05F3DB
:1043E00043EA02038ABFA1F108028A00920007296A
:1043F00083608CBF042300230F211844036A91407B
:1044000023EA010303620723016A93400B4303621B
:10441000F0BD104CA04204D10D4DEC6944F00204F3
:10442000B6E70D4CA04204D1094DEC6944F00404F8
:10443000AEE70A4CA042ACD1054DEC6944F008044B
:10444000A6E7426814434460B8E700BF000002409A
:10445000003802400004024000080240000C024004
:10446000D0F80C21D0F8181100F586739B1A8B42F6
:1044700028BF0B46C0F81C317BB1002380F81431F3
:1044800003685B68DA60D0F81C215A608268126A9F
:104490001A601A6842F001021A60704700000000BA
:1044A000036859680A6822F00F020A60597B1A688B
:1044B0000E238B405360D0F80C21D0E946310A44DA
:1044C0005B1A00F586718A4228BF00F10C02C0F821
:1044D0001831C0F80C211BB9012380F81431704742
:1044E000FFF7BEBF00000000000000000000000059
:1044F000FFF7D6BF00000000000000000000000031
:10450000D0F81831FF2B16D8D0F810315A1CC0F84B
:1045100010211970D0F8102100F586739A4224BF3B
:1045200000F10C03C0F81031D0F818310133C0F895
:104530001831002070470D20704700000000000077
:1045400090F814310BB1FFF78BBF704700000000EB
:104550004368D0F824215B685B68C3F140039B1A71
:1045600048BF40337BB1531CC0F82431024492F859
:1045700028310B70D0F82431402BA8BF0023C0F89D
:104580002431002070470C2070470000000000001C
:104590008268D2E90013054A9342054A0CBF92682B
:1045A0005268B2FBF1F29A60704700BF00380140D8
:1045B0008416002000000000000000000000000041
:1045C000F8B5002385681A460446A989A868FFF74C
:1045D000D7FE6E68324B9E4245D103F580331A6A8E
:1045E00042F480421A62DA6A22F48042DA62DB6ABA
:1045F00000272046FFF7CCFF23460921294AA86956
:104600003761FCF7A5FCA56843686A682060111D46
:104610009960296A2869196001230C2184F81431F2
:10462000D160C02151611A46A98AFFF7A9FE3B4615
:104630003A460921E869FCF78BFCA16843684A689F
:104640006060101D98604020496A04F59474DC6035
:1046500058601960196841F001011960D36843F48A
:104660000053D360F8BD104B9E420BD103F5FA33D3
:104670005A6A42F400325A621A6B22F400321A6308
:104680001B6BB5E7094B9E42B2D103F5F8335A6A6A
:1046900042F480225A621A6B22F48022EFE700BFB4
:1046A00000380140F1440008004400400048004048
:1046B00010B5FBF7ADFE4FF080431A6992070CD599
:1046C00000241C61202383F31188FBF771FEFCF7A3
:1046D000E7F8FBF785FE84F31188FBF7B1FEBDE830
:1046E0001040FCF715BB00000000000000000000B7
:1046F000134B08215A6A1C2042F001025A621A6BBD
:1047000042F001021A630F4A1B6B936843F00103E6
:1047100093600D4B5A6842F21073B2FBF3F24FF004
:104720008043013A9A624FF6FF72DA6200229A6180
:104730005A63DA605A6001225A611A60FBF7E8BDD9
:1047400000380240002004E0841600200000000031
:104750002DE9F047089E0D4604468E46002B4CD1AD
:104760008A42944667D9B2FA82F353B102FA03FC43
:10477000C3F1200201FA03FE20FA02F242EA0E0E11
:104780009C404FEA1C47BEFBF7F11FFA8CF507FB74
:1047900011EE01FB05F0220C42EA0E4290420AD9CA
:1047A0001CEB020201F1FF3E80F01981904240F2C1
:1047B000168102396244121AB2FBF7F007FB10228D
:1047C00000FB05F5A4B244EA0244A5420AD91CEB59
:1047D000040400F1FF3280F00481A54240F201811F
:1047E0006444023840EA01400021641B1EB1DC40F1
:1047F0000023C6E90043BDE8F0878B4208D9002EAC
:1048000000F0EA800021C6E900050846BDE8F0870F
:10481000B3FA83F1002948D1AB4202D3824200F2BD
:10482000F880841A65EB030201209646002EE2D040
:10483000C6E9004EDFE702B9FFDEB2FA82F3002BD1
:1048400040F08E80881A0121170C1FFA82FEB0FBFF
:10485000F7F507FB1500220C42EA00420EFB05F0BB
:10486000904208D91CEB020205F1FF3802D29042B7
:1048700000F2CC804546121AB2FBF7F007FB10227B
:104880000EFB00FEA4B244EA0244A64508D91CEB84
:10489000040400F1FF3202D2A64500F2B4801046B3
:1048A000A4EB0E0440EA0540A0E7C1F120078B40CD
:1048B00022FA07FC4CEA030C25FA07FA4FEA1C49D6
:1048C000BAFBF9F88D4020FA07F309FB18AA1FFA82
:1048D0008CFE2B4300FA01F508FB0EF01C0C44EA99
:1048E0000A44A04202FA01F20BD91CEB040408F1BD
:1048F000FF3A80F08680A04240F28380A8F102084F
:104900006444241A98B2B4FBF9F309FB134403FB83
:104910000EFE40EA0444A64508D91CEB040403F14A
:10492000FF306AD2A64568D9023B644443EA084096
:10493000A0FB0293A4EB0E049C42C8469E4654D3AF
:1049400051D0002E67D0B5EB080364EB0E04CB40CA
:1049500004FA07F71F43CC40C6E9007400214AE778
:1049600002FA03FCC3F12000C1409D4024FA00F08C
:104970004FEA1C472843B1FBF7F507FB15111FFA57
:104980008CFE020C42EA014205FB0EF1914204FA50
:1049900003F408D91CEB020205F1FF382FD2914233
:1049A0002DD9023D6244521AB2FBF7F107FB1122E6
:1049B00080B240EA024001FB0EF2824208D91CEBB1
:1049C000000001F1FF3816D2824214D90239604446
:1049D000801A41EA05413AE7314630460BE7714615
:1049E000E9E61046FEE64D45ABD2B9EB020863EBB3
:1049F0000C0E0138A5E74146EAE7034696E745462F
:104A0000D1E7D0467DE76444023849E7023D62447D
:104A100031E708460AE73146EDE600BF0000000036
:104A2000012B2DE9F0478646904601D0242B06D96C
:104A300000F08EF8162303600020BDE8F0870D46D5
:104A400035482A4615F8014B065D16F00806F8D1E0
:104A50002D2C2ED101262C78951C002B57D0102BF5
:104A600009D1302C07D12A7802F0DF02582A49D127
:104A700010236C780235002206F1004C0CF1FF3C4B
:104A8000BCFBF3F9104603FB19CAA4F13007092F48
:104A900014D83C46A34220DD571C07D0814519D3CA
:104AA00001D1A24516DB012200FB034015F8014BA2
:104AB000EBE72B2C04BF2C78951CCEE7A4F1410723
:104AC000192F01D8373CE5E7A4F16107192F04D865
:104AD000573CDFE74FF0FF32E8E7531C08D12223B1
:104AE0006046CEF80030B8F1000FA6D0691E06E08F
:104AF00006B14042B8F1000F9FD0002AF6D1C8F8A5
:104B000000109AE73024002BB5D10823B3E7302CEE
:104B1000A9D00A23AFE700BF9152000800000000AF
:104B200013460A46014602480068FFF779BF00BFF6
:104B300070080020000000000000000000000000DD
:104B400003460244934200D1704703F8011BF9E782
:104B5000014B1868704700BF70080020000000007B
:104B6000000000000000000001020304060708091D
:104B7000000000000102030400000000000000002B
:104B80005356233300000000000000000000000026
:104B90005356233400000000000000000000000015
:104BA0005356233500000000000000000000000004
:104BB00053562336000000000000000000000000F3
:104BC00053562337000000000000000000000000E2
:104BD00053562338000000000000000000000000D1
:104BE00053562339000000000000000000000000C0
:104BF0005356233130000000000000000000000088
:104C00005356233131000000000000000000000076
:104C1000737461636B206F766572666C6F770000EA
:104C2000636853636852656164794168656164498A
:104C30000000000000000000000000000000000074
:104C4000636853636852656164794900000000003D
:104C5000636853656D5369676E616C4900000000BD
:104C6000636853656D5761697454696D656F7574D8
:104C700053000000000000000000000000000000E1
:104C8000636853656D4F626A656374496E69740049
:104C90006D61696E0000000000000000000000006F
:104CA00069646C6500000000000000000000000066
:104CB000A04C0008C808002078090020010000006E
:104CC000F1070008000000000000000000000000E4
:104CD0006368546864536C6565705300000000009D
:104CE0006368546864437265617465537461746980
:104CF0006300000000000000000000000000000051
:104D00006368546864437265617465537573706554
:104D10006E646564490000000000000000000000AF
:104D200063685654446F526573657449000000000F
:104D3000636854696D6541646458000000000000B8
:104D400063685654446F53657449000000000000C6
:104D500014540008F0170020F0170020F01700206E
:104D600014540008000000000000000000000000D3
:104D700014540008000000000000000000000000C3
:104D800014540008000000000000000000000000B3
:104D900014540008000000000000000000000000A3
:104DA0001454000800000000000000000000000093
:104DB0001454000800000000000000000000000083
:104DC0001454000800000000000000000000000073
:104DD000646D6153747265616D416C6C6F63490001
:104DE0000060024008600240010000000000000B6B
:104DF000006002401C600240020000000004010C40
:104E00000060024030600240040000000008020D13
:104E1000006002404460024008000000000C030EE5
:104E20000060024058600240100000000010040FB3
:104E3000006002406C600240200000000014051079
:104E4000006002408060024040000000001806112F
:104E50002D333064426D002D323764426D002D32A7
:104E60003564426D002D323064426D002D31356461
:104E7000426D002D313064426D002D3664426D006C
:104E80002B3564426D002B3764426D002B3130644A
:104E9000426D002B313264426D003F3F64426D0031
:104EA00054785077723A2025530D0000000000001E
:104EB000426174746572793A202564206D560D0044
:104EC000456E61626C65640044697361626C65641F
:104ED00000537461746500496D6D6F7274616C7319
:104EE0003A2025640D00507265696D6D6F727461B2
:104EF0006C733A2025640D00426174746572793ACE
:104F00002025640D00536574547850777200426117
:104F100064506172616D0D0A005278506B7450726A
:104F2000696E74696E67005278506B745072696E66
:104F300074696E673A2025730D004F6B0D0A0043AC
:104F40006D64556E6B6E6F776E3A2025530D0A00B7
:104F5000496D6D6F7274616C0D00507265696D6D95
:104F60006F7274616C0D0000000000000000000012
:104F700069643A2025583B20496D6D6F7274616CED
:104F80003D256420727373693D25640D00000000A7
:104F9000042573FF00000000000000000000000076
:104FA0000000000064000000010000006300000039
:104FB0000000000000000000010000006801000087
:104FC00003000000000000000000000000000000DE
:104FD00003080D171D26375086CDC5C00000000000
:104FE00000000000640000000100000063000000F9
:104FF000000000000000000001000000630000004D
:1050000000000000640000000100000063000000D8
:105010000000000000000000010000006801000026
:10502000030000000000000000000000000000007D
:105030004469703A203078253032583B2000000017
:10504000486967686C616E646572000D25532025A0
:10505000533B2049443A203078253038580D0056CB
:10506000657273696F6E0025532025530D005069DA
:105070006E6700556E68616E646C6564206D736761
:105080002025750D00000000000000000000000059
:10509000202C0000000000000000000000000000C4
:1050A0000000000000000000A1190008911900088C
:1050B0000000000000000000C120000841190008A5
:1050C000411F0008211B0008000000000000000034
:1050D0000000000000000000E1210008111B000892
:1050E000F11A0008000000000000000000000000AD
:1050F00003080D171D26375086CDC5C000000000DF
:1051000052454C454153450032303235303331340D
:105110005F32303437000000000000000000000063
:10512000434320527374204661696C0D0043432051
:1051300057204661696C0D00434320522F5720468B
:1051400061696C3B2072706C3D25750D00434320F6
:1051500052204661696C0D00434320696E697420DA
:105160006F6B0D0000000000000000000000000058
:1051700000000000000000001126000800000000F0
:105180000B080C00105B11E51213154621B6221016
:10519000191D1A1C1BC71C001DB223EA242A250056
:1051A000261F2C812D312E09000000000000000078
:1051B0000D486172644661756C740D00000000005A
:1051C000566563746F72353800556E68616E646C35
:1051D00065642025530D0000000000000000000061
:1051E000566563746F7235430000000000000000D4
:1051F000566563746F7236300000000000000000D6
:10520000566563746F7236340000000000000000C1
:10521000566563746F7236380000000000000000AD
:10522000566563746F72394300000000000000008F
:10523000566563746F724530000000000000000086
:10524000030406080C1018203000000000000000C5
:10525000414842467265713D25754D487A3B204173
:10526000504231467265713D25754D487A3B20416B
:10527000504232467265713D25754D487A0D0000E9
:1052800000000000000000002140000800000000B5
:105290000020202020202020202028282828282006
:1052A00020202020202020202020202020202020FE
:1052B0002088101010101010101010101010101066
:1052C0001004040404040404040404101010101056
:1052D0001010414141414141010101010101010120
:1052E0000101010101010101010101011010101072
:1052F00010104242424242420202020202020202F2
:105300000202020202020202020202021010101045
:10531000200000000000000000000000000000006D
:10532000000000000000000000000000000000007D
:10533000000000000000000000000000000000006D
:10534000000000000000000000000000000000005D
:10535000000000000000000000000000000000004D
:10536000000000000000000000000000000000003D
:10537000000000000000000000000000000000002D
:10538000000000000000000000000000000000001D
:01539000001C
:08539400BCF3FF7F01000000E3
:1053A00000000000010000000003000000000000F9
:1053B000FFFF000008510008040000000C1000204E
:1053C0000400000000000000B81600202017002094
:1053D000881700200000000000000000000000000E
:1053E00000000000000000000000000000000000BD
:1053F00000000000000000000000000000000000AD
:10540000000000000000000000000000000000009C
:04541000240800204C
:04000005080001519D
:00000001FF
