:020000040800F2
:10000000000400205101000853010008A1740008F9
:100010005301000853010008530100085301000870
:10002000530100085301000853010008515A000809
:100030005301000853010008530100085301000850
:100040005301000853010008530100085301000840
:100050005301000853010008D174000821750008FD
:1000600071750008C175000811760008015B000871
:10007000215B0008415B0008615B0008815B0008B0
:10008000A15B0008C15B0008530100085301000890
:10009000530100085301000853010008617600086D
:1000A00053010008530100085301000853010008E0
:1000B000617700085301000853010008530100084C
:1000C000530100085301000853010008017700089C
:1000D000317700085301000853010008530100085C
:1000E000B1760008530100085301000853010008CD
:1000F0005301000853010008530100085301000890
:10010000530100085301000853010008530100087F
:10011000530100085301000853010008530100086F
:10012000530100085301000853010008530100085F
:10013000530100085301000853010008530100084F
:04014000217800081A
:1001500026E000F000F8FEE70000000000000000CC
:100160002DE9F04FC1F80CD0C3689D46BDE8F08F73
:1001700004F05EFB002383F311882846A04700208B
:1001800005F056FC04F034FB05F0E2FB04F050FBF4
:1001900000DFFEE70000000000000000000000009B
:1001A00072B6274880F30888264880F309882648D5
:1001B0004EF60851CEF200010860022080F3148848
:1001C000BFF36F8F05F054FC05F05AFC4FF055302B
:1001D0001E491B4A91423CBF41F8040BFAE71C49F7
:1001E000184A91423CBF41F8040BFAE719491A4AF0
:1001F0001A4B9A423EBF51F8040B42F8040BF8E741
:1002000000201749174A91423CBF41F8040BFAE716
:1002100005F04EFC05F03CFC134C144DAC4203DAE7
:1002200054F8041B8847F9E705F0DAFC104C114D2F
:10023000AC4203DA54F8041B8847F9E705F030BCF8
:10024000000400200008002000000008000000203A
:1002500000040020C08E0008000800206008002074
:10026000600800206C2500204001000844010008BF
:1002700044010008440100080000000000000000E4
:1002800053B94AB9002908BF00281CBF4FF0FF31FD
:100290004FF0FF3000F00CB8ADF1080C6DE904CE62
:1002A00007F09EFDDDF804E0DDE9022304B07047AD
:1002B000704700BF000000000000000000000000C8
:1002C000064B9A6A002A01DDDA6A1AB172B6044A4C
:1002D0005A62FEE70122DA62704700BF341F002035
:1002E000D0800008000000000000000000000000B6
:1002F000064B9A6A002A02DDDA6A002A03DC72B62B
:10030000034A5A62FEE70022DA627047341F002077
:10031000E080000800000000000000000000000075
:10032000202383F31188074B9A6A002A01DBD96ADC
:1003300019B172B6044A5A62FEE701329A6281F339
:1003400011887047341F0020F08000080000000072
:10035000202383F31188074B9A6A002A01DDD96AAA
:1003600019B172B6044A5A62FEE7013A9A6281F301
:1003700011887047341F0020008100080000000031
:10038000054B9A6A002A02DBDA6A002A03DC72B69D
:10039000024A5A62FEE77047341F002010810008AD
:1003A000054B9A6A12B9DA6A002A03DC72B6034A6C
:1003B0005A62FEE7704700BF341F0020208100080A
:1003C00008B5FFF7DDFF094B18B972B6084A5A6243
:1003D000FEE70022027582681B6899689142FBD88B
:1003E0005A68036042601060586008BD341F0020E6
:1003F000508C000800000000000000000000000019
:10040000FEE7000000000000000000000000000007
:1004100070B515461E46264CFFF7B2FF19B972B6E5
:10042000244B6362FEE7C0E9035626464FF0804541
:1004300056F8143F02296A6A38BF0221B34292B2C9
:1004400012D12284C4E90500C0E900334FF6FF73DE
:10045000994294BF5218D218002392B281606A6305
:100460002B610223EB6070BD268C921B92B289181F
:100470009A6802D31B68891A09E0914207D24FF6A5
:10048000FF72914294BF7618B618B6B26E639A683E
:100490008A42EFD35A6803604260106058608160FE
:1004A0009A68521A9A604FF0FF33E361DBE700BFAE
:1004B000341F0020B08C0008000000000000000085
:1004C00010B5214CFFF75CFF234653F8141F8142FF
:1004D0000CD0D0E900210A60516000219A42C1602D
:1004E00003D0936881680B44936010BD00200A68B4
:1004F0009A4262615360C86003D14FF08043D86074
:10050000F3E7936889680B4493604FF08042218C35
:10051000526A521A92B29342E7D9981A012809D81E
:10052000931CB3F5803F0BD219444FF0804389B23E
:100530005963DAE74FF6FF72934228BF1346F3E799
:1005400072B6024B6362FEE7341F0020908C0008F5
:10055000202383F311880F4B5B6813F4006315D0DD
:10056000EFF309834FF0807243F8042CA3F12002CB
:1005700082F30988084A1168126989689268914271
:100580008CBF064A064A43F8082C704783F311884B
:10059000704700BF00ED00E0341F00208501000817
:1005A00090010008000000000000000000000000B2
:1005B00010B40468437B2168827B4068D94000689E
:1005C00001F00E0108420DD001FA03F36360064BFF
:1005D000013253F832402CB103EBC2035868234672
:1005E00010BC184710BC70473020002000000000ED
:1005F00008B5FFF7C5FEC3681BB1BDE80840FFF7AB
:100600005FBF08BD00000000000000000000000007
:10061000104B984205D1104AD36943F00103D361CE
:1006200070470E4B984204D10B4AD36943F0020342
:10063000F5E70B4B984204D1074AD36943F0040312
:10064000EDE7084B9842EBD1034AD36943F0080326
:10065000E5E700BF0000024000380240000402400D
:1006600000080240000C02400000000000000000F2
:1006700010B5FFF7CDFF0323026849008B401343F9
:10068000036010BD0000000000000000000000003A
:100690000269036803EB82031963704700000000DE
:1006A00000214830FFF7F4BF000000000000000008
:1006B00000214830FFF7ECBF000000000000000000
:1006C00038B50446856B4830A9880835FFF7E0FF48
:1006D0000020A56338BD00000000000000000000FD
:1006E00037B5002503682946DB680446984784F837
:1006F000C85084F8C95084F8CA5084F8CB5003B06D
:1007000030BD0000000000000000000000000000FC
:1007100013B504460123D0F8CC00B4F8D0200191E1
:1007200001B91032934083619DF8041004F1640014
:10073000FFF7AEFF9DF8051004F18400FFF7A8FF56
:100740009DF8061004F1A40002B0BDE81040FFF7C8
:100750009FBF00000000000000000000000000003B
:1007600042F62F220A4B1B6893420ADCB3F5616FF5
:1007700009DA002B09DA13F5167FACBF0320042039
:10078000704700207047012070470220704700BF6B
:10079000040800200000000000000000000000002D
:1007A000104B984205D1104AD36943F00103D3613D
:1007B00070470E4B984204D10B4AD36943F00203B1
:1007C000F5E70B4B984204D1074AD36943F0040381
:1007D000EDE7084B9842EBD1034AD36943F0080395
:1007E000E5E700BF0000024000380240000402407C
:1007F00000080240000C0240000000000000000061
:10080000202383F31188FFF75BBD00000000000088
:1008100008B5FFF76DFD002383F3118808BD0000C4
:1008200008B5FFF7EDFF03681B689847BDE808406F
:10083000FFF7EEBF00000000000000000000000015
:100840000268134B10B59A421248134B06D0134C52
:10085000A24203D004F58064A24214D180689B6850
:1008600010F4005FD06A18BF5B000130B3FBF0F3F7
:10087000B3FBF1F08B424FF0000328BF00F1FF30D3
:100880009062536210BD80685B6810F4806FE9E786
:1008900000080140003802408C080020000C014094
:1008A00070B5856B0446B5F8051000F1480611B126
:1008B0003046FFF7C5FFD5F80110304689B207353D
:1008C000FFF7E6FE0020A56370BD000000000000F9
:1008D000034670B500B913680E46184613F8014B6D
:1008E00016F8015B6DB9A4B10E4613F8014B16F86A
:1008F000015BAC420AD13CB1002103F8011C13603A
:1009000070BDAC42ECD1E7E72346F8E7002DEED10D
:10091000EAE723462046F2E700000000000000005E
:10092000D0F80C21D0F8181100F586739B1A8B4271
:1009300028BF0B46C0F81C317BB1002380F814316E
:1009400003685B68DA60D0F81C215A608268126A1A
:100950001A601A6842F001021A6070470000000035
:10096000036859680A6822F00F020A60597B1A6806
:100970000E238B405360D0F80C21D0E946310A4455
:100980005B1A00F586718A4228BF00F10C02C0F89C
:100990001831C0F80C211BB9012380F814317047BD
:1009A000FFF7BEBF000000000000000000000000D4
:1009B000D0F81831FF2B02D94FF00D007047D0F856
:1009C00010315A1CC0F810211970D0F8102100F510
:1009D00086739A4224BF00F10C03C0F81031D0F89E
:1009E00018310133C0F818314FF000007047000093
:1009F0005830FFF7DDBF00000000000000000000DD
:100A000090F814310BB1FFF78BBF70470000000066
:100A10005830FFF7F5BF00000000000000000000A4
:100A2000002301226C202DE9F047FF2403256FF0FD
:100A30003D0604274FF0020CFA496FF04B0E0B7085
:100A40004B708B70CB700B71CB710B724A72CB7287
:100A50000B734B738B73CB730B744B748B74CB74A2
:100A60000B754B758B75CB750B764B768B76CA7683
:100A70004B778B774C718C7188720877CB7781F8C4
:100A8000203081F8213081F8223081F8233081F83C
:100A9000252081F8263081F8273081F8283081F828
:100AA000293081F82A3081F82B3081F82C3081F8F8
:100AB0002D2081F82F2081F8303081F8313081F8F5
:100AC000323081F8333081F8343081F83530C1F874
:100AD000373081F83B3081F83C3081F83D3081F887
:100AE0003E3081F8247081F82E6081F83650CE496E
:100AF0004FF01B080B704B708B70CB700B714B71F0
:100B00008B710B724A72CB720B734B738B73CB73FB
:100B10000B744B748B74CB740B754B758B75CB75D9
:100B20000B764B768B76CA764A778B77CB7781F8C4
:100B3000203081F8213081F8223081F82330C1F84B
:100B40002530CC7188720E7781F8245081F82930D5
:100B500081F82A3081F82B3081F82C30B3496FF0BE
:100B600028090B704B708B70CB700B714B718B71B4
:100B70000B724A72CB720B734B738B73CB730B7408
:100B80004B748B74CB740B754B758B75CB750B7667
:100B90004B768B76CA76CC71887208774B778B77D9
:100BA000CB7781F8203081F8213081F8223081F82C
:100BB000233081F8252081F8263081F8273081F80C
:100BC000283081F8293081F82A3081F82B3081F8DB
:100BD0002C3081F82D2081F82F2081F8303081F8D9
:100BE000313081F8323081F8333081F8343081F897
:100BF0003530C1F8373081F83B3081F83C3081F82E
:100C00003D3081F83E3081F8247081F82E6081F803
:100C1000365087494FF0760A0B704B708B70CB7053
:100C20000B714B718B710B724A72CB720B734B73DE
:100C30008B73CB730B744B748B74CB740B754B75BC
:100C40008B75CB750B764B768B76CA764B778B771D
:100C5000CB7781F8203081F82130CC718872087709
:100C600081F8223081F8233081F8263081F827304E
:100C700081F8283081F8293081F82A3081F82B302A
:100C800081F82C3081F82D2081F82F2081F8303028
:100C900081F8313081F8323081F8333081F83430E6
:100CA00081F83530C1F8373081F83B3081F83C307D
:100CB00081F83D3081F83E3081F8247081F825C0FC
:100CC00081F82E6081F836505A490B704B708B704A
:100CD000CB700B714C718C71CC710B724A72CB72F0
:100CE0000B734B738B73CB730B744B748B74CB7410
:100CF0000B754B758B75CA750A764A768B76CB6108
:100D000081F8203081F8213081F8223081F82330B9
:100D10008872CD7648490B704B708B70CB700B711D
:100D20008B714C71CB710B724A72CB720B734B731C
:100D30008B73CB730B744B748B74CB740B754B75BB
:100D40008B75CB750B764B768B76CA764A778B771D
:100D5000CB7781F8203081F8213081F8223081F87A
:100D60002330C1F8253081F8293081F82A30887283
:100D70000E7781F8245081F82B3081F82C302F49E0
:100D80000B704B708B70CB700B718B71CB710B72C6
:100D90004A72CB720B734B738B73CB730B744B74A4
:100DA0008B74CB740B754B758B75CB750B764B7643
:100DB0008B76CA764B778B774C7188720877CB77B6
:100DC00081F8203081F8213081F8223081F82330F9
:100DD00081F8252081F8263081F8273081F82830E5
:100DE00081F8293081F82A3081F82B3081F82C30B5
:100DF00081F82D2081F82F2081F8303081F83130B2
:100E000081F8323081F8333081F8343081F8353070
:100E1000C1F8373081F83B3081F83C3081F83D3003
:100E20000EE000BF9B0A0020410F00206E0F002043
:100E3000AD0F00207C1C00206F1000209C100020B3
:100E400081F83E3081F8247081F82E6081F83650A8
:100E5000FA490B704B708B70CB700B718B71CB712F
:100E60000B724A72CB720B734B738B73CB730B7415
:100E70004B748B74CB740B754B758B75CB750B7674
:100E80004B768B76CA764B778B77CB7781F8203091
:100E900081F8213081F8223081F823304C7188723A
:100EA000087781F8247081F825C081F8263081F810
:100EB000273081F8283081F8293081F82A3081F8EC
:100EC0002B3081F82C3081F82D2081F82F2081F8EB
:100ED000303081F8313081F8323081F8333081F8A8
:100EE000343081F83530C1F8373081F83B3081F843
:100EF0003C3081F83D3081F83E3081F82E6081F839
:100F00003650CF490B704B708B70CB700B718B715F
:100F10000B724A724C71CC718872CB720B734B732B
:100F20008B73CB730B744B748B74CB740B754B75C9
:100F30008B75CB750B764B768B76CA764A778B772B
:100F4000CB7781F8203081F8213081F8223081F888
:100F50002330C1F8253081F8293081F82A3081F812
:100F60002B3081F82C300E7781F82450B5490B7066
:100F70004B708B70CB700B714B710B724A72CB72D2
:100F80000B734B738B73CB730B744B748B74CB746D
:100F90000B754B758B75CB750B764B768B76CA764E
:100FA0004A778B77CB7781F8203081F821308C71AC
:100FB000CC7188720E7781F8223081F82330C1F825
:100FC000253081F8293081F82A3081F82B3081F8DA
:100FD0002C3081F824509C490B704B708B70CB7077
:100FE0000B718B71CB710B724A72CB720B734B739B
:100FF0008B73CB730B744B748B74CB740B754B75F9
:101000008B75CB750B764C7188724B768B76CA7666
:101010004B778B77CB7781F8203081F8213081F8BE
:10102000223081F8233081F8243081F8253081F88E
:10103000263081F8273081F8283081F8293081F86E
:101040002B3081F82C3081F82D2081F82F3081F859
:10105000303081F8313081F8323081F8333081F826
:10106000343081F8353081F8363081F8373081F806
:10107000383081F83930087781F82A4081F82E001D
:1010800081F83A3081F83B3081F83C3081F83D30CE
:1010900081F83E3081F83F2081F8412081F84230CC
:1010A00081F8433081F8443081F8453081F846308A
:1010B00081F84730C1F8493081F84D3081F84E3021
:1010C00081F84F3081F8503081F8406081F8485005
:1010D0005E490B704B708B70CB700B718B71CB7149
:1010E0000B724A72CB720B734C7188724B738B7399
:1010F000CB730B744B748B74CB740B754B758B75F6
:10110000CB750B764B768B76CA764B778B77CB7716
:1011100081F8203081F8213081F8223081F82330A5
:1011200081F8252081F8263081F8273081F8283091
:1011300081F8293081F82A3081F82B3081F82C3061
:1011400081F82D30087781F8247081F82E3081F8ED
:101150002F3081F8303081F8313081F8323081F829
:10116000343081F8353081F8362081F8383081F814
:10117000393081F83A3081F83B3081F83C3081F8E1
:101180003D3081F83E3081F83F3081F8403081F8C1
:10119000413081F8423081F8433081F8443081F8A1
:1011A000453081F8463081F8473081F8482081F891
:1011B0004A2081F84B3081F84C3081F84D3081F86D
:1011C0004E3081F8334081F8370081F8496081F86A
:1011D0004F3081F85030C1F8523081F8563081F8E4
:1011E000573081F8583081F8593081F851501849FA
:1011F0000B704B708B70CB700B718B71CB710B7252
:101200004A72CB720B734B738B73CB730B744B742F
:101210008B74CB740B754B758B75CB750B764C71D2
:1012200088724B768B76CA764B778B77CB7781F843
:10123000203081F8213081F822300BE0DB100020D3
:10124000410A0020DC1B0020D514002026150020B8
:101250008015002081F8233081F8263081F827306E
:1012600081F8283081F8293081F82A3081F82B3034
:1012700081F82C3081F82D3081F82E3081F82F3014
:1012800081F8303081F8313081F8323081F83430F3
:1012900081F8353081F8362081F8383081F83930DE
:1012A000087781F8247081F825C081F8334081F8EF
:1012B000370081F83A3081F83B3081F83C3081F8D2
:1012C0003D3081F83E3081F83F3081F8403081F880
:1012D000413081F8423081F8433081F8443081F860
:1012E000453081F8463081F8473081F8482081F850
:1012F0004A2081F84B3081F84C3081F84D3081F82C
:101300004E3081F84F3081F85030C1F8523081F8BA
:10131000563081F8573081F8583081F8593081F8CB
:10132000496081F85150FA490B704B708B70CB704B
:101330000B71CB710B724A72CB720B734B738B7345
:10134000CB730B744B748B74CB740B754B758B75A3
:10135000CB750B764B768B76CA764A778B77CB77C5
:1013600081F8203081F8213081F8223081F8233053
:10137000C1F825304C718C7188720E7781F8245039
:1013800081F8293081F82A3081F82B3081F82C300F
:10139000E0490B704B708B70CB700B714B71CB7144
:1013A0000B724A72CB720B734B738B73CB730B74D0
:1013B0004B748B74CB740B754B758B75CB750B762F
:1013C0004B768B76CA768C7188720E774A778B77DC
:1013D000CB7781F8203081F8213081F8223081F8F4
:1013E0002330C1F8253081F8293081F82A3081F87E
:1013F0002B3081F82C3081F82450C7490B704B708A
:101400008B70CB700B714B718B710B724A72CB72FC
:101410000B734B738B73CB730B744B748B74CF71D7
:101420008872CB740B754B758B75CB750B764B76C1
:101430008B76CA764A778B77CB7781F8203081F824
:10144000213081F8223081F82330C1F8253081F82D
:10145000293081F82A3081F82B3081F82C300E7732
:1014600081F82450AD490B704B708B70CB700B71B1
:101470004B718B710B724A72CF718872CB720B7386
:101480004B738B73CB730B744B748B74CB740B7566
:101490004B758B75CB750B764B768B76CA764B7707
:1014A0008B77CB7781F8203081F8213081F822309A
:1014B00081F8233081F8252081F8263081F8273003
:1014C00081F8283081F8293081F82A3081F81CE031
:1014D00081F8247081F82B3081F82C3081F82D2090
:1014E00081F82F2081F8303081F8313081F83230A6
:1014F00081F8333081F8343081F83530C1F8373035
:1015000081F83B3081F83C3081F83D3081F83E3045
:1015100081F82E6081F8365081490B704B708B70CA
:10152000CB700B714B718B710B724A72CB720B7358
:101530004B738B73CB73CF7188720B744B748B743A
:10154000CB740B754B758B75CB750B764B768B7699
:10155000CA764B778B77CB7781F8203081F82130B2
:1015600081F8223081F8233081F8263081F8273045
:1015700081F8283081F8293081F82A3081F82B3021
:1015800081F82C3081F82D2081F82F2081F830301F
:1015900081F81CE081F8247081F825C081F82E6064
:1015A00081F8313081F8323081F8333081F83430CD
:1015B00081F83530C1F8373081F83B3081F83C3064
:1015C00081F83D3081F83E3081F8365055490B7036
:1015D0004B708B70CB700B714A718A71CA710B7230
:1015E000C1F80A308B73CB730B744B744D724E4938
:1015F0000B704B708B70CB700B718B714F71CB710B
:101600000B724A72CB720B734B738B73CB730B746D
:101610004B748B74CB740B754B758B75CB750B76CC
:101620004B768B76CA764A778B77CB7781F82030EA
:1016300081F8213081F8223081F82330C1F825303B
:1016400081F8293081F82A3088720E7781F8245089
:1016500081F82B3081F82C3034490B704B708B7033
:10166000CB700B718B71CB710B724A72CB720B7397
:101670004B738B73CB730B744B748B74CB740B7574
:101680004B758B75CB750B764B768B76CA764B7715
:101690008B774F71887281F81CE0CB7781F820300E
:1016A00081F8213081F8223081F8233081F825201B
:1016B00081F8263081F8273081F8283081F82930E8
:1016C00081F82A3081F82B3081F82C3081F82D20D8
:1016D00081F82F2081F8303081F8313081F83230B4
:1016E00081F8333081F8343081F83530C1F8373043
:1016F00081F83B3081F83C3081F83D3081F83E3054
:1017000081F8247081F82E6081F8365010E000BF17
:101710006E0A0020A41B002046160020731600202D
:10172000B21600209B130020301700205D17002008
:10173000FA490B704B708B70CB700B718B71CB7146
:101740000B724A72CB720B734B738B73CB730B742C
:101750004B748B74CB740B754B758B75CB750B768B
:101760004B768B76CA764B778B77CB7781F82030A8
:1017700081F8213081F8223081F823304F7188724E
:1017800081F81CE081F8247081F825C081F82630AA
:1017900081F8273081F8283081F8293081F82A3003
:1017A00081F82B3081F82C3081F82D2081F82F2002
:1017B00081F8303081F8313081F8323081F83330BF
:1017C00081F8343081F83530C1F8373081F83B305A
:1017D00081F83C3081F83D3081F83E3081F82E6050
:1017E00081F83650CE490B704B708B70CB700B71FB
:1017F0008B710B724A724F71CF718872CB720B73FF
:101800004B738B73CB730B744B748B74CB740B75E2
:101810004B758B75CB750B764B768B76CA764A7784
:101820008B77CB7781F8203081F8213081F8223016
:1018300081F82330C1F8253081F8293081F82A3029
:1018400081F82B3081F82C300E7781F82450B5497F
:101850000B704B70C1F80A308B70CB700B714B71F1
:101860000B728B73CB730B744B7481F806C081F8C9
:1018700007C04D72AC490B704B708B70CB700B7105
:101880004B7181F8068081F807800B724A72CB7227
:101890000B734B738B73CB730B744B748B74887299
:1018A000CB740B754B758B75CB750B764B768B7636
:1018B000CA764A778B77CB7781F8203081F8213050
:1018C00081F8223081F82330C1F8253081F82930A1
:1018D00081F82A3081F82B3081F82C300E7781F88E
:1018E000245092490B704B708B70CB700B714B7105
:1018F00081F8068081F807800B724A728872CB7279
:101900000B734B738B73CB730B744B748B74CB74E3
:101910000B754B758B75CB750B764B768B76CA76C4
:101920004B778B77CB7781F8203081F8213081F8A5
:10193000223081F8233081F8252081F8263081F883
:10194000273081F8283081F8293081F82A3081F851
:101950001CE081F8247081F82B3081F82C3081F85C
:101960002D2081F82F2081F8303081F8313081F836
:10197000323081F8333081F8343081F83530C1F8B5
:10198000373081F83B3081F83C3081F83D3081F8C8
:101990003E3081F82E6081F83650654981F8068026
:1019A00081F807806FF02F080B704B708B70CB7035
:1019B0000B714B710B724A72CB720B734B738B733F
:1019C000CB7388720B744B748B74CB740B754B7523
:1019D0008B75CB750B764B768B76CA764B778B7780
:1019E000CB7781F8203081F8213081F8223081F8DE
:1019F000233081F8263081F8273081F8283081F8AB
:101A0000293081F82A3081F82B3081F82C3081F888
:101A10002D2081F82F2081F8303081F81CE081F8EA
:101A2000247081F825C081F82E6081F8313081F86A
:101A3000323081F8333081F8343081F83530C1F8F4
:101A4000373081F83B3081F83C3081F83D3081F807
:101A50003E3081F8365037490B704B708B70CB702D
:101A60000B714B718C710B72C1F80A308B73CB7395
:101A70000B744B74CC714D722F490B704B708B7083
:101A8000CB700B718B714F71CB710B724A72CB7231
:101A90000B734B738B73CB730B744B748B74CB7452
:101AA0000B754B758B75CB750B764B768B76CA7633
:101AB0004B778B77CB7781F8203081F8213081F814
:101AC000223081F8233081F8243081F8253081F8E4
:101AD000263081F82730887281F81CE081F82830A0
:101AE00081F8293081F82B3081F82C3081F82D20B5
:101AF00081F82F3081F8303081F8313081F8323080
:101B000081F8333081F8343081F8353081F836305F
:101B100081F8373081F8383010E000BF9C17002082
:101B20007B140020DE120020F01200201D13002084
:101B30005C130020601200201A18002081F8393050
:101B400081F83A3081F83B3081F83C3081F83D3003
:101B500081F83E3081F83F2081F8412081F8423001
:101B600081F8433081F8443081F8453081F84630BF
:101B700081F84730C1F8493081F82A7081F82E0089
:101B800081F8406081F8485081F84D3081F84E303E
:101B900081F84F3081F85030FA490B704B708B70E0
:101BA000CB700B718B71CB710B724A72CB720B7352
:101BB0004B738B73CB730B744B748B74CB740B752F
:101BC0004B758B75CB750B764B768B76CA764F71D2
:101BD000887281F81CE04B778B77CB7781F82030C7
:101BE00081F8213081F8223081F8233081F82520D6
:101BF00081F8263081F8273081F8283081F82930A3
:101C000081F82A3081F82B3081F82C3081F82D3082
:101C100081F82E3081F82F3081F8303081F8313062
:101C200081F8323081F8343081F8353081F836204F
:101C300081F8383081F8393081F83A3081F83B301A
:101C400081F83C3081F8247081F8337081F83700D6
:101C500081F83D3081F83E3081F83F3081F84030E6
:101C600081F8413081F8423081F8433081F84430C6
:101C700081F8453081F8463081F8473081F84820B6
:101C800081F84A2081F84B3081F84C3081F84D3092
:101C900081F84E3081F84F3081F85030C1F8523021
:101CA00081F8563081F8573081F8583081F8593032
:101CB00081F8496081F85150B3490B704B708B70BB
:101CC000CB700B718B714F71CB710B724A72CB72EF
:101CD0000B734B738B73CB730B744B748B74CB7410
:101CE0000B754B758B75CB750B764B768B76CA76F1
:101CF0004B778B77CB7781F8203081F8213081F8D2
:101D0000223081F8233081F8263081F8273088721C
:101D100081F81CE081F8247081F825C081F8283012
:101D200081F8293081F82A3081F82B3081F82C3065
:101D300081F82D3081F82E3081F82F3081F8303045
:101D400081F8313081F8323081F8343081F8353023
:101D500081F8362081F8383081F8393081F83A300E
:101D600081F83B3081F83C3081F83D3081F83E30DD
:101D700081F83F3081F8403081F8413081F84230BD
:101D800081F8433081F8443081F8453081F846309D
:101D900081F8473081F8482081F8337081F83700A6
:101DA00081F8496081F84A2081F84B3081F84C3045
:101DB00081F84D3081F84E3081F84F3081F8503045
:101DC000C1F8523081F8563081F8573081F85830D8
:101DD00081F8593081F851506C490B7081F80180BD
:101DE000CB7081F802C00B714B71CB710B72C1F8D3
:101DF0000A308B73CB730B744B748C714D726449C6
:101E000081F801804FF007080B70CB7081F802C099
:101E10000B71C1F80A304B718B71CB710B728B73E4
:101E2000CB730B744B744D725A490B704B708B70A3
:101E3000CB700B714B71CB710B724A72CB720B73FF
:101E40004B738B73CB730B744B748B74CB740B759C
:101E50004B758C7188728B75CB750B764B768B7648
:101E6000CA764A778B77CB7781F8203081F821309A
:101E700081F8223081F82330C1F8253081F82930EB
:101E800081F82A3081F82B3081F82C300E7781F8D8
:101E9000245041490B704B708B70CB700B714B71A0
:101EA000CB710B724A72CB720B738C7188724B734D
:101EB0008B73CB730B744B748B74CB740B754B752A
:101EC0008B75CB750B764B768B76CA764B778B778B
:101ED000CB7781F8203081F8213081F8223081F8E9
:101EE000233081F8252081F8263081F8273081F8C9
:101EF000283081F8293081F82A3081F82B3081F898
:101F00002C3081F82D2081F81CE081F8247081F8B4
:101F10002E6081F82F2081F8303081F8313081F83F
:101F2000323081F8333081F8343081F83530C1F8FF
:101F3000373081F83B3081F83C3081F83D3081F812
:101F40003E3081F8365015490B704B708B70CB705A
:101F50000B714B71CB710B724A72CB720B734B735B
:101F60008B73CB730B744B748B748C718872CB74C2
:101F70000B754B758B75CB750B764B768B76CA765E
:101F80004B770DE06B180020C51800202F0F0020A4
:101F90005D100020840E0020B10E0020F00E002005
:101FA0008B77CB7781F8203081F8213081F822308F
:101FB00081F8233081F8263081F8273081F82830E5
:101FC00081F8293081F82A3081F82B3081F82C30C3
:101FD00081F82D2081F82F2081F8303081F83130C0
:101FE00081F8323081F8333081F81CE081F82470B8
:101FF00081F825C081F82E6081F8343081F83530C1
:10200000C1F8373081F83B3081F83C3081F83D3001
:1020100081F83E3081F83650FA490B704B708B7066
:10202000CB700B718B710B724A72CB720B734B734B
:102030008B73CB730B744B748B74CB740B754B75A8
:102040008B75CB750B764C71CC7188724B768B7619
:10205000CA764A778B77CB7781F8203081F82130A8
:1020600081F8223081F82330C1F8253081F82930F9
:1020700081F82A3081F82B3081F82C300E7781F8E6
:102080002450E1490B704B708B70CB700B718B71CE
:102090000B724A72CB720B734B738B73CB734C7195
:1020A000CC7188720B744B748B74CB740B754B753D
:1020B0008B75CB750B764B768B76CA764B778B7799
:1020C000CB7781F8203081F8213081F8223081F8F7
:1020D000233081F8252081F8263081F8273081F8D7
:1020E000283081F8293081F82A3081F82B3081F8A6
:1020F0002C3081F82D2081F82F2081F8303081F8A4
:102100001CE081F8247081F82E6081F8313081F86C
:10211000323081F8333081F8343081F83530C1F80D
:10212000373081F83B3081F83C3081F83D3081F820
:102130003E3081F83650B5490B704B708B70CB70C8
:102140000B718B710B724A72CB720B734B738B7367
:10215000CB730B744B748B74CB740B754B754C71C8
:10216000CC7188728B75CB750B764B768B76CA7675
:102170004B778B77CB7781F8203081F8213081F84D
:10218000223081F8233081F8263081F8273081F819
:10219000283081F8293081F82A3081F82B3081F8F5
:1021A0002C3081F82D2081F82F2081F8303081F8F3
:1021B000313081F8323081F8333081F8343081F8B1
:1021C0003530C1F8373081F81CE081F8247081F88F
:1021D00025C081F82E6081F8365081F83B3081F8B7
:1021E0003C3081F83D3081F83E3089490B704B70AE
:1021F0008B70CB700B714B710B724A72CB720B737D
:102200004B738B73CB730B744B748B74CB740B75D8
:102210004B758B75CB750B764B768B76CA768C713E
:10222000CC7188720E774A778B77CB7781F8203024
:1022300081F8213081F8223081F82330C1F825302F
:1022400081F8293081F82A3081F82B3081F82C3040
:1022500081F824506F490B704B708B70CB700B71F1
:102260004B710B724A72CB720B734B738B73CB73C4
:102270000B744B748B748C71CC718872CB740B752E
:102280004B758B75CB750B764B768B76CA764B7709
:102290008B77CB7781F8203081F8213081F822309C
:1022A00081F8233081F8252081F8263081F8273005
:1022B00081F8283081F8293081F82A3081F82B30D4
:1022C00081F82C3081F82D2081F82F2081F83030D2
:1022D00081F8313081F8323081F8333081F81CE0F8
:1022E00081F8247081F82E6081F8343081F835301F
:1022F000C1F8373081F83B3081F83C3081F83D300F
:1023000081F83E3081F8365043490B704B708B702A
:10231000CB700B714B710B724A72CB720B734B7398
:102320008B73CB730B744B748B74CB740B754B75B5
:102330008B75CB750B768C71CC7188724B768B76E6
:10234000CA764B778B77CB7781F8203081F82130B4
:1023500081F8223081F8233081F8263081F8273047
:1023600081F8283081F8293081F82A3081F82B3023
:1023700081F82C3081F82D2081F82F2081F8303021
:1023800081F8313081F8323081F8333081F83430DF
:1023900081F83530C1F8373081F83B3081F83C3076
:1023A00081F81CE081F8247081F825C081F82E6046
:1023B00081F8365081F83D3081F83E3017490B7076
:1023C0004B708B70CB700B71CB710B724A72CB72EE
:1023D0000B734B738B73CB730B744B748B74CB7409
:1023E0000B754B758B75CB750B764B768B76CA76EA
:1023F0004A778B774C718C7188720E77CB7781F826
:1024000020300DE0440C0020710C0020B00C0020A6
:10241000D90D0020060E0020450E00202E0D0020B4
:1024200081F8213081F8223081F82330C1F825303D
:1024300081F8293081F82A3081F82B3081F82C304E
:1024400081F82450FA490B704B708B70CB700B7174
:10245000CB710B724A72CB720B734B738B73CB7352
:102460000B744B748B74CB740B754B754C718C71F6
:1024700088728B75CB750B764B768B76CA764B77DD
:102480008B77CB7781F8203081F8213081F82230AA
:1024900081F8233081F8252081F8263081F8273013
:1024A00081F8283081F8293081F82A3081F82B30E2
:1024B00081F82C3081F82D2081F82F2081F83030E0
:1024C00081F8313081F8323081F8333081F834309E
:1024D00081F83530C1F8373081F81CE081F824707C
:1024E00081F82E6081F8365081F83B3081F83C301D
:1024F00081F83D3081F83E30CE490B704B708B70C7
:10250000CB700B71CB710B724A72CB720B734B7326
:102510008B73CB730B744B748B74CB740B754B75C3
:102520008B75CB750B764B768B76CA764C718C712E
:10253000887281F81CE04B778B77CB7781F820305D
:1025400081F8213081F8223081F8233081F826305B
:1025500081F8273081F8283081F8293081F82A3035
:1025600081F82B3081F82C3081F82D2081F82F2034
:1025700081F8303081F8313081F8323081F83330F1
:1025800081F8343081F83530C1F8373081F83B308C
:1025900081F83C3081F83D3081F83E3081F824707C
:1025A00081F825C081F82E6081F83650A2490B7061
:1025B0004B708B70CB700B718B71CB710B724A723D
:1025C000CB720B734B738B73CB730B744B748B7419
:1025D000CB740B754B758B75CB750B764B768B76F9
:1025E000CA764B778B77CB7781F8203081F8213012
:1025F0004C71887281F81CE081F8223081F8233018
:1026000081F8263081F8273081F8283081F8293088
:1026100081F82A3081F82B3081F82C3081F82D2078
:1026200081F82F8081F8303081F8313081F83230F4
:1026300081F8333081F8343081F83530C1F83730E3
:1026400081F83B3081F83C3081F83D3081F83E30F4
:1026500081F8247081F825C081F82E9081F83650D9
:1026600076490B704B708B70CB700B714C718C7109
:10267000CC710B724A72CB720B734B738B73CB732F
:102680000B744B748B74CB740B754B758B75CB754E
:102690000B764B768B76CA764B778B77CB7781F838
:1026A000203081F8213081F8223081F8233081F800
:1026B000263081F82730887281F81CE081F8247078
:1026C00081F825C081F8283081F8293081F82A3036
:1026D00081F82B3081F82C3081F82D2081F82F8063
:1026E00081F8303081F8313081F8323081F8333080
:1026F00081F8343081F83530C1F8373081F83B301B
:1027000081F83C3081F83D3081F83E3081F82E90E0
:1027100081F836504A490B704B708B70CB700B713F
:102720004B718B710B724A720B73CC7181F80AA0DA
:1027300081F80BC04B738B73CB730B744B748B741E
:10274000CB740B754B758B75CB750B764B768B7687
:10275000CA7681F81D808B77CB7781F8203081F89D
:10276000213081F8223081F82330C1F8253081F8FA
:10277000293081F82A3081F82B3081F82C3081F80B
:102780001C9081F824502F490B704B708B70CB70CC
:102790000B718B71CB710B724A720B734B738B7312
:1027A000CB730B744B748B74CB740B754B758B752F
:1027B000CB750B764B768B76CA7681F81D808B773E
:1027C000CB7781F8203081F8213081F8223081F8F0
:1027D0002330C1F825304C7181F80AA081F80BC074
:1027E00081F81C9081F8245081F8293081F82A3032
:1027F00081F82B3081F82C3013490B704B708B70A3
:10280000CB700B718B710B724A720B734B738B73A2
:10281000CB730B744B748B74CB740B754B758B75BE
:10282000CB750B764B768B76CA764C71CC710DE0FE
:102830005B0D00209A0D00202A090020EF0C0020DB
:10284000A8140020191600204E14002081F80AA0B8
:1028500081F80BC081F81C9081F81D808B77CB77B5
:1028600081F8203081F8213081F8223081F823303E
:10287000C1F8253081F8293081F82A3081F82B30D1
:1028800081F82C3081F82450FA490B704B708B7012
:10289000CB700B718B710B724A72CB720B734B73D3
:1028A0008B73CB730B744B748B744C71CC718872BB
:1028B000CB740B754B758B75CB750B764B768B7616
:1028C000CA764B778B77CB7781F8203081F821302F
:1028D00081F8223081F8233081F8252081F82630D4
:1028E00081F8273081F8283081F8293081F82A30A2
:1028F00081F82B3081F82C3081F82D2081F82F8041
:1029000081F8303081F8313081F8323081F833305D
:1029100081F81CE081F8247081F82E9081F8343021
:1029200081F83530C1F8373081F83B3081F83C30E0
:1029300081F83D3081F83E3081F83650CE490B7039
:102940004B708B70CB700B718B710B724A72CB72A8
:102950000B734B738B73CB730B744B748B74CB7483
:102960000B754B758B75CB750B764C71CC71887272
:102970004B768B76CA764B778B77CB7781F8203086
:1029800081F8213081F8223081F8233081F8243019
:1029900081F8253081F8263081F8273081F82830F9
:1029A00081F82A3081F82B3081F82C3081F82D20E5
:1029B00081F82F3081F8303081F8313081F83230B1
:1029C00081F8333081F8343081F8353081F8363091
:1029D00081F8373081F8383081F8393081F81CE0DF
:1029E00081F8294081F82E0081F83A3081F8418041
:1029F0004FF02D0881F83B3081F83C3081F83D30B4
:102A000081F83E3081F83F2081F8423081F8433030
:102A100081F8443081F8453081F8463081F84730FC
:102A2000C1F8493081F84D3081F84E3081F84F308F
:102A300081F8503081F8409081F848508F490B70F0
:102A40004B708B70CB700B714B718B710B724A7228
:102A5000CB720B7381F8078088724B738B73CB73C7
:102A60000B744B748B74CB740B754B758B75CB756A
:102A70000B764B768B76CA764A778B77CB7781F855
:102A8000203081F8213081F8223081F82330C1F8DC
:102A9000253081F8293081F82A3081F82B3081F8EF
:102AA0002C300E7781F8245075490B704B708B7069
:102AB000CB700B71CB710B724A72CB720B734B7371
:102AC0008B73CB730B744B748B74CB740B754B750E
:102AD0008B75CB750B764B768B76CA764A778B7770
:102AE000CB7781F8203081F8213081F8223081F8CD
:102AF0002330C1F8253081F8058081F8068088727E
:102B00000E7781F8245081F8293081F82A3081F835
:102B10002B3081F82C305B490B704B708B70CB7075
:102B20000B718B71CB710B724A72CB720B734B733F
:102B30008B73CB730B744B748B74CB740B754B759D
:102B40008B75CB750B764B768B76CA7681F80580C4
:102B500088720E774A778B77CB7781F8203081F8AF
:102B6000213081F8223081F82330C1F8253081F8F6
:102B7000293081F82A3081F82B3081F82C3081F807
:102B8000245041490B704B708B70CB700B714B71A3
:102B90008B710B724A72CB720B734B738B73CB734B
:102BA0000B744B748B7481F807808872CB740B752F
:102BB0004B758B75CB750B764B768B76CA764B77D0
:102BC0008B77CB7781F8203081F8213081F8223063
:102BD00081F8233081F8252081F8263081F82730CC
:102BE00081F8283081F8293081F82A3081F82B309B
:102BF00081F82C3081F82D2081F82F2081F8303099
:102C000081F8313081F8323081F8333081F81CE0BE
:102C100081F8247081F82E6081F8343081F83530E5
:102C2000C1F8373081F83B3081F83C3081F83D30D5
:102C300081F83E3081F8365014490B704B708B7020
:102C4000CB700B71CB710B724A72CB720B734B73DF
:102C50008B73CB730B744B748B74CB740B754B757C
:102C60008B75CB750B7681F8058081F806808872AC
:102C70004B760DE09F120020FD1300207212002001
:102C8000D013002030100020F1160020DB170020A8
:102C90008B76CA764B778B77CB7781F8203081F8AB
:102CA000213081F8223081F8233081F8252081F805
:102CB000263081F8273081F8283081F8293081F8D2
:102CC0002A3081F82B3081F82C3081F82D2081F8C2
:102CD0002F2081F8303081F8313081F8323081F89E
:102CE000333081F8343081F83530C1F8373081F82D
:102CF0003B3081F83C3081F81CE081F8247081F889
:102D00002E6081F8365081F83D3081F83E30FB4925
:102D10000B704B708B70CB700B718B71CB710B7216
:102D20004A72CB720B734B738B73CB730B744B74F4
:102D30008B74CB740B754B758B75CB750B764B7693
:102D40008B76CA764B778B7781F80580887281F80D
:102D50001CE0CB7781F8203081F8213081F82230D7
:102D600081F8233081F8252081F8263081F827303A
:102D700081F8283081F8293081F82A3081F82B3009
:102D800081F82C3081F82D2081F82F2081F8303007
:102D900081F8313081F8323081F8333081F83430C5
:102DA00081F83530C1F8373081F83B3081F83C305C
:102DB00081F83D3081F83E3081F8247081F82E6032
:102DC00081F83650CE490B704B708B70CB700B7105
:102DD0008B71CB710B724A72CB720B734B738B730B
:102DE000CB730B744B748B74CB740B754B758B75E9
:102DF000CB750B764B768B76CA764B778B77CB770A
:102E000081F8203081F8213081F8223081F8233098
:102E10004C718872087781F8247081F8255081F808
:102E2000263081F8273081F8283081F8293081F860
:102E30002A3081F82B3081F82C3081F82D3081F840
:102E40002E3081F82F3081F8303081F8313081F820
:102E5000323081F8333081F8343081F8353081F800
:102E6000362081F8382081F8393081F83A3081F8FD
:102E70003B3081F83C3081F83D3081F83E300B64C6
:102E800081F8443081F8453081F8463081F8473088
:102E900081F8376081F83F509A490B704B708B7006
:102EA000CB700B718B71CB710B724A72CB720B733F
:102EB0004B738B73CB730B744B748B74CB740B751C
:102EC0004B758B75CB750B764B768B76CA764B77BD
:102ED0008B77CB7781F8203081F821304C71887264
:102EE000087781F8223081F8233081F8263081F884
:102EF000273081F8283081F8293081F82A3081F88C
:102F00002B3081F82C3081F82D3081F82E3081F86B
:102F10002F3081F8303081F8313081F8323081F84B
:102F2000333081F8343081F8353081F8362081F83B
:102F3000382081F8393081F83A3081F83B3081F817
:102F40003C3081F83D3081F83E300B6481F84430EC
:102F500081F8453081F8247081F825C081F8376008
:102F600081F83F5081F8463081F8473066490B7050
:102F70004B708B70CB700B718B71CB710B724A7273
:102F8000CB720B734B738B73CB730B744B748B744F
:102F9000CB740B754B758B75CB750B764B768B762F
:102FA000CA764B778B774C7188720877CB7781F82C
:102FB000203081F8213081F8223081F8233081F8E7
:102FC000252081F8263081F8273081F8283081F8D3
:102FD000293081F82A3081F82B3081F82C3081F8A3
:102FE0002D3081F82E3081F82F3081F8303081F883
:102FF000313081F8323081F8333081F8343081F863
:10300000353081F8362081F8382081F8393081F860
:103010003A3081F83B3081F83C3081F83D3081F81E
:103020003E300B6481F8247081F8376081F83F509E
:1030300081F8443081F8453081F8463081F84730D6
:1030400032490B704B708B70CB700B718B71CB71E5
:103050000B724A72CB720B734B738B73CB730B7403
:103060004B748B74CB740B754B758B75CB750B7662
:103070004B768B76CA764C71887208774B778B7754
:10308000CB7781F8203081F8213081F8223081F827
:10309000233081F8243081F8253081F8263081F8FA
:1030A000273081F8283081F8293081F82B3081F8D9
:1030B0002C3081F82D2081F82F3081F8303081F8C4
:1030C000313081F8323081F8333081F8343081F892
:1030D000353081F8363081F8373081F8383081F872
:1030E000393081F83A3081F83B3081F83C3081F852
:1030F0002A4081F82E0081F83D3009E0DA150020E1
:10310000220B0020DA0A002069090020A01C002000
:1031100081F83E3081F83F2081F8412081F842302B
:1031200081F8433081F8443081F8453081F84630E9
:1031300081F84730C1F8493081F84D3081F84E3080
:1031400081F84F3081F8503081F8406081F8485064
:10315000D9490B704B708B70CB700B714B71CB716D
:103160000B724A72CB720B734B738B73CB738C7174
:1031700088720B744B748B74CB740B754B758B7599
:10318000CB750B764B768B76CA764B778B77CB7776
:1031900081F8203081F8213081F8223081F8233005
:1031A00081F8252081F8263081F8273081F82830F1
:1031B00081F8293081F82A3081F82B3081F82C30C1
:1031C00081F82D3081F82E3081F82F3081F83030A1
:1031D000087781F8247081F8313081F8323081F835
:1031E000333081F8343081F8353081F8362081F879
:1031F000382081F8393081F83A3081F83B3081F855
:103200003C3081F83D3081F83E300B6481F8443029
:1032100081F8453081F8463081F8473081F83760D1
:1032200081F83F50A5490B704B708B70CB700B71C0
:103230004B71CB710B724A72CB720B738C718872AB
:103240004B738B73CB730B744B748B74CB740B7588
:103250004B758B75CB750B764B768B76CA764B7729
:103260008B77CB7781F8203081F8213081F82230BC
:1032700081F8233081F8263081F8273081F8283012
:1032800081F8293081F82A3081F82B3081F82C30F0
:1032900081F82D30087781F8247081F825C081F8F5
:1032A0002E3081F82F3081F8303081F8313081F8BC
:1032B000323081F8333081F8343081F8353081F89C
:1032C000362081F8382081F8393081F83A3081F899
:1032D0003B3081F83C3081F83D3081F83E300B6462
:1032E00081F8443081F8453081F8463081F8473024
:1032F00081F8376081F83F5071490B704B708B70CB
:10330000CB700B714B71CB710B724A728C718872DE
:10331000CB720B734B738B73CB730B744B748B74BB
:10332000CB740B754B758B75CB750B764B768B769B
:10333000CA764B778B77CB7781F8203081F82130B4
:1033400081F8223081F8233081F8263081F8273047
:1033500081F8283081F8293081F82A30087781F8FF
:10336000247081F8255081F82B3081F82C3081F8B9
:103370002D3081F82E3081F82F3081F8303081F8EF
:10338000313081F8323081F8333081F8343081F8CF
:10339000353081F8362081F8382081F8393081F8CD
:1033A0003A3081F83B3081F83C3081F83D3081F88B
:1033B0003E300B6481F8443081F8453081F8463066
:1033C00081F8473081F8376081F83F503D490B70F4
:1033D0004B708B70CB700B714B718C71CB710B720E
:1033E0004A72CB720B734B738B73CB730B744B742E
:1033F0008B74CB740B754B758B75CB750B764B76CD
:103400008B76CA764B778B77CB7781F8203081F833
:10341000213081F8223081F8233081F8263081F87C
:1034200027308872087781F8247081F8257081F838
:10343000283081F8293081F82A3081F82B3081F842
:103440002C3081F82D3081F82E3081F82F3081F822
:10345000303081F8313081F8323081F8333081F802
:10346000343081F8353081F8362081F8382081F801
:10347000393081F83A3081F83B3081F83C3081F8BE
:103480003D3081F83E300B6481F8443081F845309E
:1034900081F8463081F8473081F8376081F83F5035
:1034A00009220021084B013AC3E9001103F1080386
:1034B000F9D1BDE8F08700BFB1090020F90900206B
:1034C0006A0B0020B20B0020FC0B00200000000063
:1034D000034BD968DA8A0123103293408B6170471D
:1034E0006008002000000000000000000000000054
:1034F000064B5A8A996801239340054A0869184087
:1035000002D0013AFAD10120704700BF60080020C4
:10351000B882010000000000000000000000000070
:10352000034BDA68D98A01238B409361704700BF4F
:103530006008002000000000000000000000000003
:10354000034B5B6818739A68D207FCD5187B7047E9
:1035500060080020000000000000000000000000E3
:1035600070B50D460646FFF7B3FFFFF7C1FFC4B2C3
:1035700024B1FFF7D5FF4FF0010070BD46F0800089
:10358000FFF7DEFF064B00F0700083F820002046B6
:10359000FFF7D6FF2870FFF7C3FF2046EDE700BF17
:1035A0006008002000000000000000000000000093
:1035B00038B5FFF78DFF0546FFF79AFFC4B224B177
:1035C000FFF7AEFF4FF0010038BD2846FFF7B8FF08
:1035D000054D85F8200000F07000FFF7A1FF85F889
:1035E00020002046F0E700BF600800200000000037
:1035F00010B50D4C3620FFF7DBFFC0B210B14FF015
:10360000010010BD94F82030002BF3D13320FFF7D8
:10361000CFFFC0B20028F2D13D20FFF7C9FF94F8D8
:1036200020000028F8D1ECE760080020000000002E
:1036300070B50D460646FFF74BFFFFF759FFC4B2C2
:1036400024B1FFF76DFF4FF0010070BD3046FFF76A
:1036500077FF2846FFF774FFFFF762FF2046F4E785
:10366000F8B5044616461D46FDF79AF80323276869
:1036700048008340DA4327EA0303236002232768D4
:1036800083403B43236001238B40002E2FD166688B
:1036900026EA03036360E36885401340E360E36860
:1036A000072945EA0305E560A36802EA03024FF033
:1036B0000203A260A26803FA00F343EA02038ABF8E
:1036C000A1F108028A0092000729A3608CBF04239D
:1036D00000230F211C44236A914023EA0103236243
:1036E0009DF81830216A93400B432362F8BD666849
:1036F0003343CFE70000000000000000000000009E
:10370000036813B5B3F1804F1CD1604A516A41F090
:1037100001015162116B21F001011163126B1A68F2
:10372000016942F080021A60C2690139DA624269B5
:10373000012A0CBF07220622032968D8DFE801F01E
:103740005F899199524A934209D102F50D32516A2B
:1037500041F002015162116B21F00201DDE74D4A97
:10376000934209D102F50C32516A41F004015162D1
:10377000116B21F00401D0E7474A934209D102F5C9
:103780000A32516A41F010015162116B21F01001AF
:10379000C3E7424A934209D102F50932516A41F026
:1037A00020015162116B21F02001B6E73C4A93429F
:1037B0000BD102F59832116A41F004011162D16A0D
:1037C00021F00401D162D26AA9E7364A934209D1B5
:1037D00002F59632116A41F008011162D16A21F0B6
:1037E0000801EFE7304A934299D102F59432116A09
:1037F00041F010011162D16A21F01001E2E79969EC
:1038000041EA02129A611A6A42F001021A621A68C7
:1038100042F001021A601E4A934232D002F58062E1
:1038200093422ED002F5803293422CD002F5806272
:10383000934228D002F5806293420CBF03230123F8
:103840000093027E018900234068FFF709FF02B060
:1038500010BD996941EA02329A611A6A42F0100277
:10386000D4E7D96941EA0212DA611A6A42F4807235
:10387000CCE7D96941EA0232DA611A6A42F480522D
:10388000C4E70223DCE70323DAE700BF0038024085
:1038900000040040000800400010004000140040F8
:1038A00000080140000C0140001001400000000031
:1038B00040F2C313064A1168013B03D101230220E1
:1038C00013737047086840690006F5D500207047FB
:1038D0002021002000000000000000000000000087
:1038E000064B1A6840F2C313013B01D10220704716
:1038F000116849694907F7D5002070472021002049
:10390000F8B516461D46FCF783FE032304460768F8
:103910004A009340D84327EA030323600223276821
:1039200093403B43236001238B40002E2BD16668DC
:1039300026EA03036360E368072903EA0003E36000
:10394000E368E360A36800EA03004FF00203A060AD
:10395000A06803FA02F343EA0003A3608ABFA1F15F
:1039600008038B009B0007298CBF042200220F2133
:103970001444226A994022EA01022262226A9D408E
:1039800015432562F8BD66683343D3E700000000A5
:10399000002238B53B4B1C681A736568042301226A
:1039A00028462189FFF7ACFF0423012228466189BC
:1039B000FFF7A6FF2268344B9A424AD103F5F2334F
:1039C000596A41F400115962196B21F4001119630D
:1039D000196B996941F400119961996921F40011F9
:1039E00099619B694FF6C070284B5968536818401D
:1039F000274B994243D9274BB1FBF3F3202B28BF28
:103A00002023184380B25060106820F001000004A9
:103A1000000C10604FF4967043434FF47A70B3FB80
:103A2000F0F3192001339BB21362E3684343B1FB07
:103A3000F3F189B2012938BF012141F44041D1613C
:103A4000136843F001031360536843F40063536049
:103A500038BD114B9A42C5D103F5F033596A41F490
:103A600080015962196B21F480011963196B9969FE
:103A700041F480019961996921F48001B0E7022342
:103A8000BFE700BF20210020005400408C08002028
:103A90007F841E0040420F000058004000000000DC
:103AA000024B1B681B685A699B69704720210020E4
:103AB000034B1B681A68136843F4807313607047E4
:103AC0002021002000000000000000000000000095
:103AD00040F2C31310B5084A1068013B02D101201F
:103AE000107310BD01684C698969E407F5D5890731
:103AF000F3D00020F5E700BF2021002000000000E7
:103B000040F2C312064B1B681968013A4B6905D095
:103B100013F4806002D19B07F7D5704701207047EE
:103B20002021002000000000000000000000000034
:103B3000034B1B681A68136843F4007313607047E3
:103B40002021002000000000000000000000000014
:103B50001B4B10B51C681B4A236893421BD11A4BA0
:103B60009A6942F400129A619A6922F400129A61E9
:103B70009A695A6A22F400125A621A6B22F40012ED
:103B80001A631B6B21896068FCF772FD6189BDE8CF
:103B90001040FCF76DBD0D4A9342F3D10A4B9A6970
:103BA00042F480029A619A6922F480029A619A69C9
:103BB0005A6A22F480025A621A6B22F48002DFE70A
:103BC00020210020005400400038024000580040EE
:103BD00008B5FFF7BDFF0122074B9988186810311F
:103BE0008A40826100BF00BF00BF00BF998818688B
:103BF000BDE80840FCF73CBDD41B002000000000DD
:103C000010B54FF08044626A0E4992B28B69DB07AF
:103C100011D48B69DB0510D48B6913F4F05F14BFEA
:103C200001200020636A9B1A9BB2B3F5E17F06D2A4
:103C30000428EBD010BD0420F4E70F20F2E70220A7
:103C4000F8E700BF003C0240000000000000000058
:103C500038B500F1006404F5002423680D468B425A
:103C600002D14FF0000038BD0D4B5A68D2070AD57B
:103C70000C4ADA600C4ADA604FF480729A615A6832
:103C800022F480725A60FFF7BBFFC3B213B92560FC
:103C9000FFF7B6FF024A536843F001035360E2E7BF
:103CA000003C0240EFCDAB89050403020000000098
:103CB000134B30B5596DE9B181421ED0013911F86D
:103CC000014F10F8012BA4F14103192B8CBF23469F
:103CD00004F12003A2F1410598BFDBB2192D9CBF6E
:103CE0002032D2B29B1A01D1002CE8D1B3FA83F072
:103CF000400930BD4FF0FF33F8E70023F6E700BF7F
:103D00000C22002000000000000000000000000065
:103D10002DE9FF41984601AB00251F460E469DF850
:103D20002810B6FBF2F4B64602FB146C2646BCF132
:103D3000090F5FFA8CF494BF30343734E4B29645FF
:103D400005F1010503F8014BEBD22E4600F15804B2
:103D5000464509D3013D2046795DFCF729FEC0B2F6
:103D600038B9002DF6D105E02046FCF721FEC0B29F
:103D700018B10D2004B0BDE8F0810136E8E700007D
:103D80002DE9F04F0B46074614464FF00A0B85B05D
:103D900000F158051E4616F8011B29B9284605B042
:103DA000BDE8F04FFCF72CBE252903D02846FCF7D0
:103DB000FFFD3AE093F801904FF0000AB9F1300F9F
:103DC00014BF4FF020099E1C16F8011BA1F130030F
:103DD000DBB2092B03D92A2904D114F8043B0BFBCD
:103DE0000A3AF1E72E2909D116F8011BA1F1300397
:103DF000092BF9D92A2901D10434F5E7632940D0E8
:103E000017D841296CD003D82529CFD03346C1E734
:103E1000532939D05829F9D153461022CDF80090B2
:103E2000384654F8041BFFF773FFC0B20028EDD0EA
:103E3000B4E7732928D01DD8642901D06929E5D1B8
:103E4000A04658F8044B002C07DA2D212846FCF731
:103E5000AFFDC0B20028A1D1644253460A222146D8
:103E60003846CDF80090FFF753FFC0B2002895D137
:103E70004446CBE77529C9D153460A22CDF80090B4
:103E8000CEE714F8041B91E72368B3B14FF00008A4
:103E900013F8082072B9AAEB080803F1FF3ABAF147
:103EA000FF3F02D01AF8011F49B9B8F1000F0DDC2D
:103EB0000434ABE708F10108EAE79846EBE7284647
:103EC000FCF776FDC0B20028E9D067E749462846EE
:103ED000FCF76EFDC0B208F1FF380028E5D05DE7C1
:103EE0004FF000082368D4F80890029363685FFAE3
:103EF00089FA0393039B434501DC0C3486E7B8F150
:103F0000000F10D1029B102213F8081030233846FE
:103F100000930223FFF7FCFEC0B200287FF43EAFFF
:103F200008F10108E6E7B9F1000FEBD05146284649
:103F3000FCF73EFDC0B20028E4D02FE700000000EF
:103F400038B51546FCF764FB032349000268C9B283
:103F50008B4022EA03020260C2688D4022EA03031A
:103F6000C360C3681D43C56038BD00000000000089
:103F7000F8B51546FCF74CFB032304464A000068DD
:103F8000D2B2934020EA030020600120276800FAA3
:103F900002F63E4326606668884026EA00006060BC
:103FA00060688D4005436560E16821EA0301E160D6
:103FB000E168E160A16821EA0303A3600223A1682C
:103FC00093400B43A360F8BD000000000000000018
:103FD000827981880068FFF7CBBF000000000000F5
:103FE00010B5084C2046FFF7F3FF0123A188226893
:103FF0008B40936100BF00BF00BF00BFBDE8104011
:10400000FFF7C6BCD41B0020000000000000000029
:1040100070B5164604460D46FCF7EAFA33462946C3
:104020002046BDE87040014AFCF7F2B921080008BB
:1040300070B505460C4642F2107640F2E73000219A
:104040004FF47A72E4FB06010023FCF719F92A46C3
:10405000014605F13C00BDE87040FFF7D9BF000004
:10406000436DD0F8C820D3F8051070B591420446CE
:104070000AD00268D3F80150D66845B9B047636DDD
:10408000D3F80520C4F8C820093363652CE090F804
:10409000C82059798A4229D2013284F8C82094F87C
:1040A000C92099798A4224D2013284F8C92094F82F
:1040B000CA20D9798A421FD2013284F8CA2094F8E2
:1040C000CB201B7A9A421AD2013284F8CB202046A8
:1040D000D4F8C810B047606DD4F8C820D0F80530C7
:1040E0009A420FD109306065002043E0D7D9013AE8
:1040F000D3E7DCD9013AD8E7E1D9013ADDE7E6D9DF
:10410000013AE2E794F8C8504379D0F80120AB4275
:104110001CBF0435B2FBF5F5817994F8C9300CBFAA
:104120000025013599421BBF191DB2FBF1F1002199
:104130000131A94294F8CA3038BF2946C579007ABE
:104140009D421BBF0433B2FBF3F3002301339942BA
:1041500038BF194694F8CB3098421BBF0433B2FBEA
:10416000F3F2002201329142204638BF1146FFF798
:104170005FFF012070BD0000000000000000000093
:1041800008B5FCF7FDF8094B18B972B6084A5A622F
:10419000FEE70022027582681B6899689142FBD293
:1041A0005A68036042601060586008BD341F0020E8
:1041B000808C0008000000000000000000000000EB
:1041C00008B5202383F31188FCF77AF8037D0021DA
:1041D000052B0BD8DFE803F0030A0A081B15FCF7D0
:1041E00087F881F3118808BD836919604FF0FF33A8
:1041F0008361FFF7C5FFFCF77BF8002383F3118889
:10420000F1E78169FCF7BCF88B6801338B60D0E97A
:10421000003213605A60E9E700000000000000006F
:104220001C4910B5FCF7ACF8D1F8AC40002C02DC0E
:104230004FF0020010BDFCF7A3F8013CD1F8943018
:10424000C1F8AC40046803F10802C1F894201C6076
:104250004068586001F190039A422CBF0B46D1F898
:104260009430C1F89430FCF78BF8D1F8A0300133CA
:10427000002BC1F8A0300ADCD1F89800064A036888
:10428000C1F898305A6000238361FFF779FF4FF03F
:104290000000CFE77020002008210020000000006F
:1042A00070B5FCF76DF8836C044613B13C30FCF735
:1042B0009FF904F1300504F10806636D1A78042AA9
:1042C000FDD8DFE802F0030A2838150023682046ED
:1042D0009B6898470128F0D170BDD3F801100933CD
:1042E00063650029E9D02046BDE87040FFF7A0BE15
:1042F000A26D013204BFD3F80120A265A26D2AB9D4
:104300004FF0FF320933A2656365D6E7236D013AAA
:104310006365A265D1E7D3F80130226D03EBC303D7
:104320001A4494F8613062651BB104F15C00FFF738
:1043300077FF0121D7E794F861301BB104F15C00ED
:10434000FFF76EFF626812B9C4E91422C4E7636B19
:10435000013A53F8041B6260AB4288BF3346636383
:104360004FF0FF3321656165A365A6E700000000FB
:10437000F8B5FCF705F8C36A044613B12030FCF722
:1043800037F904F1140504F10806A36B1A78042A1E
:10439000FDD8DFE802F0030A3748240023682046EE
:1043A0009B6898470128F0D1F8BDD3F80170073316
:1043B000A363002FE9D042F2107540F2E7300021EC
:1043C0004FF47A720023E7FB0501FBF759FF224601
:1043D0000146BDE8F84002F12000FFF719BEE26B8C
:1043E000013204BFD3F80120E263E26B2AB94FF037
:1043F000FF320733E263A363C7E7636B013AA3634A
:10440000E263C2E7D3F80130626BC3EBC3031A4423
:1044100094F84530A2631BB104F14000FFF700FFA0
:1044200022460A21D5E794F845301BB104F140003B
:10443000FFF7F6FE626812B9C4E90D22B4E7A3697A
:10444000013A53F8041B6260AB4288BF3346A36154
:104450004FF0FF336163A163E36396E70000000060
:10446000F8B5FBF78DFFC36A044613B12030FCF7A3
:10447000BFF804F1140504F10806A36B1A78042AA6
:10448000FDD8DFE802F0030A354423002368204604
:104490009B6898470128F0D1F8BD5F680833A36393
:1044A000002FEAD042F2107540F2E73000214FF4BD
:1044B0007A720023E7FB0501FBF7E2FE2246014684
:1044C000BDE8F84002F12000FFF7A2BDE26B013227
:1044D00004BF5A68E263E26B2AB94FF0FF32083337
:1044E000E263A363C9E7636B013AA363E263C4E7D2
:1044F0005A68636B03EBC203A36394F845301BB1A6
:1045000004F14000FFF78CFE22460A21D8E794F818
:1045100045301BB104F14000FFF782FE626812B91A
:10452000C4E90D22B8E7A369013A53F8041B62609D
:10453000AB4288BF3346A3614FF0FF336163A16391
:10454000E3639AE7000000000000000000000000A4
:1045500007B58169024649B9037F684600918DF825
:104560000530FFF75DFE03B05DF804FB043003B0D7
:104570005DF804EBFFF74CBD0000000000000000F8
:1045800013B500220446037F68468DF8053000927B
:10459000FFF746FE637F012B05D1204602B0BDE840
:1045A0001040FFF7D5BF02B010BD000000000000B2
:1045B000826A03460AB1836A1847406A18B15A6290
:1045C0008261FFF7DDBD70470000000000000000C1
:1045D0000148FFF7EDBF00BF6008002000000000A9
:1045E00008B50146FCF70CF9006920B100230B6106
:1045F0008361FFF7C5FDBDE80840FCF709B900007D
:1046000010B50D4CFBF7CCFE2169087520680368D6
:104610005C602360012320610375EFF309830A695D
:10462000243B9A4203D972B6044B6362FEE7BDE8AD
:104630001040FBF795BD00BF341F002030810008FB
:1046400030B50D4687B0FBF7ABFE013504460C4D87
:1046500012D02B690B4A01A8FBF7DAFE2046FFF7C0
:10466000CFFFFBF78DFE049B13B101A8FBF728FFDA
:104670002B69986907B030BDFFF7C2FFF8E700BFAC
:10468000341F0020C14100080000000000000000AD
:10469000034B1B69036098610320FFF7B1BF00BFA4
:1046A000341F002000000000000000000000000097
:1046B00038B5FBF775FE0023104D826829698361C8
:1046C0008B6804469A4203D8BDE83840FFF758BDCE
:1046D0000846FBF775FE012301462C612375EFF3B5
:1046E00009830269243B9A4203D972B6044B6B6278
:1046F000FEE72046BDE83840FBF732BD341F0020FE
:1047000030810008000000000000000000000000F0
:104710000C4B13B503F144020446196D0020FCF75D
:10472000D7F860B1002201A903F03AFB019B1B7886
:104730001BB92060184602B010BD0E23FAE74FF0F7
:104740000100F8E70C22002000000000000000003B
:104750000C4B13B503F144020446196D0020FCF71D
:10476000B7F860B1002201A903F01AFB019B1B7886
:104770001BB92060184602B010BD0E23FAE74FF0B7
:104780000100F8E70C2200200000000000000000FB
:104790000FB407B5054905AA05480192FFF7F0FADD
:1047A00003B05DF804EB04B0704700BF408100081F
:1047B0000C220020000000000000000000000000AB
:1047C0000EB403B503AA52F8041B04480192FFF784
:1047D000D7FA02B05DF804EB03B070470C2200205A
:1047E00001490248FFF7ECBF508100080C2200206D
:1047F000054BD3E90A210A4303D072B6034A5A6231
:10480000FEE70122DA627047341F00206081000851
:10481000202383F31188FFF7EBBF000000000000A6
:10482000202383F31188FFF7E3BF0000000000009E
:10483000054B9A6A12B9D96A002903DC72B6034A99
:104840005A62FEE7DA627047341F00207081000868
:104850002DE9F84391468846FFF7DAFFFBF790FD14
:10486000062804460FD84FF0010E2C4D0EFA00F624
:104870002B681E420CD00020FFF7DAFF002383F3E1
:104880001188BDE8F88372B6254B264A5A62FEE7C6
:1048900033432B60244B0134DA6945F8348042F00D
:1048A000807205EBC404C4F80490DA619A6A1F4F61
:1048B00042F080729A624FEA001C9B6A07EB00107C
:1048C000B8F1000F1AD069688368194214D1902496
:1048D000C37B03F1604202F5614282F8004303F0BA
:1048E0001F025B099B0003F160430EFA02F203F51D
:1048F0006143C3F880211A600E436E6007EB0C0120
:104900004B68497B1A6857F80C4022F00F021A6076
:104910000E228A40626000221A60ADE7302000203B
:10492000341F0020A08C000800380240C08C000812
:1049300008B5FFF76DFF20B972B6074B074A5A62F8
:10494000FEE701460820FFF77BFEFFF771FF00231B
:1049500083F3118808BD00BF341F0020708C00084D
:1049600080B501271C4E1D4C00212046B3681A4D0E
:1049700004F103082A68B5F804C0D2F810E007FA79
:104980000CFC1CEA0E0FA14614F8012B1AD0012AC8
:104990001ED0042A0CBF0322022204F8012CAA68AC
:1049A0009A4217D003B1984748460021AB68444566
:1049B00005F10C05DED103B198474FF43470FFF7D1
:1049C000B7FFD0E7023A012A8CBF01220422E4E7B4
:1049D0000322E2E70131EAE7681B00208C1B00207C
:1049E000112838B504468CBF39203620FEF7E0FD8B
:1049F00042F2107540F2E73000210023E4FB05018C
:104A00004FF47A72FBF73CFCBDE83840FFF790BFEB
:104A100038B50524094D013C14F0FF0403D10123EE
:104A200002202B7338BD2B681B68986910F00200B8
:104A3000F8D00A20FFF77CFFEDE700BF202100201F
:104A400008B5FFF7F5FE002383F3118808BD0000C9
:104A50000FB407B504AB53F8040B0193FFF7E0FE66
:104A60000146019A0448FFF78BF9FFF7E9FF03B00D
:104A70005DF804EB04B070470C2200200000000039
:104A800008B5054B28201968FFF7E2F8BDE8084093
:104A900002490348FFF7DCBF0808002080810008B6
:104AA0008F810008000000000000000000000000EE
:104AB00008B5054B2C201968FFF7CAF8BDE8084077
:104AC00002490348FFF7C4BF04080020A081000882
:104AD0008F810008000000000000000000000000BE
:104AE00008B5054B30201968FFF7B2F8BDE808405B
:104AF00002490348FFF7ACBF541C0020B0810008F6
:104B00008F8100080000000000000000000000008D
:104B100008B5054B34201979FFF79AF8BDE808402D
:104B200002490348FFF794BF541C0020C0810008CD
:104B30008F8100080000000000000000000000005D
:104B400038B5FFF765FFC5B225B11348FFF780FF01
:104B5000042038BDFEF7FCFFFEF71AFF0F4B1B6861
:104B60001C68656163695B0612D4FEF799FFFEF766
:104B70009FFFFEF7ADFFC0B260B9A0232361FEF72F
:104B8000BFFFC0B2002818BF1220FEF7D1FFE0E738
:104B90002369E7E70120F8E7E081000820210020F1
:104BA0001F4B1B7A372B2AD016D8172B29D00BD89E
:104BB000082B28D00D2B28D01A491B4A032B08BFDD
:104BC00011461A48FFF744BF1D2B20D01549184A3B
:104BD000262B08BF1146F4E7C02B1AD007D8502B5C
:104BE00019D01049134A862B08BF1146E9E7C52B97
:104BF00013D00C49104ACD2B08BF1146E1E70F49ED
:104C0000DFE70F49DDE70F49DBE70F49D9E70F4938
:104C1000D7E70F49D5E70F49D3E70F49D1E700BFE1
:104C2000281F00203A820008F08100084082000816
:104C30001382000820820008268200081A820008D9
:104C400005820008F7810008FE8100080C82000838
:104C5000338200082E8200082C8200080000000029
:104C60002DE9F74388468DF80700FFF7D1FEC0B263
:104C7000002840F08C80474C2668356868616B6975
:104C80005B060CD4FEF70CFFFEF712FFFEF720FFC9
:104C9000C0B230B10125284603B0BDE8F0832B69CE
:104CA000EDE7A0232B61FEF72BFFC0B210B1FEF79A
:104CB0003FFFEFE7FEF7F4FEFEF7FAFDC0B2002873
:104CC000E8D163680DF107025B680E27DA60B2690C
:104CD00031481A6001225A60FFF7A2FD63685A68E2
:104CE000136843F001031360FFF7D2FCFFF7A8FE3F
:104CF000636859680A6822F00F020A601A685B7BD1
:104D000007FA03F35360FEF7D3FDC0B20028C1D108
:104D1000FEF7CEFEFEF7DCFEC0B20028BAD1A1231A
:104D2000D4F80090D9F800603361FEF7E9FEC5B20F
:104D3000002DBCD13368184843F480633360FEF71C
:104D4000AFFEA368D9F81C205B68C3F80C801A601A
:104D500004225A60736843F480537360FFF760FD68
:104D6000A3685A68136843F001031360FFF790FCCF
:104D7000FFF766FEA36859680A6822F00F020A600E
:104D80001A685B7B9F405760FEF7D2FE83E70425DD
:104D900081E700BF2021002030210020000000001A
:104DA0002DE9F347044642F2107540F2E730002146
:104DB0004FF47A72E4FB05010023FBF761FA4FF030
:104DC000804306465F6A3446FEF712FC4FF40069E2
:104DD000494DDFF82881BFB23A20C5F81890FEF798
:104DE000E7FB3420FFF71CFDFEF7E2FBD8F81020AC
:104DF00084B9FFF725FE3620FEF7DAFB4FF000639B
:104E0000AB614FF080435C6AE41BA4B2A64270D948
:104E1000341BE1E73A4B214643F8242F93610320EA
:104E2000FFF70EFCFFF70CFE0130E4D078200DF107
:104E30000701FEF795FBC0B20028DFD19DF90730CE
:104E4000002BDBDAFEF744FBFEF752FBC0B210B1D9
:104E5000FEF766FBD2E7DFF8ACA0FF20FEF770FBA1
:104E6000082154460020FEF76BFB013911F0FF01C9
:104E70008DF807000AF8010BF4D10846FEF760FB35
:104E800082460846FEF75CFBFEF74AFB0FFA8AF300
:104E90007F2BC4BFAAF5807A0FFA8AF303EBD37392
:104EA0005B104A3BE3714FF00063AB61164BD4F8E3
:104EB00000C01868034653F8042BD10001F1040E1A
:104EC00086449E450AD84318C3F804C06168222A64
:104ED00098BF0132996098BF026092E7D3F800A0B2
:104EE000E24504D1C3F800C062685A6089E708331C
:104EF000E7E702B0BDE8F08700040240341F00205D
:104F0000600800208F1B0020000800200000000027
:104F100083B59B4E9B4F9C4D6A68A2F10903012B00
:104F200001D8002034E0994C2B68236000232371C2
:104F30006371A371E3710F2AF3D801A151F822F034
:104F4000814F00088B4F0008055000080F500008E3
:104F50001350000849500008515000085D500008E7
:104F600063500008234F0008234F0008234F000818
:104F70006B5000087D5000088D50000899500008C3
:104F8000A37943F01003A3713FE001206371207106
:104F90006B680F2B00F2AE807D4A12F80380002868
:104FA00040F0AD80B8F1000F79D13920FEF700FB59
:104FB0004FF40760FFF7BCFC764B297A1A788A42D7
:104FC00003D03E201970FEF733FB734A1368013398
:104FD000032B13609FD900201060FFF721FC0B23E7
:104FE0006E4A6F4914688DF805306E4B00948C4200
:104FF00018BF0B46186068461360FFF711F9FFF7FA
:105000001FFD88E70222227163710120C0E703229D
:10501000F9E7DFF8948198F80300002881D0FFF7C2
:10502000FFFBB8F900303BB1A380A37943F0010343
:10503000A371FFF705FDABE798F80230002BF8D01D
:10504000A37943F00203F3E74FF0FF332371DBE76B
:105050006FF0010323714FF0FF33D5E76FF00203C8
:10506000F8E7A37943F004038DE7FBF779FB0338F6
:105070000128CAD8A37943F0080384E74FF0FF332F
:1050800023716371A37943F002037CE76FF001039E
:1050900023714FF0FF33F4E76FF00203F8E7D820F5
:1050A000FFF77EFE3920FEF783FA41F6501081E7C4
:1050B000FFF796FC3EE07F20FEF742FA0821DFF87A
:1050C000CCA01AF8010B0139FEF73AFA11F0FF01F2
:1050D000F7D143E0A4EB840404F1D500B8F1000F4C
:1050E00005D0B9F1000F02D1FFF75AFE42E0FFF7F9
:1050F00077FC3FE000283FF458AF4FF000084FF036
:10510000000943F23904294B1A6807FB02441C606A
:10511000482324F00044B4FBF3F203FB12444CB1E7
:1051200004EB4400B8F1000FC2D0B9F1000FBFD1B9
:10513000FFF736FE4FF48063B361FEF759FA35206E
:10514000FEF736FAFFF76CFB0022194B9A62FEF766
:10515000BFF9FEF7CDF9C0B20028ACD01548FEF774
:10516000DFF9FFF795FAFFF76BFC4FF08063472CF0
:10517000B361AFD109F10109B9F1040FC1D11BE746
:10518000000402406D4EC641281F0020971B0020DE
:10519000F08800085C1C00201C1100200008002082
:1051A00020190020441A0020F21C0020981E002024
:1051B00060080020840800200000000000000000BB
:1051C00010B504461148FFF72BFB436B6BB94FF04A
:1051D000FF324360C369C0E90D44C2638361FFF7D6
:1051E0003FF9BDE81040FFF72BBC4268032AF8D80E
:1051F000C36900F1080143F8044B00F11404A34211
:1052000088BF0B460132C3614260EAE7CC2300202D
:1052100010B5FFF705FB4FF0FF3304460648C363A4
:1052200000234360C369C0E90D448361FFF718F9A7
:10523000BDE81040FFF704BCCC23002000000000B4
:1052400008B50A4B1A68104420EAE070B0F5615FB7
:10525000A8BF4FF46150824207D01860FFF710FCDE
:10526000BDE808400248FFF7D3BF08BD080800208A
:10527000708B00080000000000000000000000002B
:1052800045F2604108B5094B1A68101A20EAE0702F
:105290008842A8BF0846824207D01860FFF708FC82
:1052A000BDE808400248FFF7B3BF08BD040800206E
:1052B000708B0008000000000000000000000000EB
:1052C00010B5FFF7ADFA4FF0FF3304460648C3634D
:1052D00000234360C369C0E90D448361FFF748F8C8
:1052E000BDE81040FFF7ACBBC01E0020000000006E
:1052F00010B504461148FFF793FA036D73B96CB10A
:105300004FF0FF324360836BC0E91444826543630E
:10531000FEF7C6FFBDE81040FFF792BB42680A2ABD
:10532000F8D8836B064943F8044BA1F128048B425B
:1053300088BF2346013283634260EBE734210020BB
:1053400064210020000000000000000000000000B8
:105350000E4A137923B91368002BD4BF002301230D
:1053600042F27E510A4A12688A4206DD09480A4A18
:10537000002B08BF1046FFF7BBBFB2F5965FA7BF73
:105380000648074A0748084AF2E700BF541C0020B5
:1053900008080020F116002072120020DB17002000
:1053A000D0130020DA15002030100020000000008B
:1053B00038B500234FF461511C4A13601C4A116038
:1053C00045F260411B4A116019461B4A1360137174
:1053D0001A4A138053801A4AC2E90033C2E90233E1
:1053E000C2E904339361174A42F833100133092BA1
:1053F000FAD1154B0C2059680023144C00FB03F222
:105400001559A94209D1144461681148FFF720FBDE
:10541000A068BDE83840FFF76BBF01330F2BEDD11B
:105420000C48BDE83840FFF713BB00BFA01B0020AD
:105430000808002004080020541C0020F21C002052
:10544000601C0020FC0B0020281F00202089000881
:10545000508200085D82000800000000000000008B
:10546000F8B5374D00262C46A279A188013654F8AC
:10547000080BFEF765FD082EF6D10024012726460D
:105480002868A988036907FA01F21A4204BF07FADB
:1054900006F3234306F1010608BFDCB2FBF7E8F888
:1054A000082E05F10805EBD1264D2B68A3421CD030
:1054B00021462548FFF7CCFA04F00F030B2B8CBFD5
:1054C000C023224A224898BFD35C224A2C60137220
:1054D0000023210950F82340A14208D003332D2B8B
:1054E000F8D11D48FFF7B4FA25E01B2026E05160F3
:1054F000FFF75EFF194B1A499A6A45F2B960B2F597
:10550000615F88BF4FF461520A6045F26041DA6A18
:1055100002F25924844288BF0A4612490A601A6B73
:105520001149B2F5E15F88BF00220A605B6B012B75
:1055300000D000230B71FFF733FB0920F8BD00BF3B
:10554000B40800200C08002070820008608B00085E
:1055500020890008281F00207E820008000008081B
:105560000808002004080020541C0020000000004F
:1055700010B50B4C6060FFF71BFFFFF781FAFFF7D8
:1055800097FAFFF7ADFAFFF7C3FA61682420FEF738
:105590005FFBBDE8104003490348FFF759BA00BF5D
:1055A000281F0020A08200088F8100080000000052
:1055B00010B5194C014620723620FEF749FB1749F9
:1055C0001748FFF745FAFFF7EBFA237A862B1DD031
:1055D0000BD8372B18D004D81D2B0ED0262B11D06A
:1055E00010BD502BFCD10F4808E0C52B12D0CD2B9D
:1055F0000ED0C02BF4D10C4800E00C48BDE81040A0
:10560000FFF776BE0A48F9E70A48F7E70A48F5E7E0
:105610000A48F3E70A48F1E7281F0020B082000893
:105620008F810008A01C0020B20B0020220B00205C
:10563000DA0A002069090020B1090020F9090020D8
:105640006A0B0020000000000000000000000000C5
:1056500008B50548FFF7FCF90448FFF749FEBDE827
:1056600008400348FFF72CBEC08200082A0900202A
:10567000F08A0008000000000000000000000000A8
:1056800010B504468548FFF7E3F9631E1A2B00F2B4
:10569000F980DFE813F01B002A00420053006A0083
:1056A0007F008A00910096009B00A000A500AA0040
:1056B000AF00B400B900BE00C300C800CD00D400E4
:1056C000D900DE00E300E800ED00F2007448FFF7C7
:1056D0000FFE7448FFF7BCF9FFF76AFEFFF7D0F939
:1056E000FFF7E6F9FFF7FCF939E06F48FFF700FE36
:1056F0006E48FFF7ADF96E4B5B68092B02D00C2B9F
:1057000006D07BBB4FF49660FFF79AFD6948C1E075
:105710004FF49660FFF7B4FDF8E76748FFF7E8FD40
:105720006648FFF795F9624B5B68092B02D00C2B9A
:1057300002D0BBB96248E7E76148EBE76148FFF791
:1057400087F95B4B5A680C2A0CD85F4B1341DA0778
:1057500008D45E48FFF7CCFD01225D4B1A71FFF7BC
:10576000D7F9D3E7FFF774FFD0E75A48FFF770F98E
:105770004F4B5A680C2AF5D8534B1341DB07F1D431
:105780005548FFF7B5FD4FF46162514B1A60FFF7C2
:10579000A7F9BBE75148FFF7ABFD5148FFF758F9B0
:1057A00000224B4B1A711A609CE74E48FFF750F9E4
:1057B0000920FFF7DDFEA9E74B48FFF749F9002074
:1057C000F7E74A48FFF744F90C20F2E74848FFF7AB
:1057D0003FF90A20EDE74748FFF73AF90120E8E7EB
:1057E0004548FFF735F90220E3E74448FFF730F971
:1057F0000320DEE74248FFF72BF90520D9E74148AF
:10580000FFF726F90620D4E73F48FFF721F90720E4
:10581000CFE73E48FFF71CF90D20CAE73C48FFF7E9
:1058200017F90E20C5E73B48FFF712F90F20C0E734
:105830003948FFF70DF91D20FFF7BAFE66E7374834
:10584000FFF706F92620F7E73548FFF701F937207B
:10585000F2E73448FFF7FCF85020EDE73248FFF755
:10586000F7F88620E8E73148FFF7F2F8CD20E3E7C4
:105870002F48FFF7EDF8C520DEE72E48FFF7E8F8E0
:10588000C020D9E721462C48FFF7E2F82B48FFF764
:105890002FFD2B48BDE81040FFF712BDDB85000847
:1058A000EF0C0020D0820008A8140020D782000846
:1058B000281F0020808A000819160020DE820008B8
:1058C00050FBFFFFE6820008FEEDFFFF4E140020B4
:1058D000541C0020F28200089F120020FD130020BB
:1058E000FC820008088300081B8300082E83000840
:1058F0003E8300084D830008628300087783000818
:105900008C830008A2830008B8830008CE830008B7
:10591000E9830008048400081F840008318400081B
:1059200043840008548400086584000876840008D5
:105930008784000899840008AB8400082A090020A5
:10594000F08A0008000000000000000000000000D5
:1059500010B50D4C236820691A685460226001223A
:105960001A752361FAF72CFD0146EFF309830269EA
:10597000243B9A4203D972B6044B6362FEE7206966
:10598000BDE81040FAF7ECBB341F0020308100085E
:1059900008B5FAF705FDFAF7F3FC064B1A681B6920
:1059A00092689B689A4203D9BDE80840FFF7D0BFD0
:1059B00008BD00BF341F00200000000000000000F0
:1059C00010B5FEF72DFFFEF72BFC0446FFF7E0FFB6
:1059D000FFF736F8204610BD000000000000000070
:1059E0002DE9F34106460C4600254FF002084FF41E
:1059F0001067EBB2A34202D302B0BDE8F081F25CC3
:105A0000032A09D100220092684601978DF80130DF
:105A1000FFF7D6FF0135ECE7042AFBD1CDF8008073
:105A2000F2E700000000000000000000000000009D
:105A300008B5FEF7EDFE044B1B6998610F20BDE829
:105A40000840FEF7DDBD00BF341F0020000000004D
:105A5000EFF30983203383F30988002383F311884C
:105A6000704700000000000000000000000000007F
:105A7000704700000000000000000000000000006F
:105A8000704700000000000000000000000000005F
:105A9000704700000000000000000000000000004F
:105AA000FEE7000000000000000000000000000011
:105AB000F0B5082000261049D1E901341D460A68D6
:105AC000043AAC4210D8E21CD21ADD1E22F00302C6
:105AD000AC4238BF00221344CA689A4209D8013840
